:100000000C942D1A0C94551A0C94551A0C94551ADC
:100010000C94551A0C94551A0C94551A0C94551AA4
:100020000C94551A0C94551A0C942E280C94A02854
:100030000C94551A0C94551A0C94551A0C94551A84
:100040000C94551A0C94551A0C94551A0C94551A74
:100050000C94551A0C94551A0C94551A0C940A2C9D
:100060000C94551A0C94551A0C94551A0C94551A54
:100070000C94551A0C94551A0C94551A0C94551A44
:100080000C94551A0C94551A0C94551A0C94551A34
:100090000C94551A0C94551A0C94551A0C94551A24
:1000A0000C94551A0C94551A0C94551A00FF0A1406
:1000B0002850FF000000FF42242442003C42898D6A
:1000C00081A1423C000C10113C52423C0018087DBA
:1000D000484878001028285444FF02020070080E97
:1000E0003040300E0022223E02023E0000201E1050
:1000F00014100000FF90909090908000FF919294D7
:1001000098908000FF919191F191919FFF91919131
:100110009191919FFF818181818181FFFF11111157
:10012000818181FFC2340C02818EB0C0C2B48C8246
:10013000818EB0C040414244485060404D4D4C4CCF
:100140004D4C4B57505F80BF8042F8FFF2F5F2F5FF
:10015000F5FBF6F2FD83315C639CFFFFF8FAFAFAD7
:10016000063296F41EEC01D7CF1F1FFFBF3FBF9F83
:100170002074C037C73EC8DC027FFFFFFFF8428013
:10018000BF805F50574B4C4D4C4C4D4DFFFF9C6317
:100190005C3183FDF2F6FBF5F5F2F5F2FF1F1FCFA0
:1001A000D701EC1EF4963206FAFAFAF8FFFF7F0246
:1001B000DCC83EC337C074209FBF3FBFFDFCF7F7CC
:1001C000FFFEFCFDFCFEFF03F8FFFF007F7F7F7F4B
:1001D0007F7F7F7F7F7F7F704F3F1F008E3EFEFEC1
:1001E000FEFEFE3EC6FAFAFAF60EFE002FDE38FBE1
:1001F0007B1B0D2EDF1FFFFF07F8FF0000FEE0CE88
:100200009EBFBFBEB9336F6F00FFFEFC007F7F7FD4
:100210007F7F7F7F7F7F7F007E7F7F7F00FEC2F6B4
:10022000FEE2DEE6DEE2FEFE3E8EF6F600BF3FFFB9
:1002300033EFDF03DFE7FFFF00FF1F0F7F7F7FFF4D
:1002400001FE0A6A0A5ABE519B03FF7FFDFDFDFDB8
:10025000FDFCFCFCFCFCFCFCFCFDFDFD7F7F675B0A
:100260003BEDBDD5DB671FFF7F7F7F7FFDFDFDFD84
:10027000FDFCFDFCFCFDFDFDFDFDFDFDBFDFEFFE1A
:10028000FF7B996FE7DBBB75FF00FFFFFDFDFDFD09
:10029000FDFDFDFDFDFDF9E5CCDCD0C1DBBB7BFB4D
:1002A000FBEB9B6B7BBBDBEBF303070FFFFF1FEF4E
:1002B000FBF3FFFFFEFDFDFAFF00FAF8FFFFFF0072
:1002C000FF75BBDBE76F997BFEEFDFBFFFFFFFF83A
:1002D000F0EDDDD9D1C1C5FDFDFDFDFDFFFFFF0343
:1002E000F3EBDBBB7B6B9BEBFB7BBBDBFFFFFF0025
:1002F000FFFAFDFDFEFFF3FBEF1FFFFFFFFFFFFF18
:1003000043BD5A66665ABD837FFFFFFFFFFFFFFFB5
:10031000FCFFFFF8FFFFFFFFFCFFFFFF9B2B4BBB2A
:10032000FBFBFBFBFBFB03FFFFFFFFFFD6D9DFDF80
:10033000DFDFDF1F5F1FC0FFFFFFFFFFFFFFFFFFCC
:10034000FF03FBFBFBFBFB8B6B2B9B7BFFFFFFFF91
:10035000FFC01F5F1FDFDFDFDFD9D6D503FD3535D7
:10036000B5B5B535FDB5BD75FD03EF1F807F4050B8
:100370005C445C407F6B6B4F5B5A7F80FF7F3F5FCD
:100380006F777B75757B776F5F3F7FFF807B47174C
:100390004378126D6D12744F27536F8000E11EFF7A
:1003A000EFD7EFFFFFEFFF000000FFFFF0EBE2F8F9
:1003B000F8F8F8F8F8F8F8F8F8F4EBE701FD01B907
:1003C000B9B9B9B9B9B9B901FD01F5F300FF02FA3C
:1003D000FAB6D6F6F6FAF2060F00FFFFFF7F3F5F90
:1003E0006F777B75757B776F5F3F7FFF807F5B5B90
:1003F0005B5B5B7B7B7B7B7F7F7F7F8001FEFEF097
:10040000EEEEEEEEEEEAEEF0FEFDFB07807F017E03
:100410006A7E6A6A6A6A6A6A7E017F807F9BE5C932
:10042000D5ADB9BDBDBDBDDDDDE58B7FF8C50B1715
:100430002F1F3F1F3F7F7F7F7F3FC7F800FEFEE6F5
:10044000D2CACACAC2C2C2E2E6FEFE00007F471399
:100450002D0505590D21250D1B477F0000FEFEE6E9
:10046000D2CACACAC2C2C2E2E6FEFE00007F473B51
:1004700025014D1D15354D1D2B477F00EBABAB6B9B
:10048000EBEBEBEBEBEBEBEB6BABABEBFFBFB3B740
:10049000BEBDDBE7E7DBBDBEB7B3BFFF00AADDDD56
:1004A000AA775577EEAAEE55BBBB550000AADDDD55
:1004B000AA775577EEAAEE55BBBB550007FBFD6E3C
:1004C000FE6EFE00FE6EFE6EFDFB07FF003F7F5BD3
:1004D0007F5B7F007F5B7F5B7F3F00FFFFFFFFFF56
:1004E000FFFF00EEEEEEEEE1FFFFFFFF07EBEDEEAC
:1004F000E0EE0EEEEEEEE0EE0EEDEB070F707E702E
:1005000077007E7077707E0077707E7000777777E7
:100510007077077777777077770777777F7F7F7F39
:100520007F7F7F7F7F7F7F7F7F7F7F7FFDFDFDFDE3
:10053000FDFDFDFDFDFDFDFDFDFDFDFDFAFAFAFAF7
:10054000FAFA00FEFE00FFFFFFFFFFFFFFFFFFFFC5
:10055000FFFF00FFFF00FFFFFFFFFFFFFFFFFFFFA9
:10056000FFFF00FEFE00FAFAFAFAFAFAFFFFFFFFB9
:10057000FFFF00FFFF00FFFFFFFFFFFF7F7F7F7F89
:100580007F7F7F7F7F7F7F7F7F7F7F7FFDFDFDFD83
:10059000FDFD01FDFD01FDFDFDFDFDFDFAFAFAFA8F
:1005A000FA3ADAEAE2EADA3AFAFAFAFAFFFFFFFF8F
:1005B000F9F4F6F4F4F6F6F4F9FFFFFFFF00FFFBA1
:1005C0001D0DC7E7E7F7ED1DFBFF00FFFF00FF95DF
:1005D000B6ECF8F9F9F9ECB695FF00FFFF1FEFD77D
:1005E000F7F7B7D7B7B7F7F7D7EF1FFFFF007FDEF3
:1005F000ECDAFFECE9FADFEAFD7F00FF59C6D6141A
:1006000031C3EBE92CAD4C65630BD81BB00E6671A2
:10061000228C3E3C4C31EB07B3B88D300000008F8C
:10062000CFCF4F6F2F77173BCBDDDD0102F7F1F115
:1006300000FDFC00FFFFFF00DF0FEF00FFFFFF1FCB
:100640005F0F6F07D7C3DB01F5707600017D7D007A
:100650002F0737006B616D607A787B0007F31B5BB7
:10066000F39B739BF3DB13FBD31BD307F0E7ECE5A2
:10067000EFE4EFE4EFE5ECE5EFECE7F03FDFEFEF81
:10068000DF332D1E1E2D33DFEFEFDF3FFFFEFDFDBD
:10069000FEFF0FE0E00FFFFEFDFDFEFF38FBBB5B42
:1006A000DB4B5B5BBBFBBBBBBBBBBBBB38BBBBBCEC
:1006B000B9A2A9BCBBBBBBBBBBBBBBBBFE7DBDDB8F
:1006C000C7BF7FFFFE7DBDDBC7BF7FFFFE7DBDDBFC
:1006D000C7BF7FFEFE7DBDDBC7BF7FFEFFFFFFFF05
:1006E000FFFF00FFFF00FFFFFFFFFFFFFFFFFFFF18
:1006F000FFFF00FFFF00FFFFFFFFFFFFFF07FBFD06
:10070000FDFDFD01FDFDFDFDFDFB07FFFFE0DEBE84
:10071000BEBEBE80BEBEBEBEBEDEE0FF83BBBBBBF8
:10072000BBBBBB38BBBBBBBBBBBBBBBB83BBBBBBD4
:10073000BBBBBB38BBBBBBBBBBBBBBBBFF01FEFE7C
:10074000E6CAC2CAC2CAC2E67EFE01FFFF807F7F40
:100750007F7F7F7F7F7F7F7F7E7F80FFFF122512DD
:10076000FF122512FF122512FF122512FFE102E1EE
:10077000FFE102E1FFE102E1FFE102E1FFFFFF5FD4
:100780003F5FAB891389AB7FBFBF7FBFFFFFFFFF19
:10079000FEFDEAD081D0EAFBFBFCFFFF77B3CDEE94
:1007A000773BDDEC73BADDCE373BDCEE75BBDDCEDF
:1007B00037BBDCEE77B3CDEE773BDCEEDF4E9F6FE1
:1007C0006F6FAFCF6FEFDFBB7FFFBFFFFF601EBF5D
:1007D0003B9CB1AFBFBBB3BDDEA997FFFFFEFFEFF0
:1007E000E7FFFFFFFFFFFFFBFFBFFFFFFF7F7FFB79
:1007F000F7FBFFFFFFFFB7F7FFFBFFFFC44366D424
:100800001C040C1453705C870C0888FC3B8448481B
:1008100049494DA7140C74C4C7C5C8B8E32624744D
:100820009C848C9350705C870C0888FCB54A4444C7
:10083000444446A31C3444C2C5C9B88455885522D3
:1008400055885522AAFFAAFFAAFFAAFFAAFFAAFF5E
:10085000AAFFAAFF55885522558855220202030394
:100860000101000003030303020202020303020268
:100870000000000103030202000001010000010169
:100880000101000001000101000003030303020253
:100890000303020203030202000001010100000041
:1008A000020003010001000102000200000000003C
:1008B000000001010200020100010001020100012B
:1008C0000001000103010303020200010001000115
:1008D0000001000100010001000001010303020208
:1008E00000000101030100010001030302020101F4
:1008F00000000000010103000300000100010303E8
:1009000002020303020203030303030302020101C1
:1009100000000303020201010000FF00FF010001CB
:10092000FF00FF01FF01FF01FF01FF00FF01FF01C9
:10093000FF00FF00FF01FF00FF03FF0000000101B7
:1009400003FF03FF00000201FF000908000809007F
:10095000080C000C08000C0D000C0D000D0C000D17
:100960000C000D0E000E0D000E01020E0E000E0FFB
:10097000000F0E000F0B000B0F000B0700070B0002
:10098000070B000B0700070002070B000B00010616
:100990000700060700070600090A000A09000A0BFB
:1009A000000B0A000A0600060A000B01010F0102F3
:1009B0000C01020F02010F03010F04010C06010CD0
:1009C00007010808010809010810001008001001BB
:1009D00002101000100A01100B01100C01100D0183
:1009E000100E01100F011010011011001110001154
:1009F0001101111201111301111401111501111628
:100A00000111170108040004080004050005040092
:100A10000400000004000418010419010419010570
:100A2000060006050005090009050005120012056B
:100A300000120002120102001A01001B0100010055
:100A4000010000000100010000011300130100017A
:100A50000200020100020600060200020300030277
:100A600000030700070300030102071B01031C0129
:100A7000071D0113F500F5F600F6F700F7F800F88A
:100A8000F900F9FA00FAFB00FBFC00FCFD00FDFE9A
:100A900000FEFF00FF14000B010206140014060004
:100AA000121E01121F010A0B000B0B000B0902148E
:100AB00014141414141414141414141414141414F6
:100AC0001414141414141408080504011414141430
:100AD000141414140505050808080104040114146D
:100AE000141414140202080808081414140401143D
:100AF0001414140505020804080808141414141426
:100B00001414140508010104040805141414141421
:100B10001414050801150104011414050606061431
:100B20001414080801160606060606060114141415
:100B300014140801010606010F01141414141414EE
:100B400014140804040601010C01011414141414F3
:100B500014140804050604011401010114141414EA
:100B600014080804010604010101010D01142614F2
:100B7000080808010606010B010A210A210D0114CB
:100B8000080808040601010D210D090A010A0114D3
:100B900008080104060606060606060121010114DE
:100BA0000801040406010101010101010101011410
:100BB00014141414141414141414141414141414F5
:100BC00004141414141414141414141414141414F5
:100BD000010101141414141414141414141414041E
:100BE0000106060613141414141405050514141430
:100BF000141414141414010105010505050401144D
:100C000004010404040101040101010404040106B7
:100C1000060605050606050506060206060606146E
:100C200014140514141414141402020207070714F0
:100C30001414020202020202140202141414141404
:100C400014140202020202021414141414020214F4
:100C5000140014140202021402020202020202141C
:100C600014020202141414140202020202020237D5
:100C700039373937393739373937393739373938F3
:100C80003A383A383A383A383A383A383A383A37D5
:100C900039373937393739373937393739373938D3
:100CA0003A383A383A383A383A383A383A383A14D8
:100CB00014141414141414141414141414141414F4
:100CC00014141414141414141414141414141414E4
:100CD00014141414141414070714141414141414EE
:100CE0001414141402020202070114140505140559
:100CF000141414020205010701070101010514057E
:100D000005050101010101010101010501011406AF
:100D10000606060606060606060606060606061E5B
:100D20001E1E1E061E1E1E1E060808080814141D80
:100D30001D1D1D061D1D1D1D060807040814140A8F
:100D40000B0B0A060A0B0B0A060804070108140A13
:100D50000A0A0A060A0A0A0A060808010708140A03
:100D60000E090E060A0E090E0606060804080801FA
:100D7000010604060404060404040606080108012A
:100D80000106060606060606060104060808080708
:100D90000407010701070107010701060801010116
:100DA00007010701070107010701070601010114F7
:100DB0001414141414141414141414140202021429
:100DC000141414141414141414140102020202143E
:100DD000141414141414141414010101020202084E
:100DE0001414140808141401011501070102020863
:100DF000080808080808010101160101010202089B
:100E0000040404040101010101010101011414069B
:100E1000060606060606060101010101141414085F
:100E20000808080801040606040401010114140856
:100E30000808080504080806040501010101140852
:100E4000080804080808080606040101011414082B
:100E50000808040808080808060505010101140827
:100E60001504080808080808060104040101141400
:100E70001B04041B1B1B1B140606040101011407A1
:100E800004071A070407040C0806040101011404EE
:100E9000040404040404070C0806010101141407E7
:100EA0000407040704070414080601141414141496
:100EB0000808040406240D04070107012121211458
:100EC0000101080406240407040D04070A0A0A1491
:100ED00020020104060F2121212121010A0A0A0210
:100EE00020020214060C0A0A0A0A0A070A090A0260
:100EF0002002020C06140A0A0A0B0A01010601026A
:100F00002002020C06040A090A0A0A010606010266
:100F10002002020C0604070608080807060401025E
:100F20002002010C060606060F080807040F01023E
:100F300020020114010606010C010807040C01023D
:100F4000200201010104060114010606060606023C
:100F5000200202010405060606060601010101023F
:100F6000010101040808050806011D1B1B1B1D01CA
:100F700001040404080808050601191C1C1C0C08BF
:100F8000080505050805080806012E1C1C1C0C0890
:100F900008080808080808050601191C1C1C0C088C
:100FA000080808080808080506011D1B1B1B1D145E
:100FB00014141414141414141414141414141414F1
:100FC000212121141414141414142424241414148A
:100FD0000A0A0A1414141414010101010101141461
:100FE0000A090A14141414141D1E1D1E1D010114D7
:100FF0002D040414141414140A0A0A0A0A01011410
:1010000004040621211414140A0A0B0A0A010121FE
:101010002121060A0A1414140A0A0A0A0A01010AFA
:101020000A0A060A0A070C07212121212101010AC7
:10103000090A060A0A070C010A0A0A0A0A01010635
:101040000606060A0A070C010A0B0A0A0A01010130
:1010500004040606060714010A0A090A0A01010126
:1010600021212121060606010701060701060604C3
:101070000A0A0A0A240606060601060107060804EB
:101080000A0A0B0A240607010606060701060804D9
:101090000A090A0A06062D2B2C2D0606060608014B
:1010A00004060606010701070107010706080808EC
:1010B00008040404040404040404040608080804DE
:1010C0000404011E011E011E010404060608080492
:1010D0000101011D1D1D1D1D01010101060808045E
:1010E0001E011E0A0A0A0A0A1E011E010401080442
:1010F0001D1D1D1D1D1D1D1D1D1D1D0404040104A0
:101100000A0A0A0A0A0A0A0A0A0A0A040F040F0447
:101110000A0E0B0E0A0A0A0E0B0E0A040C040C042B
:101120000A0A0A0A0F1F0F0A0A0A0A040606060418
:10113000040404070C200C07040404040606060437
:10114000040F04040720070404040F04060608041F
:10115000040C04070420040704040C040606080613
:10116000060606060606060606060606060608081B
:10117000080806060F06060F06060F06060F0808E3
:10118000050406080C01010C01010C01010C080802
:101190000804060801080801010101010108080806
:1011A00008080608080808080808080808080804C5
:1011B00007040704070407040706050808141407B2
:1011C00004070407040704060606080805081404B3
:1011D00007040704060606061508050101011407A1
:1011E00004070407060101010101050101141404AB
:1011F0000704071506010F0102020202021C1C0F60
:10120000040F060606010C020202020202021C0C76
:10121000070C0608011402020202021C021C02064C
:10122000060606060F0C02020202151C1C15020F10
:10123000060F06060C0C020202021C181C16140CE7
:10124000080C06061414020201040C1C010C1C08F4
:1012500008060606010C0202040415041C1C1408EE
:101260000F0606060F0C02020201161C18161408BF
:101270000C0606060C1402020201010104181C08E7
:1012800008060606010C020202021C0104151408DD
:10129000080F0606010C02020202020204161408DC
:1012A000080C0606011402020202020206161408C5
:1012B00008080808080808080608080808040408B8
:1012C00004040404080808080608080808080804B4
:1012D000080808080808040806080808040808049C
:1012E00001010101040404080608080404080801B7
:1012F0000A0D0D0D0D0D0A0806080806080808015C
:101300000A0D0D0D0D0D0A08060808060808080448
:101310000C0A0A0A0A0A0C08060808040808080445
:101320000C0A0B0A0B0A0C04060808060808080435
:101330000C0A0A090A0A0C0406080D040408080429
:10134000040407060704040506080804040808083E
:10135000040104060606060606080806080808082A
:101360000808010101010108060808060808080824
:101370000808080808010408060808060606060802
:1013800008080404040408010606060608080808FC
:1013900008040408040408010608080808040808EA
:1013A00008080808080808010608040404040808D6
:1013B00008040808080808080808010106040108CC
:1013C00004080408080808040408080106010408C1
:1013D00008010101010101010104040806042108BA
:1013E000080A0A0A0A0A0A0A0A040F0106040A0875
:1013F000040A0D0D0D0D0D0D0A040C0106040A085A
:10140000080A0D0D0D0D0D0D0A05040106040A084C
:10141000040A0A0A0A0A0A0A0A0905010604040853
:10142000080C0A0B0A0A0B0A0C0605010606060838
:10143000080C0A0A0A0A0A0A0C05010106050F0827
:10144000080C0A0A090E0A0A0C05010606010C0816
:10145000040C0A0A06040F01010606060101010830
:10146000040C0A0A06040C01060601010202020627
:10147000060606060606060606010202020202012A
:101480000504040104040401010202020202020133
:101490000104010104070402020202020201010127
:1014A0000202020202020202020202010404010814
:1014B0000808060808080808040A0A0A0A0A0A08A6
:1014C0000804062121212107080A0B0E0A0B0E2110
:1014D000210F060A0A0A0A010F0A0A0A09090A0B59
:1014E0000A0C060A0B0B0A171A0606060606060A57
:1014F0000E04060A0A0A0A240C0624240407070913
:101500000A04060A090A0A010C0606240105050652
:1015100006060606062121212121062401020521B5
:1015200021212121060A0A0A0A0A06060102050AE1
:1015300017170B0A040A0B0A0A0A06012402140AE6
:1015400011110A0A040A0A0A090A060F070202060A
:1015500006060606040406060601010C020202073E
:10156000010107010102020202022002020202023C
:101570000202020202020205050220020502020224
:10158000020505050505020202022002020202050B
:1015900005010101150205050505200508080808D3
:1015A00008080808040404010401060705080808DF
:1015B00001010106010102020202020206161401E3
:1015C00006060606080402020202020104161408B6
:1015D00006140808040202020201040401021407AE
:1015E000060508020202020201181B18020514086F
:1015F0000614070202020202020514141414140154
:101600000601070202020202071413061507140856
:10161000060F080202020202050506060607140666
:10162000060C05020202021407140505040714083B
:101630000414010502020214051414140505140211
:10164000010104010202021414140D1414141402F2
:10165000020207020202020514140D0D1405050210
:101660000502020205020202051917171A140502E3
:101670000202010205050202150C04010C14050208
:1016800001150101020202050101010405141404FF
:101690000804040102020408010401010405140401
:1016A00004080804080408080601040405051404D5
:1016B00004040808080808010601080801020204D9
:1016C00007040404080801010601080102020208D7
:1016D00004040808080606060601010202020208C0
:1016E00008080804010604040401020202020208B8
:1016F00008040501010601040102020202070708AD
:10170000080404040106010102020202070108089C
:10171000040801010706010202020201010808088B
:101720000801070101040202020202010108080186
:10173000010101010110020202020201080808026F
:10174000020202020210020205020201080508025A
:101750000202020202100205040202010808080245
:10176000020202020106070404020201080806023E
:1017700002020201010606011010101006060608FA
:101780000802020101060104020202010108080820
:1017900008050401060604080402020107080808F7
:1017A00008080404010108080402020101010802FA
:1017B00002020202020202020202040701010702FF
:1017C00002020201040401010104040108080102EB
:1017D00004010101010808080808080808080101B7
:1017E0000101010601080808080808080808080798
:1017F0000104040608080807010808080808080189
:101800000104010606060606060606060606060189
:101810000407010608040804010101070801070183
:101820000407040608080202020204010808010174
:101830000404050608020204040202010808080163
:10184000010404060802020504020202010808015C
:101850000606060608080202020702020108080638
:10186000060108060808040402020202010808062C
:101870000501010608080808080202070108080116
:1018800008040806060606060804010808080808F1
:1018900008040808080808080801070808080108DB
:1018A00008080808080808080808080808010108C6
:1018B00008080D0D0D0D0D0D0D0D08080808080880
:1018C000080D0D0A170A0A170A0D0D08080808085E
:1018D000080D0A0202101002020A0D080808080882
:1018E000080D0A0702101002070A0D080808080868
:1018F00008010101010101010106060606060606AE
:10190000060606010F010606060604080808080771
:10191000010706010C01060A07060A04080F080859
:10192000070506060606060D0A060508010C01084D
:1019300008010108080808080D0606060114010838
:10194000010108010808080801010808010101084F
:10195000010808010808080801080808080608081E
:10196000040804040401010101141408060608080F
:1019700004010408080808010814080706081408E8
:1019800004040804040715010801010608141408DA
:1019900008080404140101040401060614141408C0
:1019A0000808081414141414141414141414140728
:1019B00004080D0D0808040806080808080814049F
:1019C0000408080D0404040806080808081414088C
:1019D00019170808040408060F0808080414140856
:1019E0000C080806060606060C010808081414066A
:1019F000060606060101010814010804041414086F
:101A00000101010108080101010104041414140179
:101A10000108080804080801171A04021414140124
:101A20000808080808080808080C0802020214013F
:101A30000D08040808040408080808020814140122
:101A4000080808040804080815080204150414010D
:101A500008080808080808081604080416041401F1
:101A600001010108010101080118181801011414ED
:101A700014040D080D080101040C0D0C01041414CC
:101A800014140404080808041519171A150414146A
:101A90001414140D0414020116140F141614141443
:101AA0001414141414020204040104011414140084
:101AB0000000000000000000000000000000000026
:101AC0000000000000000000000000000000000016
:101AD000000A0A0A0A0A0A0A0A0A0A0A0A0A000084
:101AE000000A0A290A2E29141414142E2E0A0000A2
:101AF000000A272B0A2E2E1422221424240A000066
:101B0000000B28010A01010101010101240A000062
:101B1000000A01010A012F3333333331010A000077
:101B2000000A01010A01303534343632010A00005E
:101B3000000A2D010101012D2D012D01010A0000D6
:101B4000000A0A0A0A01010101010101010A00005B
:101B5000000A01010101010101010A0A0A0A00004B
:101B6000000A012421212121212101120A0A000059
:101B7000000A012A0A29290A260A01010A0A000084
:101B8000000A01070A0A0A0A0A0A07010A0A0000EB
:101B9000000A010101010101010101010A0A00001D
:101BA000000A0A0A0B0A0A110A0A0B0A0A0A0000AA
:101BB0000000000000000000000000000000000025
:101BC0000000000000000000000000000000000015
:101BD000000A0A0A0A0A0A0A0A0A0A0A0A0A000083
:101BE000000A2E2E2E2E2E2E2E2E2E2E2E0A0000E7
:101BF000000A2E2E2E2E37392E2E2E2E2E0A0000C3
:101C0000000A34343424383A24343434340A00009A
:101C1000000A07070701010101070707070A00007B
:101C2000000A0101012F333333310101010A0000A1
:101C3000000A01012D30343534322D01010A000033
:101C4000000A01010101012D01010101010A000049
:101C5000000A01010101010101010A0A0A0A00004A
:101C6000000A012121212121212113010A0A00005A
:101C7000000A012629262929262624010A0A00000D
:101C8000000A010A0A0A0A0A0A0A01010A0A0000ED
:101C9000000A010101010101010101010A0A00001C
:101CA000000A0A0A0A0A0A0A0A0A0A0A0A0A0000B2
:101CB00014000000140014001400000014000000C0
:101CC0001400000014141400140014001400000088
:101CD000140000001400140014001400140000008C
:101CE0001414140014001400001400140000000068
:101CF00000000000000000000000000000000000E4
:101D00000000000000141414141414140000000047
:101D1000000000001414141414141414140000000F
:101D200000001414141414142414141414140000B3
:101D3000001414141414242424141414141400006F
:101D400000141414142401010124141414140000A8
:101D50000014141414240124241414141414000062
:101D60000014141414240101012414141414000088
:101D7000001414140A240124240A14141414000056
:101D8000001414140A240101010A1414141400008C
:101D9000001414140A240124240A14141414000036
:101DA000001414140A0A110A0A0A14141414001450
:101DB00014141414141414141414141414141414E3
:101DC0001414141414140114080812141414141400
:101DD0000812141414140101080808081414141427
:101DE00008081414141401141401140814141414FD
:101DF000140801141414041414011401011414140B
:101E000014010414141C041C010114010201141413
:101E100014011414040401141C01140102141414F8
:101E200014011404041C01141C04140402141414DA
:101E300014041414141C01140101140402141414C5
:101E400014040414141C04010114140402021414D4
:101E50001414041414140414141414010202141499
:101E600014140114141404141408010102021414AB
:101E700014010101071401141414010202141414B2
:101E8000140C040C040104010101010202141414D5
:101E90000C0104011414140101020202141414149C
:101EA0001414141414141414141414141414140AFC
:101EB0000A0A0A0A0A0A0A0A0A0A0A0A0A0A0A0A82
:101EC0000A0A0A0A0A0A0B0B0A0A0A0A0A0A0A0A70
:101ED0000A0B0A0A0A0A0B0B0A0A0A0A0B0A0A0A5E
:101EE0000E0A0E0A0E0A0A0A0A0E0A0E0A0E0A3311
:101EF0003333333333333B3D333333333333330AC9
:101F00000A06010601063C3E06010601060A0A0A07
:101F10000A0601060106060606010601060A0A0A65
:101F20000A0601060101010101010601060A0A0A69
:101F30000A0601060606060606060601060A0A0A3B
:101F40000A0601010101010101010101060A0A015C
:101F50000106060606060606060606060601010135
:101F60000101010101010101010101010101010161
:101F70000101010101010101010101010101011D35
:101F80001D1D1D1D1D1D0101011D1D1D1D1D1D0AE8
:101F90000A0A0A0A0A0A0101010A0A0A0A0A0A0ABC
:101FA0000A0A0A0A0A0A0120010A0A0A0A0A0A7A1D
:101FB0002A7B021A437A7D457D577D457D403F0B44
:101FC0006B7F6B0B54134D07520F52493A40626BB3
:101FD0006B6250571D171D5750047F445F545F4478
:101FE000205F351F751F2052521E1F1E52521111A5
:101FF000097F010911357F62355F5D6A4632467F90
:10200000565246423E057D4F5C647F1B5C365D3612
:102010005C0A6E7F6A677D053E2A3E6A2F7A2849F0
:10202000386A5F407F6A493A40786F497F080808FC
:1020300008080C08486A5F6A3F427E4040407F447F
:102040004440120A7F2A2A7A02535A3F7A3F5A534F
:1020500042221A0702427E127A07027F526A0673F0
:102060005E7B5E7306542B5573142D53243F4E7EB6
:102070005B7E4E127B367E5A2F5E75482E5F7C2328
:102080005E750004765E7504126964097F011F1A8B
:102090002E3A7B7A6E5A553E7A5F4A5F7A497D2B9B
:1020A0005E7D2F50777D573F007F4A4938447F6AD5
:1020B0007F6A484A6A5F4A2A484C4B3A0F7A4A6814
:1020C000442B1E2A7E427E506A7A6F7A6E541C0B15
:1020D0007E7C6B6E1A725E7B367F7E4B7F2B7B28FD
:1020E0007B2B7F047E7F756F757F047E015F555566
:1020F0005F20521B56175C7014567E155F245504E2
:102100007E7F0700477F571F57705F54741F155F0E
:10211000201F557F704E487F484E70777D57106A5C
:10212000656B6B3E6A3E6A3E6A6A6B7432753674E2
:102130004437457D5557440979555F5175097F2DC1
:102140007F2D5D175D682A5E5B7E0A68281A6F6ABC
:102150007F251B047C565D567C04493A407E6B6AA1
:102160007E117F151F557F11710044231E22467D6D
:102170006F7D48577D57524E327F324E520C7F3A18
:102180002F7A3F5E5252377E5F7612403F157F15A1
:10219000557F403C542C5F7A4A3E2B3E040B527EC6
:1021A000124E5B365B750B423F427E7E427E067F5F
:1021B000484A3F4E48404C201F2844407A2A1E6B14
:1021C0007A2E7A7500486A5F2A482D7F2D723576FF
:1021D000747F415D555D417F7F65554F55657F0A31
:1021E0006E6B0E7F251B48442B184B7C08527F0AD0
:1021F000445F2455495D3B2D0E407F423D5F7C2D61
:102200007B2F7500484A3F4E4842221E0B4A7A02F5
:10221000565A3E7B365A5649387D557D577D750056
:102220007D1417547D2A7F2A2A7E5554357E097ADB
:102230002F7A08127B3E2A7F2A3E445F557D555FE8
:1022400044565A56335E5A560937313E5A2F5E4825
:102250005A3F2A0A527F567D365D14175D2818456D
:102260007D1028444938645E775E6450171D7715E9
:102270000F505157755F355751243F087E445F6CAE
:10228000047E231A7F1A22603E5A5B7A1E60224E19
:102290007B2E443F457D554F455F557D5530586EEB
:1022A0005D7E58553F557F007F1B243F5E2A7F6A25
:1022B0005E11097F494979012D352D401D175D5269
:1022C0003E7A5F3A5E52482A4A7F5A5A485D7F5D9D
:1022D000423F427E1A7F422E7F2E42413F55355D5E
:1022E00077110809497D0B09087F05070007457F1D
:1022F0007500445B295D4749371D017F49653A2FC9
:102300003A403F557F7F01755575017F2A757F6A79
:102310005D6A5D2A754E3E3B3E4E4E181F7A100F89
:102320005A023E555D575C60047E235E7D2F507ED1
:10233000137E405B295B177F286A2F7A28642B7FE6
:102340002A6E007F4C3F205C646F4A127A474A7EB7
:102350004A4252521F1A1F5252047E097E445F6C39
:10236000405F3515755F60137A527B4E3A5B147B84
:10237000062C4B7E0A42422E132E42426A6B367E58
:102380005B3E56063A52534A4A664C3F5C3E177EC5
:102390005C445C372C7E427E505F357F355F504019
:1023A000201807182040425A1A425F22536A6B14C1
:1023B000137E1210011D151D417F01201F50422464
:1023C0003F407F557F145D7F554C463D2E7D476CC9
:1023D000027A5B5E5A7B026A63286A2F7A28357F0D
:1023E000445E7E5D4452522D5D7F2C50493F097FF3
:1023F000094A256A6B147D577D1002626B6B6B6214
:1024000002265A16531E5276202A287F282A202078
:102410007E15405B295B527F7A5F7A5F7A49385A32
:10242000427F425B4453527F5252425B3E5B7F5538
:10243000355F082A2E7B2E2A080A7D485A2D584CD3
:102440004A773F3A377F4A446358235D175D4444D7
:10245000241F244444007E4A5B5A527E243F257D3B
:1024600055275C2A75280A554B08423E4B7A0229AB
:1024700052143E773E5F295B2A75287E4A3E497F8B
:102480006D6D455F657F56522E5F762256423E4BFC
:102490007A5C235E4938427B567B421113157F15C7
:1024A0001311407F551D355750403E7A563B5E72A2
:1024B0004C3F7F2B7C2B7F5F155F055B195F403F97
:1024C000141417740424157F157E427E221A7F0A85
:1024D0007F557F047E115F48225F5A553E7B3E5AEE
:1024E00055792F6F794E7B6E4970343B367A46753D
:1024F000403F214D7F2D7F251B7F55355F5A5F3A29
:102500005F7F7E4B403E5A265B5E766A6B004A5682
:102510002B52525A3E7B365A520A7D4433447B54E6
:102520004C4B2A1F2A4A486A6B44557E54442A2E33
:102530006A7F2A3E12223E125D17155D281A7E5EC2
:102540005D7D0879413F295C235E403E127E2B4A27
:102550007E7F251B7E09427F403F577B3F4B7F5547
:102560003B40557F5752545B36643B5E5272127E3D
:102570005B7E12722A75215F51275C282A1A3F2E32
:102580002A696A6B5474573C453D2537445F225E87
:10259000223A2F7A2F3A22047E0114137F12047EEE
:1025A000011D155D7F0A7D286A2F7A2854523F7AD3
:1025B0003F5A500C777F5E6F6E5F553F097F093B36
:1025C000540A4A3E09087F0824157F150E407F35BE
:1025D0007E437E635E4275403E6A6A3F5248465083
:1025E0003F201204007E222222227E407C2F2D2FAB
:1025F0007C406A63087A2F7A0824134E221E427E9A
:102600007C5C6F5A443F5524144C7F081422553B80
:10261000775136505F2A7548395A755B424E2A7F8A
:102620002A4E42427E3535377C4075000C6B6F6A0E
:10263000084037457D55574075007D6F656F7D00BB
:10264000000000002F000300033F123F163F1A1244
:102650000824323D2A020100003E41413E000A07A3
:102660000A083E084020000808080020001008045E
:102670001C2A1C243E20322A24222A1418143E2EFE
:102680002A121C2A12023A06142A14242A1C002494
:1026900000402400081422141414221408022906ED
:1026A00012291E3E093E3F251A1E21213F211E3FB1
:1026B00025213F05011E21393F083F213F211020E0
:1026C0001F3F043B3F20203F063F3F013E1E211E8F
:1026D0003F09061E215E3F0936222519013F013FB1
:1026E000203F3F100F3F183F330C33033C03312D85
:1026F00023007F41153E15417F000201024040400A
:1027000000010218243C3F241818242418243F18E0
:102710002C2C043F0548543C3F0438003D00403D0C
:10272000003F0834013F003C1C383C043818241892
:102730007C241818247C3C0804283C14043E243CC7
:10274000203C3C100C3C303C2418244C503C24349D
:102750002C083641007F0041360801010110281085
:102760001F010120203E1020000008000000000092
:1027700000FEFF07FBFAFABA7BBBFBFBFBFBBB7B54
:10278000BBFBFBFBFB07FFFE00000000000000009E
:1027900000FFFF00FFFFFFBEBFDEDFDBDBDFDEDFB2
:1027A000DEBFFFFFFF00FFFF000000000000000091
:1027B00000FFFFFEFDFDFD9D8D9DFDFDFDFDFDFD71
:1027C000FDFDFDFDFD7EFFFF00000000000000009C
:1027D000007FFFFDF8F8FFCF8FCFFF78787D7FFF78
:1027E000EFC7EFFFFEFCFE7F000000005245424FA6
:1027F0004F5400534554555020454550524F4D00BD
:10280000434C45415220454550524F4D005341568F
:1028100020434845434B204552524F52210000006F
:102820002040404040867C7848784E7C0000000183
:102830000202020202019F3F3F3F3F1F8000000053
:102840000030202040807E7C487A4E7C0000000EC4
:102850000101010202019F3F3F3F3F9F0000000036
:102860002040404040867C7848784E7C0000000143
:102870000202020202011FBF3F3FBF1F0000000013
:102880002040404040807E7C48784E7C0000000024
:102890000304040402011FBF3F3FBF1F00000000EC
:1028A0000030202040807E7C487A4E7C0000000E64
:1028B0000101010202011FBF3F3FBF1F00000000D6
:1028C0007C4E7A487C7E80404040402000000000E2
:1028D0001FBF3F3F3F9F01020202020201000000B2
:1028E0007C4E7848787C8640202030000000000034
:1028F0009F3F3F3F3F9F0102020101010E00000088
:102900007C4E7A487C7E80404040402000000000A1
:102910001FBF3F3FBF1F0102020202020100000071
:102920007C4E78487C7E8040404040200000000083
:102930001FBF3F3FBF1F010204040403000000004B
:102940007C4E7848787C86402020300000000000D3
:102950001FBF3F3FBF1F0102020101010E00000027
:102960000000007C4E7C4C7E7CA01000C00000006B
:102970000000001F3FBF3FBF1F000101000000001B
:102980000000007C4E7C4C7E7C906050102000004B
:102990000000001FBF3F3F3F9F00000000000000FD
:1029A0000000007C4E7C4C7E7CA01000C00000002B
:1029B0000000001FBF3F3FBF1F00010100000000DB
:1029C0000000007C4E7C4C7E7C905040808000005B
:1029D0000000001FBF3F3FBF1F00000000000000BD
:1029E0000000007C4E7C4C7E7C90605010200000EB
:1029F0000000001FBF3F3FBF1F000000000000009D
:102A00000040807CFE7C7CFE7C0000000000000317
:102A10000404021C3DBA3BBC1F0000000000402023
:102A200020C0007CFE7C7CFE7C00000000000000DA
:102A30000008051ABA3B3D3C9F0000000000000062
:102A40000040807CFE7C7CFE7C00000000000003D7
:102A50000404021CBD3A3BBC1F0000000000000043
:102A60000000007CFE7C7CFE7C0000000000000278
:102A70000301021FBC3E3DBC1F00000000004020BF
:102A800020C0007CFE7C7CFE7C000000000000007A
:102A90000008051ABA3B3DBC1F0000000000080BEF
:102AA0000002020201000904000001020200000508
:102AB0002400100105240101010424020605240656
:102AC00000010705810310004009040100020A000B
:102AD00000000705020240000007058302400000D5
:102AE0000403090412010002EF0201404123368071
:102AF00000010102030141726475696E6F204C4C44
:102B0000430041726475696E6F204C656F6E61722F
:102B1000646F00F2E8F237EFF2161709EE944E25D3
:102B2000F20203150607E9EA15310C0DF2E5E6E7B6
:102B3000E8F200560C0DF20C74F2766114F22F37A5
:102B4000093C112546F28ED9CBDACCCD90E4002594
:102B5000DDDEF2DF44090A0BE075E1E290E3F28E7C
:102B6000D9CBDA8B90B5DBDCDDDEF2D2D3D4D5D68F
:102B7000D78AD8F2CB41047475371966CCCD46CECE
:102B8000CFD0D1F20437ABA6123F2B3C46C83AC98E
:102B9000CAF1334C554700434154F13241494E008C
:102BA000374F524C44F2C6060714626359C7375474
:102BB00055564CF2C2B3C3C4B2C5042C0607F20486
:102BC0002C060746BFC03715C146F2BA2FBBBC461C
:102BD00012B19085BDBEBEF237B8B9F2AEAFB6B78E
:102BE000F2B0B12BB258B38BB4B5F237AEAFF2AB93
:102BF000A68630ACAD93942A2BF2A69FA037A7A847
:102C0000A9AA03F2009FA037A1A2A31E46A4A5F281
:102C10008C3712999A9B9C9D9E46F2043712979886
:102C2000F28E8F0846779091929394951296F2883F
:102C3000898A8B8C8D4AF2042C83848586060787CB
:102C400011F20437122C81824683F204097F371275
:102C500080464AF27D7E464AF2084609657B7C71D1
:102C6000F200013778797AF276771561F2151273EE
:102C70007475F20846710972F2696A6B466C6D6E82
:102C80006F6C70F26509522C66566768F22F153129
:102C900064F262632A2B4D4EF25811595A5B5C174D
:102CA0005D5E5F6061F209112627525354555657F5
:102CB000F2354C102A4D4E4F2E3706074612505112
:102CC000F242432035444546471748494A4BF235BE
:102CD000363738393A3B3C1C3D3E3F4041F22D2EC1
:102CE0002F3031323334F2262728292A2B042C06A0
:102CF00007F2191A1B1C1D1E1F200921222324253F
:102D0000F2140115161718F20E0F10111213F20417
:102D10000607080C0DF20405060708090A0BF20065
:102D2000010203010204081020408000000000009E
:102D30003E5B4F5B3E3E6B4F6B3E1C3E7C3E1C1829
:102D40003C7E3C181C577D571C1C5E7F5E1C001887
:102D50003C1800FFE7C3E7FF0018241800FFE7DB7B
:102D6000E7FF30483A060E2629792926407F0505D7
:102D700007407F05253F5A3CE73C5A7F3E1C1C0814
:102D8000081C1C3E7F14227F22145F5F005F5F06D9
:102D9000097F017F006689956A606060606094A227
:102DA000FFA29408047E040810207E201008082A40
:102DB0001C08081C2A08081E101010100C1E0C1EDF
:102DC0000C30383E3830060E3E0E06000000000083
:102DD00000005F00000007000700147F147F142428
:102DE0002A7F2A12231308646236495620500008AD
:102DF000070300001C2241000041221C002A1C7F06
:102E00001C2A08083E0808008070300008080808DE
:102E100008000060600020100804023E5149453E51
:102E200000427F400072494949462141494D3318CB
:102E300014127F1027454545393C4A494931412103
:102E40001109073649494936464949291E000014E7
:102E5000000000403400000008142241141414142F
:102E600014004122140802015909063E415D594EE1
:102E70007C1211127C7F494949363E414141227FF3
:102E80004141413E7F494949417F090909013E418C
:102E90004151737F0808087F00417F410020404175
:102EA0003F017F081422417F404040407F021C02C6
:102EB0007F7F0408107F3E4141413E7F090909069A
:102EC0003E4151215E7F091929462649494932036D
:102ED000017F01033F4040403F1F2040201F3F40F3
:102EE00038403F63140814630304780403615949AC
:102EF0004D43007F414141020408102000414141FF
:102F00007F040201020440404040400003070800E3
:102F100020545478407F2844443838444444283866
:102F20004444287F385454541800087E090218A4D9
:102F3000A49C787F0804047800447D400020404031
:102F40003D007F1028440000417F40007C0478044D
:102F5000787C080404783844444438FC1824241845
:102F600018242418FC7C08040408485454542404ED
:102F7000043F44243C4040207C1C2040201C3C401A
:102F800030403C44281028444C9090907C44645439
:102F90004C4400083641000000770000004136082C
:102FA0000002010204023C2623263C1EA1A161125C
:102FB0003A4040207A385454555921555579412189
:102FC00054547841215554784020545579400C1E72
:102FD000527212395555555939545454593955541A
:102FE00054580000457C410002457D420001457C6B
:102FF00040F0292429F0F0282528F07C545545007C
:103000002054547C547C0A097F4932494949323260
:1030100048484832324A4848303A4141217A3A4297
:10302000402078009DA0A07D39444444393D404073
:10303000403D3C24FF2424487E4943662B2FFC2F2F
:103040002BFF0929F620C0887E09032054547941BA
:103050000000447D413048484A32384040227A00DE
:103060007A0A0A727D0D19317D2629292F282629F1
:1030700029292630484D4020380808080808080843
:1030800008382F10C8ACBA2F102834FA00007B0083
:103090000008142A142222142A14089500220095EC
:1030A000AA005500AAAA55AA55AA000000FF0010C0
:1030B0001010FF00141414FF001010FF00FF101078
:1030C000F010F0141414FC001414F700FF0000FFBB
:1030D00000FF1414F404FC141417101F10101F1018
:1030E0001F1414141F00101010F0000000001F1017
:1030F0001010101F10101010F010000000FF101022
:1031000010101010101010FF10000000FF1400002D
:10311000FF00FF00001F10170000FC04F414141738
:1031200010171414F404F40000FF00F7141414141E
:10313000141414F700F7141414171410101F101F90
:10314000141414F4141010F010F000001F101F00DD
:1031500000001F14000000FC140000F010F010101C
:10316000FF10FF141414FF141010101F00000000B3
:10317000F010FFFFFFFFFFF0F0F0F0F0FFFFFF00A7
:1031800000000000FFFF0F0F0F0F0F3844443844BA
:103190007C2A2A3E147E02020606027E027E02631A
:1031A000554941633844443C04407E201E200602B9
:1031B0007E020299A5E7A5991C2A492A1C4C720196
:1031C000724C304A4D4D303048784830BC625A46D7
:1031D0003D3E494949007E0101017E2A2A2A2A2AC8
:1031E00044445F444440514A444040444A514000B2
:1031F00000FF0103E080FF000008086B6B08361237
:10320000362436060F090F060000181800000010BB
:1032100010003040FF0101001F01011E00191D17A1
:1032200012003C3C3C3C0000000000D5F08D14A195
:10323000C881CFD9F1AF2000F2EBECED8A454E44C6
:1032400000000C0F0C0F0C000C090F0900090009FD
:103250000F0F0B000B0F0C000C000B0F0B000C0FD3
:103260000C0F05000500050F05070E0101070E07ED
:10327000020F04000400040F040900090F090F09DC
:10328000000400030F030F0400040F04000D000DE1
:103290000F0D0F01000D0F020E0D0100010F0700B1
:1032A000070F08000700070F070F07000600060FAB
:1032B000070F03000700070F030300030F030F03AB
:1032C00000020E02040B0E0102030E01030C0A059C
:1032D00007090B080A090F0B0D0C0C0E0F090C1037
:1032E00011040A12130C0B14150409080F080F041B
:1032F000090405030404050306090516160A051743
:103300001A05081B1B08081C200B08212304052490
:1033100025030C26280C0B0C0B0B0B0B0B0706299B
:103320002908062A2A08092B2C040E2D2D060E2EFC
:103330002E090E2F2F0A0E30300900090F090F0930
:10334000000F09000900090F090500050F050F0509
:10335000000A0D3131080632320E0432320F0B00F2
:103360000B000B0F0B0D0F0D000D000D0F020407CE
:103370000F070F020409090105090B02060F0C33A0
:1033800033060834340F06000600060F060F03004C
:103390000300030F0305030102020204030F0600EA
:1033A0000600060F060C0F0C000C000C0F0F060099
:1033B0000600060F060A0F0A000A000A0F0C030196
:1033C00007090334340A0535350D0D36360B010770
:1033D000070F0007070F0F0707000F07070F0F075B
:1033E000070F0007070F0007070F0007070F000769
:1033F00007000F07070F0F07070000000B030A0164
:10340000080608080F080F060809093939090B3A98
:103410003A050F0D060B050B0C0D060109050907F2
:1034200007070F0C090F0E0F0B0D0705090B0606FA
:103430000507090509090B080E060B0C0A0B040AFF
:1034400005040D0C0B0E0B090E10090C0C0D0804D5
:103450000305050C05080302492F11241FBECFEFF9
:10346000DAE0DEBFCDBF12E0A0E0B1E0EAE4FBE6C7
:1034700002C005900D92AA3DB107D9F727E0AAED49
:10348000B2E001C01D92A139B207E1F71AE1CDE225
:10349000DAE104C02197FE010E949133CC32D107BA
:1034A000C9F70E94BF2F0C94A3350C9400000F9312
:1034B0001F93CF93DF931F92CDB7DEB7082F10E095
:1034C000C80179830E94FD2E7981672FC80101967A
:1034D0000F90DF91CF911F910F910C94FD2ECF9300
:1034E000DF93C0E0D0E0FE01E85CFD4C6491CE01CA
:1034F0000E94FD2E2196C530D105A9F760910F01DC
:1035000085E090E00E94FD2E609110017091110104
:1035100086E00E94571A609112017091130188E0B1
:103520000E94571A60917B078AE090E0DF91CF916B
:103530000C94FD2E5F926F927F928F929F92AF922A
:10354000BF92CF92DF92EF92FF920F931F93CF9390
:10355000DF936C015B014A013901E12CF12C552408
:103560005A94500E1E2DC0E0D0E0C038D10549F16C
:103570008C2F81278C2B80FD22C0CC15DD05FCF023
:103580008C169D06E4F0EA14FB04CCF06E147F0464
:10359000B4F041E050E0023010F440E050E04E0D55
:1035A0005F1D61E070E081E0851510F460E070E07F
:1035B0006C0F7D1F20E081E097E00E94F02D2196A6
:1035C000D4CF9FEFE91AF90A80E4E816F10451F626
:1035D000DF91CF911F910F91FF90EF90DF90CF90EF
:1035E000BF90AF909F908F907F906F905F90089565
:1035F0002F923F924F925F926F927F928F929F9203
:10360000AF92BF92CF92DF92EF92FF920F931F93F0
:10361000CF93DF936C015B01122FC42FD0E081E0C8
:1036200090E04C018C1A9D0A662477246C1A7D0A5E
:10363000660C771C6FEF70E080E090E00E949B2B9F
:10364000202E312C412C512C6215730584059505D3
:103650004CF0212FA5014C0F5D1FB60181E097E0D2
:103660000E94F02D6FEF70E080E090E00E949B2BB5
:1036700062157305840595054CF0212FA5014C1B9F
:103680005D0BB60181E097E00E94F02D6FEF70E0D6
:1036900080E090E00E949B2B6215730584059505E0
:1036A0004CF0212FA501B6016C0F7D1F81E097E042
:1036B0000E94F02D6FEF70E080E090E00E949B2B65
:1036C00062157305840595054CF0212FA501B601FF
:1036D0006C1B7D0B81E097E00E94F02DE12CF12C1A
:1036E000EC16FD060CF0C3C097FC06C0219782E0E3
:1036F000680E711C860C971C8FEFE81AF80AC70138
:10370000880F991F0196880E991E6FEF70E080E078
:1037100090E00E949B2B62157305840595055CF073
:10372000212FA5014C0F5D1FB7016C0D7D1D81E0A0
:1037300097E00E94F02D6FEF70E080E090E00E9433
:103740009B2B62157305840595055CF0212FA5015F
:103750004C0F5D1FB6016E197F0981E097E00E9452
:10376000F02D6FEF70E080E090E00E949B2B6215DF
:103770007305840595055CF0212FA5014C1B5D0B9D
:10378000B7016C0D7D1D81E097E00E94F02D6FEF79
:1037900070E080E090E00E949B2B62157305840529
:1037A00095055CF0212FA5014C1B5D0BB6016E1930
:1037B0007F0981E097E00E94F02D6FEF70E080E0DC
:1037C00090E00E949B2B62157305840595055CF0C3
:1037D000212FA7014A0D5B1DB6016C0F7D1F81E0F3
:1037E00097E00E94F02D6FEF70E080E090E00E9483
:1037F0009B2B62157305840595055CF0212FA701AD
:103800004A0D5B1DB6016C1B7D0B81E097E00E94A9
:10381000F02D6FEF70E080E090E00E949B2B62152E
:103820007305840595055CF0212FA5014E195F09EC
:10383000B6016C0F7D1F81E097E00E94F02D6FEFC5
:1038400070E080E090E00E949B2B62157305840578
:1038500095050CF445CF212FA5014E195F09B6013E
:103860006C1B7D0B81E097E00E94F02D39CFDF913A
:10387000CF911F910F91FF90EF90DF90CF90BF906D
:10388000AF909F908F907F906F905F904F903F9000
:103890002F9008954F925F926F927F928F929F9296
:1038A000AF92BF92CF92DF92EF92FF920F931F934E
:1038B000CF93DF93CDB7DEB728970FB6F894DEBF6E
:1038C0000FBECDBF809110019091110197FD0F9611
:1038D0009C0104E0359527950A95E1F720937A0736
:1038E000809112019091130197FD0F9614E0959528
:1038F00087951A95E1F7809379073327A9014450FA
:1039000051095A8349832B5F3F4F3C832B8399276F
:103910009C01225031093E832D83039698878F8323
:1039200057FF07C081EF489F402D11244093DD02CF
:1039300002C01092DD0237FF07C081EF289F202DC3
:1039400011242093DC0202C01092DC028091DD027F
:103950008093DB028091DC028093DA02FE013196D3
:103960009E01275F3F4F4FE050E08081918197FF9C
:1039700003C01182108204C0409714F05183408329
:103980003296E217F30789F7FD80B0EF8B2EAF2C4C
:10399000B12C8F8198858A159B050CF4D2C0998033
:1039A000892D90E02B813C81281739070CF4BEC08B
:1039B00020917A07C0901001289DC00C11242091FD
:1039C000790700911201289D000D112420917B0799
:1039D000F50130E1239FE00DF11D1124A4E0EE0F6D
:1039E000FF1FAA95E1F7E80FF91FE155F54F9491F4
:1039F00010E0D12C9C3189F16091DA028091DB02D8
:103A00009D31A8F4913009F444C0923009F073C09C
:103A10004090FB02512C612C712C75946794579443
:103A200047949FEF491A590A690A790A2BC09E32B6
:103A300081F19333D1F1923209F05DC04090FB02E5
:103A4000512C612C712C759467945794479431E2F2
:103A5000430E511C611C711C15C06DE370E080E0C9
:103A600090E00E949B2B660F771FFB01E55BFE4FEA
:103A7000408151816091DA0270E0601B710B80918E
:103A8000DB0244C09201220F331FF901E55BFE4FB8
:103A900038C070E0601B710B90E001E020E140E174
:103AA0008C199D090E94F3263AC0662E712C601A6B
:103AB000710A482E512C4C185D0801E020E140E1CC
:103AC000B301C2010E94F326B3016E5F7F4F809164
:103AD000DB026034710528F490E08C199D090E9486
:103AE0009226B3016C5F7F4F60347105C0F4C20150
:103AF0000E94922614C0E491F0E0EE0FFF1FE75BF6
:103B0000FE4F4081518170E0601B710B90E0EE240C
:103B1000E39400E120E18C199D090E94832C80919F
:103B2000DB02805F8093DB0293943ACF8091DD02C9
:103B30008093DB028091DA02805F8093DA02F39453
:103B400026CF28960FB6F894DEBF0FBECDBFDF910B
:103B5000CF911F910F91FF90EF90DF90CF90BF908A
:103B6000AF909F908F907F906F905F904F9008954F
:103B70002F923F924F925F926F927F928F929F927D
:103B8000AF92BF92CF92DF92EF92FF920F931F936B
:103B9000CF93DF93CDB7DEB72A970FB6F894DEBF89
:103BA0000FBECDBF5C017A8769874D839B01295F7A
:103BB0003F4F3C832B834C0137E0830E911C21E067
:103BC0004FE0C4010E94C726E984FA8486E0E80E2B
:103BD000F11CCC24C394D12C412C512C07E010E0D3
:103BE00022EF3FEF3A8329832AEF622E77247A94DB
:103BF000C50129853A85821B930B9F838E832FEF06
:103C0000421A520A32E0C30ED11C6C0C7D1C202ECD
:103C1000220C31E0320DC201079621E0432F2B80A8
:103C20003C80201A310AB1018A0D9B1D38870E9401
:103C3000C72621E04C2DB701C401800F911F0E94BF
:103C4000C72621E03885432FB1018E819F818E0DDB
:103C50009F1D0E94C72621E04C2DB701C401801B87
:103C6000910B0E94C726401651067CF477FC09C0D0
:103C70000150110989819A8102969A838983680E7D
:103C8000791E91E0E91AF108BACF00E020E047E0A0
:103C90006B817C81C4010E94F81A3D81E32FF0E022
:103CA000EE0FFF1FE95DFE4F4081518169857A85E6
:103CB0006D5F7F4FE12C08E028E0C50104960E946B
:103CC000832C2A960FB6F894DEBF0FBECDBFDF91CE
:103CD000CF911F910F91FF90EF90DF90CF90BF9009
:103CE000AF909F908F907F906F905F904F903F909C
:103CF0002F9008950C94B932CF93DF93CDB7DEB7F0
:103D000065970FB6F894DEBF0FBECDBF0E94192F86
:103D100081E097E00E94712C68EE73E080E090E013
:103D20000E94BF2B1092170711E0109318078DE027
:103D300098E20E9404281093170710921807E12CAC
:103D4000F12C8E010F5F1F4FF701E85CFD4C949042
:103D5000198A188A1B8A1A8A1D8A1C8A62E070E0F6
:103D6000CE0140960E94622B811105C0CE01409683
:103D70000E94892B0AC082E090E09D8B8C8B64EDC1
:103D800072E0888999890E949C35C7010E947A1E39
:103D90001B861A861D861C861F861E864AE0B80171
:103DA00090E00E948F32D8010D900020E9F7119722
:103DB0006D01C01AD10AB601CE010A960E94622B8B
:103DC000811105C0CE010A960E94892B07C0DF86AB
:103DD000CE86B8018A859B850E949C352C893D89B9
:103DE000A888B988CE84DF84A114B10409F4BFC0C7
:103DF00021153105A9F0C20ED31EB601CE010A96D7
:103E00000E94622B882309F4B2C02A853B858E85E7
:103E10009F85B501820F931F0E949C35DF86CE8659
:103E20004AE0B801892D90E00E948432F8010190A7
:103E30000020E9F73197E01BF10BCE84DF84309747
:103E4000C9F0CE0EDF1EB601CE010A960E94622B8B
:103E5000882361F02A853B858E859F85B801820F76
:103E6000931F0E949C35DF86CE8604C0CE010A9641
:103E70000E94892B4E855F856A857B858DEF96E054
:103E80000E94D02A42E050E067ED72E08DEF96E0AC
:103E90000E94D02A8A859B850E942C348889998922
:103EA0000E942C348FEFE81AF80AE5E0EE16F104D0
:103EB00009F04ACF81E097E00E94712C68E873E135
:103EC00080E090E00E94BF2B0E94F1270E94192FF2
:103ED0001092170781E08093180780E098E20E9413
:103EE000042881E097E00E94712C00E010E060E07F
:103EF000C8010E94FD2E0F5F1F4F0115F4E01F0740
:103F0000B1F783EF97E20E94042881E097E00E94D6
:103F1000712C0E946F1A62E085E090E00E94FD2EF5
:103F20006FEB70E086E00E94571A60E270E088E074
:103F30000E94571A6BE08AE090E00E94FD2E60E03C
:103F400080E092E00E94FD2E8CEE97E20E94042811
:103F500081E097E00E94712C6CED75E080E090E0CC
:103F60000E94BF2B00E010E0F8010995FDCFCE01C3
:103F70000A960E94892B54CF1F93CF93DF93C82FAB
:103F8000D0E0CE010E947A1E182FCE0101960E9429
:103F90007A1EC82F61E070E080E090E00E94BF2BA5
:103FA000812F9C2FDF91CF911F9108954F925F92A7
:103FB0006F927F928F929F92AF92BF92CF92DF9239
:103FC000EF92FF920F931F93CF93DF931F92CDB782
:103FD000DEB7582E462EF22E742E6A0137E0632E7D
:103FE0008C2D87198F1508F08BC0F6013491313F65
:103FF00009F481C0323F11F412EF7EC0A52CB12C20
:10400000642D70E001E028E048E0C50139830E949A
:10401000F3263981123F49F1343608F06CC0FDE7D0
:10402000AF16B1041CF088E0480E512CA42CB12C22
:10403000852C912C432F50E0CA01880F991F480FFF
:10404000591F405C594DE12C08E023E0B501C40143
:104050000E94832C21E04FE356E2B501C401039690
:104060000E94832CE4E05E0E23C0303F08F044C081
:10407000F9E7AF16B1041CF088E0480E512CA42CCF
:10408000B12C852C912C639EA00111244155504EDA
:10409000E12C08E027E0B501C4010E94832C21E057
:1040A0004FE356E2B501C40107960E94832C500EDF
:1040B000852D90E0893791051CF0E8E04E0E512CDB
:1040C0008091FB0290E0840D911D252D30E030930E
:1040D0001407209313079093160780931507E09118
:1040E000FD06F091FE060190F081E02D6FE18DEF6D
:1040F00096E0099501C011EFFFEFCF1ADF0A70CFEC
:104100000F90DF91CF911F910F91FF90EF90DF9073
:10411000CF90BF90AF909F908F907F906F905F9067
:104120004F900895CF93DF9380910C01813079F007
:1041300038F08230B9F08330F9F481E090E014C0B7
:1041400010927F0710927E078FEF9FEF06C01092AC
:104150007F0710927E0781E090E090937D07809327
:104160007C070AC08FEF9FEF90937F0780937E07B5
:1041700010927D0710927C0781E080938007E09188
:104180001001F091110140917E0750917F07BF010E
:10419000640F751F673F710570F4A0911201B09113
:1041A000130120917C0730917D07CD01820F931F71
:1041B000873F910518F01092800765C0EF01F7FD69
:1041C0002F96689413F8D595C7951694E1F76894DF
:1041D00013F8759567951694E1F7C617D707A1F1FF
:1041E00060917B07C3E0440F551FCA95E1F7E40FC8
:1041F000F51FF7FD3F9644E0F595E7954A95E1F701
:1042000080E1689FA001112473E0220F331F7A958B
:10421000E1F7CD01820F931F97FD0F9624E095954E
:1042200087952A95E1F7840F951F34E0880F991F31
:104230003A95E1F7E80FF91FE155F54FA7ECB1E02A
:1042400091E02AE22A0F14C0BD01B7FF02C0615FEE
:104250007F4FC4E075956795CA95E1F7D4E09595D1
:104260008795DA95E1F76817790709F0B9CF0BC0A0
:1042700084913D91831303C0653F08F490E02A13B5
:10428000F7CF90938007DF91CF9108950F931F93FD
:104290000E94FE2B0091EB021091EC022091ED02A6
:1042A0003091EE020C5E1F4F2F4F3F4F601771078A
:1042B0008207930708F440C00E94FE2B6093EB0234
:1042C0007093EC028093ED029093EE028FEF809357
:1042D0001C010E94542C87FD10921C010E94542C3A
:1042E00084FF03C081E080931C010E94542C85FF51
:1042F00003C082E080931C010E94542C86FF03C0FF
:1043000083E080931C010E94542C83FF03C084E04F
:1043100080931C010E94542C82FF03C085E080938F
:104320001C010E94542C83FF07C00E94542C82FF62
:1043300003C086E080931C011F910F9108958F9216
:104340009F92AF92BF92CF92DF92EF92FF920F9324
:104350001F93CF93DF93082FC1E3D0E0C12CD12C62
:10436000760187EE882E99249A94A92CB92C0111F4
:1043700027C00E94F1270E944A1C0E941527109115
:104380000F011150C701B601A50194010E94CF325F
:10439000DA01C901412FBE010E94B81D81E097E0FA
:1043A0000E94712C87E0C81AD108E108F108219712
:1043B00081E5C8168FEFD806E806F806C1F606C0F4
:1043C0000E94462190911C01953099F2DF91CF9186
:1043D0001F910F91FF90EF90DF90CF90BF90AF9023
:1043E0009F908F900895AF92BF92CF92DF92EF92FD
:1043F000FF920F93CF93DF93D82F20910F01082EB8
:10440000000C990B820F911D01970A9718F42D0F3C
:1044100020930F01CEE0DC9FC02D112489EFA82E40
:10442000BB24BA940E94F1270E944A1C0E941527BF
:104430006501CC1AD108C7FDD394E12CF12C409131
:104440000F01842F90E001968E199F090A97B0F40E
:104450004F5F4E19B60188E090E00E94B81D82E0DF
:10446000E816F10459F001E09601225F3F4F46E162
:1044700050E0B60188E090E00E949A1A8FEFE81AA7
:10448000F80A8FE0C80ED11C86E0E816F104B9F6F0
:104490004091FB02465F00E021E06EE170E08FE0BA
:1044A00090E00E94F81A4091FB02455F20E06EE127
:1044B00070E08FE090E00E94F81A4091FB02445FA8
:1044C00021E06EE170E08FE090E00E94F81A81E058
:1044D00097E00E94712CD7FF02C0CF5F02C0D111BC
:1044E000C150C1119FCFDF91CF910F91FF90EF90FD
:1044F000DF90CF90BF90AF9008950F93CF93C0E01F
:104500000C2F20E430E04FE750E060E070E080E006
:1045100090E00E949A1A81E097E00E94712C6AEF65
:1045200070E080E090E00E94BF2BCF5FC43041F785
:10453000CF910F9108958F929F92AF92BF92CF9299
:10454000DF92EF92FF920F931F93CF93DF930E941E
:10455000F1270E944A1C0E94152780917B0790E05A
:1045600020911A0130911B0182179307B9F580E061
:1045700092E00E947A1E813089F5A0C0209110013E
:104580003091110137FF02C0215F3F4FA901D4E0F4
:1045900055954795DA95E1F740937A0720911201F6
:1045A0003091130137FF02C0215F3F4FC4E03595C2
:1045B0002795CA95E1F720937907609116017091CC
:1045C000170177FF02C0615F7F4FB4E07595679573
:1045D000BA95E1F74617570709F4A5C080910E0177
:1045E000882349F040910F01415061E370E080E081
:1045F00090E00E94B81D809110019091110197FDEB
:104600000F96F4E095958795FA95E1F780937A07F0
:10461000809112019091130197FD0F9664E095959A
:1046200087956A95E1F78093790704E412E3CBE478
:10463000D9E07DE5C72E78E0D72EE3E4EE2EE2E365
:10464000FE2EFE013197E49180917B07E81319C09B
:10465000F6013197949180910C01981719F0E4912B
:10466000EF3F79F4F8013397E49180917A07E813EA
:1046700008C0F8013297E49180917907E81709F4AE
:1046800068C00C5F1F4F2396F2E0CF0ED11C24E0D0
:10469000E20EF11C8AE0C03BD80799F681E097E072
:1046A000DF91CF911F910F91FF90EF90DF90CF900E
:1046B000BF90AF909F908F900C94712C80911201BD
:1046C0009091130197FD019695958795E0901801BB
:1046D000F0901901E81AF90A8091100190911101E6
:1046E00097FD019695958795C0901601D09017017A
:1046F000C81AD90AC1E0AA24AA94B12C90910D013C
:10470000C91708F03BCF692F70E0C5010E946933DB
:10471000C69F002D112420E04C2FB701C6010E9436
:10472000F81ACF5FEBCF409118015091190157FF54
:1047300002C0415F5F4FA4E055954795AA95E1F708
:104740002417350709F04ACF64E0690F60930D0123
:1047500045CFFE013196E491E13009F045C00E9459
:1047600046210E94FE2B8090EF029090F002A090D4
:10477000F102B090F202F6E98F0E911CA11CB11C5F
:10478000681579058A059B0508F46CC080911C01A9
:10479000843009F067C0F6018491882309F462C06F
:1047A000F701B490FE01849190E00B960E947A1E6E
:1047B000F801249190E08B0D911D30E02817390706
:1047C0000CF050C0FE01849190E060E00B960E94D6
:1047D000FD2E0E94FE2B6093EF027093F0028093F7
:1047E000F1029093F2024DCFE13048F5F601449189
:1047F000F80184918295807FF70124912295207F92
:10480000FE01949190937B07922F92959F709093C5
:104810007A07982F92959F709093790730E03093A4
:1048200011012093100190E09093130180931201E5
:1048300040930C010E947D220E946F1A22CFE23029
:1048400009F01FCFF801849190E081589F4F0E949A
:104850007A1E882309F45AC0F6018491813009F048
:1048600010CF54C0F701B490FE01849190E00B96F4
:104870000E947A1E8B0DF8019491981708F401CFCD
:1048800090E0FC01E35EFB4C2491880F991FDC0152
:10489000A25ABD4F4D915C9168E381E00E94D61F02
:1048A0000E94FE2B8090EF029090F002A090F10207
:1048B000B090F202F6E98F0E911CA11CB11C681594
:1048C00079058A059B0508F4DCCE0E94FE2B6093D7
:1048D000EF027093F0028093F1029093F2020E9433
:1048E000462180911C01843009F0CBCEFE018491D9
:1048F00090E00B960E947A1EFE01949161E0680F91
:10490000892F90E00B960E94FD2EBBCEF701B4904C
:10491000FE018491811101C0B194F801849190E06D
:1049200061E081589F4F0E94FD2E80E00E949F21F0
:104930008B2D0E94F32180E00E94F3210E946F1AC8
:1049400068EE73E080E090E00E94BF2B9ACEFC01FD
:104950008091E602811103C08FEF9FEF08959FB70A
:10496000F89482E08093E9002091F20030E0121682
:10497000130614F421E030E02115310559F0289890
:1049800084E68093E5028091F10080838091F200BB
:10499000882319F09FBFC90108958BE68093E80032
:1049A000F9CF2FB7F89483E08093E9009091E80065
:1049B000892F807295FF04C09091F20080E4891BDA
:1049C0002FBF08958091200781110DC082E0809350
:1049D0001C0784E080931D0710921F0710921E078A
:1049E00081E0809320078CE197E00895CF93DF93D7
:1049F0001F92CDB7DEB76983DC01ED91FC91028097
:104A0000F381E02D41E050E0BE016F5F7F4F0995DB
:104A10000F90DF91CF91089583E08093E90080911A
:104A2000F200882319F08AE38093E80008950E9439
:104A3000D12490E00895CF93DF931F92CDB7DEB7D6
:104A4000FC018485958597FD05C02FEF3FEF3587E5
:104A500024870BC0CE0101960E94A724019719F468
:104A6000898190E002C08FEF9FEF0F90DF91CF918F
:104A700008950F931F93CF93DF931F92CDB7DEB7A7
:104A80008C01FC018485958597FF0EC0CE010196AF
:104A90000E94A724019719F4298130E002C02FEF6A
:104AA0003FEFF80135872487F801848595850F90BD
:104AB000DF91CF911F910F910895FC018485958519
:104AC00097FD0BC09FB7F89482E08093E900809136
:104AD000F2009FBF90E0019608959FB7F89482E09E
:104AE0008093E9008091F2009FBF90E008958F923B
:104AF0009F92AF92BF92CF92DF92EF92FF920F936D
:104B00001F93CF93DF935C016B017A0180910B01BE
:104B1000882309F45BC08091E602882309F456C01B
:104B20008091E40280FF05C08091E0008260809364
:104B3000E000E70110E00AEF83E0882E9AE3992E67
:104B40002097D9F10E94D12481110AC0015009F4A3
:104B50003DC061E070E080E090E00E94BF2BF0CFAC
:104B6000282F30E0C217D3070CF48C2F4FB7F894DE
:104B70008092E9009091E80095FF1DC0282F30E059
:104B8000C21BD30BF601982F915020F08191809396
:104B9000F100FACFC20ED31E112319F09092E80053
:104BA00009C08091E80085FD06C09092E80011E000
:104BB000209709F010E04FBFC3CF1111C3CF5D980C
:104BC00084E680931B071E141F0444F081E090E0EC
:104BD000F5019383828380E090E001C0C701DF91FB
:104BE000CF911F910F91FF90EF90DF90CF90BF90EA
:104BF000AF909F908F900895CF92DF92EF92FF92A7
:104C00000F931F93CF93DF931F92CDB7DEB7182F6B
:104C1000062FE42E862F880F8E5F99830E94272B04
:104C200083E00E94272BF12EC12E9981D92E8C2D45
:104C30008F19801798F4F601E7FE02C0849101C035
:104C400080810E94272B182F80E00E94272B812330
:104C5000FFEFCF1ADF0A8111EACF01C081E00F9088
:104C6000DF91CF911F910F91FF90EF90DF90CF9048
:104C70000895DF92EF92FF920F931F93CF93DF93EC
:104C8000D82E8A017B01E40EF51EEB01CE15DF055F
:104C900071F0D7FE03C0FE01849101C088810E949B
:104CA000272B21968111F2CF8FEF9FEF01C0C80112
:104CB000DF91CF911F910F91FF90EF90DF900895BA
:104CC0000F931F93CF93DF931F92CDB7DEB782E090
:104CD000898342E450E06EE97AE280E80E94392656
:104CE0000E94E224DC0112960D911C91139701158C
:104CF000110569F0D801ED91FC910280F381E02D5E
:104D0000BE016F5F7F4FC801099597FF07C089817A
:104D10000F90DF91CF911F910F910895F8010085B9
:104D20001185E5CF9C01215F3F4F2F38310570F58C
:104D3000FC0197FF02C0E0E0F0E040968138910569
:104D400014F080E890E08E1BAB014770552721E0FE
:104D500030E001C0220F4A95EAF7209577FF02C0A4
:104D6000695F7F4F93E0759567959A95E1F7769522
:104D7000762F662777956795E60FF71FE350FD4F6F
:104D8000815020F0908192239193FACF0895DF9281
:104D9000EF92FF920F931F93CF93DF937C01D22E5C
:104DA0008B01040F111DEB0177FF0EC0C0E0D0E0B6
:104DB0000BC0C417D5077CF42D2DAE01B70181E0DF
:104DC00097E00E94F02D2196A801013411058CF383
:104DD00040E450E0EECFDF91CF911F910F91FF9013
:104DE000EF90DF900895CF92DF92EF92FF920F93B2
:104DF0001F93CF93DF936B01122FEC017C01E40E24
:104E0000F11CCE15DF0544F4202F412FB601CE0151
:104E10000E94C7262196F5CFDF91CF911F910F9168
:104E2000FF90EF90DF90CF9008956F927F928F92D6
:104E30009F92AF92BF92CF92DF92EF92FF920F9329
:104E40001F93CF93DF931F92CDB7DEB730910C0144
:104E50001091FB02612E712CE32FF0E0EE0FFF1F8B
:104E60008091FC02E80FF11DEE0FFF1FEE0FFF1FF8
:104E7000E60DF71DEE0FFF1FE850FE4F40815181F8
:104E8000E12C00E120E167E170E087E390E0398305
:104E90000E94832C3981332309F46DC0323031F004
:104EA000333031F0313031F48DE305C08AE303C093
:104EB00081E401C087E3E82EF12C01E022E041E02B
:104EC0006BE170E0C7010E94F326670122E0C20E89
:104ED000D11C22E041E06BE170E0C6010E94F326A4
:104EE0000E94FE2B8090F7029090F802A090F902A9
:104EF000B090FA0228E8820E23E1921EA11CB11C98
:104F0000681579058A059B0510F0112331F0809111
:104F10002807811130C0111102C01092280722E029
:104F200030E0261937091216130624F482E0B82E51
:104F3000B11A03C08EEFB82EB10E00E02B2D41E068
:104F40006BE170E0C7010E94F3262B2D41E06BE17D
:104F500070E0C6010E94F326123069F40E94FE2B15
:104F60006093F7027093F8028093F9029093FA022B
:104F700081E0809328070E94FE2BC090E702D0902A
:104F8000E802E090E902F090EA0226E9C20ED11CA4
:104F9000E11CF11C6C157D058E059F0590F00E94AB
:104FA000FE2B6093E7027093E8028093E9029093EE
:104FB000EA021F5F143018F41093FB0202C0109233
:104FC000FB020F90DF91CF911F910F91FF90EF9017
:104FD000DF90CF90BF90AF909F908F907F906F9019
:104FE000089580E0EDEFF2E081118FEF00248193CE
:104FF0008193819381930394D1F7EDEFF6E0118EC5
:10500000108E178A168A08950F931F93CF93DF93FC
:105010008C01C0E0D0E0F801EC0FFD1F6491662325
:1050200071F0E091FD06F091FE060190F081E02D17
:105030008DEF96E00995892B11F02196ECCF42E097
:1050400050E067ED72E08DEF96E00E94D02A8C0F61
:105050009D1FDF91CF911F910F9108951F920F9285
:105060000FB60F9211248F939F938091E10090913E
:10507000E100937F9093E10083FF0FC01092E9005D
:1050800091E09093EB001092EC0092E39093ED008E
:105090001092E60298E09093F00082FF20C093E027
:1050A0009093E9009091F200992319F09AE390937C
:1050B000E80090911B07992339F090911B079150BC
:1050C00090931B07992389F19091E502992339F078
:1050D0009091E50291509093E502992341F184FF6C
:1050E00010C08091E2008E7E81608093E20080910A
:1050F000E1008F7E8093E1008091E4028E7E8061EA
:1051000011C080FF16C08091E2008E7E8061809386
:10511000E2008091E1008E7E8093E1008091E402C4
:105120008E7E81608093E40204C05D9ACDCF289A80
:10513000D6CF9F918F910F900FBE0F901F90189513
:105140001F920F920FB60F921124CF92DF92EF921F
:10515000FF920F931F932F933F934F935F936F9300
:105160007F938F939F93AF93BF93EF93FF93CF93CF
:10517000DF93CDB7DEB76C97DEBFCDBF1092E900ED
:105180008091E80083FFEDC168E0CE0145960E9462
:10519000552B82EF8093E8008D8987FF05C09091A1
:1051A000E80090FFFCCF03C09EEF9093E800982F9B
:1051B000907609F0C6C09E892F89188D91110CC078
:1051C000803829F48091E3028093F10002C01092AC
:1051D000F1001092F10048C1422F50E0512B913064
:1051E00051F4811141C14130510509F03DC1809117
:1051F000E3028D7F0BC0933061F4811135C14130E2
:10520000510509F031C18091E30282608093E3028D
:105210002BC1953041F48091E80080FFFCCF2068DD
:105220002093E30021C1963009F05FC0EB8CFC8C29
:105230001092E9001092E1021092E002123091F512
:105240001092DF021092DE020E94602699E0BE01F9
:105250006F5F7F4FDB01E92F1D92EA95E9F7998394
:105260001A8391E09E8390EA98879AEF998720911C
:10527000E0023091E102275F3F4F3C832B838D8317
:105280001092E9001092E1021092E002F092DF0227
:10529000E092DE0249E050E080E00E9439260E9460
:1052A0006026E2C0F092DF02E092DE020E94E22479
:1052B000DC011296ED90FC901397E114F10409F4CF
:1052C000C0C0D701ED91FC910480F581E02DBE01B5
:1052D0006B5E7F4FC7010995009719F00CF0C4C0B1
:1052E000C7C0F701E084F184E8CF973009F4C0C06B
:1052F000983021F481E08093F100B6C0993009F034
:10530000B3C0837009F0B4C0E2EFF1E081E021E0C6
:1053100036E39081992361F08093E9002093EB00BC
:1053200091919093EC003093ED008F5F873089F777
:105330008EE78093EA001092EA008F898093E6025C
:1053400093C08B8D9C8D1092E9001092E102109217
:10535000E0029093DF028093DE02898D811156C0B6
:105360008E899D89913A59F4813209F081C047E0D4
:1053700050E064E071E080E00E94392675C091320F
:1053800009F076C0833289F4888D90E0982F8827C1
:105390002F89822BA0E0B0E080930001909301015F
:1053A000A0930201B09303015FC0803269F4809141
:1053B000E80082FFFCCF67E084E091E00E94552B7B
:1053C0008BEF8093E80006C0823209F04DC08F89D0
:1053D00080930B018091E202882319F0EEEFFAE04E
:1053E00002C0E0E0F8E08091040190910501A091F5
:1053F0000601B0910701803B9440A105B10509F079
:105400007BC080910B0180FF93C076C00E94E22494
:10541000DC0112960D911C9113970115110541F1B4
:10542000D801ED91FC910190F081E02DBE016B5E01
:105430007F4FC8010995811117C0F80100851185BA
:10544000ECCF113009F44EC0133091F48F898823CA
:1054500009F445C0823081F440E860E182E09BE2DB
:105460000E94FC25882321F08EEF8093E80079C00C
:1054700081E28093EB0075C0813029F440E86BE055
:1054800086EF9AE2EDCF833099F70E94E224DC01A7
:105490001296ED90FC9013978E010F5F1F4F6801DD
:1054A000E114F10479F0D701ED91FC910680F781C8
:1054B000E02DB801C7010995080F111DF701E0841F
:1054C000F184EECFD8011C92F60101900020E9F79B
:1054D0003197BF016C197D0940E0C601C1CF60EE74
:1054E0007AE202C064EE7AE26115710509F2FB010D
:1054F000449150E080E840CF0FB6F894A895809191
:105500006000886180936000109260000FBEA895D3
:10551000EE3F2AE0F20739F08091FE0A9091FF0AEF
:1055200091838083A1CF1092FF0A1092FE0A9CCF34
:10553000EE3F8AE0F80731F0808191819093FF0A75
:105540008093FE0A87E797E7918380839BE088E159
:105550000FB6F894A895809360000FBE90936000FA
:1055600083CF6C960FB6F894DEBF0FBECDBFDF9130
:10557000CF91FF91EF91BF91AF919F918F917F91CB
:105580006F915F914F913F912F911F910F91FF90DC
:10559000EF90DF90CF900F900FBE0F901F90189557
:1055A000CF92DF92EF92FF920F931F93CF93DF93EF
:1055B0006C017A018B01C0E0D0E0CE15DF0589F0E7
:1055C000D8016D918D01D601ED91FC910190F08192
:1055D000E02DC6010995892B11F47E0102C02196A8
:1055E000ECCFC701DF91CF911F910F91FF90EF900A
:1055F000DF90CF9008953FB7F894809186079091FF
:105600008707A0918807B091890726B5A89B05C098
:105610002F3F19F00196A11DB11D3FBFBA2FA92F31
:10562000982F8827820F911DA11DB11DBC01CD01AE
:1056300042E0660F771F881F991F4A95D1F708959A
:105640000895089580E090E008950E948E3540917D
:10565000E0025091E1022091DE023091DF02421718
:105660005307B4F49091E8009570E1F39091E8004D
:1056700092FD19C08093F1008091E0029091E102C7
:1056800001968F739927892B19F48EEF8093E80088
:105690008091E0029091E10201969093E102809363
:1056A000E00281E0089580E00895615030F020919B
:1056B000F100FC0120830196F8CF289884E68093BE
:1056C000E50208950F931F93CF93DF93EC01888138
:1056D0009981009729F02A813B812617370788F4A2
:1056E0008B016F5F7F4F0E94C434009761F09983F4
:1056F00088831B830A832C813D81232B11F4FC01B9
:10570000108281E001C080E0DF91CF911F910F9165
:105710000895CF93DF93EC0188819981009711F070
:105720000E942C34198218821D821C821B821A82CC
:10573000DF91CF910895CF93DF9300D000D0CDB704
:10574000DEB7611571058105910579F09B01AC010A
:1057500069833A834B835C830E94763229813A8144
:105760004B815C810E94CF3203C060E070E0CB01CE
:105770000F900F900F900F90DF91CF9108958F921F
:105780009F92AF92BF92CF92DF92EF92FF926B0106
:105790007C010E94FB2A4B015C01C114D104E1048D
:1057A000F104F1F00E94FB2ADC01CB018819990970
:1057B000AA09BB09883E9340A105B10570F321E019
:1057C000C21AD108E108F10888EE880E83E0981E1D
:1057D000A11CB11CC114D104E104F10419F7DDCFFF
:1057E000FF90EF90DF90CF90BF90AF909F908F9001
:1057F0000895BC0180E090E00C94BF2B2FB7F89483
:10580000609182077091830780918407909185074A
:105810002FBF08951F920F920FB60F9211242F934E
:105820003F938F939F93AF93BF9380918207909103
:105830008307A0918407B09185073091810723E009
:10584000230F2D3720F40196A11DB11D05C026E8B8
:10585000230F0296A11DB11D20938107809382071B
:1058600090938307A0938407B09385078091860760
:1058700090918707A0918807B09189070196A11D93
:10588000B11D8093860790938707A0938807B093F4
:105890008907BF91AF919F918F913F912F910F9069
:1058A0000FBE0F901F9018958FB12CB193B130E0BF
:1058B0002095309520743327A90123E0559547950D
:1058C0002A95E1F7292F30E0209530952071332774
:1058D0003595279535952795242B8095807F822BAC
:1058E00008958091FD028EBDEEEFF2E081910DB43E
:1058F00007FEFDCF8EBD86E0ED3FF807B9F70DB48A
:1059000007FEFDCF08952F923F924F925F926F92C4
:105910007F928F929F92AF92BF92CF92DF92EF923F
:10592000FF920F931F93CF93DF93CDB7DEB72D97E1
:105930000FB6F894DEBF0FBECDBFED82E22EF12C84
:105940009C012E0D3F1D37FD32C1803891050CF0B2
:105950002EC19B01200F311D37FD29C16034710517
:105960000CF025C1DB0177FF04C0AA27BB27A61BCB
:10597000B70BA770BB279B0177FF02C0295F3F4F82
:1059800013E0359527951A95E1F777FF08C0215068
:10599000310968E070E0FB01EA1BFB0BDF01E02F3F
:1059A000E695E695E695CE2ED12C077019F0FFEF1F
:1059B000CF1ADF0AB9017695762F66277795679516
:1059C000680F791F63507D4F8601020F131F1987DF
:1059D0000887C12CD12CF8E0AF2EB12C85010A1B11
:1059E0001B0B1F830E83088519852017310709F4C7
:1059F000DEC02830310509F4DAC02F3F1FEF310730
:105A00000CF4CAC08B0100581F4F1D870C874B0137
:105A10003B012B011C011C830B831A8309831B860A
:105A20001A860A851B850E151F050CF0B5C010E8F7
:105A30002116310409F4B0C037FC89C02F3FEFEFC5
:105A40003E0709F4B0C00A851B850C0D1D1DFD81A4
:105A5000F13079F4F801E40FF51FE491F0E08F01E3
:105A60000A2E01C0000F0A94EAF7F301B0800B2957
:105A700025C0FD81F11114C0F801E40FF51FE49178
:105A8000F0E00A2E02C0EE0FFF1F0A94E2F78F012A
:105A900000951095F401A080B12C0A211B210EC0A5
:105AA000F801E40FF51FE491F0E08F010A2E01C028
:105AB000000F0A94EAF7F201B0800B2500831097DB
:105AC00009F445C02730310509F441C00A851B851A
:105AD0000C0D1D1DFD81F13089F4F801E40FF51F57
