:100010000C94E1180C94E1180C94E1180C94E1187C
:100020000C94E1180C94E1180C94E3240C945525DD
:100030000C94E1180C94E1180C94E1180C94E1185C
:100040000C94E1180C94E1180C94E1180C94E1184C
:100050000C94E1180C94E1180C94E1180C94A42968
:100060000C94E1180C94E1180C94E1180C94E1182C
:100070000C94E1180C94E1180C94E1180C94E1181C
:100080000C94E1180C94E1180C94E1180C94E1180C
:100090000C94E1180C94E1180C94E1180C94E118FC
:1000A0000C94E1180C94E1180C94E11877617465D4
:1000B000720A0077696E650A00F2161709EE944E0F
:1000C00025497427732074696D6520746F20676FEC
:1000D00020686F6D65004E6F20576164696E670A16
:1000E0000044616E6765722C206B656570206177D6
:1000F00061790A0044616E6765726F757320686F7D
:100100007573650A006C6F636B65640A0049276D3F
:10011000206E6F7420676F696E6720746865726502
:100120000A00486F7720746F2070726576656E7470
:1001300020736F6D6520676F7665726E6D656E7486
:1001400020776F726B6572732066726F6D20636FBC
:100150006D6D697474696E67206D6173732073755A
:100160006963696465207769746820746865697279
:100170002066616D696C79206D656D626572730AC8
:100180000055736520756E737461626C65207061D3
:10019000727469636C657320746F20726564756333
:1001A0006520706F70756C6174696F6E2070726518
:1001B00073737572650A005768617420646F2079E3
:1001C0006F75207468696E6B206F66206D61737344
:1001D00020737569636964650A00416476616E63C2
:1001E0006564206578616D696E6174696F6E2072F7
:1001F00065666F726D20646F63756D656E740A005D
:10020000546865206275696C64696E67206D6179F8
:100210002068617665206265656E206120666F7278
:100220006D657220676F7665726E6D656E74206F96
:1002300066666963650A005468697320697320748F
:100240006865206F75746C696E65206F662061202B
:100250006D656574696E670A00536C75673F0A00C7
:100260005261696E20776F726C640A00476574741E
:10027000696E67206F7574206F66207468652077DB
:100280006F726C642069732074686520736F6C757D
:1002900074696F6E2C20616E642074686520676FCE
:1002A0007665726E6D656E7420697320686F6C641C
:1002B000696E672061207265666572656E64756D32
:1002C0000A0053686F756C642077652067697665EE
:1002D0002075702074686520776F726C643F0A0027
:1002E00054686520776F726C642773207265736F32
:1002F0007572636573206172652066696E697465E5
:100300000A00412066616D696C79206F662074680F
:100310007265652077686F206C6F6F6B6564206C09
:10032000696B65206D652077657265206861766907
:100330006E672061207069636E69630A0046616DB3
:10034000696C792070686F746F730A004E657773FB
:1003500070617065722064656361790A0054686534
:1003600020636F756E747279206F70656E7320698B
:10037000747320636F727269646F727320746F207C
:10038000746865206D61737365730A004E657773D9
:100390007061706572210A0046696E616C6C79202B
:1003A00065766572796F6E65206C6566740A0054B7
:1003B0006865207365636F6E642068616C66206990
:1003C000732061626F75742074686520677265615F
:1003D00074206E61747572650A00546865206669E0
:1003E0007273742068616C662064657363726962FD
:1003F00065732074686520686172647368697073DE
:10040000206F66207072696D6974697665206C6909
:1004100066650A004974206973207772697474658F
:100420006E20696E20686965726F676C79706869A3
:1004300063730A0054686973206973206120706FC8
:10044000656D0A0049662074686572652072656191
:100450006C6C79206973206E6F206F6E652C206D37
:10046000617962652077652063616E20676574201D
:10047000736F6D6520736C6565700A00496E6C6101
:100480006964207370656C6C73206D616B652069A5
:100490007420666972650A00492776652073656570
:1004A0006E20697420736F6D65776865726520656D
:1004B0006C73652E0A00546869732069732061208B
:1004C0007370656369616C2073746F76652E0A00C2
:1004D00054686973206973206E6F7420616E206F99
:1004E0007264696E61727920666C616D652E0A00B6
:1004F000507572706C6520666C616D650A00446FA2
:100500006E277420676F2061686561642E0A00544D
:10051000686572652773206E6F2077617920616846
:100520006561642E200A00497427732061206C7570
:10053000787572696F7573206275696C64696E672E
:100540002077697468206F70656E20646F6F7273B6
:100550002E0A00497427732061206D61676E6966F9
:100560006963656E742074776F2D73746F72792070
:100570006275696C64696E672C20616E64207468B2
:100580006520646F6F727320617265206F70656E95
:100590000A00492063616E27742077616C6B2061CB
:1005A0006E7920667572746865720A004A75737494
:1005B0002074686520726F636B206F6E20746865AD
:1005C000207765737420736964650A0046696E64F8
:1005D000206120706C61636520746F207265737494
:1005E0000A0049276D2074697265642E200A004C48
:1005F0006561766520746865206379636C65206F3A
:10060000660A00427265616B2074686520626C6FD7
:10061000636B61646520776974680A0042757420B1
:100620007468652070726F7068657420666F756E8F
:1006300064206120736F6C7574696F6E0A00596F66
:10064000752063616E277420657363617065206235
:1006500065636175736520697427732070617274B6
:10066000206F662074686520776F726C640A004D95
:10067000616B696E6720667574696C652065666676
:100680006F7274730A00596F75276C6C2062652055
:10069000666F7263656420746F2077616B65207587
:1006A0007020616761696E20776865746865722083
:1006B000796F752077616E7420746F206F72206E71
:1006C0006F740A00427574206974206769766573D7
:1006D000207573206120776179206F75740A00415D
:1006E0006C74686F756768207468652070726F70CD
:1006F000686574206C656674207468697320776F10
:10070000726C640A005768656E2074686520616CBD
:1007100074617220776173206163746976617465B6
:10072000642062757420646964206E6F742068654B
:1007300073697461746520746F206A756D702069C7
:100740006E0A005468657265206973206120666CCA
:100750006F776572206F6E2069740A0049206669A0
:100760006E616C6C7920676F74206F75740A004934
:10077000742077617320612064616E6765726F75A4
:100780007320706C6163652E204974206C6F6F6BF1
:100790006564206C696B652E2E2E63726173680A26
:1007A0000049742773207265616C6C7920756E73D3
:1007B0007461626C652068657265210A0054686521
:1007C0002066726F6E74207761732E2E2E0A0000E1
:1007D000FF0A142850FF000000FF42242442003C7E
:1007E00042898D81A1423C000C10113C52423C00D8
:1007F00018087D484878001028285444FF02020059
:1008000070080E3040300E0022223E02023E0000F0
:10081000201E1014100000FF90909090908000FF18
:1008200091929498908000FF919191F191919FFF06
:100830009191919191919FFF818181818181FFFFB0
:10084000111111818181FFC2340C02818EB0C0C2AE
:10085000B48C82818EB0C040414244485060404DCB
:100860004D4C4C4D4C4B57505F80BF8042F8FFF2CF
:10087000F5F2F5F5FBF6F2FD83315C639CFFFFF8C2
:10088000FAFAFA063296F41EEC01D7CF1F1FFFBF0B
:100890003FBF9F2074C037C73EC8DC027FFFFFFF09
:1008A000F84280BF805F50574B4C4D4C4C4D4DFF34
:1008B000FF9C635C3183FDF2F6FBF5F5F2F5F2FF88
:1008C0001F1FCFD701EC1EF4963206FAFAFAF8FF92
:1008D000FF7F02DCC83EC337C074209FBF3FBFFD0F
:1008E000FCF7F7FFFEFCFDFCFEFF03F8FFFF007FB7
:1008F0007F7F7F7F7F7F7F7F7F7F704F3F1F008E57
:100900003EFEFEFEFEFE3EC6FAFAFAF60EFE002F90
:10091000DE38FB7B1B0D2EDF1FFFFF07F8FF0000FB
:10092000FEE0CE9EBFBFBEB9336F6F00FFFEFC007E
:100930007F7F7F7F7F7F7F7F7F7F007E7F7F7F00C6
:10094000FEC2F6FEE2DEE6DEE2FEFE3E8EF6F600D9
:10095000BF3FFF33EFDF03DFE7FFFF00FF1F0F7F26
:100960007F7FFF01FE0A6A0A5ABE519B03FF7FFD8B
:10097000FDFDFDFDFCFCFCFCFCFCFCFCFDFDFD7F2D
:100980007F675B3BEDBDD5DB671FFF7F7F7F7FFD13
:10099000FDFDFDFDFCFDFCFCFDFDFDFDFDFDFDBFC8
:1009A000DFEFFEFF7B996FE7DBBB75FF00FFFFFD0D
:1009B000FDFDFDFDFDFDFDFDFDF9E5CCDCD0C1DB60
:1009C000BB7BFBFBEB9B6B7BBBDBEBF303070FFF03
:1009D000FF1FEFFBF3FFFFFEFDFDFAFF00FAF8FF3C
:1009E000FFFF00FF75BBDBE76F997BFEEFDFBFFF0B
:1009F000FFFFF8F0EDDDD9D1C1C5FDFDFDFDFDFF27
:100A0000FFFF03F3EBDBBB7B6B9BEBFB7BBBDBFFFA
:100A1000FFFF00FFFAFDFDFEFFF3FBEF1FFFFFFFEF
:100A2000FFFFFF43BD5A66665ABD837FFFFFFFFF8E
:100A3000FFFFFFFCFFFFF8FFFFFFFFFCFFFFFF9B37
:100A40002B4BBBFBFBFBFBFBFB03FFFFFFFFFFD6BF
:100A5000D9DFDFDFDFDF1F5F1FC0FFFFFFFFFFFF0B
:100A6000FFFFFFFF03FBFBFBFBFB8B6B2B9B7BFF6A
:100A7000FFFFFFFFC01F5F1FDFDFDFDFD9D6D5031A
:100A8000FD3535B5B5B535FDB5BD75FD03EF1F8039
:100A90007F40505C445C407F6B6B4F5B5A7F80FFB4
:100AA0007F3F5F6F777B75757B776F5F3F7FFF80E1
:100AB0007B47174378126D6D12744F27536F800078
:100AC000E11EFFEFD7EFFFFFEFFF000000FFFFF099
:100AD000EBE2F8F8F8F8F8F8F8F8F8F8F4EBE701D2
:100AE000FD01B9B9B9B9B9B9B9B901FD01F5F30059
:100AF000FF02FAFAB6D6F6F6FAF2060F00FFFFFF8B
:100B00007F3F5F6F777B75757B776F5F3F7FFF8080
:100B10007F5B5B5B5B5B7B7B7B7B7F7F7F7F80FE29
:100B200001010F111111111115110F010204F87FAC
:100B300080FE81819595959595958181FE807F7F39
:100B40009BE5C9D5ADB9BDBDBDBDDDDDE58B7FF88C
:100B5000C50B172F1F3F1F3F7F7F7F7F3FC7F800C9
:100B6000FEFEE6D2CACACAC2C2C2E2E6FEFE000069
:100B70007F47132D0505590D21250D1B477F0000CB
:100B8000FEFEE6D2CACACAC2C2C2E2E6FEFE000049
:100B90007F473B25014D1D15354D1D2B477F00EB34
:100BA000ABAB6BEBEBEBEBEBEBEBEB6BABABEBFF81
:100BB000BFB3B7BEBDDBE7E7DBBDBEB7B3BFFF006A
:100BC000AADDDDAA775577EEAAEE55BBBB5500002E
:100BD000AADDDDAA775577EEAAEE55BBBB55000717
:100BE000FBFD6EFE6EFE00FE6EFE6EFDFB07FF005F
:100BF0003F7F5B7F5B7F007F5B7F5B7F3F00FFFF13
:100C0000FFFFFFFFFF00EEEEEEEEE1FFFFFFFF074D
:100C1000EBEDEEE0EE0EEEEEEEE0EE0EEDEB070F9E
:100C2000707E7077007E7077707E0077707E7000C7
:100C30007777777077077777777077770777777F2A
:100C40007F7F7F7F7F7F7F7F7F7F7F7F7F7F7FFD36
:100C5000FDFDFDFDFDFDFDFDFDFDFDFDFDFDFDFAC7
:100C6000FAFAFAFAFA00FEFE00FFFFFFFFFFFFFFAD
:100C7000FFFFFFFFFF00FFFF00FFFFFFFFFFFFFF82
:100C8000FFFFFFFFFF00FEFE00FAFAFAFAFAFAFF92
:100C9000FFFFFFFFFF00FFFF00FFFFFFFFFFFF7FE2
:100CA0007F7F7F7F7F7F7F7F7F7F7F7F7F7F7FFDD6
:100CB000FDFDFDFDFD01FDFD01FDFDFDFDFDFDFA5F
:100CC000FAFAFAFA3ADAEAE2EADA3AFAFAFAFAFF77
:100CD000FFFFFFF9F4F6F4F4F6F6F4F9FFFFFFFF77
:100CE00000FFFB1D0DC7E7E7F7ED1DFBFF00FFFF52
:100CF00000FF95B6ECF8F9F9F9ECB695FF00FFFFA7
:100D00001FEFD7F7F7B7D7B7B7F7F7D7EF1FFFFF43
:100D1000007FDEECDAFFECE9FADFEAFD7F00FF5945
:100D2000C6D61431C3EBE92CAD4C65630BD81BB0B0
:100D30000E6671228C3E3C4C31EB07B3B88D30000F
:100D400000008FCFCF4F6F2F77173BCBDDDD010238
:100D5000F7F1F100FDFC00FFFFFF00DF0FEF00FFE8
:100D6000FFFF1F5F0F6F07D7C3DB01F57076000130
:100D70007D7D002F0737006B616D607A787B0007FF
:100D8000F31B5BF39B739BF3DB13FBD31BD307F0CA
:100D9000E7ECE5EFE4EFE4EFE5ECE5EFECE7F03F5F
:100DA000DFEFEFDF332D1E1E2D33DFEFEFDF3FFFD1
:100DB000FEFDFDFEFF0FE0E00FFFFEFDFDFEFF3834
:100DC000FBBB5BDB4B5B5BBBFBBBBBBBBBBBBB38E6
:100DD000BBBBBCB9A2A9BCBBBBBBBBBBBBBBBBFE4B
:100DE0007DBDDBC7BF7FFFFE7DBDDBC7BF7FFFFED5
:100DF0007DBDDBC7BF7FFEFE7DBDDBC7BF7FFEFFC6
:100E0000FFFFFFFFFF00FFFF00FFFFFFFFFFFFFFF0
:100E1000FFFFFFFFFF00FFFF00FFFFFFFFFFFFFFE0
:100E200007FBFDFDFDFD01FDFDFDFDFDFB07FFFFDA
:100E3000E0DEBEBEBEBE80BEBEBEBEBEDEE0FF8386
:100E4000BBBBBBBBBBBB38BBBBBBBBBBBBBBBB83AD
:100E5000BBBBBBBBBBBB38BBBBBBBBBBBBBBBBFF21
:100E600001FEFEE6CAC2CAC2CAC2E67EFE01FFFF9A
:100E7000807F7F7F7F7F7F7F7F7F7F7E7F80FFFF81
:100E8000122512FF122512FF122512FF122512FF42
:100E9000E102E1FFE102E1FFE102E1FFE102E1FF46
:100EA000FFFF5F3F5FAB891389AB7FBFBF7FBFFF92
:100EB000FFFFFFFEFDEAD081D0EAFBFBFCFFFF77DE
:100EC000B3CDEE773BDDEC73BADDCE373BDCEE75B0
:100ED000BBDDCE37BBDCEE77B3CDEE773BDCEEDFB0
:100EE0004E9F6F6F6FAFCF6FEFDFBB7FFFBFFFFF17
:100EF000601EBF3B9CB1AFBFBBB3BDDEA997FFFF78
:100F0000FEFFEFE7FFFFFFFFFFFFFBFFBFFFFFFF5E
:100F10007F7FFBF7FBFFFFFFFFB7F7FFFBFFFFC480
:100F20004366D41C040C1453705C870C0888FC3B8B
:100F300084484849494DA7140C74C4C7C5C8B8E3D0
:100F40002624749C848C9350705C870C0888FCB5B4
:100F50004A4444444446A31C3444C2C5C9B88455D9
:100F600088552255885522AAFFAAFFAAFFAAFFAAE0
:100F7000FFAAFFAAFFAAFF558855225588552202CD
:100F80000203030101000003030303020202020340
:100F9000030202000000010303020200000101003D
:100FA0000001010101000001000101000003030331
:100FB0000302020303020203030202000001010113
:100FC0000000000200030100010001020002000015
:100FD0000000000000010102000201000100010206
:100FE00001000100010001030103030202000100EE
:100FF00001000100010001000100010000010103E6
:1010000003020200000101030100010001030302C9
:1010100002010100000000010103000300000100C3
:101020000103030202030302020303030303030297
:1010300002010100000303020201010000FF00FFA2
:10104000010001FF00FF01FF01FF01FF01FF00FFA1
:1010500001FF01FF00FF00FF01FF00FF03FF000091
:1010600000010103FF03FF00000201FF0009080067
:10107000080900080C000C08000C0D000C0D000DF8
:101080000C000D0C000D0E000E0D000E01020E0ED8
:10109000000E0F000F0E000F0B000B0F000B0700D0
:1010A000070B00070B000B0700070002070B000BE4
:1010B0000001060700060700070600090A000A09E2
:1010C000000A0B000B0A000A0600060A000B0101C9
:1010D0000F01020C01020F02010F03010F04010CAA
:1010E00006010C0701080801080901081000100892
:1010F00000100102101000100A01100B01100C0169
:10110000100D01100E01100F01101001101100112F
:101110001000111101111201111301111401111507
:10112000011116011117010804000408000405004C
:10113000050400040000000400041801041901045F
:10114000190105060006050005090009050005123C
:1011500000120500120002120102001A01001B0118
:101160000001000100000001000100000113001354
:101170000100010200020100020600060200020353
:1011800000030200030700070300030102071B011D
:10119000031C01071D0113F500F5F600F6F700F733
:1011A000F800F8F900F9FA00FAFB00FBFC00FCFD7E
:1011B00000FDFE00FEFF00FF14000B0102061400FC
:1011C000140600121E01121F010A0B000B0B000B6C
:1011D00009021414141414141414141414141414EC
:1011E0001414141414141414141408080504011409
:1011F0001414141414141405050508080801040433
:101200000114141414141402020808080814141405
:101210000401141414140505020804080808141421
:1012200014141414141405080101040408051414FA
:1012300014141414140508011501040114140506EE
:10124000060614141408080116060606060606010A
:1012500014141414140801010606010F01141414C7
:1012600014141414140804040601010C01011414CC
:1012700014141414140804050604011401010114C3
:1012800014141414080804010604010101010D01DD
:10129000142614080808010606010B010A210A2178
:1012A0000D0114080808040601010D210D090A01A9
:1012B0000A011408080104060606060606060121AE
:1012C00001011408010404060101010101010101E9
:1012D00001011414141414141414141414141414F4
:1012E00014141404141414141414141414141414CE
:1012F00014141401010114141414141414141414E7
:101300001414040106060613141414141405050518
:101310001414141414141414140101050105050502
:101320000401140401040404010104010101040482
:10133000040106060605050606050506060206065C
:1013400006061414140514141414141402020207CB
:1013500007071414140202020202021402021414F7
:1013600014141414140202020202021414141414A9
:1013700002021414001414020202140202020202F5
:1013800002021414020202141414140202020202D1
:101390000202373937393739373937393739373939
:1013A0003739383A383A383A383A383A383A383AAF
:1013B000383A3739373937393739373937393739AB
:1013C0003739383A383A383A383A383A383A383A8F
:1013D000383A141414141414141414141414141483
:1013E00014141414141414141414141414141414BD
:1013F00014141414141414141414070714141414C7
:101400001414141414141402020202070114140513
:101410000514051414140202050107010701010156
:101420000514050505010101010101010101050185
:101430000114060606060606060606060606060643
:1014400006061E1E1E1E061E1E1E1E060808080874
:1014500014141D1D1D1D061D1D1D1D060807040855
:1014600014140A0B0B0A060A0B0B0A0608040701E0
:1014700008140A0A0A0A060A0A0A0A0608080107DC
:1014800008140A0E090E060A0E090E0606060804BE
:1014900008080101060406040406040404060608FC
:1014A00001080101060606060606060601040608EE
:1014B00008080704070107010701070107010608DB
:1014C00001010107010701070107010701070601E3
:1014D0000101141414141414141414141414140204
:1014E0000202141414141414141414141401020217
:1014F000020214141414141414141414010101021B
:10150000020208141414080814140101150107013B
:101510000202080808080808080101011601010173
:101520000202080404040401010101010101010196
:10153000141406060606060606060101010101143A
:10154000141408080808080104060604040101012F
:101550001414080808080504080806040501010118
:101560000114080808040808080806060401010117
:1015700014140808080408080808080605050101ED
:1015800001140815040808080808080601040401E5
:101590000114141B04041B1B1B1B1406060401016D
:1015A00001140704071A070407040C0806040101C4
:1015B000011404040404040404070C0806010101D6
:1015C000141407040704070407041408060114147C
:1015D0001414140808040406240D0407010701214B
:1015E0002121140101080406240407040D04070A3C
:1015F0000A0A1420020104060F2121212121010AD7
:101600000A0A0220020214060C0A0A0A0A0A070A37
:10161000090A022002020C06140A0A0A0B0A010136
:101620000601022002020C06040A090A0A0A01063F
:101630000601022002020C06040706080808070635
:101640000401022002010C060606060F0808070422
:101650000F010220020114010606010C0108070413
:101660000C01022002010101040601140106060614
:10167000060602200202010405060606060601010E
:10168000010102010101040808050806011D1B1BD8
:101690001B1D0101040404080808050601191C1C8F
:1016A0001C0C08080505050805080806012E1C1C69
:1016B0001C0C0808080808080808050601191C1C65
:1016C0001C0C08080808080808080506011D1B1B53
:1016D0001B1D1414141414141414141414141414BA
:1016E0001414142121211414141414141424242463
:1016F0001414140A0A0A1414141414010101010127
:101700000114140A090A14141414141D1E1D1E1D9C
:101710000101142D040414141414140A0A0A0A0AE8
:1017200001011404040621211414140A0A0B0A0AE4
:101730000101212121060A0A1414140A0A0A0A0ABC
:1017400001010A0A0A060A0A070C072121212121A0
:1017500001010A090A060A0A070C010A0A0A0A0A0A
:101760000101060606060A0A070C010A0B0A0A0A04
:1017700001010104040606060714010A0A090A0AFF
:1017800001010121212121060606010701060701A9
:101790000606040A0A0A0A240606060601060107C6
:1017A0000608040A0A0B0A240607010606060701B2
:1017B0000608040A090A0A06062D2B2C2D06060621
:1017C00006080104060606010701070107010706CE
:1017D00008080808040404040404040404040608B3
:1017E0000808040404011E011E011E01040406066B
:1017F0000808040101011D1D1D1D1D010101010637
:101800000808041E011E0A0A0A0A0A1E011E010413
:101810000108041D1D1D1D1D1D1D1D1D1D1D040474
:101820000401040A0A0A0A0A0A0A0A0A0A0A040F2E
:10183000040F040A0E0B0E0A0A0A0E0B0E0A040C01
:10184000040C040A0A0A0A0F1F0F0A0A0A0A0406ED
:10185000060604040404070C200C07040404040610
:10186000060604040F04040720070404040F0406FA
:10187000060804040C04070420040704040C0406EE
:1018800006080606060606060606060606060606F6
:10189000060808080806060F06060F06060F0606C5
:1018A0000F0808050406080C01010C01010C0101D8
:1018B0000C080808040608010808010101010101DB
:1018C000080808080806080808080808080808089A
:1018D00008080407040704070407040706050808A6
:1018E000141407040704070407040606060808057D
:1018F0000814040704070406060606150805010176
:101900000114070407040706010101010105010193
:101910001414040704071506010F01020202020253
:101920001C1C0F040F060606010C02020202020232
:10193000021C0C070C0608011402020202021C021F
:101940001C0206060606060F0C02020202151C1CEB
:1019500015020F060F06060C0C020202021C181CD0
:1019600016140C080C06061414020201040C1C01C7
:101970000C1C0808060606010C0202040415041CCF
:101980001C14080F0606060F0C02020201161C1892
:101990001614080C0606060C1402020201010104CA
:1019A000181C0808060606010C020202021C0104AB
:1019B000151408080F0606010C02020202020204B6
:1019C000161408080C06060114020202020202069E
:1019D000161408080808080808080806080808086F
:1019E0000404080404040408080808060808080891
:1019F0000808040808080808080408060808080475
:101A0000080804010101010404040806080804048C
:101A10000808010A0D0D0D0D0D0A08060808060834
:101A20000808010A0D0D0D0D0D0A08060808060824
:101A30000808040C0A0A0A0A0A0C0806080804081E
:101A40000808040C0A0B0A0B0A0C0406080806080E
:101A50000808040C0A0A090A0A0C0406080D040402
:101A6000080804040407060704040506080804041B
:101A70000808080401040606060606060808060803
:101A800008080808080101010101080608080608FD
:101A900008080808080808080104080608080606D7
:101AA00006060808080404040408010606060608D9
:101AB00008080808040408040408010608080808BF
:101AC00004080808080808080808010608040404AF
:101AD000040808080408080808080808080101069E
:101AE000040108040804080808080404080801069A
:101AF00001040808010101010101010104040806B3
:101B0000042108080A0A0A0A0A0A0A0A040F010636
:101B1000040A08040A0D0D0D0D0D0D0A040C010632
:101B2000040A08080A0D0D0D0D0D0D0A0504010625
:101B3000040A08040A0A0A0A0A0A0A0A0905010626
:101B4000040408080C0A0B0A0A0B0A0C0605010615
:101B5000060608080C0A0A0A0A0A0A0C0501010608
:101B6000050F08080C0A0A090E0A0A0C05010606E8
:101B7000010C08040C0A0A06040F010106060601FE
:101B8000010108040C0A0A06040C01060601010200
:101B900002020606060606060606060601020202FE
:101BA000020201050404010404040101020202020C
:101BB00002020101040101040704020202020202FE
:101BC00001010102020202020202020202020104F7
:101BD0000401080808060808080808040A0A0A0A8E
:101BE0000A0A080804062121212107080A0B0E0A07
:101BF0000B0E21210F060A0A0A0A010F0A0A0A0916
:101C0000090A0B0A0C060A0B0B0A171A0606060627
:101C100006060A0E04060A0A0A0A240C06242404EC
:101C20000707090A04060A090A0A010C0606240124
:101C300005050606060606062121212121062401A6
:101C400002052121212121060A0A0A0A0A060601A3
:101C500002050A17170B0A040A0B0A0A0A060124CE
:101C600002140A11110A0A040A0A0A090A060F07CD
:101C700002020606060606040406060601010C0218
:101C80000202070101070101020202020220020210
:101C900002020202020202020202050502200205FD
:101CA00002020202050505050502020202200202E7
:101CB00002020505010101150205050505200508BB
:101CC00008080808080808040404010401060705B8
:101CD00008080801010106010102020202020206CF
:101CE0001614010606060608040202020202010496
:101CF0001614080614080804020202020104040172
:101D0000021407060508020202020201181B18024B
:101D10000514080614070202020202020514141434
:101D20001414010601070202020202071413061529
:101D3000071408060F08020202020205050606063D
:101D4000071406060C050202020214071405050416
:101D500007140804140105020202140514141405E2
:101D6000051402010104010202021414140D1414DA
:101D7000141402020207020202020514140D0D14CB
:101D80000505020502020205020202051917171ACB
:101D90001405020202010205050202150C04010CE1
:101DA00014050201150101020202050101010405E9
:101DB00014140408040401020204080104010104CB
:101DC00005140404080804080408080601040405AE
:101DD000051404040408080808080106010808019D
:101DE00002020407040404080801010601080102B4
:101DF0000202080404080808060606060101020299
:101E00000202080808080401060404040102020290
:101E1000020208080405010106010401020202028F
:101E20000707080804040401060101020202020770
:101E3000010808040801010706010202020201016B
:101E40000808080801070101040202020202010158
:101E50000808010101010101100202020202010849
:101E60000808020202020202100202050202010830
:101E70000508020202020202100205040202010821
:101E80000808020202020201060704040202010815
:101E900008060202020201010606011010101006D7
:101EA00006060808020201010601040202020101FD
:101EB00008080808050401060604080402020107D0
:101EC00008080808080404010108080402020101C6
:101ED00001080202020202020202020202040701D7
:101EE00001070202020201040401010104040108C5
:101EF000080102040101010108080808080808088F
:101F0000080101010101060108080808080808087D
:101F1000080807010404060808080701080808085B
:101F2000080801010401060606060606060606065E
:101F30000606010407010608040804010101070858
:101F4000010701040704060808020202020401084E
:101F50000801010404050608020204040202010843
:101F60000808010104040608020205040202020135
:101F70000808010606060608080202020702020116
:101F80000808060601080608080404020202020105
:101F900008080605010106080808080802020701EA
:101FA00008080108040806060606060804010808D1
:101FB00008080808040808080808080801070808AD
:101FC0000801080808080808080808080808080898
:101FD00001010808080D0D0D0D0D0D0D0D08080867
:101FE000080808080D0D0A170A0A170A0D0D080837
:101FF000080808080D0A0202101002020A0D08085B
:10200000080808080D0A0702101002070A0D080840
:102010000808080801010101010101010606060680
:10202000060606060606010F01060606060408084F
:10203000080807010706010C01060A07060A04083A
:102040000F0808070506060606060D0A060508011C
:102050000C010808010108080808080D0606060119
:102060001401080101080108080808010108080115
:102070000101080108080108080808010808080803
:1020800006080804080404040101010114140806E8
:1020900006080804010408080808010814080706CF
:1020A00008140804040804040715010801010608BF
:1020B0001414080808040414010104040106061499
:1020C0001414080808081414141414141414141400
:1020D00014140704080D0D08080408060808080869
:1020E0000814040408080D04040408060808080875
:1020F00014140819170808040408060F080808042F
:102100001414080C080806060606060C0108080840
:102110001414060606060601010108140108040449
:10212000141408010101010808010101010404144B
:102130001414010108080804080801171A040214FD
:102140001414010808080808080808080C08020206
:102150000214010D0804080804040808080802080D
:1021600014140108080804080408081508020415D6
:1021700004140108080808080808081604080416CA
:1021800004140101010108010101080118181801D6
:1021900001141414040D080D080101040C0D0C01A8
:1021A00004141414140404080808041519171A1543
:1021B0000414141414140D0414020116140F14162C
:1021C0001414141414141414020204040104011449
:1021D00014140000000000000000000000000000D7
:1021E00000000000000000000000000000000000EF
:1021F000000000000A0A0A0A0A0A0A0A0A0A0A0A67
:102200000A0000000A0A290A2E29141414142E2E7A
:102210000A0000000A272B0A2E2E1422221424243E
:102220000A0000000B28010A01010101010101243B
:102230000A0000000A01010A012F33333333310150
:102240000A0000000A01010A013035343436320137
:102250000A0000000A2D010101012D2D012D0101AF
:102260000A0000000A0A0A0A010101010101010134
:102270000A0000000A01010101010101010A0A0A24
:102280000A0000000A012421212121212101120A32
:102290000A0000000A012A0A29290A260A01010A5D
:1022A0000A0000000A01070A0A0A0A0A0A07010AC4
:1022B0000A0000000A010101010101010101010AF6
:1022C0000A0000000A0A0A0B0A0A110A0A0B0A0A83
:1022D0000A000000000000000000000000000000F4
:1022E00000000000000000000000000000000000EE
:1022F000000000000A0A0A0A0A0A0A0A0A0A0A0A66
:102300000A0000000A2E2E2E2E2E2E2E2E2E2E2EBF
:102310000A0000000A2E2E2E2E37392E2E2E2E2E9B
:102320000A0000000A34343424383A243434343473
:102330000A0000000A070707010101010707070754
:102340000A0000000A0101012F333333310101017A
:102350000A0000000A01012D30343534322D01010C
:102360000A0000000A01010101012D010101010122
:102370000A0000000A01010101010101010A0A0A23
:102380000A0000000A012121212121212113010A33
:102390000A0000000A012629262929262624010AE6
:1023A0000A0000000A010A0A0A0A0A0A0A01010AC6
:1023B0000A0000000A010101010101010101010AF5
:1023C0000A0000000A0A0A0A0A0A0A0A0A0A0A0A8B
:1023D0000A0000140000001400140014000000148F
:1023E0000000001400000014141400140014001461
:1023F0000000001400000014001400140014001465
:102400000000001414140014001400001400140040
:1024100000000000000000000000000000000000BC
:102420000000000000000000141414141414140020
:1024300000000000000000141414141414141414E8
:1024400000000000001414141414142414141414A0
:102450001400000014141414142424241414141448
:102460001400000014141414240101012414141481
:10247000140000001414141424012424141414143B
:102480001400000014141414240101012414141461
:10249000140000001414140A240124240A1414142F
:1024A000140000001414140A240101010A14141465
:1024B000140000001414140A240124240A1414140F
:1024C000140000001414140A0A110A0A0A1414143D
:1024D00014001414141414141414141414141414D0
:1024E00014141414141414141401140808121414D9
:1024F0001414140812141414140101080808081400
:1025000014141408081414141401141401140814D5
:1025100014141414080114141404141401140101E3
:1025200014141414010414141C041C0101140102D9
:1025300001141414011414040401141C01140102E4
:1025400014141414011404041C01141C04140402B3
:1025500014141414041414141C011401011404029E
:1025600014141414040414141C040101141404029B
:102570000214141414041414140414141414010272
:102580000214141414011414140414140801010284
:10259000021414140101010714011414140102029D
:1025A000141414140C040C040104010101010202AE
:1025B0001414140C01040114141401010202021475
:1025C00014141414141414141414141414141414CB
:1025D00014140A0A0A0A0A0A0A0A0A0A0A0A0A0A47
:1025E0000A0A0A0A0A0A0A0A0A0B0B0A0A0A0A0A49
:1025F0000A0A0A0A0B0A0A0A0A0B0B0A0A0A0A0B37
:102600000A0A0A0E0A0E0A0E0A0A0A0A0E0A0E0A16
:102610000E0A333333333333333B3D3333333333C6
:1026200033330A0A06010601063C3E06010601068E
:102630000A0A0A0A0601060106060606010601063E
:102640000A0A0A0A06010601010101010106010642
:102650000A0A0A0A06010606060606060606010614
:102660000A0A0A0A0601010101010101010101062C
:102670000A0A0101060606060606060606060606FC
:10268000010101010101010101010101010101013A
:10269000010101010101010101010101010101012A
:1026A00001011D1D1D1D1D1D1D0101011D1D1D1DE6
:1026B0001D1D0A0A0A0A0A0A0A0101010A0A0A0A6F
:1026C0000A0A0A0A0A0A0A0A0A0120010A0A0A0A66
:1026D0000A0A0000000000FEFF07FBFAFABA7BBB03
:1026E000FBFBFBFBBB7BBBFBFBFBFB07FFFE00001D
:1026F00000000000000000FFFF00FFFFFFBEBFDE84
:10270000DFDBDBDFDEDFDEBFFFFFFF00FFFF000000
:1027100000000000000000FFFFFEFDFDFD9D8D9DFF
:10272000FDFDFDFDFDFDFDFDFDFDFD7EFFFF00004E
:10273000000000000000007FFFFDF8F8FFCF8FCF02
:10274000FF78787D7FFFEFC7EFFFFEFCFE7F000084
:10275000000000002040404040867C7848784E7C55
:10276000000000010202020202019F3F3F3F3F1FA3
:10277000800000000030202040807E7C487A4E7C23
:102780000000000E0101010202019F3F3F3F3F9FF9
:10279000000000002040404040867C7848784E7C15
:1027A000000000010202020202011FBF3F3FBF1FE3
:1027B000000000002040404040807E7C48784E7CF5
:1027C000000000000304040402011FBF3F3FBF1FBD
:1027D000000000000030202040807E7C487A4E7C43
:1027E0000000000E0101010202011FBF3F3FBF1F99
:1027F000000000007C4E7A487C7E804040404020B3
:10280000000000001FBF3F3F3F9F01020202020283
:10281000010000007C4E7848787C86402020300003
:10282000000000009F3F3F3F3F9F01020201010166
:102830000E0000007C4E7A487C7E80404040402064
:10284000000000001FBF3F3FBF1F01020202020243
:10285000010000007C4E78487C7E80404040402053
:10286000000000001FBF3F3FBF1F0102040404031C
:10287000000000007C4E7848787C864020203000A4
:10288000000000001FBF3F3FBF1F01020201010106
:102890000E0000000000007C4E7C4C7E7CA01000EE
:1028A000C00000000000001F3FBF3FBF1F0001012C
:1028B000000000000000007C4E7C4C7E7C9060504C
:1028C000102000000000001FBF3F3F3F9F0000009E
:1028D000000000000000007C4E7C4C7E7CA01000BC
:1028E000C00000000000001FBF3F3FBF1F000101EC
:1028F000000000000000007C4E7C4C7E7C9050402C
:10290000808000000000001FBF3F3FBF1F0000008D
:10291000000000000000007C4E7C4C7E7C906050EB
:10292000102000000000001FBF3F3FBF1F0000003D
:10293000000000000040807CFE7C7CFE7C000000EB
:10294000000000030404021C3DBA3BBC1F00000051
:102950000000402020C0007CFE7C7CFE7C0000004B
:10296000000000000008051ABA3B3D3C9F00000033
:10297000000000000040807CFE7C7CFE7C000000AB
:10298000000000030404021CBD3A3BBC1F00000011
:10299000000000000000007CFE7C7CFE7C0000004B
:1029A000000000020301021FBC3E3DBC1F000000EE
:1029B0000000402020C0007CFE7C7CFE7C000000EB
:1029C000000000000008051ABA3B3DBC1F000000D3
:1029D0000000080B000202020100090400000102CD
:1029E0000200000524001001052401010104240255
:1029F00006052406000107058103100040090401B3
:102A000000020A00000007050202400000070583DB
:102A1000024000000403090412010002EF02014019
:102A20004123368000010102030141726475696E21
:102A30006F204C4C430041726475696E6F204C6589
:102A40006F6E6172646F0000000000003E5B4F5BC0
:102A50003E3E6B4F6B3E1C3E7C3E1C183C7E3C1841
:102A60001C577D571C1C5E7F5E1C00183C1800FF25
:102A7000E7C3E7FF0018241800FFE7DBE7FF304853
:102A80003A060E2629792926407F050507407F054D
:102A9000253F5A3CE73C5A7F3E1C1C08081C1C3E44
:102AA0007F14227F22145F5F005F5F06097F017F32
:102AB000006689956A606060606094A2FFA29408D5
:102AC000047E040810207E201008082A1C08081C18
:102AD0002A08081E101010100C1E0C1E0C30383E58
:102AE0003830060E3E0E06000000000000005F00B9
:102AF000000007000700147F147F14242A7F2A1285
:102B0000231308646236495620500008070300006A
:102B10001C2241000041221C002A1C7F1C2A08089C
:102B20003E080800807030000808080808000060AF
:102B3000600020100804023E5149453E00427F409B
:102B40000072494949462141494D331814127F10FA
:102B500027454545393C4A49493141211109073644
:102B600049494936464949291E00001400000040E1
:102B700034000000081422411414141414004122DB
:102B8000140802015909063E415D594E7C1211128A
:102B90007C7F494949363E414141227F4141413E86
:102BA0007F494949417F090909013E414151737FEC
:102BB0000808087F00417F41002040413F017F0815
:102BC0001422417F404040407F021C027F7F040866
:102BD000107F3E4141413E7F090909063E41512196
:102BE0005E7F09192946264949493203017F0103BD
:102BF0003F4040403F1F2040201F3F4038403F6340
:102C00001408146303047804036159494D43007F99
:102C10004141410204081020004141417F0402016A
:102C2000020440404040400003070800205454780C
:102C3000407F284444383844444428384444287F5A
:102C4000385454541800087E090218A4A49C787FB4
:102C50000804047800447D40002040403D007F107F
:102C600028440000417F40007C047804787C0804FC
:102C700004783844444438FC1824241818242418B0
:102C8000FC7C08040408485454542404043F44249D
:102C90003C4040207C1C2040201C3C4030403C44B8
:102CA000281028444C9090907C4464544C44000874
:102CB00036410000007700000041360800020102A2
:102CC00004023C2623263C1EA1A161123A4040206A
:102CD0007A385454555921555579412154547841E5
:102CE000215554784020545579400C1E52721239A7
:102CF0005555555939545454593955545458000060
:102D0000457C410002457D420001457C40F029247C
:102D100029F0F0282528F07C545545002054547C97
:102D2000547C0A097F49324949493232484848327D
:102D3000324A4848303A4141217A3A4240207800AC
:102D40009DA0A07D39444444393D4040403D3C2451
:102D5000FF2424487E4943662B2FFC2F2BFF092993
:102D6000F620C0887E090320545479410000447D38
:102D7000413048484A32384040227A007A0A0A7282
:102D80007D0D19317D2629292F282629292926302C
:102D9000484D4020380808080808080808382F104F
:102DA000C8ACBA2F102834FA00007B000008142A9F
:102DB000142222142A14089500220095AA00550016
:102DC000AAAA55AA55AA000000FF00101010FF0083
:102DD000141414FF001010FF00FF1010F010F01476
:102DE0001414FC001414F700FF0000FF00FF14147B
:102DF000F404FC141417101F10101F101F141414C7
:102E00001F00101010F0000000001F101010101F05
:102E100010101010F010000000FF10101010101013
:102E2000101010FF10000000FF140000FF00FF0052
:102E3000001F10170000FC04F414141710171414CA
:102E4000F404F40000FF00F714141414141414F71D
:102E500000F7141414171410101F101F141414F476
:102E6000141010F010F000001F101F0000001F14BD
:102E7000000000FC140000F010F01010FF10FF1410
:102E80001414FF141010101F00000000F010FFFFBA
:102E9000FFFFFFF0F0F0F0F0FFFFFF000000000088
:102EA000FFFF0F0F0F0F0F38444438447C2A2A3E8F
:102EB000147E02020606027E027E026355494163C9
:102EC0003844443C04407E201E2006027E020299C3
:102ED000A5E7A5991C2A492A1C4C7201724C304A5C
:102EE0004D4D303048784830BC625A463D3E4949E5
:102EF00049007E0101017E2A2A2A2A2A44445F448D
:102F00004440514A444040444A51400000FF0103BC
:102F1000E080FF000008086B6B0836123624360686
:102F20000F090F06000018180000001010003040B4
:102F3000FF0101001F01011E00191D1712003C3C7A
:102F40003C3C0000000000D5F08D14A1C881CFD911
:102F5000F1AF2000F2EBECED8A000C0F0C0F0C002F
:102F60000C090F09000900090F0F0B000B0F0C00D3
:102F70000C000B0F0B000C0F0C0F05000500050FCC
:102F800005070E0101070E07020F04000400040FDD
:102F9000040900090F090F09000400030F030F04BF
:102FA00000040F04000D000D0F0D0F01000D0F02A6
:102FB0000E0D0100010F0700070F08000700070FA3
:102FC000070F07000600060F070F03000700070F93
:102FD000030300030F030F0300020E02040B0E0194
:102FE00002030E01030C0A0507090B080A090F0B5F
:102FF0000D0C0C0E0F090C1011040A12130C0B14FB
:10300000150409080F080F04090405030404050347
:1030100006090516160A05171A05081B1B08081CC1
:10302000200B08212304052425030C26280C0B0C57
:103030000B0B0B0B0B0706292908062A2A08092B5C
:103040002C040E2D2D060E2E2E090E2F2F0A0E30BB
:10305000300900090F090F09000F09000900090FC5
:10306000090500050F050F05000A0D31310806326C
:10307000320E0432320F0B000B000B0F0B0D0F0D35
:10308000000D000D0F0204070F070F0204090901CC
:1030900005090B02060F0C3333060834340F060003
:1030A0000600060F060F03000300030F03050301CC
:1030B00002020204030F06000600060F060C0F0CA6
:1030C000000C000C0F0F06000600060F060A0F0A80
:1030D000000A000A0F0C030107090334340A0535FE
:1030E000350D0D36360B0107070F0007070F0F07C9
:1030F00007000F07070F0F07070F0007070F00074D
:10310000070F0007070F000707000F07070F0F073C
:10311000070000000B030A01080608080F080F0645
:103120000809093939090B3A3A050F0D060B050B49
:103130000C0D0601095245424F4F5400534554555A
:103140005020454550524F4D00434C45415220457B
:103150004550524F4D0053415620434845434B2064
:103160004552524F522100010204081020408000B5
:10317000452D11241FBECFEFDAE0DEBFCDBF12E038
:10318000A0E0B1E0E8ECF7E602C005900D92AA3DA0
:10319000B107D9F727E0AAEDB2E001C01D92A1392D
:1031A000B207E1F718E1C9EBD8E104C02197FE01AD
:1031B0000E94D031C83BD107C9F70E94A72D0C94BB
:1031C000E2330C9400005F926F927F928F929F92F5
:1031D000AF92BF92CF92DF92EF92FF920F931F9325
:1031E000CF93DF936C015B014A013901E12CF12C93
:1031F00055245A94500E1E2DC0E0D0E0C038D105A1
:1032000049F18C2F81278C2B80FD22C0CC15DD0548
:10321000FCF08C169D06E4F0EA14FB04CCF06E146E
:103220007F04B4F041E050E0023010F440E050E0A0
:103230004E0D5F1D61E070E081E0851510F460E0E7
:1032400070E06C0F7D1F20E081E097E00E94942BDE
:103250002196D4CF9FEFE91AF90A80E4E816F10429
:1032600051F6DF91CF911F910F91FF90EF90DF907A
:10327000CF90BF90AF909F908F907F906F905F9016
:1032800008952F923F924F925F926F927F928F920A
:103290009F92AF92BF92CF92DF92EF92FF920F93E5
:1032A0001F93CF93DF936C015B01122FC42FD0E0EB
:1032B00081E090E04C018C1A9D0A662477246C1AF8
:1032C0007D0A660C771C6FEF70E080E090E00E9452
:1032D0003A29202E312C412C512C6215730584057E
:1032E00095054CF0212FA5014C0F5D1FB60181E023
:1032F00097E00E94942B6FEF70E080E090E00E94D6
:103300003A2962157305840595054CF0212FA50116
:103310004C1B5D0BB60181E097E00E94942B6FEF90
:1033200070E080E090E00E943A2962157305840500
:1033300095054CF0212FA501B6016C0F7D1F81E092
:1033400097E00E94942B6FEF70E080E090E00E9485
:103350003A2962157305840595054CF0212FA501C6
:10336000B6016C1B7D0B81E097E00E94942BE12C51
:10337000F12CEC16FD060CF0C3C097FC06C021979B
:1033800082E0680E711C860C971C8FEFE81AF80A11
:10339000C701880F991F0196880E991E6FEF70E084
:1033A00080E090E00E943A29621573058405950536
:1033B0005CF0212FA5014C0F5D1FB7016C0D7D1D29
:1033C00081E097E00E94942B6FEF70E080E090E046
:1033D0000E943A2962157305840595055CF0212F3A
:1033E000A5014C0F5D1FB6016E197F0981E097E0C2
:1033F0000E94942B6FEF70E080E090E00E943A29E9
:1034000062157305840595055CF0212FA5014C1B01
:103410005D0BB7016C0D7D1D81E097E00E94942B40
:103420006FEF70E080E090E00E943A29621573052A
:10343000840595055CF0212FA5014C1B5D0BB601A1
:103440006E197F0981E097E00E94942B6FEF70E086
:1034500080E090E00E943A29621573058405950585
:103460005CF0212FA7014A0D5B1DB6016C0F7D1F7B
:1034700081E097E00E94942B6FEF70E080E090E095
:103480000E943A2962157305840595055CF0212F89
:10349000A7014A0D5B1DB6016C1B7D0B81E097E017
:1034A0000E94942B6FEF70E080E090E00E943A2938
:1034B00062157305840595055CF0212FA5014E1951
:1034C0005F09B6016C0F7D1F81E097E00E94942B8D
:1034D0006FEF70E080E090E00E943A29621573057A
:1034E000840595050CF445CF212FA5014E195F09E0
:1034F000B6016C1B7D0B81E097E00E94942B39CFC5
:10350000DF91CF911F910F91FF90EF90DF90CF90BF
:10351000BF90AF909F908F907F906F905F904F90F3
:103520003F902F9008954F925F926F927F928F926B
:103530009F92AF92BF92CF92DF92EF92FF920F9342
:103540001F93CF93DF93CDB7DEB728970FB6F894CC
:10355000DEBF0FBECDBF809110019091110197FD8C
:103560000F969C0104E0359527950A95E1F7209385
:103570007A07809112019091130197FD0F9614E044
:10358000959587951A95E1F7809379073327A901D7
:10359000445051095A8349832B5F3F4F3C832B830F
:1035A00099279C01225031093E832D8303969887E9
:1035B0008F8357FF07C081EF489F402D1124409310
:1035C000DD0202C01092DD0237FF07C081EF289FA5
:1035D000202D11242093DC0202C01092DC02809185
:1035E000DD028093DB028091DC028093DA02FE012F
:1035F00031969E01275F3F4F4FE050E080819181DF
:1036000097FF03C01182108204C0409714F05183C9
:1036100040833296E217F30789F7FD80B0EF8B2ED7
:10362000AF2CB12C8F8198858A159B050CF4D2C0E4
:103630009980892D90E02B813C81281739070CF463
:10364000BEC020917A07C0901001289DC00C1124A3
:103650002091790700911201289D000D11242091DD
:103660007B07F50130E1239FE00DF11D1124A4E05B
:10367000EE0FFF1FAA95E1F7E80FF91FEE52FE4E7D
:10368000949110E0D12C9C3189F16091DA02809103
:10369000DB029D31A8F4913009F444C0923009F066
:1036A00073C04090FB02512C612C712C759467946F
:1036B000579447949FEF491A590A690A790A2BC00F
:1036C0009E3281F19333D1F1923209F05DC0409086
:1036D000FB02512C612C712C75946794579447947C
:1036E00031E2430E511C611C711C15C06DE370E08A
:1036F00080E090E00E943A29660F771FFB01EF53AC
:10370000FE4F408151816091DA0270E0601B710BC5
:103710008091DB0244C09201220F331FF901EF5365
:10372000FE4F38C070E0601B710B90E001E020E1BB
:1037300040E18C199D090E94D2233AC0662E712C5B
:10374000601A710A482E512C4C185D0801E020E1E6
:1037500040E1B301C2010E94D223B3016E5F7F4FEB
:103760008091DB026034710528F490E08C199D098A
:103770000E947123B3016C5F7F4F60347105C0F408
:10378000C2010E94712314C0E491F0E0EE0FFF1F0C
:10379000E154FE4F4081518170E0601B710B90E05D
:1037A000EE24E39400E120E18C199D090E94272A70
:1037B0008091DB02805F8093DB0293943ACF80910B
:1037C000DD028093DB028091DA02805F8093DA026F
:1037D000F39426CF28960FB6F894DEBF0FBECDBF68
:1037E000DF91CF911F910F91FF90EF90DF90CF90DD
:1037F000BF90AF909F908F907F906F905F904F9011
:1038000008952F923F924F925F926F927F928F9284
:103810009F92AF92BF92CF92DF92EF92FF920F935F
:103820001F93CF93DF93CDB7DEB72A970FB6F894E7
:10383000DEBF0FBECDBF5C017A8769874D839B01D8
:10384000295F3F4F3C832B834C0137E0830E911C53
:1038500021E04FE0C4010E94A623E984FA8486E0B7
:10386000E80EF11CCC24C394D12C412C512C07E040
:1038700010E022EF3FEF3A8329832AEF622E77246C
:103880007A94C50129853A85821B930B9F838E8389
:103890002FEF421A520A32E0C30ED11C6C0C7D1C71
:1038A000202E220C31E0320DC201079621E0432F79
:1038B0002B803C80201A310AB1018A0D9B1D38876C
:1038C0000E94A62321E04C2DB701C401800F911F57
:1038D0000E94A62321E03885432FB1018E819F816C
:1038E0008E0D9F1D0E94A62321E04C2DB701C4011F
:1038F000801B910B0E94A623401651067CF477FC96
:1039000009C00150110989819A8102969A8389839D
:10391000680E791E91E0E91AF108BACF00E020E0C4
:1039200047E06B817C81C4010E9441193D81E32FF6
:10393000F0E0EE0FFF1FE356FE4F40815181698595
:103940007A856D5F7F4FE12C08E028E0C501049681
:103950000E94272A2A960FB6F894DEBF0FBECDBF6D
:10396000DF91CF911F910F91FF90EF90DF90CF905B
:10397000BF90AF909F908F907F906F905F904F908F
:103980003F902F9008950F931F93CF93DF931F9233
:10399000CDB7DEB7082F10E0C80179830E94B22BA3
:1039A0007981672FC80101960F90DF91CF911F9108
:1039B0000F910C94B22B1F93CF93DF93C82FD0E0BD
:1039C000CE010E94CE2B182FCE0101960E94CE2B45
:1039D000C82F61E070E080E090E00E945E29812FB6
:1039E0009C2FDF91CF911F910895CF93DF93C0E07B
:1039F000D0E0FE01EC5AF04D6491CE010E94B22B52
:103A00002196C530D105A9F760910F0185E090E0BE
:103A10000E94B22B609110017091110186E00E940A
:103A2000C31C609112017091130188E00E94C31CB5
:103A300060917B078AE090E0DF91CF910C94B22BEC
:103A4000CF93DF9380910C01813079F038F0823090
:103A5000B9F08330F9F481E090E014C010927F0750
:103A600010927E078FEF9FEF06C010927F07109293
:103A70007E0781E090E090937D0780937C070AC0E9
:103A80008FEF9FEF90937F0780937E0710927D07C3
:103A900010927C0781E080938007E0911001F09103
:103AA000110140917E0750917F07BF01640F751F80
:103AB000673F710570F4A0911201B091130120913C
:103AC0007C0730917D07CD01820F931F873F9105C1
:103AD00018F01092800765C0EF01F7FD2F966894EB
:103AE00013F8D595C7951694E1F7689413F8759572
:103AF00067951694E1F7C617D707A1F160917B0788
:103B0000C3E0440F551FCA95E1F7E40FF51FF7FD19
:103B10003F9644E0F595E7954A95E1F780E1689F87
:103B2000A001112473E0220F331F7A95E1F7CD0134
:103B3000820F931F97FD0F9624E0959587952A9500
:103B4000E1F7840F951F34E0880F991F3A95E1F74C
:103B5000E80FF91FEE52FE4EADE3B2E091E02AE22B
:103B60002A0F14C0BD01B7FF02C0615F7F4FC4E0E0
:103B700075956795CA95E1F7D4E095958795DA959F
:103B8000E1F76817790709F0B9CF0BC084913D912F
:103B9000831303C0653F08F490E02A13F7CF909396
:103BA0008007DF91CF9108950F931F930E9498296A
:103BB0000091EB021091EC022091ED023091EE02A7
:103BC0000C5E1F4F2F4F3F4F6017710782079307FF
:103BD00008F440C00E9498296093EB027093EC02B5
:103BE0008093ED029093EE028FEF80931C010E9470
:103BF000F32987FD10921C010E94F32984FF03C062
:103C000081E080931C010E94F32985FF03C082E0BC
:103C100080931C010E94F32986FF03C083E08093F8
:103C20001C010E94F32983FF03C084E080931C01E0
:103C30000E94F32982FF03C085E080931C010E944B
:103C4000F32983FF07C00E94F32982FF03C086E0A7
:103C500080931C011F910F9108958F929F92AF92B4
:103C6000BF92CF92DF92EF92FF920F931F93CF9369
:103C7000DF93082FC1E3D0E0C12CD12C760187EE71
:103C8000882E99249A94A92CB92C011127C00E943E
:103C9000D0240E94931A0E94F42310910F01115016
:103CA000C701B601A50194010E940E31DA01C901D4
:103CB000412FBE010E94011C81E097E00E94152A5D
:103CC00087E0C81AD108E108F108219781E5C816F4
:103CD0008FEFD806E806F806C1F606C00E94D41D8C
:103CE00090911C01953099F2DF91CF911F910F9126
:103CF000FF90EF90DF90CF90BF90AF909F908F900C
:103D00000895AF92BF92CF92DF92EF92FF920F93FE
:103D1000CF93DF93D82F20910F01082E000C990B21
:103D2000820F911D01970A9718F42D0F20930F0110
:103D3000CEE0DC9FC02D112489EFA82EBB24BA94BD
:103D40000E94D0240E94931A0E94F4236501CC1A89
:103D5000D108C7FDD394E12CF12C40910F01842FA1
:103D600090E001968E199F090A97B0F44F5F4E19A3
:103D7000B60188E090E00E94011C82E0E816F104A0
:103D800059F001E09601225F3F4F46E150E0B60155
:103D900088E090E00E94E3188FEFE81AF80A8FE0BD
:103DA000C80ED11C86E0E816F104B9F64091FB027A
:103DB000465F00E021E06EE170E08FE090E00E945D
:103DC00041194091FB02455F20E06EE170E08FE019
:103DD00090E00E9441194091FB02445F21E06EE1B6
:103DE00070E08FE090E00E94411981E097E00E942E
:103DF000152AD7FF02C0CF5F02C0D111C150C11137
:103E00009FCFDF91CF910F91FF90EF90DF90CF90F8
:103E1000BF90AF9008950F93CF93C0E00C2F20E494
:103E200030E04FE750E060E070E080E090E00E941A
:103E3000E31881E097E00E94152A6AEF70E080E0C5
:103E400090E00E945E29CF5FC43041F7CF910F917F
:103E500008954F925F926F927F928F929F92AF924E
:103E6000BF92CF92DF92EF92FF920F931F93CF9367
:103E7000DF930E94D0240E94931A0E94F423809121
:103E80007B0790E020911A0130911B018217930764
:103E9000B9F580E092E00E94CE2B843089F5A7C06E
:103EA000209110013091110137FF02C0215F3F4F77
:103EB000A90114E0559547951A95E1F740937A07C3
:103EC000209112013091130137FF02C0215F3F4F53
:103ED000D4E035952795DA95E1F72093790760913D
:103EE00016017091170177FF02C0615F7F4FC4E038
:103EF00075956795CA95E1F74617570709F4ACC061
:103F000080910E01882349F040910F01415061E3F7
:103F100070E080E090E00E94011C8091100190917F
:103F2000110197FD0F96A4E095958795AA95E1F765
:103F300080937A07809112019091130197FD0F965B
:103F400064E0959587956A95E1F7809379077CE51C
:103F5000E72E7FE2F72ECEE6D0E1E0E8CE2EEFE0CE
:103F6000DE2EFBE5AF2EFFE2BF2EFE013197E4917E
:103F700080917B07E81319C0F601319794918091E5
:103F80000C01981719F0E491EF3F79F4F70133979A
:103F9000E49180917A07E81308C0F7013297E49121
:103FA00080917907E81709F46DC0F4E0EF0EF11C79
:103FB000239682E0C80ED11CE4E0AE0EB11CF1E104
:103FC000C33DDF0791F681E097E0DF91CF911F912C
:103FD0000F91FF90EF90DF90CF90BF90AF909F90A8
:103FE0008F907F906F905F904F900C94152A8091E6
:103FF00012019091130197FD019695958795E09098
:104000001801F0901901E81AF90A809110019091B5
:10401000110197FD019695958795C0901601D09056
:104020001701C81AD90AC1E0AA24AA94B12C909108
:104030000D01C91708F034CF692F70E0C5010E9447
:10404000A831C69F002D112420E04C2FB701C601D6
:104050000E944119CF5FEBCF409118015091190197
:1040600057FF02C0415F5F4FB4E055954795BA9541
:10407000E1F72417350709F043CF64E0690F609337
:104080000D013ECFFE013196E491E13009F044C0CC
:104090000E94D41D0E9498290091EF021091F00215
:1040A0002091F1023091F2020A561F4F2F4F3F4FDD
:1040B000601771078207930708F46CC080911C0198
:1040C000843009F067C0F6018491882309F462C046
:1040D000F5011491FE01849190E00B960E94CE2B85
:1040E000F701249190E0810F911D30E028173907E6
:1040F0000CF050C0FE01849190E060E00B960E94AD
:10410000B22B0E9498296093EF027093F002809383
:10411000F1029093F20249CFE13048F5F601449163
:10412000F70184918295807FF50124912295207F6B
:10413000FE01949190937B07922F92959F7090939C
:104140007A07982F92959F709093790730E030937B
:1041500011012093100190E09093130180931201BC
:1041600040930C010E940B1F0E94F51C1ECFE230F1
:1041700009F01BCFF701849190E081589F4F0E9476
:10418000CE2B882309F4A1C0F6018491813009F077
:104190000CCF9BC0F5019490FE01849190E00B96AA
:1041A0000E94CE2B980EF7018491891508F4FDCE5C
:1041B00001E020E440E860E070E080E090E00E94F0
:1041C000D22300E010E0712CA92DB0E0AA0FBB1F94
:1041D000A95DBE4F8D909C90412C512C509214079C
:1041E000409213071093160700931507F401E70D8B
:1041F000F11D64906491E091FD06F091FE0601903E
:10420000F081E02D8DEF96E009957394FAE06F163A
:1042100049F086E0480E511CEEE74E165104F1F6C7
:10422000512C02C05524539440E050E066ED72E0FA
:104230008DEF96E00E94852742E050E064ED72E049
:104240008DEF96E00E948527511006C0085F1F4F32
:104250000032110509F0C0CF81E097E00E94152AD5
:104260000E9498290091EF021091F0022091F10232
:104270003091F2020A561F4F2F4F3F4F60177107C0
:104280008207930708F491CE0E9498296093EF0269
:104290007093F0028093F1029093F2020E94D41D79
:1042A00080911C01843009F080CEFE01849190E061
:1042B0000B960E94CE2BFE01949161E0680F892F2E
:1042C00090E00B960E94B22B70CEF5011491FE0186
:1042D0008491811101C01195F701849190E061E012
:1042E00081589F4F0E94B22B80E00E942D1E812F8B
:1042F0000E94811E80E00E94811E0E94F51C68EED3
:1043000073E080E090E00E945E294FCEFC01809136
:10431000E602811103C08FEF9FEF08959FB7F894D5
:1043200082E08093E9002091F20030E0121613063B
:1043300014F421E030E02115310559F0289884E685
:104340008093E5028091F10080838091F2008823C0
:1043500019F09FBFC90108958BE68093E800F9CF5B
:104360002FB7F89483E08093E9009091E800892FBB
:10437000807295FF04C09091F20080E4891B2FBFEA
:1043800008958091200781110DC082E080931C0761
:1043900084E080931D0710921F0710921E0781E092
:1043A000809320078CE197E00895CF93DF931F92CD
:1043B000CDB7DEB76983DC01ED91FC910280F3811A
:1043C000E02D41E050E0BE016F5F7F4F09950F90F7
:1043D000DF91CF91089583E08093E9008091F2000E
:1043E000882319F08AE38093E80008950E94B021A1
:1043F00090E00895CF93DF931F92CDB7DEB7FC0115
:104400008485958597FD05C02FEF3FEF358724877D
:104410000BC0CE0101960E948621019719F4898173
:1044200090E002C08FEF9FEF0F90DF91CF91089542
:104430000F931F93CF93DF931F92CDB7DEB78C01FD
:10444000FC018485958597FF0EC0CE0101960E94E0
:104450008621019719F4298130E002C02FEF3FEF48
:10446000F80135872487F801848595850F90DF91C1
:10447000CF911F910F910895FC018485958597FD3B
:104480000BC09FB7F89482E08093E9008091F2001E
:104490009FBF90E0019608959FB7F89482E08093C3
:1044A000E9008091F2009FBF90E008958F929F9263
:1044B000AF92BF92CF92DF92EF92FF920F931F9332
:1044C000CF93DF935C016B017A0180910B0188230C
:1044D00009F45BC08091E602882309F456C08091FC
:1044E000E40280FF05C08091E00082608093E000DC
:1044F000E70110E00AEF83E0882E9AE3992E2097D7
:10450000D9F10E94B02181110AC0015009F43DC0C7
:1045100061E070E080E090E00E945E29F0CF282FFB
:1045200030E0C217D3070CF48C2F4FB7F894809269
:10453000E9009091E80095FF1DC0282F30E0C21BD4
:10454000D30BF601982F915020F081918093F100C8
:10455000FACFC20ED31E112319F09092E80009C0C1
:104560008091E80085FD06C09092E80011E0209758
:1045700009F010E04FBFC3CF1111C3CF5D9884E69F
:1045800080931B071E141F0444F081E090E0F501A6
:104590009383828380E090E001C0C701DF91CF91D7
:1045A0001F910F91FF90EF90DF90CF90BF90AF9051
:1045B0009F908F900895CF92DF92EF92FF920F938A
:1045C0001F93CF93DF931F92CDB7DEB7182F062F1F
:1045D000E42E862F880F8E5F99830E94C62883E081
:1045E0000E94C628F12EC12E9981D92E8C2D8F19AB
:1045F000801798F4F601E7FE02C0849101C0808123
:104600000E94C628182F80E00E94C6288123FFEF51
:10461000CF1ADF0A8111EACF01C081E00F90DF914C
:10462000CF911F910F91FF90EF90DF90CF90089561
:10463000DF92EF92FF920F931F93CF93DF93D82EC9
:104640008A017B01E40EF51EEB01CE15DF0571F04A
:10465000D7FE03C0FE01849101C088810E94C62854
:1046600021968111F2CF8FEF9FEF01C0C801DF913A
:10467000CF911F910F91FF90EF90DF9008950F93CE
:104680001F93CF93DF931F92CDB7DEB782E089836C
:1046900042E450E062ED79E280E80E9418230E9433
:1046A000C121DC0112960D911C9113970115110582
:1046B00069F0D801ED91FC910280F381E02DBE01FB
:1046C0006F5F7F4FC801099597FF07C089810F90E1
:1046D000DF91CF911F910F910895F8010085118509
:1046E000E5CF9C01215F3F4F2F38310570F5FC016C
:1046F00097FF02C0E0E0F0E040968138910514F0A9
:1047000080E890E08E1BAB014770552721E030E038
:1047100001C0220F4A95EAF7209577FF02C0695F32
:104720007F4F93E0759567959A95E1F77695762F8B
:10473000662777956795E60FF71FE350FD4F815089
:1047400020F0908192239193FACF0895DF92EF9217
:10475000FF920F931F93CF93DF937C01D22E8B0197
:10476000040F111DEB0177FF0EC0C0E0D0E00BC0BD
:10477000C417D5077CF42D2DAE01B70181E097E079
:104780000E94942B2196A801013411058CF340E47A
:1047900050E0EECFDF91CF911F910F91FF90EF90FE
:1047A000DF900895CF92DF92EF92FF920F931F93C5
:1047B000CF93DF936B01122FEC017C01E40EF11C0F
:1047C000CE15DF0544F4202F412FB601CE010E9403
:1047D000A6232196F5CFDF91CF911F910F91FF90E6
:1047E000EF90DF90CF9008956F927F928F929F927B
:1047F000AF92BF92CF92DF92EF92FF920F931F93EF
:10480000CF93DF931F92CDB7DEB730910C0110919B
:10481000FB02612E712CE32FF0E0EE0FFF1F809161
:10482000FC02E80FF11DEE0FFF1FEE0FFF1FE60D5C
:10483000F71DEE0FFF1FE259FD4F40815181E12C22
:1048400000E120E167E170E087E390E039830E94B6
:10485000272A3981332309F46DC0323031F03330E7
:1048600031F0313031F48DE305C08AE303C081E4D7
:1048700001C087E3E82EF12C01E022E041E06BE18A
:1048800070E0C7010E94D223670122E0C20ED11C52
:1048900022E041E06BE170E0C6010E94D2230E9459
:1048A00098298090F7029090F802A090F902B090B9
:1048B000FA0228E8820E23E1921EA11CB11C6815A1
:1048C00079058A059B0510F0112331F080912807A6
:1048D000811130C0111102C01092280722E030E08F
:1048E000261937091216130624F482E0B82EB11ADD
:1048F00003C08EEFB82EB10E00E02B2D41E06BE12E
:1049000070E0C7010E94D2232B2D41E06BE170E0E3
:10491000C6010E94D223123069F40E949829609344
:10492000F7027093F8028093F9029093FA0281E003
:10493000809328070E949829C090E702D090E8024F
:10494000E090E902F090EA0226E9C20ED11CE11CD7
:10495000F11C6C157D058E059F0590F00E9498292D
:104960006093E7027093E8028093E9029093EA0271
:104970001F5F143018F41093FB0202C01092FB0268
:104980000F90DF91CF911F910F91FF90EF90DF90EB
:10499000CF90BF90AF909F908F907F906F90089531
:1049A00080E0EDEFF2E081118FEF0024819381939D
:1049B000819381930394D1F7EDEFF6E0118E108E81
:1049C000178A168A08951F920F920FB60F9211241C
:1049D0008F939F938091E1009091E100937F90935A
:1049E000E10083FF0FC01092E90091E09093EB008B
:1049F0001092EC0092E39093ED001092E60298E0A2
:104A00009093F00082FF20C093E09093E900909192
:104A1000F200992319F09AE39093E80090911B0714
:104A2000992339F090911B07915090931B0799237C
:104A300089F19091E502992339F09091E502915026
:104A40009093E502992341F184FF10C08091E20028
:104A50008E7E81608093E2008091E1008F7E809362
:104A6000E1008091E4028E7E806111C080FF16C05B
:104A70008091E2008E7E80618093E2008091E1006F
:104A80008E7E8093E1008091E4028E7E816080932F
:104A9000E40204C05D9ACDCF289AD6CF9F918F9122
:104AA0000F900FBE0F901F9018951F920F920FB688
:104AB0000F921124CF92DF92EF92FF920F931F93E8
:104AC0002F933F934F935F936F937F938F939F9316
:104AD000AF93BF93EF93FF93CF93DF93CDB7DEB741
:104AE0006C97DEBFCDBF1092E9008091E80083FF94
:104AF000EDC168E0CE0145960E94F42882EF8093D4
:104B0000E8008D8987FF05C09091E80090FFFCCFF9
:104B100003C09EEF9093E800982F907609F0C6C0EE
:104B20009E892F89188D91110CC0803829F48091AD
:104B3000E3028093F10002C01092F1001092F100A4
:104B400048C1422F50E0512B913051F4811141C1A5
:104B50004130510509F03DC18091E3028D7F0BC0CA
:104B6000933061F4811135C14130510509F031C1F3
:104B70008091E30282608093E3022BC1953041F47F
:104B80008091E80080FFFCCF20682093E30021C1E2
:104B9000963009F05FC0EB8CFC8C1092E90010920B
:104BA000E1021092E002123091F51092DF021092B1
:104BB000DE020E943F2399E0BE016F5F7F4FDB0161
:104BC000E92F1D92EA95E9F799831A8391E09E8374
:104BD00090EA98879AEF99872091E0023091E1025C
:104BE000275F3F4F3C832B838D831092E900109207
:104BF000E1021092E002F092DF02E092DE0249E070
:104C000050E080E00E9418230E943F23E2C0F0920F
:104C1000DF02E092DE020E94C121DC011296ED90DB
:104C2000FC901397E114F10409F4C0C0D701ED9191
:104C3000FC910480F581E02DBE016B5E7F4FC701C2
:104C40000995009719F00CF0C4C0C7C0F701E084C3
:104C5000F184E8CF973009F4C0C0983021F481E0A6
:104C60008093F100B6C0993009F0B3C0837009F0A9
:104C7000B4C0E8E6F2E081E021E036E390819923D8
:104C800061F08093E9002093EB0091919093EC0008
:104C90003093ED008F5F873089F78EE78093EA00CD
:104CA0001092EA008F898093E60293C08B8D9C8DD1
:104CB0001092E9001092E1021092E0029093DF025C
:104CC0008093DE02898D811156C08E899D89913A2B
:104CD00059F4813209F081C047E050E064E071E0AE
:104CE00080E00E94182375C0913209F076C08332AB
:104CF00089F4888D90E0982F88272F89822BA0E057
:104D0000B0E08093000190930101A0930201B09361
:104D100003015FC0803269F48091E80082FFFCCF1C
:104D200067E084E091E00E94F4288BEF8093E80034
:104D300006C0823209F04DC08F8980930B018091AB
:104D4000E202882319F0EEEFFAE002C0E0E0F8E0BA
:104D50008091040190910501A0910601B091070195
:104D6000803B9440A105B10509F07BC080910B0107
:104D700080FF93C076C00E94C121DC0112960D9184
:104D80001C9113970115110541F1D801ED91FC918A
:104D90000190F081E02DBE016B5E7F4FC801099547
:104DA000811117C0F80100851185ECCF113009F48D
:104DB0004EC0133091F48F89882309F445C08230A6
:104DC00081F440E860E186E39AE20E94DB228823D6
:104DD00021F08EEF8093E80079C081E28093EB00B0
:104DE00075C0813029F440E86BE08AE29AE2EDCFA9
:104DF000833099F70E94C121DC011296ED90FC905E
:104E000013978E010F5F1F4F6801E114F10479F0D1
:104E1000D701ED91FC910680F781E02DB801C70123
:104E20000995080F111DF701E084F184EECFD80138
:104E30001C92F60101900020E9F73197BF016C192F
:104E40007D0940E0C601C1CF64E17AE202C068E1B9
:104E50007AE26115710509F2FB01449150E080E8A6
:104E600040CF0FB6F894A895809160008861809338
:104E70006000109260000FBEA895EE3F2AE0F20796
:104E800039F08091FE0A9091FF0A91838083A1CF2F
:104E90001092FF0A1092FE0A9CCFEE3F8AE0F807BC
:104EA00031F0808191819093FF0A8093FE0A87E719
:104EB00097E7918380839BE088E10FB6F894A895EB
:104EC000809360000FBE9093600083CF6C960FB606
:104ED000F894DEBF0FBECDBFDF91CF91FF91EF9170
:104EE000BF91AF919F918F917F916F915F914F9102
:104EF0003F912F911F910F91FF90EF90DF90CF90F6
:104F00000F900FBE0F901F901895CF92DF92EF92E7
:104F1000FF920F931F93CF93DF936C017A018B0164
:104F2000C0E0D0E0CE15DF0589F0D8016D918D018C
:104F3000D601ED91FC910190F081E02DC60109951B
:104F4000892B11F47E0102C02196ECCFC701DF91BD
:104F5000CF911F910F91FF90EF90DF90CF90089528
:104F60003FB7F8948091860790918707A0918807B2
:104F7000B091890726B5A89B05C02F3F19F001966F
:104F8000A11DB11D3FBFBA2FA92F982F8827820FCF
:104F9000911DA11DB11DBC01CD0142E0660F771F1F
:104FA000881F991F4A95D1F708950E94CD332F92FB
:104FB0003F924F925F926F927F928F929F92AF92A9
:104FC000BF92CF92DF92EF92FF920F931F93CF93F6
:104FD000DF93CDB7DEB729970FB6F894DEBF0FBECB
:104FE000CDBFFC016A3069F4248D808D918D38E04D
:104FF000239F800D911D1124918F808F178A168A0F
:10500000AAC06D3009F4A7C099878887F48C338CC7
:10501000228C608C718C0689178900381105C4F0C8
:10502000A885B9855C962C915C97422F50E05696E6
:105030008D919C915797B6E02B9F800D911D112467
:10504000E885F985978B868B258D21116EC083C0ED
:10505000F0E46F16710424F7C80125E0F29E800D7C
:10506000911D112418161906DCF68F2D90E09C83F3
:105070008B83C301A8E0FA9E800D911D11241816A0
:10508000190674F6B5E06B9FB0011124FB01E95BD2
:10509000F54DFA83E98330E08885998504969E83EF
:1050A0008D83E981FA81E490353009F4E12C4301E4
:1050B00088E0482EE0FC02C0532C01C0522C511055
:1050C0000BC0321009C0E6944A948B819C81880EF3
:1050D000991E4110EFCF1BC068018C2D801B8F15CE
:1050E00090F754018A2D88198F1568F4252DA50194
:1050F000B6018D819E813F830E94942B9FEFA91A58
:10510000B90A3F81EFCFAFEFCA1ADA0AE6CF3F5FA5
:10511000EB81FC810E0F1F1F89819A8101969A8372
:105120008983363009F0BDCF7BCF6AEF64039001ED
:10513000659F300D112420583F4F281739075CF424
:10514000A885B985ED91FC9111970190F081E02D32
:105150006AE0CD01099581E090E029960FB6F894B8
:10516000DEBF0FBECDBFDF91CF911F910F91FF909A
:10517000EF90DF90CF90BF90AF909F908F907F90F7
:105180006F905F904F903F902F9008954091E00274
:105190005091E1022091DE023091DF024217530765
:1051A000B4F49091E8009570E1F39091E80092FDDD
:1051B00019C08093F1008091E0029091E102019684
:1051C0008F739927892B19F48EEF8093E8008091D3
:1051D000E0029091E10201969093E1028093E00257
:1051E00081E0089580E00895615030F02091F10051
:1051F000FC0120830196F8CF289884E68093E5028D
:1052000008950F931F93CF93DF93EC0188819981C9
:10521000009729F02A813B812617370788F48B01F4
:105220006F5F7F4F0E940333009761F099838883FB
:105230001B830A832C813D81232B11F4FC011082F6
:1052400081E001C080E0DF91CF911F910F9108951F
:10525000CF93DF93EC0188819981009711F00E9430
:105260006B32198218821D821C821B821A82DF9186
:10527000CF910895CF93DF9300D000D0CDB7DEB7A4
:10528000611571058105910579F09B01AC01698378
:105290003A834B835C830E94B53029813A814B81EC
:1052A0005C810E940E3103C060E070E0CB010F9082
:1052B0000F900F900F90DF91CF9108958F929F9252
:1052C000AF92BF92CF92DF92EF92FF926B017C017F
:1052D0000E94B0274B015C01C114D104E104F10428
:1052E000F1F00E94B027DC01CB0188199909AA09C5
:1052F000BB09883E9340A105B10570F321E0C21AB5
:10530000D108E108F10888EE880E83E0981EA11C00
:10531000B11CC114D104E104F10419F7DDCFFF90F1
:10532000EF90DF90CF90BF90AF909F908F900895B7
:105330002FB7F8946091820770918307809184075A
:10534000909185072FBF08951F920F920FB60F926D
:1053500011242F933F938F939F93AF93BF9380918B
:10536000820790918307A0918407B09185073091BF
:10537000810723E0230F2D3720F40196A11DB11DD5
:1053800005C026E8230F0296A11DB11D20938107B9
:105390008093820790938307A0938407B093850737
:1053A0008091860790918707A0918807B09189071F
:1053B0000196A11DB11D8093860790938707A09346
:1053C0008807B0938907BF91AF919F918F913F91CB
:1053D0002F910F900FBE0F901F901895BC0180E089
:1053E00090E00C945E298FB12CB193B130E0209500
:1053F000309520743327A90123E0559547952A95C8
:10540000E1F7292F30E0209530952071332735952D
:10541000279535952795242B8095807F822B08959D
:105420000895089580E090E008958091FD028EBD7A
:10543000EEEFF2E081910DB407FEFDCF8EBD86E068
:10544000ED3FF807B9F70DB407FEFDCF08952F9291
:105450003F924F925F926F927F928F929F92AF9204
:10546000BF92CF92DF92EF92FF920F931F93CF9351
:10547000DF93CDB7DEB72D970FB6F894DEBF0FBE22
:10548000CDBFED82E22EF12C9C012E0D3F1D37FD8C
:1054900032C1803891050CF02EC19B01200F311DC7
:1054A00037FD29C1603471050CF025C1DB0177FFA0
:1054B00004C0AA27BB27A61BB70BA770BB279B015D
:1054C00077FF02C0295F3F4F13E0359527951A9566
:1054D000E1F777FF08C02150310968E070E0FB0177
:1054E000EA1BFB0BDF01E02FE695E695E695CE2E55
:1054F000D12C077019F0FFEFCF1ADF0AB9017695AA
:10550000762F662777956795680F791F63507D4FD3
:105510008601020F131F19870887C12CD12CF8E0D0
:10552000AF2EB12C85010A1B1B0B1F830E83088530
:1055300019852017310709F4DEC02830310509F438
:10554000DAC02F3F1FEF31070CF4CAC08B0100589F
:105550001F4F1D870C874B013B012B011C011C8336
:105560000B831A8309831B861A860A851B850E15F1
:105570001F050CF0B5C010E82116310409F4B0C0C5
:1055800037FC89C02F3FEFEF3E0709F4B0C00A8512
:105590001B850C0D1D1DFD81F13079F4F801E40F20
:1055A000F51FE491F0E08F010A2E01C0000F0A946C
:1055B000EAF7F301B0800B2925C0FD81F11114C079
:1055C000F801E40FF51FE491F0E00A2E02C0EE0F9F
:1055D000FF1F0A94E2F78F0100951095F401A08057
:1055E000B12C0A211B210EC0F801E40FF51FE49134
:1055F000F0E08F010A2E01C0000F0A94EAF7F201D1
:10560000B0800B250083109709F445C02730310581
:1056100009F441C00A851B850C0D1D1DFD81F1306B
:1056200089F4F801E40FF51FE4910E2F10E00E80CD
:1056300002C0159507950A94E2F7EC85FD85B080C8
:105640000B2928C0FD81F11115C0F801E40FF51FE9
:10565000E4910E2F10E00E8002C0159507950A9474
:10566000E2F700951095E981FA81A080B12C0A211A
:105670001B2110C0F801E40FF51FE4910E2F10E07C
:105680000E8002C0159507950A94E2F7EB81FC8124
:10569000B0800B2500830A851B850F5F1F4F1B877A
:1056A0000A870C851D850F5F1F4F1D870C87098199
:1056B0001A810F5F1F4F1A8309830B811C810F5FB3
:1056C0001F4F1C830B831FEF211A310AEFEF4E1A75
:1056D0005E0AFFEF6F1A7F0A0FEF801A900A45CF1C
:1056E0002F5F3F4F60587F4FCE0CDF1C20CF1097AD
:1056F00009F090CFD0CF2D960FB6F894DEBF0FBE35
:10570000CDBFDF91CF911F910F91FF90EF90DF9070
:10571000CF90BF90AF909F908F907F906F905F9051
:105720004F903F902F90089560387105D0F4403429
:105730005105B8F4E7E6F1E380E1849FD001A07859
:105740001124A60F4770E40FF11D8491A350BD4FA3
:10575000222319F06C91862B03C080956C918623CF
:105760008C9308950F931F93CF93DF931F92CDB720
:10577000DEB78C0169830E94F8306981681741F0B7
:10578000C8010F90DF91CF911F910F910C940031C0
:105790000F90DF91CF911F910F9108950C94F830E5
:1057A000CF93DF93CDB7DEB765970FB6F894DEBF22
:1057B0000FBECDBF0E94152D81E097E00E94152AF3
:1057C00068EE73E080E090E00E945E291092170777
:1057D00011E01093180786E591E30E947A2D10934B
:1057E000170710921807E12CF12C8E010F5F1F4F45
:1057F000F701EC5AF04D9490198A188A1B8A1A8A7C
:105800001D8A1C8A62E070E0CE0140960E94012948
:10581000811105C0CE0140960E9428290AC082E06D
:1058200090E09D8B8C8B67ED72E0888999890E944E
:10583000DB33C7010E94CE2B1B861A861D861C8671
:105840001F861E864AE0B80190E00E94CE30D80143
:105850000D900020E9F711976D01C01AD10AB60129
:10586000CE010A960E940129811105C0CE010A9637
:105870000E94282907C0DF86CE86B8018A859B85CD
:105880000E94DB332C893D89A888B988CE84DF84C7
:10589000A114B10409F4C4C021153105A9F0C20E48
:1058A000D31EB601CE010A960E940129882309F46D
:1058B000B7C02A853B858E859F85B501820F931FD2
:1058C0000E94DB33DF86CE864AE0B801892D90E066
:1058D0000E94C330F80101900020E9F73197E01BE6
:1058E000F10BCE84DF843097C9F0CE0EDF1EB601F7
:1058F000CE010A960E940129882361F02A853B8502
:105900008E859F85B801820F931F0E94DB33DF864F
:10591000CE8604C0CE010A960E9428294E855F8556
:105920006A857B858DEF96E00E94852742E050E0F6
:1059300064ED72E08DEF96E00E9485278A859B8555
:105940000E946B32888999890E946B328FEFE81A26
:10595000F80AE5E0EE16F10409F04ACF81E097E09D
:105960000E94152A68E873E180E090E00E945E29B9
:105970000E94D0240E94152D1092170781E0809379
:10598000180789E491E30E947A2D81E097E00E9454
:10599000152A00E010E060E0C8010E94B22B0F5F02
:1059A0001F4F0115F4E01F07B1F78CE391E30E944C
:1059B0007A2D81E097E00E94152A0E94F51C62E092
:1059C00085E090E00E94B22B6FEB70E086E00E94D1
:1059D000C31C60E270E088E00E94C31C6BE08AE0B8
:1059E00090E00E94B22B61E080E092E00E94B22B36
:1059F00061E081E092E00E94B22B85E391E30E9496
:105A00007A2D81E097E00E94152A6CED75E080E028
:105A100090E00E945E2900E010E0F8010995FDCFBA
:105A2000CE010A960E9428294FCFEF920F93CF9371
:105A3000DF930E94D024C0E0D0E0EE24E39400E2A3
:105A400020E242ED56E260E070E0CE010E94272A9B
:105A5000A096C038D10589F7C0E0D0E0EE24E394E9
:105A600000E220E242ED56E260E270E0CE010E94E8
:105A7000272AA096C038D10589F781E097E0DF9109
:105A8000CF910F91EF900C94152AE9E2F7E0138281
:105A9000128288EE93E0A0E0B0E084839583A68331
:105AA000B78382EB92E0918380838FEF9FEF95879E
:105AB0008487EDEFF6E0138212821186128620E1D0
:105AC000238790878783108A118A128A138A148AFF
:105AD00084EC92E09183808382ED92E095838483CD
:105AE000178A168A118E108E81E0828F138E848F12
