:100000000C94A30A0C94CB0A0C94CB0A0C94CB0A44
:100010000C94CB0A0C94CB0A0C94CB0A0C94CB0A0C
:100020000C94CB0A0C94CB0A0C9436150C94390E14
:100030000C94CB0A0C94CB0A0C94CB0A0C94CB0AEC
:100040000C94CB0A0C94CB0A0C94CB0A0C94CB0ADC
:100050000C94CB0A0C94CB0A0C94CB0A0C94A810E9
:100060000C94CB0A0C94CB0A0C94CB0A0C94CB0ABC
:100070000C94CB0A0C94CB0A0C94CB0A0C94CB0AAC
:100080000C94F2100C94CB0A0C94CB0A0C94CB0A6F
:100090000C94CB0A0C94CB0A0C94CB0A0C94CB0A8C
:1000A0000C94CB0A0C94CB0A0C94CB0A002A752131
:1000B0001F753771357F44577D57445256573E560A
:1000C00057520A7D1A7F1A457D5C4B2E7C2B4E5A67
:1000D0004A7A7F3E24407F424E2A7F2A4E42427E09
:1000E0003535377C4075000C6B6F6A0842422E1321
:1000F0002E4242424A6E534A22421111097F01099F
:1001000011047E01040F3445282A7A4F1A2A5071AF
:100110000014127516347D6F7D0C6B6F6A6B3E6A2E
:100120003E6A3E6A067F087A2F7A08221A7F0A7F83
:10013000557F4B5E3B2E09527F423E4B7A0229523D
:10014000493A40626B6B62047E7F756F757F3E2B10
:100150003E040B527E047F445F545F44205F351F92
:10016000751F2014567E155F24553E2A7E2A5E296F
:100170005D24157F157E427E5252377E5F7612686F
:10018000264E4E62076A6A635E2B7E1A7F5A4A7A4F
:100190005F7A4A5A777D57106A656B7F1B0A6E6BD0
:1001A0006E0A047E012A287F2A2A75047255760475
:1001B000527F006F6A6A6D1F155F201F557F6E7B2F
:1001C0005C186D3F7A56522E5F76225642221E0BE5
:1001D0004A7A027E023A2B3A427E047E7F0700472B
:1001E0007F4938635F775F63047C565D567C0440CB
:1001F0005F3515755F60000000000000000102041B
:10020000081020408000000000003E5B4F5B3E3E37
:100210006B4F6B3E1C3E7C3E1C183C7E3C181C57B2
:100220007D571C1C5E7F5E1C00183C1800FFE7C356
:10023000E7FF0018241800FFE7DBE7FF30483A0625
:100240000E2629792926407F050507407F05253F91
:100250005A3CE73C5A7F3E1C1C08081C1C3E7F147D
:10026000227F22145F5F005F5F06097F017F0066C7
:1002700089956A606060606094A2FFA29408047E21
:10028000040810207E201008082A1C08081C2A08D0
:10029000081E101010100C1E0C1E0C30383E38308A
:1002A000060E3E0E06000000000000005F00000089
:1002B00007000700147F147F14242A7F2A122313B7
:1002C00008646236495620500008070300001C22CB
:1002D00041000041221C002A1C7F1C2A08083E08FD
:1002E00008008070300008080808080000606000FE
:1002F00020100804023E5149453E00427F400072F2
:10030000494949462141494D331814127F10274568
:100310004545393C4A494931412111090736494986
:100320004936464949291E000014000000403400A7
:10033000000008142241141414141400412214085B
:1003400002015909063E415D594E7C1211127C7F13
:10035000494949363E414141227F4141413E7F4921
:100360004949417F090909013E414151737F08080C
:10037000087F00417F41002040413F017F08142257
:10038000417F404040407F021C027F7F0408107F75
:100390003E4141413E7F090909063E4151215E7FB0
:1003A00009192946264949493203017F01033F4083
:1003B00040403F1F2040201F3F4038403F6314080B
:1003C000146303047804036159494D43007F41419C
:1003D000410204081020004141417F04020102044F
:1003E0004040404040000307080020545478407FBC
:1003F000284444383844444428384444287F3854F6
:1004000054541800087E090218A4A49C787F08049C
:10041000047800447D40002040403D007F10284487
:100420000000417F40007C047804787C0804047854
:100430003844444438FC1824241818242418FC7C1C
:1004400008040408485454542404043F44243C4001
:1004500040207C1C2040201C3C4030403C44281064
:1004600028444C9090907C4464544C44000836419D
:10047000000000770000004136080002010204027B
:100480003C2623263C1EA1A161123A4040207A3826
:100490005454555921555579412154547841215589
:1004A00054784020545579400C1E527212395555DB
:1004B0005559395454545939555454580000457CB1
:1004C000410002457D420001457C40F0292429F08D
:1004D000F0282528F07C545545002054547C547C49
:1004E0000A097F4932494949323248484832324A3A
:1004F0004848303A4141217A3A42402078009DA054
:10050000A07D39444444393D4040403D3C24FF24D3
:1005100024487E4943662B2FFC2F2BFF0929F62008
:10052000C0887E090320545479410000447D413045
:1005300048484A32384040227A007A0A0A727D0DD1
:1005400019317D2629292F28262929292630484D89
:100550004020380808080808080808382F10C8ACD8
:10056000BA2F102834FA00007B000008142A142245
:1005700022142A14089500220095AA005500AAAA60
:1005800055AA55AA000000FF00101010FF00141417
:1005900014FF001010FF00FF1010F010F0141414DE
:1005A000FC001414F700FF0000FF00FF1414F40413
:1005B000FC141417101F10101F101F1414141F0008
:1005C000101010F0000000001F101010101F10106D
:1005D0001010F010000000FF10101010101010107C
:1005E00010FF10000000FF140000FF00FF00001FBC
:1005F00010170000FC04F414141710171414F4045A
:10060000F40000FF00F714141414141414F700F786
:10061000141414171410101F101F141414F41410B1
:1006200010F010F000001F101F0000001F14000049
:1006300000FC140000F010F01010FF10FF14141450
:10064000FF141010101F00000000F010FFFFFFFF4C
:10065000FFF0F0F0F0F0FFFFFF0000000000FFFFF0
:100660000F0F0F0F0F38444438447C2A2A3E147E63
:1006700002020606027E027E026355494163384447
:10068000443C04407E201E2006027E020299A5E71B
:10069000A5991C2A492A1C4C7201724C304A4D4DB6
:1006A000303048784830BC625A463D3E494949009E
:1006B0007E0101017E2A2A2A2A2A44445F444440BA
:1006C000514A444040444A51400000FF0103E08049
:1006D000FF000008086B6B083612362436060F0937
:1006E0000F06000018180000001010003040FF0135
:1006F00001001F01011E00191D1712003C3C3C3C6B
:100700000000000000D5F08D14A1C881CFD9F1AF51
:1007100020000601E0018801E0014A01E0015D01DD
:10072000E0010601E0018801E0014A01E00100006A
:10073000E0010601E0018801E0014A01E0015D01FC
:10074000E0010601E0018801E0010601E00100008E
:10075000E0010601E0014A01E0018801E00100003A
:10076000E0010601E0014A01E001B801E0010000FA
:10077000E0010601E0014A01E001F101E0010000B1
:10078000E0010601E0014A01E0010601E00100008C
:10079000E0012601E0014A01E0015D01E001000005
:1007A000E0014A01E0015D01E0018801E001000093
:1007B000E0018801E0010601E0012601E0015D01A0
:1007C000E001F101E0010000E001F101E0015D0163
:1007D000E0018801E001F101E001F101E001000028
:1007E000E00170031C0210031C0293021C024B0266
:1007F0001C020000E0014B021C0293021C02BA0220
:100800001C020000E001BA021C0210031C0270036B
:100810001C020000E00170031C020B021C024B02D0
:100820001C02BA021C02DC031C02DC031C02DC03F7
:100830001C0270031C0210031C0200001C024B026D
:10084000E001F101E0018801E0010000E001880120
:10085000E001F101E0015D01E0010000E0015D0166
:10086000E001B801E0010601E0010000E001B8018B
:10087000E0010601E0012601E0010000E00188013D
:10088000E001B801E0015D01E0010000E0015D016F
:10089000E0012601E0010601E0010000E0014A015B
:1008A000E0018801E0015D01E0010000E001880154
:1008B000E0014A01E0010601E0010000E0018801D9
:1008C000E0014A01E0015D01E0010000E001880172
:1008D000E0010601E001F101E0014B02E0018801C5
:1008E000E0010080F21A2B2C2D122EF2241A25265C
:1008F0002728292AF21E1F202122231AFFF00FFF8A
:10090000FFFFC007FFFFFF8001FFFFFF00E0FFFFC9
:10091000FE00F0FFFFFC38F07FFFF87CF03FFFF0B7
:100920007C703FFFE07E201FFFC03C000FFF80086F
:100930001807FF8380FC07FF87C7FE07FF078FFEAE
:1009400007FF070FFC03FF061FFC03FF001FF80350
:10095000FF807FF003FF807FE001FFC07FC001FFC9
:10096000C07F8001FFC03F0001FFE0000000FFE00A
:10097000000000FFC0000000FFE0000000FFF000EA
:1009800000007FF00000007FF00000007FF8000012
:10099000007FF80000003FF80000003FF800000072
:1009A0003FFC0000003FFC0000001FFC0000001F97
:1009B000FC0000001FFE0000001FFE0000001FFEE4
:1009C0000000000FFE0000000FFF0000000FFF00FE
:1009D00000000FFF0000000FFF00000007FF800075
:1009E0000007FF80000007FF80000007FFC0000035
:1009F00007FFC0000003FFE0000003FFE00000036A
:100A0000FFE0000003FFE0000003FFF0000001FF33
:100A1000F0000001FFF800000100000000000000ED
:100A20007FFFFFFFFFFF0008000000000000000044
:100A30003FFFFFFFFFFE0008000000000000000075
:100A40003FFFFFFFFFF80010000000000000000063
:100A50001FFFFFFFFFF0001000000000000000007B
:100A60001FFFFFFFFFC0002000000000000000008B
:100A70000FFFFFFFFF8000200000000000000000CB
:100A80000FFFFFFFFF00002000000000000000003B
:100A90000FFFFFFFFC00004000000000000000000E
:100AA00007FFFFFFF80000800000000000000000CA
:100AB00007FFFFFFF0000103C0000000000000007E
:100AC00007FFFFFFC00000FC80000000003C0000AA
:100AD00007FFFFFF800000008000000003FE000011
:100AE00007FFFFFF800000010000000007FF00007B
:100AF00003FFFFFFC0000001000000000FFF000027
:100B000003FFFFFFC0000002000000000FFF800095
:100B100003FFFFFFE0000004000000001FFF800053
:100B200003FFFFFFE0000008000000001FFF80003F
:100B300003FFFFFFF0000008000000001FFFC000DF
:100B400003FFFFFFF8000010000000001FFFC000BF
:100B500003FFFFFFFC000010000000001FFFC000AB
:100B600003FFFFFFFE00000C000000001FFFC0009D
:100B700001FFFFFFFF00000E000000001FFFD0007C
:100B800041FFFFFFFFC00003800000001FFFF000D7
:100B900061FFFFFFFFF80000600000001FFFFC0086
:100BA00077FFFFFFFFFF87F8100000001FFFFE40E8
:100BB0007FFFFFFFFFFFF86FE00000000FFFFBC0AB
:100BC00057FFFFFFFFFFE000000000000FFFFFC224
:100BD0005FFFFFFFFFFFC080000000000FFFFFE688
:100BE0005FFFFFFFFFFF80401F00000007FFEFEBEC
:100BF0007FFFFFFFFFFF8078E000000007FFEFEBC3
:100C0000FFFFFFFFFFFF00860000000003FFFFFB68
:100C1000FFFFFFFFFFFE01000000000001FFFFFBE0
:100C2000FFFFFFFFFFFC00000200000000FFFFFFCE
:100C3000FFFFFFFFFFF8007F3C000000007FFFFF89
:100C4000FFFFFFFFFFF00040E0000000003FFFFF5C
:100C5000FFFFFFFFFFE0004000000000000FFFFF6C
:100C6000FFFFFFFFFFC00040008000000003FFFF08
:100C7000FFFFFFFFFF800040008000000001FFFF3A
:100C8000FFFFFFFFFF8001C00080000000007FFF2A
:100C9000FFFFFFFFFF00018000C0000000001FFFFA
:100CA000FFFFFFFFFE00038000E00000000007FFE1
:100CB000FFFC0FFFFC00068000E00000000001FFC9
:100CC000FFFE07FFF8000E8000F040000000007FEC
:100CD000FFFFC1FFE000188000F860000000001F67
:100CE000FFFFF8FF8000308000FC70000000000073
:100CF000FFFFFFFE0000608000FE780000000000A3
:100D0000003FFFF80000C08000FF7E0000000000F0
:100D100000003FE00001808000FFFF800000000035
:100D2000000000000003808000FFFFE000000000E2
:100D3000000000000003008000FFFFE00000000052
:100D4000000000000007008000FFFFF0000000002E
:100D500000000000001F008000FFFF800000000076
:100D600000000000003F008000FFFF0000000000C6
:100D700000000000007F008000FFFF000000000076
:100D80000000000000FF008000FFFF0000000000E6
:100D90000000000003FF008000F3FF80000000005F
:100DA0000000000007FE008000F8FFF000000000D7
:100DB000000000001FFE008000FC7FFF000000001C
:100DC000000000007FFE008000FE3FFFF0000000FA
:100DD00000000001FFFE008000FF9FFFFF000000F9
:100DE0000000000FFFFC008000FFE7FFFFC00000D5
:100DF0000000007FFFFC008000FFFFFFFFF8000005
:100E000000000FFFFFFC008000FFFFFFFFFE00005F
:100E1000001FFFFFFFF8008000F21A1718191B1CB3
:100E20001D1AF212131415160E0F171819F20A0BC9
:100E30000C0D0E0F1011FFFFFFFFFFFFFFFFFFFF65
:100E4000FFFFFFFFFFFFFFFFFFFFFFFFFFFFFFFFB2
:100E5000FFFFFFFFFFFFFFFFFFFFFFFFFFFFFFFFA2
:100E6000FFFFFFFFFFFFFFFFFFFFFFFFFFFFFFFF92
:100E7000FFFFFFFFFFFFFFFFFFFFFFFFFFFFFFFF82
:100E8000FFFFFFFFFFFFFFFFFFFFFC07FFFFFFFF6D
:100E9000FFFC3FFFFFFFFFFFFFFFFCA81FFFFFFF5F
:100EA000FE03BFFFFFFFFFFFFFFFFDDDC3FFFFFFEF
:100EB000E1FEBFFFFFFFFFFFFFFFFCAAA83FFFFF10
:100EC0001F00BFFFFFFFFFFFFFFFFD777503FFF070
:100ED000F000BFFFFFFFFFFFFFFFFDAABFC03FCF36
:100EE00080017FFFFFFFFFFFFFFFFE5D78000238FC
:100EF00003C17FFFFFFFFFFFFFFFFEABFC0000E031
:100F00000C22FFFFFFFFFFFFFFFFFF75FE00003019
:100F10003022FFFFFFFFFFFFFFFFFF2BE000301C31
:100F20004042FFFFFFFFFFFFF87FFF5DF000780406
:100F30008045FFFFFFFFFFFFF01FFFABF000000643
:100F40000089FFFFFFFFFFFFE00FFF97C00186034F
:100F5000090BFFFFFFFFFFFFC003FFCB80008401F1
:100F60000617FFFFFFFFFFFFC001FFDD800000014C
:100F7000802FFFFFFFFFFFFF80007FCB00000000FE
:100F8000804FFFFFFFFFFFFF84003FE510000000E0
:100F900080DFFFFFFFFFFFFF86001FEF3000000034
:100FA00083BFFFFFFFFFFFFF87800FF5700000008A
:100FB000847FFFFFFFFFFFFF83E00FFBE006018060
:100FC000BFFFFFFFFFFFFFFF83F807FCE00E03807A
:100FD000A0FFFFFFFFFFFFFF81FE03FE601D074034
:100FE000DEFFFFFFFFFFFFFFC1FE01FF20190640EC
:100FF000BDFFFFFFFFFFFFFFC1FF00FF801906409D
:10100000F3FFFFFFFFFFFFFFC0FF80FFE019064176
:10101000CFFFFFFFFFFFFFFFC0FFC07FE00D0340DA
:101020003FFFFFFFFFFFFFFFC0FFE03F80060181A2
:10103000FFFFFFFFFFFFFFFFC1FFF01FC000000326
:10104000FFFFFFFFFFFFFFFFC1FFF00FE000000306
:10105000FFFFFFFFFFFFFFFFC1FFF807F0000001E8
:10106000FFFFFFFFFFFFFFFF81FFFC03F800000011
:10107000FFFFE3FFFFFFFFFF83FFFE01F00008011A
:10108000FFFFC0FFFFFFFFFF03FFFE006000300116
:101090001FFF887FFFFFFFFF03FFFF0063000003C8
:1010A000DFFF023FFFFFFFFE0FFFFF803DB0000F9D
:1010B000DFFE183FFFFFFFFC0FFFF04037DFFFDFD1
:1010C000BFFC3CBFFFFFFFF80FFFC030D1E06A7FDD
:1010D0007FF83E3FFFFFFFF01FFF800F3CFFFFFC4C
:1010E000FFE01E3FFFFFFFE03FFE0000F603FFC3EF
:1010F000FFC00C3FFFFFFF003FFC000FF3FC003F71
:10110000F800003FFFFFFC007FF8003FE01FFFFEFC
:101110000000007FFFFFC000FFF0007FE0100060D4
:10112000000000FFFFFFF001FFE001FFE0300020C2
:10113000000001FFFFFFF801FFC003FFC0200020F7
:10114000000007FFFFFFF803FF000FFFC020003083
:1011500000000FFFFFFFF007FF001FFF804000109F
:1011600000000FFFFFFFF00FFC003FFF804000106A
:1011700000003FFFFFFFE03FF8003FFF0040001886
:1011800000007FFFFFFFF87FF0007FFF0080000F6F
:101190000007FFFFFFFFFCFFE000FFFE00800007ED
:1011A000E03FFFFFFFFFF9FFC001FFFE00800007E7
:1011B000FFFFFFFFFFFFF3FF8001FFFC0080000740
:1011C000FFFFFFFFFFFFFFFF0003FFFC00800007A2
:1011D000FFFFFFFFFFFFFFFE1003FFFC0100000702
:1011E000FFFFFFFFFFFFFFFE3807FFF801000007CA
:1011F000FFFFFFFFFFFFFFFCF8C7FFF8010000073C
:10120000FFFFFFFFFFFFFFFFF8C7FFF80200000727
:10121000FFFFFFFFFFFFFFFFFBEFFFF801000007ED
:10122000FFFFFFFFFFFFFFFFFFFFFFF801000007C9
:10123000FFFFFFFFFFFFF206070809F200012F0280
:10124000032F0405FE55AB7E8080807EAB55FE00EB
:1012500000FEABF60A0EFA54F80000FEABF60A0EDA
:10126000FA56FA0E0AF6ACF80000FC56FB05070524
:1012700007FDABFE000000FEABF60A0EFA54F800C4
:1012800000FEABF60A0EFA54F80000FEABDD77550F
:101290006F369C800000E050E83828FFABFF00016B
:1012A000020506050605020100000003060700000E
:1012B0008345C78000030687C0408305070080433D
:1012C000C68700000183C645C745C745C68D0E00C9
:1012D00000C3C68780000305C740800306070000DF
:1012E000030507C0C0C30605070507050603000080
:1012F00001030605070506070000000000000000C6
:10130000000000000000000000003F55AA5FA06040
:10131000A07FEAD5BF60A060BFD56A3F00007FD53F
:10132000BE41C141C141BED57F0000FFAAFF0201FD
:101330000000FF55FF80000078D4BA4ECA7FAAFF94
:10134000000000000000000000000000000000009D
:10135000000000000000000000000000000000008D
:101360000000000000000001010101010000010176
:101370000101010000000000000001010101010164
:101380000100000000010101000000000001010057
:101390000000000001010101010100000000000047
:1013A0000000000000000000000000002601B8015D
:1013B0004B02B801F101B8010000B8012601B801E3
:1013C0004B02B8018801B8010000B8012601B8013C
:1013D000B801B8010B02B8010000B801F101B80171
:1013E000B801B8015D01B8010000B8014A01B801B7
:1013F0005D01B8018801B8010000B8018801B80199
:10140000B801B8010601B8010000B8012601B80111
:101410004A01B8015D01B8010000B8015D01B801E1
:101420008801B801B801B8010000B8010B02B80189
:10143000F101B8010B02B8014B02B8018801B801F3
:10144000000070030B02B801F101B8018801B80176
:101450000000B8010B02B801F101B8014A01B8015E
:101460000000B8010B02B801F101B8015D01B8013B
:101470000000B801B801B8010601B8012601B801A1
:101480000000B8018801B8014A01B8015D01B80146
:101490008801B8010B02B8010000B8018801B80149
:1014A0005D01B8014A01B801B801B8010B02B801E9
:1014B0000000B8010B02B801F101B8014B02B801FC
:1014C000BA02B8011003B801DC03B8010080080BB0
:1014D00000020202010009040000010202000005EE
:1014E000240010010524010101042402060524063C
:1014F00000010705810310004009040100020A00F1
:1015000000000705020240000007058302400000BA
:101510000403090412010002EF0201404123368056
:1015200000010102030141726475696E6F204C4C29
:10153000430041726475696E6F204C656F6E617215
:10154000646F00006B1811241FBECFEFDAE0DEBF1E
:10155000CDBF11E0A0E0B1E0EAE2F2E302C0059005
:101560000D92AA33B107D9F725E0AAE3B1E001C093
:101570001D92AC3FB207E1F71AE0C3EADAE004C01B
:101580002197FE010E940819C23AD107C9F70E94AB
:10159000EC150C9413190C94000040916A015091C1
:1015A0006B01209168013091690142175307B4F42F
:1015B0009091E8009570E1F39091E80092FD19C0D8
:1015C0008093F10080916A0190916B0101968F7375
:1015D0009927892B19F48EEF8093E80080916A0196
:1015E00090916B01019690936B0180936A0181E069
:1015F000089580E00895CF92DF92EF92FF920F93CB
:101600001F93CF93DF931F92CDB7DEB7182F062F0E
:10161000E42E862F880F8E5F99830E94CD0A83E087
:101620000E94CD0AF12EC12E9981D92E8C2D8F19B1
:10163000801798F4F601E7FE02C0849101C0808112
:101640000E94CD0A182F80E00E94CD0A8123FFEF6F
:10165000CF1ADF0A8111EACF01C081E00F90DF913C
:10166000CF911F910F91FF90EF90DF90CF90089551
:10167000DF92EF92FF920F931F93CF93DF93D82EB9
:101680008A017B01E40EF51EEB01CE15DF0571F03A
:10169000D7FE03C0FE01849101C088810E94CD0A5B
:1016A00021968111F2CF8FEF9FEF01C0C801DF912A
:1016B000CF911F910F91FF90EF90DF9008956150AF
:1016C00030F02091F100FC0120830196F8CF28989A
:1016D00084E680936F010895CF92DF92EF92FF929C
:1016E0000F931F93CF93DF936C017A018B01C0E0BE
:1016F000D0E0CE15DF0589F0D8016D918D01D601BE
:10170000ED91FC910190F081E02DC6010995892BA6
:1017100011F47E0102C02196ECCFC701DF91CF9179
:101720001F910F91FF90EF90DF90CF9008953FB7FA
:10173000F8948091480190914901A0914A01B0919B
:101740004B0126B5A89B05C02F3F19F00196A11D9E
:10175000B11D3FBFBA2FA92F982F8827820F911D47
:10176000A11DB11DBC01CD0142E0660F771F881F8E
:10177000991F4A95D1F708952FB7F89460914401C5
:101780007091450180914601909147012FBF0895C6
:1017900080916701E0916501F0916601882349F02D
:1017A000CF01029690936601809365018591949193
:1017B0000895CF0102969093660180936501808120
:1017C00091810895CF92DF92EF92FF920F931F9332
:1017D000CF93DF930E94C80B811520E8920761F434
:1017E000809171008D7F80937100109291004698D6
:1017F000479810923C018BC021E020933C0181303E
:1018000020E8920751F480916301909164019093D4
:101810006601809365010E94C80B97FD05C0209169
:101820003B01222309F43FC020913A0121113BC022
:1018300021E020933D01EC01DF77209769F481E0FE
:1018400080933E0146983FE9C32E3FE0D32EE12C22
:10185000F12CCAEFD0E014C08E0120E030E060E44B
:1018600072E48FE090E0A90198010E94B818690124
:101870007A0181E0C81AD108E108F10810923E010E
:10188000E0917105F09172050995811103C081E025
:1018900080933E0180913D018823B9F180913E0102
:1018A000811133C003C010923D01C5CF46992DC0B0
:1018B000479A0E94C80B009771F09C01DE010E94BC
:1018C000F918DC01CB0129E0B595A7959795879587
:1018D0002A95D1F703C08FEF9FEFDC0110929000A3
:1018E0002AE020939100D0929900C09298008093B2
:1018F0003F0190934001A0934101B0934201809138
:10190000710082608093710002C04798D2CFDF914E
:10191000CF911F910F91FF90EF90DF90CF9008959E
:1019200080914C0108952F923F924F925F926F9257
:101930007F928F929F92AF92BF92CF92DF92EF925F
:10194000FF920F931F93CF93DF93CDB7DEB72D9701
:101950000FB6F894DEBF0FBECDBFED82E22EF12CA4
:101960009C012E0D3F1D37FD32C1803891050CF0D2
:101970002EC19B01200F311D37FD29C16034710537
:101980000CF025C1DB0177FF04C0AA27BB27A61BEB
:10199000B70BA770BB279B0177FF02C0295F3F4FA2
:1019A00013E0359527951A95E1F777FF08C0215088
:1019B000310968E070E0FB01EA1BFB0BDF01E02F5F
:1019C000E695E695E695CE2ED12C077019F0FFEF3F
:1019D000CF1ADF0AB9017695762F66277795679536
:1019E000680F791F6F587E4F8601020F131F1987EA
:1019F0000887C12CD12CF8E0AF2EB12C85010A1B31
:101A00001B0B1F830E83088519852017310709F4E6
:101A1000DEC02830310509F4DAC02F3F1FEF31074F
:101A20000CF4CAC08B0100581F4F1D870C874B0157
:101A30003B012B011C011C830B831A8309831B862A
:101A40001A860A851B850E151F050CF0B5C010E817
:101A50002116310409F4B0C037FC89C02F3FEFEFE5
:101A60003E0709F4B0C00A851B850C0D1D1DFD81C4
:101A7000F13079F4F801E40FF51FE491F0E08F0103
:101A80000A2E01C0000F0A94EAF7F301B0800B2977
:101A900025C0FD81F11114C0F801E40FF51FE49198
:101AA000F0E00A2E02C0EE0FFF1F0A94E2F78F014A
:101AB00000951095F401A080B12C0A211B210EC0C5
:101AC000F801E40FF51FE491F0E08F010A2E01C048
:101AD000000F0A94EAF7F201B0800B2500831097FB
:101AE00009F445C02730310509F441C00A851B853A
:101AF0000C0D1D1DFD81F13089F4F801E40FF51F77
:101B0000E4910E2F10E00E8002C0159507950A94FF
:101B1000E2F7EC85FD85B0800B2928C0FD81F1112D
:101B200015C0F801E40FF51FE4910E2F10E00E80B0
:101B300002C0159507950A94E2F700951095E98182
:101B4000FA81A080B12C0A211B2110C0F801E40FFA
:101B5000F51FE4910E2F10E00E8002C01595079539
:101B60000A94E2F7EB81FC81B0800B2500830A85A3
:101B70001B850F5F1F4F1B870A870C851D850F5F15
:101B80001F4F1D870C8709811A810F5F1F4F1A8312
:101B900009830B811C810F5F1F4F1C830B831FEF79
:101BA000211A310AEFEF4E1A5E0AFFEF6F1A7F0A11
:101BB0000FEF801A900A45CF2F5F3F4F60587F4F3D
:101BC000CE0CDF1C20CF109709F090CFD0CF2D96F0
:101BD0000FB6F894DEBF0FBECDBFDF91CF911F913E
:101BE0000F91FF90EF90DF90CF90BF90AF909F90BC
:101BF0008F907F906F905F904F903F902F900895BF
:101C00000895089580E090E008950F931F93CF9377
:101C1000DF931F92CDB7DEB782E0898342E450E0C4
:101C20006EEC74E180E80E94380B0E942215DC0102
:101C300012960D911C9113970115110569F0D801A9
:101C4000ED91FC910280F381E02DBE016F5F7F4F2B
:101C5000C801099597FF07C089810F90DF91CF9147
:101C60001F910F910895F80100851185E5CF0E941D
:101C70000E191F920F920FB60F921124CF92DF927E
:101C8000EF92FF920F931F932F933F934F935F9386
:101C90006F937F938F939F93AF93BF93EF93FF9334
:101CA000CF93DF93CDB7DEB76C97DEBFCDBF109279
:101CB000E9008091E80083FFEDC168E0CE01459620
:101CC0000E945F0B82EF8093E8008D8987FF05C03B
:101CD0009091E80090FFFCCF03C09EEF9093E80046
:101CE000982F907609F0C6C09E892F89188D911182
:101CF0000CC0803829F480916D018093F10002C0FE
:101D00001092F1001092F10048C1422F50E0512B87
:101D1000913051F4811141C14130510509F03DC16B
:101D200080916D018D7F0BC0933061F4811135C1BD
:101D30004130510509F031C180916D01826080937D
:101D40006D012BC1953041F48091E80080FFFCCFFC
:101D500020682093E30021C1963009F05FC0EB8C2E
:101D6000FC8C1092E90010926B0110926A01123003
:101D700091F510926901109268010E94050E99E098
:101D8000BE016F5F7F4FDB01E92F1D92EA95E9F7F6
:101D900099831A8391E09E8390EA98879AEF9987B6
:101DA00020916A0130916B01275F3F4F3C832B8369
:101DB0008D831092E90010926B0110926A01F092EB
:101DC0006901E092680149E050E080E00E94380B30
:101DD0000E94050EE2C0F0926901E09268010E9443
:101DE0002215DC011296ED90FC901397E114F1049A
:101DF00009F4C0C0D701ED91FC910480F581E02D7C
:101E0000BE016B5E7F4FC7010995009719F00CF07A
:101E1000C4C0C7C0F701E084F184E8CF973009F46B
:101E2000C0C0983021F481E08093F100B6C09930B1
:101E300009F0B3C0837009F0B4C0EDE0F1E081E0D7
:101E400021E036E39081992361F08093E9002093AB
:101E5000EB0091919093EC003093ED008F5F873011
:101E600089F78EE78093EA001092EA008F898093C9
:101E7000700193C08B8D9C8D1092E90010926B01C4
:101E800010926A019093690180936801898D811194
:101E900056C08E899D89913A59F4813209F081C0EA
:101EA00047E050E064E071E080E00E94380B75C0CC
:101EB000913209F076C0833289F4888D90E0982FB2
:101EC00088272F89822BA0E0B0E0809300019093B7
:101ED0000101A0930201B09303015FC0803269F455
:101EE0008091E80082FFFCCF67E084E091E00E94EF
:101EF0005F0B8BEF8093E80006C0823209F04DC083
:101F00008F8980930B0180916C01882319F0EEEF8B
:101F1000FAE002C0E0E0F8E0809104019091050150
:101F2000A0910601B0910701803B9440A105B10545
:101F300009F07BC080910B0180FF93C076C00E94A6
:101F40002215DC0112960D911C91139701151105B4
:101F500041F1D801ED91FC910190F081E02DBE019D
:101F60006B5E7F4FC8010995811117C0F80100858C
:101F70001185ECCF113009F44EC0133091F48F89E4
:101F8000882309F445C0823081F440E860E182E3AF
:101F900095E10E94FB0A882321F08EEF8093E800F0
:101FA00079C081E28093EB0075C0813029F440E86C
:101FB0006BE086E295E1EDCF833099F70E94221520
:101FC000DC011296ED90FC9013978E010F5F1F4F6E
:101FD0006801E114F10479F0D701ED91FC910680DC
:101FE000F781E02DB801C7010995080F111DF70110
:101FF000E084F184EECFD8011C92F601019000201C
:10200000E9F73197BF016C197D0940E0C601C1CFE6
:1020100060E175E102C064E175E16115710509F2E5
:10202000FB01449150E080E840CF0FB6F894A895AA
:1020300080916000886180936000109260000FBE04
:10204000A895EE3F2AE0F20739F08091FE0A9091C0
:10205000FF0A91838083A1CF1092FF0A1092FE0A9B
:102060009CCFEE3F8AE0F80731F080819181909318
:10207000FF0A8093FE0A87E797E7918380839BE0BE
:1020800088E10FB6F894A895809360000FBE9093F6
:10209000600083CF6C960FB6F894DEBF0FBECDBF45
:1020A000DF91CF91FF91EF91BF91AF919F918F9170
:1020B0007F916F915F914F913F912F911F910F9160
:1020C000FF90EF90DF90CF900F900FBE0F901F907A
:1020D00018958F929F92AF92BF92CF92DF92EF921C
:1020E000FF926B017C010E94970B4B015C01C114B4
:1020F000D104E104F104F1F00E94970BDC01CB0163
:1021000088199909AA09BB09883E9340A105B10520
:1021100070F321E0C21AD108E108F10888EE880EB8
:1021200083E0981EA11CB11CC114D104E104F10488
:1021300019F7DDCFFF90EF90DF90CF90BF90AF9079
:102140009F908F900895BC0180E090E00C946910FE
:102150001F920F920FB60F9211242F933F938F93DC
:102160009F93AF93BF938091440190914501A091BB
:102170004601B09147013091430123E0230F2D37F1
:1021800020F40196A11DB11D05C026E8230F02967B
:10219000A11DB11D209343018093440190934501FB
:1021A000A0934601B0934701809148019091490165
:1021B000A0914A01B0914B010196A11DB11D8093E0
:1021C000480190934901A0934A01B0934B01BF91FC
:1021D000AF919F918F913F912F910F900FBE0F90D4
:1021E0001F9018951F920F920FB60F9211242F93E4
:1021F0003F934F935F936F937F938F939F93AF938F
:10220000BF93EF93FF9380913F0190914001A09184
:102210004101B0914201892B8A2B8B2B81F1809156
:102220003E0181110BC098B180E4892788B9809163
:102230003D01882319F088B1805888B980913F0109
:1022400090914001A0914101B091420118161906E8
:102250001A061B06B4F480913F0190914001A091B1
:102260004101B09142010197A109B10980933F0159
:1022700090934001A0934101B093420102C00E949B
:10228000E20BFF91EF91BF91AF919F918F917F9161
:102290006F915F914F913F912F910F900FBE0F90D3
:1022A0001F90189560387105D0F440345105B8F48A
:1022B000EDEFF1E080E1849FD001A0781124A60F1A
:1022C0004770E40FF11D8491AF58BE4F222319F0DF
:1022D0006C91862B03C080956C9186238C93089516
:1022E0002F923F924F925F926F927F928F929F9226
:1022F000AF92BF92CF92DF92EF92FF920F931F9314
:10230000CF93DF93CDB7DEB729970FB6F894DEBF32
:102310000FBECDBFFC016A3069F4248D808D918D94
:1023200038E0239F800D911D1124918F808F178A93
:10233000168AAAC06D3009F4A7C099878887F48CE3
:10234000338C228C608C718C0689178900381105BA
:10235000C4F0A885B9855C962C915C97422F50E01B
:1023600056968D919C915797B6E02B9F800D911DAD
:102370001124E885F985978B868B258D21116EC0F8
:1023800083C0F0E46F16710424F7C80125E0F29EC3
:10239000800D911D112418161906DCF68F2D90E082
:1023A0009C838B83C301A8E0FA9E800D911D1124AC
:1023B0001816190674F6B5E06B9FB0011124FB01E5
:1023C000EB5FFD4FFA83E98330E0888599850496B9
:1023D0009E838D83E981FA81E490353009F4E12C04
:1023E000430188E0482EE0FC02C0532C01C0522C6F
:1023F00051100BC0321009C0E6944A948B819C8125
:10240000880E991E4110EFCF1BC068018C2D801BD8
:102410008F1590F754018A2D88198F1568F4252D92
:10242000A501B6018D819E813F830E9452119FEFCD
:10243000A91AB90A3F81EFCFAFEFCA1ADA0AE6CF7D
:102440003F5FEB81FC810E0F1F1F89819A810196EE
:102450009A838983363009F0BDCF7BCF6AEF64035E
:102460009001659F300D112420583F4F28173907E0
:102470005CF4A885B985ED91FC9111970190F081EC
:10248000E02D6AE0CD01099581E090E029960FB634
:10249000F894DEBF0FBECDBFDF91CF911F910F919A
:1024A000FF90EF90DF90CF90BF90AF909F908F9074
:1024B0007F906F905F904F903F902F9008952F9254
:1024C0003F924F925F926F927F928F929F92AF92C4
:1024D000BF92CF92DF92EF92FF920F931F93CF9311
:1024E000DF9300D01F92CDB7DEB7582E362F422E85
:1024F000342E4A835B838A818319841508F066C071
:10250000EA81FB812490032F10E04801F1E08F1A4B
:102510009108A52CB12CC12CD12C085F1F4F36017E
:102520006A0C7B1CE8E0CE16D10401F1740197FE21
:1025300012C0E12CF12C0FC0E816F9069CF421E042
:10254000A701B30187E795E039830E9452118FEF0D
:10255000E81AF80A3981C801013411056CF380E4E6
:1025600090E0EACF9FEFC91AD90AD9CFFFE2F2155E
:1025700038F189E7A816B10414F0385F512CA32E66
:10258000B12CC52CD12C97E0929DA001112443556C
:102590005F4FE12C08E027E0B501C60139830E94B6
:1025A000930C21E04CEA50E0B501C60107960E9469
:1025B000930C500E3981E8E7E51510F4385F512C83
:1025C0008A819B8101969B838A8395CF0F900F9080
:1025D0000F90DF91CF911F910F91FF90EF90DF90BF
:1025E000CF90BF90AF909F908F907F906F905F90B3
:1025F0004F903F902F900895FC01809170018111C0
:1026000003C08FEF9FEF08959FB7F89482E0809307
:10261000E9002091F20030E01216130614F421E0D4
:1026200030E02115310559F0289884E680936F0138
:102630008091F10080838091F200882319F09FBF80
:10264000C90108958BE68093E800F9CF2FB7F8947D
:1026500083E08093E9009091E800892F807295FFD4
:1026600004C09091F20080E4891B2FBF0895CF939E
:10267000DF931F92CDB7DEB76983DC01ED91FC914A
:102680000280F381E02D41E050E0BE016F5F7F4F9B
:1026900009950F90DF91CF91089583E08093E90031
:1026A0008091F200882319F08AE38093E80008956E
:1026B0000E94261390E00895CF93DF931F92CDB729
:1026C000DEB7FC018485958597FD05C02FEF3FEFB0
:1026D000358724870BC0CE0101960E94FC1201971A
:1026E00019F4898190E002C08FEF9FEF0F90DF9186
:1026F000CF9108950F931F93CF93DF931F92CDB780
:10270000DEB78C01FC018485958597FF0EC0CE0154
:1027100001960E94FC12019719F4298130E002C051
:102720002FEF3FEFF80135872487F80184859585E1
:102730000F90DF91CF911F910F910895FC01848537
:10274000958597FD0BC09FB7F89482E08093E900D0
:102750008091F2009FBF90E0019608959FB7F89492
:1027600082E08093E9008091F2009FBF90E008959D
:102770008F929F92AF92BF92CF92DF92EF92FF9291
:102780000F931F93CF93DF935C016B017A018091CC
:102790000B01882309F45BC080917001882309F440
:1027A00056C080916E0180FF05C08091E00082607C
:1027B0008093E000E70110E00AEF83E0882E9AE3BF
:1027C000992E2097D9F10E94261381110AC0015039
:1027D00009F43DC061E070E080E090E00E94691083
:1027E000F0CF282F30E0C217D3070CF48C2F4FB74F
:1027F000F8948092E9009091E80095FF1DC0282F81
:1028000030E0C21BD30BF601982F915020F081913C
:102810008093F100FACFC20ED31E112319F09092CB
:10282000E80009C08091E80085FD06C09092E800AC
:1028300011E0209709F010E04FBFC3CF1111C3CFB3
:102840005D9884E6809391051E141F0444F081E096
:1028500090E0F5019383828380E090E001C0C7019E
:10286000DF91CF911F910F91FF90EF90DF90CF906C
:10287000BF90AF909F908F900895DF92EF92FF925C
:102880000F931F93CF93DF93F82E00E010E0DD2429
:10289000DA94D80EE02EC0E0D0E0C038D105F1F0D7
:1028A0009C2F9E259C2B90FD17C041E050E081E0BD
:1028B0008F1510F040E050E0400F511F61E070E0D4
:1028C00081E08D1510F460E070E06C0F7D1F20E05A
:1028D00087E795E00E9452112196DFCF0F5F1F4FCF
:1028E00000341105B9F6DF91CF911F910F91FF9040
:1028F000EF90DF900895809171018EBDE2E7F1E0E5
:1029000081910DB407FEFDCF8EBD85E0E137F8075C
:10291000B9F70DB407FEFDCF08952F923F924F9265
:102920005F926F927F928F929F92AF92BF92CF925F
:10293000DF92EF92FF920F931F93CF93DF9300D01C
:1029400000D0CDB7DEB7E22EF12C9C012E0D3F1D3D
:1029500037FD61C0803891050CF05DC010E09B012F
:10296000200F311F37FD57C0603471050CF053C084
:102970003A012B011C01C70107969C0193E0359594
:1029800027959A95E1F73A832983A12CB12CC12C84
:10299000D12CC016D1060CF03EC01C821B82460111
:1029A000840C951CEB81FC81EE15FF0564F5EB8131
:1029B000FC8183E0F595E7958A95E1F7EA0DFB1D2B
:1029C000E60DF71DE491F0E08B819C8187709927DB
:1029D00020E830E002C0359527958A95E2F7E2239A
:1029E000F323EF2B51F021E0A4016B817C81620D78
:1029F000731D87E795E00E9452118B819C8101969F
:102A00009C838B83CFCFFFEFCF1ADF0A29813A81D6
:102A1000A20EB31EBECF0F900F900F900F90DF91BC
:102A2000CF911F910F91FF90EF90DF90CF90BF90CB
:102A3000AF909F908F907F906F905F904F903F905E
:102A40002F9008958091960581110DC082E08093AA
:102A5000920584E080939305109295051092940559
:102A600081E08093960582E995E008951F920F9288
:102A70000FB60F9211248F939F938091E100909154
:102A8000E100937F9093E10083FF0FC01092E90073
:102A900091E09093EB001092EC0092E39093ED00A4
:102AA0001092700198E09093F00082FF20C093E0B4
:102AB0009093E9009091F200992319F09AE3909392
:102AC000E80090919105992339F0909191059150EA
:102AD00090939105992389F190916F01992339F091
:102AE00090916F01915090936F01992341F184FF70
:102AF00010C08091E2008E7E81608093E200809120
:102B0000E1008F7E8093E10080916E018E7E806176
:102B100011C080FF16C08091E2008E7E806180939C
:102B2000E2008091E1008E7E8093E10080916E0151
:102B30008E7E816080936E0104C05D9ACDCF289A0D
:102B4000D6CF9F918F910F900FBE0F901F90189529
:102B50000F931F93CF93DF938C0181E090E00E944D
:102B6000B01880FF31C08AE090E00E94B0189FEF5B
:102B7000980F9E3F48F522E330E0D80157963C93EA
:102B80002E93569728E330E059963C932E9358970E
:102B9000CBE0D0E0D801ED91FC910190F081E02DE7
:102BA000682FC8010995CE010E94B0182196C13145
:102BB000D10581F70E947B1488EE93E0DF91CF91DD
:102BC0001F910F910C94A310DF91CF911F910F9142
:102BD000089504970C94A815789484B5826084BDF8
:102BE00084B5816084BD85B5826085BD85B5816011
:102BF00085BD80916E00816080936E00109281008F
:102C00008091810082608093810080918100816049
:102C1000809381008091800081608093800080910A
:102C200091008260809391008091910081608093F7
:102C30009100809190008160809390008091C1000C
:102C400084608093C1008091C10082608093C10044
:102C50008091C10081608093C1008091C300816038
:102C60008093C3008091C00082608093C0008091F7
:102C7000C20081608093C20080917A00846080935A
:102C80007A0080917A00826080937A0080917A0045
:102C9000816080937A0080917A00806880937A00C6
:102CA0001092700110926D0110926E018091D70008
:102CB00081608093D70080EA8093D80089B58061D5
:102CC00089BD89B5826089BD09B400FEFDCF61E090
:102CD00070E080E090E00E9469108091D8008F7CC5
:102CE00080618093D8008091E000807F8093E00035
:102CF0008091E1008E7E8093E1008DE08093E20080
:102D0000559A209AEEEFFFE7859194918B3F9C4D69
:102D100019F481E080936C0181EC80937C0085B193
:102D2000806F85B9249884B1866E84B95E9A5F9865
:102D30008AB1806D8AB9769A6E9881B3806F81BBB3
:102D4000899880B38D7080BB80E58CBD81E08DBD9E
:102D500085E090E00E94A3105F9A85E090E00E94D9
:102D6000A3105E985C98E5E0F7E08DE08E0F9491FB
:102D70009EBD00000DB407FEFDCF31968E13F7CF38
:102D80005C9A81E88093640081E0809365001092F2
:102D90008D0580938E055C9886EA8EBD00000DB48B
:102DA00007FEFDCF5C9A3E9A3F9A91E090934C01CA
:102DB000809171008D7F809371009093670182E113
:102DC00097E09093660180936501909364018093EE
:102DD00063010E94E20B10E081E7C82E81E0D82E4B
:102DE00090E1A92EB12C2EE2F22E39E3732E40E0B1
:102DF000842E40E0942E812FF60181118FEF002464
:102E000081938193819381930394D1F710928C05E0
:102E100010928B0510928A05109289050E94BC0BB6
:102E200068377C4081059105D8F00E94BC0B603169
:102E3000774281059105A0F40E94BC0B20914F01BF
:102E40003091500140915101509152012C593F4F06
:102E50004F4F5F4F621773078407950708F0F1C063
:102E60000E94BC0B6A3E71428105910508F5C09134
:102E70004D01D0914E01B5016C1B7D0BEE24E39406
:102E800009E12AE544E452E180E190E00E94930CDC
:102E90006F2D6C1B29E04BE352E180E20E945F1230
:102EA000672D6C1B25E046E352E180E30E945F1230
:102EB0000E94BC0B6B3E71428105910540F00E945F
:102EC000BC0B663978438105910508F4CEC00E9499
:102ED000BC0B6B3E71428105910540F00E94BC0B1A
:102EE0006F397A428105910508F4CAC00E94BC0B73
:102EF0006B3E71428105910540F00E94BC0B663A21
:102F000072438105910508F4BFC00E94BC0B611596
:102F100071448105910540F00E94BC0B663E7E45E0
:102F20008105910508F4B4C00E94BC0B683F77444A
:102F30008105910540F00E94BC0B663E7E458105EF
:102F4000910508F4ADC00E94BC0B6A34734581053D
:102F5000910540F00E94BC0B663E7E4581059105BF
:102F600008F4A6C00E94BC0B683E7E458105910511
:102F700040F00E94BC0B64307D488105910508F447
:102F80009FC00E94BC0B693B7E488105910550F0B3
:102F900009E328E24CEF58E063E070E088E590E058
:102FA0000E948D140E94BC0B6C397A4A81059105F0
:102FB00038F028E044EF58E069E080E00E945F12BA
:102FC0000E94BC0B6337714B8105910538F029E0F5
:102FD0004BEE58E068E180E00E945F120E94BC0B5B
:102FE0006930794B8105910538F027E044EE58E0CF
:102FF00068E280E00E945F120E947B140E94BC0B7A
:1030000061367A4E81059105A8F0809171008D7F1F
:103010008093710081E0809367018CEA93E1909343
:1030200066018093650190936401809363010E941F
:10303000E20BFFCF8114910409F4DDCE0E94000061
:10304000DACE0E94BC0B60934F01709350018093C5
:1030500051019093520180914D0190914E01019642
:1030600090934E0180934D01FBCE00E420E846E3AF
:103070005EE060E070E080E090E00E948D1427CF79
:1030800080E00E943D1432CF81E00E943D143DCF8C
:1030900029E04DE25EE069E088E00E945F1244CFE3
:1030A0002BE042E25EE068E188E00E945F124BCFD5
:1030B00029E049E15EE068E288E00E945F1252CFB9
:1030C00000E420E849E15AE060E070E080E090E050
:1030D0000E948D1456CFEEE9F5E01382128288EE3D
:1030E00093E0A0E0B0E084839583A683B78387E173
:1030F00091E0918380838FEF9FEF95878487E3E74B
:10310000F5E0138212821186128620E123879087D0
:103110008783108A118A128A138A148A89E291E0BD
:103120009183808387E391E095838483178A168A4D
:10313000118E108E81E0828F138E848F158E80E920
:103140009CE0909372058093710580E090E89093E5
:10315000FB058093FA0546983E9A47983F9A089552
:10316000F999FECF92BD81BDF89A992780B508954F
:10317000052E97FB1EF400940E94CF1857FD07D030
:103180000E94D71807FC03D04EF40C94CF1850952A
:103190004095309521953F4F4F4F5F4F0895909543
:1031A0008095709561957F4F8F4F9F4F0895A1E255
:1031B0001A2EAA1BBB1BFD010DC0AA1FBB1FEE1FB1
:1031C000FF1FA217B307E407F50720F0A21BB30BFC
:1031D000E40BF50B661F771F881F991F1A9469F778
:1031E00060957095809590959B01AC01BD01CF01D4
:1031F0000895A29FB001B39FC001A39F700D811DD0
:103200001124911DB29F700D811D1124911D0895EF
:10321000EE0FFF1F0590F491E02D099481E090E0FE
:0A322000F8940C941319F894FFCFF2
:10322A00FFFFFFFF00E100000000000000C18081F5
:10323A00000000000000003713B81358134D139E06
:10324A00135C137A130000000070116C0B020E015C
:0A325A000EA815FCFF0000E91500A6
:00000001FF
