:100000000C944F0A0C94770A0C94770A0C94770A94
:100010000C94770A0C94770A0C94770A0C94770A5C
:100020000C94770A0C94770A0C94770A0C944C1071
:100030000C94770A0C94770A0C94770A0C94770A3C
:100040000C9402100C94770A0C94770A0C94770A9B
:100050000C94770A0C94770A0C94770A0C94770A1C
:100060000C94770A0C94770A002A75211F75377152
:10007000357F44577D57445256573E5657520A7D56
:100080001A7F1A457D5C4B2E7C2B4E5A4A7A7F3E56
:1000900024407F424E2A7F2A4E42427E3535377CAD
:1000A0004075000C6B6F6A0842422E132E4242428A
:1000B0004A6E534A22421111097F010911047E013F
:1000C000040F3445282A7A4F1A2A507100141275E9
:1000D00016347D6F7D0C6B6F6A6B3E6A3E6A3E6ABA
:1000E000067F087A2F7A08221A7F0A7F557F4B5E97
:1000F0003B2E09527F423E4B7A022952493A4062D6
:100100006B6B62047E7F756F757F3E2B3E040B52D6
:100110007E047F445F545F44205F351F751F2014A9
:10012000567E155F24553E2A7E2A5E295D24157F62
:10013000157E427E5252377E5F761268264E4E62A0
:10014000076A6A635E2B7E1A7F5A4A7A5F7A4A5A36
:10015000777D57106A656B7F1B0A6E6B6E0A047E93
:10016000012A287F2A2A750472557604527F006F6F
:100170006A6A6D1F155F201F557F6E7B5C186D3F8F
:100180007A56522E5F76225642221E0B4A7A027E01
:10019000023A2B3A427E047E7F0700477F4938634C
:1001A0005F775F63047C565D567C04405F35157550
:1001B0005F60000000000000000102040810204001
:1001C0008000000000003E5B4F5B3E3E6B4F6B3E8D
:1001D0001C3E7C3E1C183C7E3C181C577D571C1C4A
:1001E0005E7F5E1C00183C1800FFE7C3E7FF0018A5
:1001F000241800FFE7DBE7FF30483A060E2629798E
:100200002926407F050507407F05253F5A3CE73CEE
:100210005A7F3E1C1C08081C1C3E7F14227F22149F
:100220005F5F005F5F06097F017F006689956A60F6
:100230006060606094A2FFA29408047E040810200D
:100240007E201008082A1C08081C2A08081E101006
:1002500010100C1E0C1E0C30383E3830060E3E0EB0
:1002600006000000000000005F000000070007001B
:10027000147F147F14242A7F2A1223130864623601
:10028000495620500008070300001C22410000418D
:10029000221C002A1C7F1C2A08083E0808008070C7
:1002A00030000808080808000060600020100804FA
:1002B000023E5149453E00427F400072494949464D
:1002C0002141494D331814127F1027454545393CCB
:1002D0004A494931412111090736494949364649B8
:1002E00049291E00001400000040340000000814DA
:1002F0002241141414141400412214080201590953
:10030000063E415D594E7C1211127C7F49494936A7
:100310003E414141227F4141413E7F494949417F20
:10032000090909013E414151737F0808087F0041D6
:100330007F41002040413F017F081422417F40401F
:1003400040407F021C027F7F0408107F3E414141F4
:100350003E7F090909063E4151215E7F0919294660
:10036000264949493203017F01033F4040403F1F76
:100370002040201F3F4038403F63140814630304AB
:100380007804036159494D43007F4141410204080B
:100390001020004141417F040201020440404040DE
:1003A00040000307080020545478407F2844443814
:1003B0003844444428384444287F3854545418005E
:1003C000087E090218A4A49C787F080404780044DD
:1003D0007D40002040403D007F1028440000417FC8
:1003E00040007C047804787C080404783844444451
:1003F00038FC1824241818242418FC7C0804040849
:10040000485454542404043F44243C4040207C1C61
:100410002040201C3C4030403C44281028444C9054
:1004200090907C4464544C440008364100000077AE
:100430000000004136080002010204023C26232687
:100440003C1EA1A161123A4040207A3854545559BB
:1004500021555579412154547841215554784020F3
:10046000545579400C1E527212395555555939540C
:1004700054545939555454580000457C41000245A4
:100480007D420001457C40F0292429F0F0282528F0
:10049000F07C545545002054547C547C0A097F4913
:1004A00032494949323248484832324A4848303A5B
:1004B0004141217A3A42402078009DA0A07D3944F4
:1004C0004444393D4040403D3C24FF2424487E497B
:1004D00043662B2FFC2F2BFF0929F620C0887E09AD
:1004E0000320545479410000447D413048484A3249
:1004F000384040227A007A0A0A727D0D19317D2631
:1005000029292F28262929292630484D4020380816
:1005100008080808080808382F10C8ACBA2F102897
:1005200034FA00007B000008142A142222142A1432
:10053000089500220095AA005500AAAA55AA55AA16
:10054000000000FF00101010FF00141414FF001032
:1005500010FF00FF1010F010F0141414FC0014141D
:10056000F700FF0000FF00FF1414F404FC1414173C
:10057000101F10101F101F1414141F00101010F063
:10058000000000001F101010101F10101010F010AD
:10059000000000FF101010101010101010FF1000BD
:1005A0000000FF140000FF00FF00001F10170000F4
:1005B000FC04F414141710171414F404F40000FFCE
:1005C00000F714141414141414F700F71414141767
:1005D0001410101F101F141414F4141010F010F045
:1005E00000001F101F0000001F14000000FC14007A
:1005F00000F010F01010FF10FF141414FF1410106E
:10060000101F00000000F010FFFFFFFFFFF0F0F0F0
:10061000F0F0FFFFFF0000000000FFFF0F0F0F0FC3
:100620000F38444438447C2A2A3E147E02020606CF
:10063000027E027E0263554941633844443C0440D3
:100640007E201E2006027E020299A5E7A5991C2A9B
:10065000492A1C4C7201724C304A4D4D303048785A
:100660004830BC625A463D3E494949007E0101017D
:100670007E2A2A2A2A2A44445F444440514A44405C
:1006800040444A51400000FF0103E080FF000008A1
:10069000086B6B083612362436060F090F06000069
:1006A00018180000001010003040FF0101001F0169
:1006B000011E00191D1712003C3C3C3C00000000CC
:1006C00000AED5F0A83FD300408D14A1C8DA128146
:1006D000CFD9F1DB40A4A6AF200021007F22000784
:1006E0000601E0018801E0014A01E0015D01E0014D
:1006F0000601E0018801E0014A01E0010000E0019B
:100700000601E0018801E0014A01E0015D01E0012C
:100710000601E0018801E0010601E0010000E001BE
:100720000601E0014A01E0018801E0010000E0016A
:100730000601E0014A01E001B801E0010000E0012A
:100740000601E0014A01E001F101E0010000E001E1
:100750000601E0014A01E0010601E0010000E001BC
:100760002601E0014A01E0015D01E0010000E00135
:100770004A01E0015D01E0018801E0010000E001C3
:100780008801E0010601E0012601E0015D01E001D0
:10079000F101E0010000E001F101E0015D01E00193
:1007A0008801E001F101E001F101E0010000E00158
:1007B00070031C0210031C0293021C024B021C0259
:1007C0000000E0014B021C0293021C02BA021C0250
:1007D0000000E001BA021C0210031C0270031C029C
:1007E0000000E00170031C020B021C024B021C0201
:1007F000BA021C02DC031C02DC031C02DC031C0228
:1008000070031C0210031C0200001C024B02E001DA
:10081000F101E0018801E0010000E0018801E00150
:10082000F101E0015D01E0010000E0015D01E00196
:10083000B801E0010601E0010000E001B801E001BB
:100840000601E0012601E0010000E0018801E0016D
:10085000B801E0015D01E0010000E0015D01E0019F
:100860002601E0010601E0010000E0014A01E0018B
:100870008801E0015D01E0010000E0018801E00184
:100880004A01E0010601E0010000E0018801E00109
:100890004A01E0015D01E0010000E0018801E001A2
:1008A0000601E001F101E0014B02E0018801E001F5
:1008B0000080F21A2B2C2D122EF2241A252627281E
:1008C000292AF21E1F202122231AFFF00FFFFFFF0B
:1008D000C007FFFFFF8001FFFFFF00E0FFFFFE00FA
:1008E000F0FFFFFC38F07FFFF87CF03FFFF07C70FA
:1008F0003FFFE07E201FFFC03C000FFF800818076D
:10090000FF8380FC07FF87C7FE07FF078FFE07FFF7
:10091000070FFC03FF061FFC03FF001FF803FF8007
:100920007FF003FF807FE001FFC07FC001FFC07F39
:100930008001FFC03F0001FFE0000000FFE0000079
:1009400000FFC0000000FFE0000000FFF00000001A
:100950007FF00000007FF00000007FF80000007FC3
:10096000F80000003FF80000003FF80000003FFCE6
:100970000000003FFC0000001FFC0000001FFC0006
:1009800000001FFE0000001FFE0000001FFE000010
:10099000000FFE0000000FFF0000000FFF0000002E
:1009A0000FFF0000000FFF00000007FF800000079E
:1009B000FF80000007FF80000007FFC0000007FF66
:1009C000C0000003FFE0000003FFE0000003FFE0C1
:1009D000000003FFE0000003FFF0000001FFF00053
:1009E0000001FFF8000001000000000000007FFF90
:1009F000FFFFFFFF000800000000000000003FFFB5
:100A0000FFFFFFFE000800000000000000003FFFA5
:100A1000FFFFFFF8001000000000000000001FFFB3
:100A2000FFFFFFF0001000000000000000001FFFAB
:100A3000FFFFFFC0002000000000000000000FFFCB
:100A4000FFFFFF80002000000000000000000FFFFB
:100A5000FFFFFF00002000000000000000000FFF6B
:100A6000FFFFFC000040000000000000000007FF46
:100A7000FFFFF8000080000000000000000007FFFA
:100A8000FFFFF0000103C00000000000000007FFAE
:100A9000FFFFC00000FC80000000003C000007FFDA
:100AA000FFFF800000008000000003FE000007FF41
:100AB000FFFF800000010000000007FF000003FFAF
:100AC000FFFFC0000001000000000FFF000003FF57
:100AD000FFFFC0000002000000000FFF800003FFC6
:100AE000FFFFE0000004000000001FFF800003FF84
:100AF000FFFFE0000008000000001FFF800003FF70
:100B0000FFFFF0000008000000001FFFC00003FF0F
:100B1000FFFFF8000010000000001FFFC00003FFEF
:100B2000FFFFFC000010000000001FFFC00003FFDB
:100B3000FFFFFE00000C000000001FFFC00001FFCF
:100B4000FFFFFF00000E000000001FFFD00041FF6C
:100B5000FFFFFFC00003800000001FFFF00061FFE7
:100B6000FFFFFFF80000600000001FFFFC0077FFA0
:100B7000FFFFFFFF87F8100000001FFFFE407FFF10
:100B8000FFFFFFFFF86FE00000000FFFFBC057FF03
:100B9000FFFFFFFFE000000000000FFFFFC25FFF4C
:100BA000FFFFFFFFC080000000000FFFFFE65FFFB8
:100BB000FFFFFFFF80401F00000007FFEFEB7FFFFC
:100BC000FFFFFFFF8078E000000007FFEFEBFFFF73
:100BD000FFFFFFFF00860000000003FFFFFBFFFF99
:100BE000FFFFFFFE01000000000001FFFFFBFFFF11
:100BF000FFFFFFFC00000200000000FFFFFFFFFFFF
:100C0000FFFFFFF8007F3C000000007FFFFFFFFFB9
:100C1000FFFFFFF00040E0000000003FFFFFFFFF8C
:100C2000FFFFFFE0004000000000000FFFFFFFFF9C
:100C3000FFFFFFC00040008000000003FFFFFFFF38
:100C4000FFFFFF800040008000000001FFFFFFFF6A
:100C5000FFFFFF8001C00080000000007FFFFFFF5A
:100C6000FFFFFF00018000C0000000001FFFFFFF2A
:100C7000FFFFFE00038000E00000000007FFFFFC14
:100C80000FFFFC00068000E00000000001FFFFFEF7
:100C900007FFF8000E8000F040000000007FFFFF1B
:100CA000C1FFE000188000F860000000001FFFFF97
:100CB000F8FF8000308000FC700000000000FFFFA3
:100CC000FFFE0000608000FE780000000000003F92
:100CD000FFF80000C08000FF7E0000000000000060
:100CE0003FE00001808000FFFF8000000000000066
:100CF00000000003808000FFFFE000000000000013
:100D000000000003008000FFFFE000000000000082
:100D100000000007008000FFFFF00000000000005E
:100D20000000001F008000FFFF80000000000000A6
:100D30000000003F008000FFFF00000000000000F6
:100D40000000007F008000FFFF00000000000000A6
:100D5000000000FF008000FFFF0000000000000016
:100D6000000003FF008000F3FF800000000000008F
:100D7000000007FE008000F8FFF000000000000007
:100D800000001FFE008000FC7FFF0000000000004C
:100D900000007FFE008000FE3FFFF000000000002A
:100DA0000001FFFE008000FF9FFFFF000000000029
:100DB000000FFFFC008000FFE7FFFFC00000000005
:100DC000007FFFFC008000FFFFFFFFF80000000035
:100DD0000FFFFFFC008000FFFFFFFFFE0000001F71
:100DE000FFFFFFF8008000F21A1718191B1C1D1ACC
:100DF000F212131415160E0F171819F20A0B0C0D18
:100E00000E0F1011000000000000000000000000A4
:100E100000000000000000000000000000000000D2
:100E200000000000000000000000000000000000C2
:100E300000000000000000000000000000000000B2
:100E400000000000000000000000000000000000A2
:100E5000000000000000000003F800000000000394
:100E6000C0000000000000000357E000000001FC8B
:100E7000400000000000000002223C0000001E01B3
:100E80004000000000000000035557C00000E0FFD4
:100E9000400000000000000002888AFC000F0FFFE5
:100EA00040000000000000000255403FC0307FFEBF
:100EB000800000000000000001A287FFFDC7FC3E8B
:100EC0008000000000000000015403FFFF1FF3DD5D
:100ED0000000000000000000008A01FFFFCFCFDD0E
:100EE000000000000000000000D41FFFCFE3BFBDE2
:100EF000000000000000078000A20FFF87FB7FBA00
:100F00000000000000000FE000540FFFFFF9FF7623
:100F10000000000000001FF000683FFE79FCF6F4BE
:100F20000000000000003FFC00347FFF7BFEF9E87A
:100F30000000000000003FFE00227FFFFFFE7FD088
:100F40000000000000007FFF8034FFFFFFFF7FB044
:100F50000000000000007BFFC01AEFFFFFFF7F20B2
:100F600000000000000079FFE010CFFFFFFF7C4091
:100F7000000000000000787FF00A8FFFFFFF7B80F9
:100F80000000000000007C1FF0041FF9FE7F4000FD
:100F90000000000000007C07F8031FF1FC7F5F00E9
:100FA0000000000000007E01FC019FE2F8BF21006C
:100FB0000000000000003E01FE00DFE6F9BF420035
:100FC0000000000000003E00FF007FE6F9BF0C00BB
:100FD0000000000000003F007F001FE6F9BE300067
:100FE0000000000000003F003F801FF2FCBFC00077
:100FF0000000000000003F001FC07FF9FE7E0000DF
:101000000000000000003E000FE03FFFFFFC00007A
:101010000000000000003E000FF01FFFFFFC00007A
:101020000000000000003E0007F80FFFFFFE000078
:101030000000000000007E0003FC07FFFFFF00002F
:101040001C00000000007C0001FE0FFFF7FE000006
:101050003F0000000000FC0001FF9FFFCFFEE0000A
:10106000778000000000FC0000FF9CFFFFFC2000D8
:10107000FDC000000001F000007FC24FFFF0200122
:10108000E7C000000003F0000FBFC82000204003AD
:10109000C34000000007F0003FCF2E1F958080075F
:1010A000C1C00000000FE0007FF0C3000003001F7C
:1010B000E1C00000001FC001FFFF09FC003C003F31
:1010C000F3C0000000FFC003FFF00C03FFC007FFE8
:1010D000FFC0000003FF8007FFC01FE00001FFFF0B
:1010E000FF8000003FFF000FFF801FEFFF9FFFFF0B
:1010F000FF0000000FFE001FFE001FCFFFDFFFFFFD
:10110000FE00000007FE003FFC003FDFFFDFFFFFA7
:10111000F800000007FC00FFF0003FDFFFCFFFFFFB
:10112000F00000000FF800FFE0007FBFFFEFFFFFBF
:10113000F00000000FF003FFC0007FBFFFEFFFFFD4
:10114000C00000001FC007FFC000FFBFFFE7FFFF98
:101150008000000007800FFF8000FF7FFFF0FFF896
:101160000000000003001FFF0001FF7FFFF81FC009
:101170000000000006003FFE0001FF7FFFF80000B6
:10118000000000000C007FFE0003FF7FFFF800005E
:10119000000000000000FFFC0003FF7FFFF80000DC
:1011A000000000000001EFFC0003FEFFFFF800005C
:1011B000000000000001C7F80007FEFFFFF8000074
:1011C00000000000000307380007FEFFFFF80000E2
:1011D00000000000000007380007FDFFFFF80000D6
:1011E00000000000000004100007FEFFFFF80000F0
:1011F00000000000000000000007FEFFFFF80000F4
:1012000000000000F206070809F200012F02032F78
:101210000405FE55AB7E8080807EAB55FE0000FE4F
:10122000ABF60A0EFA54F80000FEABF60A0EFA56B8
:10123000FA0E0AF6ACF80000FC56FB05070507FDA0
:10124000ABFE000000FEABF60A0EFA54F80000FEFA
:10125000ABF60A0EFA54F80000FEABDD77556F3698
:101260009C800000E050E83828FFABFF0001020539
:10127000060506050201000000030607000083457D
:10128000C78000030687C040830507008043C687E8
:1012900000000183C645C745C745C68D0E0000C383
:1012A000C68780000305C7408003060700000305CA
:1012B00007C0C0C3060507050705060300000103B4
:1012C00006050705060700000000000000000000FA
:1012D00000000000000000003F55AA5FA060A07F52
:1012E000EAD5BF60A060BFD56A3F00007FD5BE4190
:1012F000C141C141BED57F0000FFAAFF020100002D
:10130000FF55FF80000078D4BA4ECA7FAAFF0000C4
:1013100000000000000000000000000000000000CD
:1013200000000000000000000000000000000000BD
:1013300000000000000101010101000001010101A4
:101340000100000000000000010101010101010095
:101350000000000101010000000000010100000088
:101360000000010101010101000000000000000077
:10137000000000000000000000002601B8014B0240
:10138000B801F101B8010000B8012601B8014B0213
:10139000B8018801B8010000B8012601B801B80100
:1013A000B8010B02B8010000B801F101B801B801A1
:1013B000B8015D01B8010000B8014A01B8015D0142
:1013C000B8018801B8010000B8018801B801B8016E
:1013D000B8010601B8010000B8012601B8014A01B0
:1013E000B8015D01B8010000B8015D01B8018801D4
:1013F000B801B801B8010000B8010B02B801F10151
:10140000B8010B02B8014B02B8018801B801000015
:1014100070030B02B801F101B8018801B8010000A6
:10142000B8010B02B801F101B8014A01B80100008E
:10143000B8010B02B801F101B8015D01B80100006B
:10144000B801B801B8010601B8012601B8010000D1
:10145000B8018801B8014A01B8015D01B8018801ED
:10146000B8010B02B8010000B8018801B8015D01A4
:10147000B8014A01B801B801B8010B02B801000077
:10148000B8010B02B801F101B8014B02B801BA0270
:10149000B8011003B801DC03B80100800613112461
:1014A0001FBECFEFD8E0DEBFCDBF11E0A0E0B1E0BE
:1014B000E0E3F7E202C005900D92A431B107D9F73D
:1014C00025E0A4E1B1E001C01D92A936B207E1F721
:1014D0001AE0CFE4DAE004C02197FE010E948B13EA
:1014E000CE34D107C9F70E94EF100C9496130C94D8
:1014F0000000CF92DF92EF92FF920F931F93CF9352
:10150000DF936C017A018B01C0E0D0E0CE15DF05DE
:1015100089F0D8016D918D01D601ED91FC9101907A
:10152000F081E02DC6010995892B11F47E0102C0DE
:101530002196ECCFC701DF91CF911F910F91FF90C2
:10154000EF90DF90CF9008953FB7F89480913201EB
:1015500090913301A0913401B091350126B5A89B3B
:1015600005C02F3F19F00196A11DB11D3FBFBA2F35
:10157000A92F982F8827820F911DA11DB11DBC0195
:10158000CD0142E0660F771F881F991F4A95D1F75A
:1015900008958F929F92AF92BF92CF92DF92EF9277
:1015A000FF920E94A40A4B015C0188EEC82E83E0E2
:1015B000D82EE12CF12C0E94A40ADC01CB01881961
:1015C0009909AA09BB09883E9340A105B10558F0C5
:1015D00021E0C21AD108E108F10888EE880E83E004
:1015E000981EA11CB11CC114D104E104F10419F727
:1015F000FF90EF90DF90CF90BF90AF909F908F9033
:1016000008952FB7F89460912E0170912F01809169
:101610003001909131012FBF089580915101E091E7
:101620004F01F0915001882349F0CF010296909329
:10163000500180934F01859194910895CF010296B6
:101640009093500180934F01808191810895CF92B2
:10165000DF92EF92FF920F931F93CF93DF930E943D
:101660000D0B811520E8920761F480916F008D7F4A
:1016700080936F001092810029982B981092260178
:101680008BC021E020932601813020E8920751F49D
:1016900080914D0190914E019093500180934F01A4
:1016A0000E940D0B97FD05C020912501222309F40E
:1016B0003FC02091240121113BC021E0209327014C
:1016C000EC01DF77209769F481E080932801299865
:1016D0003FE9C32E3FE0D32EE12CF12CCAEFD0E03E
:1016E00014C08E0120E030E060E472E48FE090E00E
:1016F000A90198010E943B1369017A0181E0C81A8F
:10170000D108E108F10810922801E0912201F0913E
:1017100023010995811103C081E080932801809104
:1017200027018823B9F180912801811133C003C0BA
:1017300010922701C5CF29992DC02B9A0E940D0B1D
:10174000009771F09C01DE010E947C13DC01CB014B
:1017500029E0B595A795979587952A95D1F703C068
:101760008FEF9FEFDC01109280002AE02093810030
:10177000D0928900C09288008093290190932A0119
:10178000A0932B01B0932C0180916F008260809315
:101790006F0002C02B98D2CFDF91CF911F910F9194
:1017A000FF90EF90DF90CF90089584E98093BC0084
:1017B0008091BC0084FDFCCF08958093BB0084E839
:1017C0008093BC008091BC0087FFFCCF089584EA21
:1017D0008093BC008091BC0087FFFCCF88E70C940D
:1017E000DD0B0E94E70B80E48093BB0084E88093CC
:1017F000BC00E2E5F1E09091BC0097FFFCCF919135
:101800009093BB008093BC0095E0E235F90799F70F
:101810008091BC0087FFFCCF0C94D50B80913601E2
:1018200008952F923F924F925F926F927F928F9284
:101830009F92AF92BF92CF92DF92EF92FF920F935F
:101840001F93CF93DF93CDB7DEB72D970FB6F894E4
:10185000DEBF0FBECDBFED82E22EF12C9C012E0D1E
:101860003F1D37FD32C1803891050CF02EC19B0120
:10187000200F311D37FD29C1603471050CF025C1E1
:10188000DB0177FF04C0AA27BB27A61BB70BA770F5
:10189000BB279B0177FF02C0295F3F4F13E03595BF
:1018A00027951A95E1F777FF08C02150310968E0C4
:1018B00070E0FB01EA1BFB0BDF01E02FE695E695EC
:1018C000E695CE2ED12C077019F0FFEFCF1ADF0A64
:1018D000B9017695762F662777956795680F791FFA
:1018E0006E5A7E4F8601020F131F19870887C12C7D
:1018F000D12CF8E0AF2EB12C85010A1B1B0B1F83E6
:101900000E83088519852017310709F4DEC02830B9
:10191000310509F4DAC02F3F1FEF31070CF4CAC0BC
:101920008B0100581F4F1D870C874B013B012B017A
:101930001C011C830B831A8309831B861A860A8564
:101940001B850E151F050CF0B5C010E821163104DB
:1019500009F4B0C037FC89C02F3FEFEF3E0709F410
:10196000B0C00A851B850C0D1D1DFD81F13079F479
:10197000F801E40FF51FE491F0E08F010A2E01C099
:10198000000F0A94EAF7F301B0800B2925C0FD810E
:10199000F11114C0F801E40FF51FE491F0E00A2EF4
:1019A00002C0EE0FFF1F0A94E2F78F010095109519
:1019B000F401A080B12C0A211B210EC0F801E40F14
:1019C000F51FE491F0E08F010A2E01C0000F0A9488
:1019D000EAF7F201B0800B250083109709F445C0A7
:1019E0002730310509F441C00A851B850C0D1D1DEA
:1019F000FD81F13089F4F801E40FF51FE4910E2F19
:101A000010E00E8002C0159507950A94E2F7EC8568
:101A1000FD85B0800B2928C0FD81F11115C0F801AA
:101A2000E40FF51FE4910E2F10E00E8002C0159513
:101A300007950A94E2F700951095E981FA81A08054
:101A4000B12C0A211B2110C0F801E40FF51FE4910D
:101A50000E2F10E00E8002C0159507950A94E2F74C
:101A6000EB81FC81B0800B2500830A851B850F5F0D
:101A70001F4F1B870A870C851D850F5F1F4F1D8712
:101A80000C8709811A810F5F1F4F1A8309830B810D
:101A90001C810F5F1F4F1C830B831FEF211A310A1C
:101AA000EFEF4E1A5E0AFFEF6F1A7F0A0FEF801AF0
:101AB000900A45CF2F5F3F4F60587F4FCE0CDF1C01
:101AC00020CF109709F090CFD0CF2D960FB6F89475
:101AD000DEBF0FBECDBFDF91CF911F910F91FF9061
:101AE000EF90DF90CF90BF90AF909F908F907F90BE
:101AF0006F905F904F903F902F90089560387105E0
:101B0000D0F440345105B8F4E9EBF1E080E1849F72
:101B1000D001A0781124A60F4770E40FF11D849125
:101B2000AE5ABE4F222319F06C91862B03C08095CC
:101B30006C9186238C930895DF92EF92FF920F931E
:101B40001F93CF93DF93F82E00E010E0DD24DA94AA
:101B5000D80EE02EC0E0D0E0C038D105F1F09C2FC7
:101B60009E259C2B90FD17C041E050E081E08F1531
:101B700010F040E050E0400F511F61E070E081E064
:101B80008D1510F460E070E06C0F7D1F20E086E59D
:101B900095E00E947E0D2196DFCF0F5F1F4F00342E
:101BA0001105B9F6DF91CF911F910F91FF90EF9042
:101BB000DF9008952F923F924F925F926F927F92A3
:101BC0008F929F92AF92BF92CF92DF92EF92FF924D
:101BD0000F931F93CF93DF9300D000D0CDB7DEB724
:101BE000E22EF12C9C012E0D3F1D37FD61C0803887
:101BF00091050CF05DC010E09B01200F311F37FDF7
:101C000057C0603471050CF053C03A012B011C0120
:101C1000C70107969C0193E0359527959A95E1F7C2
:101C20003A832983A12CB12CC12CD12CC016D1060A
:101C30000CF03EC01C821B824601840C951CEB817B
:101C4000FC81EE15FF0564F5EB81FC8183E0F595E1
:101C5000E7958A95E1F7EA0DFB1DE60DF71DE49186
:101C6000F0E08B819C818770992720E830E002C0EA
:101C7000359527958A95E2F7E223F323EF2B51F070
:101C800021E0A4016B817C81620D731D86E595E0E6
:101C90000E947E0D8B819C8101969C838B83CFCF8C
:101CA000FFEFCF1ADF0A29813A81A20EB31EBECF01
:101CB0000F900F900F900F90DF91CF911F910F9188
:101CC000FF90EF90DF90CF90BF90AF909F908F905C
:101CD0007F906F905F904F903F902F9008952F923C
:101CE0003F924F925F926F927F928F929F92AF92AC
:101CF000BF92CF92DF92EF92FF920F931F93CF93F9
:101D0000DF93CDB7DEB729970FB6F894DEBF0FBECD
:101D1000CDBFFC016A3069F425898189928938E058
:101D2000239F800D911D1124928B818B108A178621
:101D3000AAC06D3009F4A7C099878887F5883488D0
:101D40002388618872880785108900381105C4F0DE
:101D5000A885B98555962C915597422F50E01F962E
:101D60008D919C915097B6E02B9F800D911D112471
:101D7000E885F985908B8787268921116EC083C0FD
:101D8000F0E46F16710424F7C80125E0F29E800D7F
:101D9000911D112418161906DCF68F2D90E09C83F6
:101DA0008B83C301A8E0FA9E800D911D11241816A3
:101DB000190674F6B5E06B9FB0011124FB01EF53D7
:101DC000FE4FFA83E98330E08885998504969E83E7
:101DD0008D83E981FA81E490353009F4E12C4301E7
:101DE00088E0482EE0FC02C0532C01C0522C511058
:101DF0000BC0321009C0E6944A948B819C81880EF6
:101E0000991E4110EFCF1BC068018C2D801B8F15D0
:101E100090F754018A2D88198F1568F4252DA50196
:101E2000B6018D819E813F830E947E0D9FEFA91A8E
:101E3000B90A3F81EFCFAFEFCA1ADA0AE6CF3F5FA8
:101E4000EB81FC810E0F1F1F89819A8101969A8375
:101E50008983363009F0BDCF7BCF6AEF64039001F0
:101E6000659F300D112420583F4F281739075CF427
:101E7000A885B985ED91FC9111970190F081E02D35
:101E80006AE0CD01099581E090E029960FB6F894BB
:101E9000DEBF0FBECDBFDF91CF911F910F91FF909D
:101EA000EF90DF90CF90BF90AF909F908F907F90FA
:101EB0006F905F904F903F902F90089508950895F0
:101EC00080E090E008952F923F924F925F926F9240
:101ED0007F928F929F92AF92BF92CF92DF92EF92BA
:101EE000FF920F931F93CF93DF9300D01F92CDB734
:101EF000DEB7582E362F422E342E4A835B838A81DA
:101F00008319841508F066C0EA81FB812490032FB1
:101F100010E04801F1E08F1A9108A52CB12CC12CDA
:101F2000D12C085F1F4F36016A0C7B1CE8E0CE16EF
:101F3000D10401F1740197FE12C0E12CF12C0FC005
:101F4000E816F9069CF421E0A701B30186E595E0C7
:101F500039830E947E0D8FEFE81AF80A3981C80193
:101F6000013411056CF380E490E0EACF9FEFC91AC9
:101F7000D90AD9CFFFE2F21538F189E7A816B104E2
:101F800014F0385F512CA32EB12CC52CD12C97E026
:101F9000929DA001112447595F4FE12C08E027E0F2
:101FA000B501C60139830E94110C21E048E650E0DA
:101FB000B501C60107960E94110C500E3981E8E761
:101FC000E51510F4385F512C8A819B8101969B8323
:101FD0008A8395CF0F900F900F90DF91CF911F9133
:101FE0000F91FF90EF90DF90CF90BF90AF909F90B8
:101FF0008F907F906F905F904F903F902F900895BB
:102000000E9491131F920F920FB60F9211242F93DB
:102010003F938F939F93AF93BF9380912E019091A5
:102020002F01A0913001B091310130912D0123E0B9
:10203000230F2D3720F40196A11DB11D05C026E800
:10204000230F0296A11DB11D20932D0180932E0117
:1020500090932F01A0933001B09331018091320110
:1020600090913301A0913401B09135010196A11DE9
:10207000B11D8093320190933301A0933401B0934A
:102080003501BF91AF919F918F913F912F910F900B
:102090000FBE0F901F9018951F920F920FB60F92C0
:1020A00011242F933F934F935F936F937F938F935D
:1020B0009F93AF93BF93EF93FF93809129019091EA
:1020C0002A01A0912B01B0912C01892B8A2B8B2BFB
:1020D00089F18091280181110CC095B182E0892796
:1020E00085B980912701882321F095B188E089275F
:1020F00085B98091290190912A01A0912B01B0917D
:102100002C01181619061A061B06B4F48091290131
:1021100090912A01A0912B01B0912C010197A10966
:10212000B1098093290190932A01A0932B01B093C8
:102130002C0102C00E94270BFF91EF91BF91AF913C
:102140009F918F917F916F915F914F913F912F91CF
:102150000F900FBE0F901F9018950F931F93CF9362
:10216000DF938C0181E090E00E94331380FF2FC049
:102170008AE090E00E9433139FEF980F9E3F38F55E
:1021800022E330E0D80150963C932E931F9728E32A
:1021900030E052963C932E935197CBE0D0E0D8019B
:1021A000ED91FC910190F081E02D682FC801099517
:1021B000CE010E9433132196C131D10581F70E94CF
:1021C000F10BDF91CF911F910F910C94C90ADF9110
:1021D000CF911F910F91089504970C94AD107894AE
:1021E00084B5826084BD84B5816084BD85B582601C
:1021F00085BD85B5816085BD80916E0081608093CD
:102200006E00109281008091810082608093810035
:102210008091810081608093810080918000816045
:10222000809380008091B10084608093B1008091A0
:10223000B00081608093B00080917A0084608093C8
:102240007A0080917A00826080937A0080917A008F
:10225000816080937A0080917A00806880937A0010
:102260001092C10081EC80937C0088B18E6088B9A7
:1022700087B1817F87B98BB18C618BB98AB1837E3D
:102280008AB98AB1806E8AB98BB18F718BB910927D
:10229000B90088E48093B8000E94E70B80E00E94B8
:1022A000DD0BC1ECD6E01C2F115EFE0184910E9473
:1022B000DD0B21961C13F9CF0E94D50BC1E0C09312
:1022C000B80010926505C09366050E94E70B80E098
:1022D0000E94DD0B86EA0E94DD0B0E94D50B219A3D
:1022E000239AC093360180916F008D7F80936F0099
:1022F000C093510180EE96E09093500180934F017E
:1023000090934E0180934D010E94270B10E082E5CF
:10231000C82E81E0D82E90E1A92EB12C2EE2F22E0B
:1023200039E3732E40E0842E40E0942E812FF60195
:1023300081118FEF00248193819381938193039482
:10234000D1F7109264051092630510926205109205
:1023500061050E94010B68377C4081059105D8F02A
:102360000E94010B6031774281059105A0F40E9423
:10237000010B2091390130913A0140913B0150917C
:102380003C012C593F4F4F4F5F4F62177307840733
:10239000950708F0F1C00E94010B6A3E7142810569
:1023A000910508F5C0913701D0913801B5016C1B3A
:1023B0007D0BEE24E39409E12AE542E152E180E15C
:1023C00090E00E94110C6F2D6C1B29E049E052E156
:1023D00080E20E94630F672D6C1B25E044E052E110
:1023E00080E30E94630F0E94010B6B3E71428105E6
:1023F000910540F00E94010B6639784381059105F3
:1024000008F4CEC00E94010B6B3E7142810591051C
:1024100040F00E94010B6F397A428105910508F462
:10242000CAC00E94010B6B3E71428105910540F0CC
:102430000E94010B6F3F70448105910508F4BFC0F5
:102440000E94010B611571448105910540F00E94C5
:10245000010B663E7E458105910508F4B4C00E94DB
:10246000010B683F77448105910540F00E94010B04
:10247000663E7E458105910508F4ADC00E94010BC2
:102480006A3473458105910540F00E94010B663E58
:102490007E458105910508F4A6C00E94010B683EA7
:1024A0007E458105910540F00E94010B64307D4816
:1024B0008105910508F49FC00E94010B693B7E488D
:1024C0008105910550F009E328E24AEC58E063E009
:1024D00070E088E590E00E94DA0D0E94010B6C39F3
:1024E0007A4A8105910538F028E042EC58E069E02D
:1024F00080E00E94630F0E94010B6337714B8105DE
:10250000910538F029E049EB58E068E180E00E944D
:10251000630F0E94010B6930794B8105910538F0FA
:1025200027E042EB58E068E280E00E94630F0E94DF
:10253000F10B0E94010B61367A4E81059105A8F0DE
:1025400080916F008D7F80936F0081E080935101B7
:102550008AE793E19093500180934F0190934E014D
:1025600080934D010E94270BFFCF8114910409F441
:10257000DDCE0E940000DACE0E94010B609339018B
:1025800070933A0180933B0190933C018091370115
:102590009091380101969093380180933701FBCEDA
:1025A00000E420E844E05EE060E070E080E090E07D
:1025B0000E94DA0D27CF80E00E949C0D32CF81E08F
:1025C0000E949C0D3DCF29E04BEF5DE069E088E083
:1025D0000E94630F44CF2BE040EF5DE068E188E0AC
:1025E0000E94630F4BCF29E047EE5DE068E288E090
:1025F0000E94630F52CF00E420E847EE59E060E00C
:1026000070E080E090E00E94DA0D56CFE2E5F5E060
:10261000138212821186128680E1838710861782C8
:10262000158684E091E09183808382E191E0958337
:102630008483108A1786128A118A81E0838B148A18
:10264000858B168A8EE09CE0909323018093220173
:1026500080E090E890932101809320012998219AAD
:102660002B98239A0895F999FECF92BD81BDF89ACF
:10267000992780B50895052E97FB1EF400940E94BB
:10268000521357FD07D00E945A1307FC03D04EF493
:102690000C94521350954095309521953F4F4F4FD4
:1026A0005F4F089590958095709561957F4F8F4FFE
:1026B0009F4F0895A1E21A2EAA1BBB1BFD010DC05E
:1026C000AA1FBB1FEE1FFF1FA217B307E407F507E2
:1026D00020F0A21BB30BE40BF50B661F771F881FBE
:1026E000991F1A9469F760957095809590959B0154
:1026F000AC01BD01CF010895A29FB001B39FC001FD
:10270000A39F700D811D1124911DB29F700D811D1D
:102710001124911D0895EE0FFF1F0590F491E02DF7
:10272000099481E090E0F8940C949613F894FFCF0C
:10273000000000006F0E790A600F5F0FAD10FCFF04
:042740000000EC1099
:00000001FF
