:100000000C9482160C94AA160C94AA160C94AA1698
:100010000C94AA160C94AA160C94AA160C94AA1660
:100020000C94AA160C94AA160C94AA160C94AA1650
:100030000C94AA160C94AA160C94AA160C94AA1640
:100040000C9489170C94AA160C94AA160C94AA1650
:100050000C94AA160C94AA160C94AA160C94AA1620
:100060000C94AA160C94AA16F28834F11AF24F4690
:100070001F5A0E9192696AF28F90F11A111218119B
:100080001710121519142051510E434F4DF28B3A8F
:10009000F1223527F28C8D8E3AF21E87F100F2881C
:1000A00089F100F2888AF112101210F2716D0405C4
:1000B0008586F101F21F84F11AF23C82832CF11241
:1000C000101012F28103F11AF23C82832CF112100B
:1000D0001012F2217C7D7EF12D2934F27F80F26BAB
:1000E0007BF27778797AF219680203F25C09F10EF3
:1000F0000E0EF27545362A2D2E76F11110F22EF2E3
:1001000070253A64437172736774696AF202033B43
:100110003C30F2646B6C456D4F6E6F23F26330645C
:1001200065666708091968696AF26162F25D5E5F77
:100130006017F20607571F5A5533175B5C09F10E1B
:100140000E0EF243450E4B4C59F2563A4C4D575851
:100150000C0CF2143E5051333A2A52535455F24E7D
:100160004E4F4F0CF2494A1E3E0E4B28292A4C4D49
:10017000F24142F100F2434445464748F202033B54
:100180003C3D3E3F40F23132333435363738393A30
:10019000F11110F22EF2262728292A23232B2C2DA9
:1001A0002E2F0430F22223142425F10E0E0EF21EFF
:1001B0001F2021221923F21B111C1D17F2101118E8
:1001C000F100F20607191A17F2101112F100F213DA
:1001D00014151617F208090AF121F20B0C0D0E0F77
:1001E0001011F112101210F204050607F10A200492
:1001F00005F2000102030000000000FEFF07FBFA09
:10020000FABA7BBBFBFBFBFBBB7BBBFBFBFBFB0734
:10021000FFFE000000000000000000FFFF00FFFFE5
:10022000FFBEBFDEDFDBDBDFDEDFDEBFFFFFFF00A9
:10023000FFFF000000000000000000FFFFFEFDFDCA
:10024000FD9D8D9DFDFDFDFDFDFDFDFDFDFDFD7E8D
:10025000FFFF0000000000000000007FFFFDF8F835
:10026000FFCF8FCFFF78787D7FFFEFC7EFFFFEFCDA
:10027000FE7F000000005245424F4F54005345544A
:10028000555020454550524F4D00434C454152205A
:10029000454550524F4D0001020408102040800097
:1002A000000000003E5B4F5B3E3E6B4F6B3E1C3ED2
:1002B0007C3E1C183C7E3C181C577D571C1C5E7FE6
:1002C0005E1C00183C1800FFE7C3E7FF0018241865
:1002D00000FFE7DBE7FF30483A060E26297929269A
:1002E000407F050507407F05253F5A3CE73C5A7F84
:1002F0003E1C1C08081C1C3E7F14227F22145F5FDA
:10030000005F5F06097F017F006689956A60606013
:10031000606094A2FFA29408047E040810207E204E
:100320001008082A1C08081C2A08081E10101010A3
:100330000C1E0C1E0C30383E3830060E3E0E0600E9
:100340000000000000005F00000007000700147FAD
:10035000147F14242A7F2A12231308646236495614
:1003600020500008070300001C2241000041221C0D
:10037000002A1C7F1C2A08083E08080080703000F4
:100380000808080808000060600020100804023E09
:100390005149453E00427F4000724949494621414A
:1003A000494D331814127F1027454545393C4A49B9
:1003B00049314121110907364949493646494929F8
:1003C0001E00001400000040340000000814224108
:1003D0001414141414004122140802015909063E91
:1003E000415D594E7C1211127C7F494949363E418C
:1003F0004141227F4141413E7F494949417F0909AD
:1004000009013E414151737F0808087F00417F4147
:10041000002040413F017F081422417F404040407E
:100420007F021C027F7F0408107F3E4141413E7FD6
:10043000090909063E4151215E7F091929462649CD
:1004400049493203017F01033F4040403F1F2040A4
:10045000201F3F4038403F631408146303047804AE
:10046000036159494D43007F414141020408102076
:10047000004141417F0402010204404040404000ED
:100480000307080020545478407F284444383844F7
:10049000444428384444287F385454541800087E73
:1004A000090218A4A49C787F0804047800447D40C5
:1004B000002040403D007F1028440000417F400064
:1004C0007C047804787C080404783844444438FC7C
:1004D0001824241818242418FC7C08040408485400
:1004E00054542404043F44243C4040207C1C2040BD
:1004F000201C3C4030403C44281028444C909090B4
:100500007C4464544C4400083641000000770000ED
:10051000004136080002010204023C2623263C1E4C
:10052000A1A161123A4040207A38545455592155BE
:1005300055794121545478412155547840205455DF
:1005400079400C1E5272123955555559395454542C
:100550005939555454580000457C410002457D42AC
:100560000001457C40F0292429F0F0282528F07C62
:10057000545545002054547C547C0A097F49324923
:100580004949323248484832324A4848303A414173
:10059000217A3A42402078009DA0A07D394444440D
:1005A000393D4040403D3C24FF2424487E49436679
:1005B0002B2FFC2F2BFF0929F620C0887E09032052
:1005C000545479410000447D413048484A32384013
:1005D00040227A007A0A0A727D0D19317D26292976
:1005E0002F28262929292630484D40203808080878
:1005F0000808080808382F10C8ACBA2F102834FA99
:1006000000007B000008142A142222142A140895E2
:1006100000220095AA005500AAAA55AA55AA0000D2
:1006200000FF00101010FF00141414FF001010FF42
:1006300000FF1010F010F0141414FC001414F70054
:10064000FF0000FF00FF1414F404FC141417101F23
:1006500010101F101F1414141F00101010F00000B1
:1006600000001F101010101F10101010F0100000CC
:1006700000FF101010101010101010FF10000000DC
:10068000FF140000FF00FF00001F10170000FC0413
:10069000F414141710171414F404F40000FF00F7F6
:1006A00014141414141414F700F714141417141059
:1006B000101F101F141414F4141010F010F0000088
:1006C0001F101F0000001F14000000FC140000F0A9
:1006D00010F01010FF10FF141414FF141010101F4E
:1006E00000000000F010FFFFFFFFFFF0F0F0F0F05F
:1006F000FFFFFF0000000000FFFF0F0F0F0F0F387C
:10070000444438447C2A2A3E147E02020606027EB5
:10071000027E0263554941633844443C04407E20D4
:100720001E2006027E020299A5E7A5991C2A492AE5
:100730001C4C7201724C304A4D4D30304878483074
:10074000BC625A463D3E494949007E0101017E2A6C
:100750002A2A2A2A44445F444440514A444040449F
:100760004A51400000FF0103E080FF000008086BD1
:100770006B083612362436060F090F0600001818CB
:100780000000001010003040FF0101001F01011E99
:1007900000191D1712003C3C3C3C0000000000AE5C
:1007A000D5F0A83FD300408D14A1C8DA1281CFD96B
:1007B000F1DB40A4A6AF200021007F220007506C8F
:1007C000656173652075706C6F616420506172742F
:1007D000203200FE01010F111111111115110F012D
:1007E0000204F87F80FE818195959595959581818C
:1007F000FE807FF2EBECED8A050F0E0C0C06080A6A
:100800000F10090C0C060C13071006030D0A060C3A
:100810000C070505030C0F0F0E0D0C160F0500FF3E
:100820000A142850FF000000FF42242442003C42EA
:10083000898D81A1423C000C10113C52423C0018B1
:10084000087D484878001028285444FF02020070B0
:10085000080E3040300E0022223E02023E000020F0
:100860001E1014100000FF90909090908000FF9157
:10087000929498908000FF919191F191919FFF91B6
:1008800091919191919FFF818181818181FFFF11E0
:100890001111818181FFC2340C02818EB0C0C2B4BB
:1008A0008C82818EB0C040414244485060404D4DE2
:1008B0004C4C4D4C4B57505F80BF8042F8FFF2F5D7
:1008C000F2F5F5FBF6F2FD83315C639CFFFFF8FA6D
:1008D000FAFA063296F41EEC01D7CF1F1FFFBF3F76
:1008E000BF9F2074C037C73EC8DC027FFFFFFFF800
:1008F0004280BF805F50574B4C4D4C4C4D4DFFFFDD
:100900009C635C3183FDF2F6FBF5F5F2F5F2FF1F17
:100910001FCFD701EC1EF4963206FAFAFAF8FFFF61
:100920007F02DCC83EC337C074209FBF3FBFFDFCC1
:10093000F7F7FFFEFCFDFCFEFF03F8FFFF007F7FE3
:100940007F7F7F7F7F7F7F7F7F704F3F1F008E3E47
:10095000FEFEFEFEFE3EC6FAFAFAF60EFE002FDEA0
:1009600038FB7B1B0D2EDF1FFFFF07F8FF0000FE8B
:10097000E0CE9EBFBFBEB9336F6F00FFFEFC007FAD
:100980007F7F7F7F7F7F7F7F7F007E7F7F7F00FEF7
:10099000C2F6FEE2DEE6DEE2FEFE3E8EF6F600BFC8
:1009A0003FFF33EFDF03DFE7FFFF00FF1F0F7F7F16
:1009B0007FFF01FE0A6A0A5ABE519B03FF7FFDFDBD
:1009C000FDFDFDFCFCFCFCFCFCFCFCFDFDFD7F7F5B
:1009D000675B3BEDBDD5DB671FFF7F7F7F7FFDFD45
:1009E000FDFDFDFCFDFCFCFDFDFDFDFDFDFDBFDF96
:1009F000EFFEFF7B996FE7DBBB75FF00FFFFFDFD9F
:100A0000FDFDFDFDFDFDFDFDF9E5CCDCD0C1DBBB51
:100A10007BFBFBEB9B6B7BBBDBEBF303070FFFFF6E
:100A20001FEFFBF3FFFFFEFDFDFAFF00FAF8FFFFEB
:100A3000FF00FF75BBDBE76F997BFEEFDFBFFFFFBA
:100A4000FFF8F0EDDDD9D1C1C5FDFDFDFDFDFFFFD6
:100A5000FF03F3EBDBBB7B6B9BEBFB7BBBDBFFFFAA
:100A6000FF00FFFAFDFDFEFFF3FBEF1FFFFFFFFF9F
:100A7000FFFF43BD5A66665ABD837FFFFFFFFFFF3E
:100A8000FFFFFCFFFFF8FFFFFFFFFCFFFFFF9B2BBB
:100A90004BBBFBFBFBFBFBFB03FFFFFFFFFFD6D9C1
:100AA000DFDFDFDFDF1F5F1FC0FFFFFFFFFFFFFF95
:100AB000FFFFFF03FBFBFBFBFB8B6B2B9B7BFFFF1A
:100AC000FFFFFFC01F5F1FDFDFDFDFD9D6D503FDCC
:100AD0003535B5B5B535FDB5BD75FD03EF1F807F67
:100AE00040505C445C407F6B6B4F5B5A7F80FF7F64
:100AF0003F5F6F777B75757B776F5F3F7FFF807B95
:100B000047174378126D6D12744F27536F8000E1C1
:100B10001EFFEFD7EFFFFFEFFF000000FFFFF0EB3E
:100B2000E2F8F8F8F8F8F8F8F8F8F8F4EBE701FD6F
:100B300001B9B9B9B9B9B9B9B901FD01F5F300FF06
:100B400002FAFAB6D6F6F6FAF2060F00FFFFFF7FBA
:100B50003F5F6F777B75757B776F5F3F7FFF807F30
:100B60005B5B5B5B5B7B7B7B7B7F7F7F7F807F9B3C
:100B7000E5C9D5ADB9BDBDBDBDDDDDE58B7FF8C532
:100B80000B172F1F3F1F3F7F7F7F7F3FC7F800FE60
:100B9000FEE6D2CACACAC2C2C2E2E6FEFE00007FB8
:100BA00047132D0505590D21250D1B477F0000FE1C
:100BB000FEE6D2CACACAC2C2C2E2E6FEFE00007F98
:100BC000473B25014D1D15354D1D2B477F00EBABD8
:100BD000AB6BEBEBEBEBEBEBEBEB6BABABEBFFBF3D
:100BE000B3B7BEBDDBE7E7DBBDBEB7B3BFFF00AA4F
:100BF000DDDDAA775577EEAAEE55BBBB550000AAFE
:100C0000DDDDAA775577EEAAEE55BBBB550007FB95
:100C1000FD6EFE6EFE00FE6EFE6EFDFB07FF003FEA
:100C20007F5B7F5B7F007F5B7F5B7F3F00FFFFFF22
:100C3000FFFFFFFF00EEEEEEEEE1FFFFFFFF07EB31
:100C4000EDEEE0EE0EEEEEEEE0EE0EEDEB070F70E9
:100C50007E7077007E7077707E0077707E70007790
:100C600077777077077777777077770777777F7FF2
:100C70007F7F7F7F7F7F7F7F7F7F7F7F7F7FFDFD88
:100C8000FDFDFDFDFDFDFDFDFDFDFDFDFDFDFAFA9A
:100C9000FAFAFAFA00FEFE00FFFFFFFFFFFFFFFF78
:100CA000FFFFFFFF00FFFF00FFFFFFFFFFFFFFFF52
:100CB000FFFFFFFF00FEFE00FAFAFAFAFAFAFFFF62
:100CC000FFFFFFFF00FFFF00FFFFFFFFFFFF7F7F32
:100CD0007F7F7F7F7F7F7F7F7F7F7F7F7F7FFDFD28
:100CE000FDFDFDFD01FDFD01FDFDFDFDFDFDFAFA32
:100CF000FAFAFA3ADAEAE2EADA3AFAFAFAFAFFFF42
:100D0000FFFFF9F4F6F4F4F6F6F4F9FFFFFFFF0045
:100D1000FFFB1D0DC7E7E7F7ED1DFBFF00FFFF0021
:100D2000FF95B6ECF8F9F9F9ECB695FF00FFFF1F57
:100D3000EFD7F7F7B7D7B7B7F7F7D7EF1FFFFF0032
:100D40007FDEECDAFFECE9FADFEAFD7F00FF59C64F
:100D5000D61431C3EBE92CAD4C65630BD81BB00E38
:100D60006671228C3E3C4C31EB07B3B88D300000ED
:100D7000008FCFCF4F6F2F77173BCBDDDD0102F711
:100D8000F1F100FDFC00FFFFFF00DF0FEF00FFFFB0
:100D9000FF1F5F0F6F07D7C3DB01F5707600017D82
:100DA0007D002F0737006B616D607A787B0007F359
:100DB0001B5BF39B739BF3DB13FBD31BD307F0E7A6
:100DC000ECE5EFE4EFE4EFE5ECE5EFECE7F03FDF37
:100DD000EFEFDF332D1E1E2D33DFEFEFDF3FFFFE82
:100DE000FDFDFEFF0FE0E00FFFFEFDFDFEFF38FB07
:100DF000BB5BDB4B5B5BBBFBBBBBBBBBBBBB38BBF6
:100E0000BBBCB9A2A9BCBBBBBBBBBBBBBBBBFE7D58
:100E1000BDDBC7BF7FFFFE7DBDDBC7BF7FFFFE7DA4
:100E2000BDDBC7BF7FFEFE7DBDDBC7BF7FFEFFFF13
:100E3000FFFFFFFF00FFFF00FFFFFFFFFFFFFFFFC0
:100E4000FFFFFFFF00FFFF00FFFFFFFFFFFFFF07A8
:100E5000FBFDFDFDFD01FDFDFDFDFDFB07FFFFE0D1
:100E6000DEBEBEBEBE80BEBEBEBEBEDEE0FF83BB7B
:100E7000BBBBBBBBBB38BBBBBBBBBBBBBBBB83BB7D
:100E8000BBBBBBBBBB38BBBBBBBBBBBBBBBBFF01AB
:100E9000FEFEE6CAC2CAC2CAC2E67EFE01FFFF80EB
:100EA0007F7F7F7F7F7F7F7F7F7F7E7F80FFFF12BF
:100EB0002512FF122512FF122512FF122512FFE143
:100EC00002E1FFE102E1FFE102E1FFE102E1FFFFF8
:100ED000FF5F3F5FAB891389AB7FBFBF7FBFFFFF62
:100EE000FFFFFEFDEAD081D0EAFBFBFCFFFF77B3FA
:100EF000CDEE773BDDEC73BADDCE373BDCEE75BB78
:100F0000DDCE37BBDCEE77B3CDEE773BDCEEDF4EEC
:100F10009F6F6F6FAFCF6FEFDFBB7FFFBFFFFF60D4
:100F20001EBF3B9CB1AFBFBBB3BDDEA997FFFFFEA9
:100F3000FFEFE7FFFFFFFFFFFFFBFFBFFFFFFF7FAD
:100F40007FFBF7FBFFFFFFFFB7F7FFFBFFFFC4438C
:100F500066D41C040C1453705C870C0888FC3B841A
:100F6000484849494DA7140C74C4C7C5C8B8E326FE
:100F700024749C848C9350705C870C0888FCB54A60
:100F80004444444446A31C3444C2C5C9B88455886B
:100F9000552255885522AAFFAAFFAAFFAAFFAAFF39
:100FA000AAFFAAFFAAFF5588552255885522040496
:100FB00002000704020103090402030801030300FD
:100FC0000A0D0300090F0701030F070800000705BA
:100FD00002040E0D01010A0D05070704080A0605A3
:100FE0000B0B06070B0B090F0C0E03070F0F040E5C
:100FF0001012040F1315FF00FF00FF00FF00000098
:1010000000000003FF00FF01FF01FF01FF01FF01DE
:10101000FF01FF00FF00FF01FF01010102010102CA
:1010200002010203010200010001020002030000AC
:101030000001000101000201010301010401010599
:10104000010105010206010207010308010309016C
:101050001414010601010101010101010102020252
:101060001401140601010101010606060202020232
:101070001404040606060606010102060606060218
:1010800014041414140119171A01020602020202B0
:101090001404141406060C060C06060602020202CC
:1010A00014041406020214061402020602020202CA
:1010B00014050406020214061402020602020202C9
:1010C0001414140614140104011414060206020276
:1010D00005060606060604070406060606060506B5
:1010E000010101061414010401141406020602028F
:1010F0000801040602021406140202060206020295
:101100000808010602021406140202060206020280
:101110000804010606060606060606060206020280
:10112000080801010101010101060202020606028E
:101130000802060606060606060606060202020261
:101140000802020202020202020202020202020279
:101150001414140101141414141B140202020202C8
:1011600014141401011414140101140202020202E5
:101170001414010101010101010101020202020234
:101180001414010101010101010101020202020224
:101190001414010107010107010101020202020208
:1011A0001414010101010101010101020202020204
:1011B0001414010101011B010101010102020202DB
:1011C00014140101010101010101010102020202E5
:1011D00014140101010101010101010102020202D5
:1011E00014140101010101010101010102020202C5
:1011F00014140101010101010101010101020202B6
:1012000014140101010101010101010101020202A5
:101210001414010101010101010101010101020296
:101220001414140101010101010101010101020273
:101230001414140101010101010101010101020263
:10124000141414141B1B1B1B1B1B1B1B1B1B1B0223
:101250000202020202020209020202020204010167
:101260000201010104040606060404040204040445
:101270000204020202020202020201040204020447
:101280000204020102010101010104010104020141
:101290000204040102010102020202010101020131
:1012A0000204010102010101010102020202020124
:1012B0000204020102020201020202010101020112
:1012C0000201020101010201020102010104020402
:1012D00002010205020102010201020202040204EB
:1012E00002010201010102010101020102040404E0
:1012F00002010202020202020101020102040201D1
:1013000002040404010101020101020101010201C0
:1013100002020402020201020202020101020202AE
:10132000010204040402010104040201010101019B
:10133000010202020402020201040202020101018E
:10134000010101040402010104040404010101017A
:1013500014141414010101010101010101141414F8
:10136000141401010101010101141401010101140E
:1013700014010101010101141401011401010114FE
:101380001401010101011401010114140101010101
:1013900014010101011414011401140101010101DE
:1013A0001401010101140101010101010101010107
:1013B00014010101011401010101010101010101F7
:1013C00014010606010101010101010101010101F0
:1013D00014010607010101010101010101010101DF
:1013E0001401060101011414141414010101010176
:1013F000140101010114140101141414010101016B
:101400001401010114141414010114140101010147
:10141000140101011414140101011414010101014A
:10142000140101141514010114010101010101014C
:1014300014141414060606061414010101011414F0
:101440001414140607061414141414141414141485
:1014500001310132013301340135013601380139DE
:10146000010101010101010101010101010101016C
:10147000012A012B012C012D012E012F0130013AEF
:10148000010101010101010101010101010101014C
:101490000123012401250126012701280129013BFF
:1014A000010101010101010101010101010101012C
:1014B000011C011D011E011F012001210122013C0F
:1014C000010101010101010101010101010101010C
:1014D00001150116011701180119011A011B013D1F
:1014E00001010101010101010101010101010101EC
:1014F000010E010F01100111011201130114013E2F
:1015000001010101010101010101010101010101CB
:10151000010701080109010A010B010C010D01017C
:1015200001010101010101010101010101010101AB
:10153000010001010102010301040105010601018D
:10154000010101010101010101010101010101018B
:10155000000000000000000000000000000000008B
:10156000000000000000000000000000000000007B
:10157000000000000000000000000000000000006B
:1025500052367B365E0A791416567E151514281AE3
:102560006F3A5C235E357F44577D574472127E5B21
:102570007E1272282A1A3F2E2A693D2537445F228F
:102580005E223A2F7A2F3A22011D151D417F01202C
:102590001F5042243F40527F4E5A2F3A4E567D36AE
:1025A00049374A5F281A7E5E5D7D080101017F057B
:1025B000090108080808080C08207E15405B295B03
:1025C0004B5E3B2E09527F6A6B04765E7504404277
:1025D0004242424240127B1640447F44047C565D96
:1025E000567C044454557E5454442A2A7B2E7A2B1C
:1025F0005A445C372C497D0B40424A4A4A42407F4C
:102600002B7B287B2B7F423E4B7A5C235E0C7F1218
:10261000696469126B622A7F3A7F2A0A7D143755F2
:102620007F141E12127F12121E5256573E565752D8
:1026300004745255567404047E01047F2A2A7D1DB9
:10264000257F1D257D127A07027F526A1A773F7A0D
:10265000377F1A524E327F324E523E207F445F22E5
:102660005E54523F7A3F5A50177F286A2F7A284784
:102670003D55770E407F3E2B3E040B527E147B0669
:102680002C4B7E0A42422E132E42421413365C7BA0
:1026900016122A75215F51275C527F4234477F54BE
:1026A0000101417D05030110755D575D7110222206
:1026B00022527F0A021111097F0109110C6B6A6F06
:1026C0006A6A086A6B403E1A79285434567D16347B
:1026D00054445C372C7E427E505F357F355F5049D5
:1026E00038545E775E54495D3B2D0E407F2A75025B
:1026F0006A6F6A02424E2A7F2A4E423E2A3E6A2F63
:102700007A28120A7F2A2A7A0252367A35514A25C5
:102710004945597F5B294B6A6B000A527F02403F53
:102720007B7B453F4514567E155F2455404F290954
:10273000294F404437457D555744047E7F756F755A
:102740007F1A7F7F2B7C2B7F1A7F282F7D2F284994
:1027500038554C7F4C5506626E7B6E6206243F5E98
:102760002A7F6A5E11097F494979012D352D401D67
:10277000175D6A6B5474573C45527F0A445F245579
:10278000682A5E5B7E0A686A265F4A5F155F2A2EAA
:102790006A7F2A3E12067F087A2F7A080A556B0153
:1027A0005A2D5A4453527F5252422A755C3E177E2C
:1027B0005C0A7D485A2D584C7D457D577D457D09E5
:1027C00037312E3F7A2E0A7D1A7F1A457D06735EB9
:1027D0007B5E7306413D155D3E0A79293F5F557F5B
:1027E000555F357F252A207F104444241F2444440C
:1027F0007500486A5F2A48481A6F0A4F1A481276CD
:102800005E575E7612493A40786F497F493A406296
:102810006B6B62523E7A5F3A5E52401F551F5515F0
:10282000714040407F444440445C372C6C6B6C49A1
:1028300038526F5A775E7C5C6F5A443F557F5B37E6
:10284000107B377F4938635F775F635157755F351A
:102850005751100C407F0004182A752842427E42CE
:1028600022122A7F2A1222224E7B2E443F451D151A
:10287000557700007F141D325F7E1F12047E133EC9
:102880005F761A047E015F55555F20521B56175C18
:1028900070087F3F097F0E7F7F1B54167D165454AE
:1028A0007E5B365C235E527F7C2C577A2A423E4BFD
:1028B0007A0229527057750575577052563276391B
:1028C0005551403F157F15557F047F24623762764E
:1028D0006B622A7B2E3B5A2A75211F753771427E07
:1028E0003535377C4075000C6B6F6A084042427E7C
:1028F000424240423F427E7E427E75007E4A7F4A8F
:102900007E7F6D6D455F657F403E4A3E3B3E4A425D
:102910005E2A7F2A5E424C3F0C7F000C7F493A784A
:102920006B7F5B786A63087A2F7A08403F455D25A4
:102930005D417E2D4E3A3F3A4E545D7F557F251BBB
:1029400054337E347B567A4A3A3F4A5D55570C7F62
:102950003A2F7A3F5E00000000002F000300033F83
:10296000123F163F1A120824323D2A020100003E8F
:1029700041413E000A070A083E08402000080808B6
:102980000020001008041C2A1C243E20322A242285
:102990002A1418143E2E2A121C2A12023A06142A4D
:1029A00014242A1C002400402400081422141414A7
:1029B00022140802290612291E3E093E3F251A1E2E
:1029C00021213F211E3F25213F05011E21393F08BE
:1029D0003F213F2110201F3F043B3F20203F063F67
:1029E0003F013E1E211E3F09061E215E3F09362281
:1029F0002519013F013F203F3F100F3F183F330C87
:102A000033033C03312D23007F41153E15417F00E8
:102A100002010240404000010218243C3F241818E3
:102A2000242418243F182C2C043F0548543C3F0410
:102A300038003D00403D003F0834013F003C1C3859
:102A40003C04381824187C241818247C3C080428DA
:102A50003C14043E243C203C3C100C3C303C2418EC
:102A6000244C503C24342C083641007F0041360869
:102A70000101011028101F010120203E102000003C
:102A8000080000002040404040867C7848784E7C1A
:102A9000000000010202020202019F3F3F3F3F1F70
:102AA000800000000030202040807E7C487A4E7CF0
:102AB0000000000E0101010202019F3F3F3F3F9FC6
:102AC000000000002040404040867C7848784E7CE2
:102AD000000000010202020202011FBF3F3FBF1FB0
:102AE000000000002040404040807E7C48784E7CC2
:102AF000000000000304040402011FBF3F3FBF1F8A
:102B0000000000000030202040807E7C487A4E7C0F
:102B10000000000E0101010202011FBF3F3FBF1F65
:102B2000000000007C4E7A487C7E8040404040207F
:102B3000000000001FBF3F3F3F9F01020202020250
:102B4000010000007C4E7848787C864020203000D0
:102B5000000000009F3F3F3F3F9F01020201010133
:102B60000E0000007C4E7A487C7E80404040402031
:102B7000000000001FBF3F3FBF1F01020202020210
:102B8000010000007C4E78487C7E80404040402020
:102B9000000000001FBF3F3FBF1F010204040403E9
:102BA000000000007C4E7848787C86402020300071
:102BB000000000001FBF3F3FBF1F010202010101D3
:102BC0000E0000000000007C4E7C4C7E7CA01000BB
:102BD000C00000000000001F3FBF3FBF1F000101F9
:102BE000000000000000007C4E7C4C7E7C90605019
:102BF000102000000000001FBF3F3F3F9F0000006B
:102C0000000000000000007C4E7C4C7E7CA0100088
:102C1000C00000000000001FBF3F3FBF1F000101B8
:102C2000000000000000007C4E7C4C7E7C905040F8
:102C3000808000000000001FBF3F3FBF1F0000005A
:102C4000000000000000007C4E7C4C7E7C906050B8
:102C5000102000000000001FBF3F3FBF1F0000000A
:102C6000000000000040807CFE7C7CFE7C000000B8
:102C7000000000030404021C3DBA3BBC1F0000001E
:102C80000000402020C0007CFE7C7CFE7C00000018
:102C9000000000000008051ABA3B3D3C9F00000000
:102CA000000000000040807CFE7C7CFE7C00000078
:102CB000000000030404021CBD3A3BBC1F000000DE
:102CC000000000000000007CFE7C7CFE7C00000018
:102CD000000000020301021FBC3E3DBC1F000000BB
:102CE0000000402020C0007CFE7C7CFE7C000000B8
:102CF000000000000008051ABA3B3DBC1F000000A0
:102D00000000572511241FBECFEFD8E0DEBFCDBF96
:102D100012E0A0E0B1E0ECEEF1E502C005900D920A
:102D2000A238B107D9F726E0A2E8B2E001C01D92AF
:102D3000AB3CB207E1F716E1C2E8D6E104C0219747
:102D4000FE010E94E928C138D107C9F70E94742505
:102D50000C94F4280C940000CF92DF92EF92FF9233
:102D60000F931F93CF93DF936C017A018B01C0E027
:102D7000D0E0CE15DF0589F0D8016D918D01D60127
:102D8000ED91FC910190F081E02DC6010995892B10
:102D900011F47E0102C02196ECCFC701DF91CF91E3
:102DA0001F910F91FF90EF90DF90CF9008953FB764
:102DB000F89480918D0290918E02A0918F02B09133
:102DC000900226B5A89B05C02F3F19F00196A11DC2
:102DD000B11D3FBFBA2FA92F982F8827820F911DB1
:102DE000A11DB11DBC01CD0142E0660F771F881FF8
:102DF000991F4A95D1F7089584E98093BC0080918A
:102E0000BC0084FDFCCF08958093BB0084E88093D0
:102E1000BC008091BC0087FFFCCF089584EA8093BA
:102E2000BC008091BC0087FFFCCF88E70C9404179E
:102E30000895089580E090E008950E94EF28CF93D0
:102E4000DF9300D000D0CDB7DEB7611571058105E5
:102E5000910579F09B01AC0169833A834B835C83D4
:102E60000E94622829813A814B815C810E948628D8
:102E700003C060E070E0CB010F900F900F900F90B7
:102E8000DF91CF9108958F929F92AF92BF92CF9290
:102E9000DF92EF92FF926B017C010E94D7164B01EB
:102EA0005C01C114D104E104F104F1F00E94D716D1
:102EB000DC01CB0188199909AA09BB09883E934016
:102EC000A105B10570F321E0C21AD108E108F108AB
:102ED00088EE880E83E0981EA11CB11CC114D10499
:102EE000E104F10419F7DDCFFF90EF90DF90CF9070
:102EF000BF90AF909F908F9008952FB7F8946091F6
:102F0000890270918A0280918B0290918C022FBF6E
:102F100008951F920F920FB60F9211242F933F9393
:102F20008F939F93AF93BF938091890290918A0270
:102F3000A0918B02B0918C023091880223E0230F84
:102F40002D3720F40196A11DB11D05C026E8230FE1
:102F50000296A11DB11D209388028093890290934F
:102F60008A02A0938B02B0938C0280918D02909183
:102F70008E02A0918F02B09190020196A11DB11D09
:102F800080938D0290938E02A0938F02B093900253
:102F9000BF91AF919F918F913F912F910F900FBE55
:102FA0000F901F901895339902C080E801C080E00F
:102FB0004A9B8061319B80624B9B80644C9B886004
:102FC000329B846008950E940E1780E48093BB00BA
:102FD00084E88093BC00EAECF2E09091BC0097FF9B
:102FE000FCCF91919093BB008093BC0096E0EA3CAB
:102FF000F90799F78091BC0087FFFCCF0C94FC1671
:103000002F923F924F925F926F927F928F929F92F8
:10301000AF92BF92CF92DF92EF92FF920F931F93E6
:10302000CF93DF93CDB7DEB72D970FB6F894DEBF01
:103030000FBECDBFED82E22EF12C9C012E0D3F1D67
:1030400037FD32C1803891050CF02EC19B01200F55
:10305000311D37FD29C1603471050CF025C1DB013C
:1030600077FF04C0AA27BB27A61BB70BA770BB27F7
:103070009B0177FF02C0295F3F4F13E035952795ED
:103080001A95E1F777FF08C02150310968E070E038
:10309000FB01EA1BFB0BDF01E02FE695E695E695C9
:1030A000CE2ED12C077019F0FFEFCF1ADF0AB9012D
:1030B0007695762F662777956795680F791F665303
:1030C0007D4F8601020F131F19870887C12CD12C51
:1030D000F8E0AF2EB12C85010A1B1B0B1F830E835A
:1030E000088519852017310709F4DEC0283031051D
:1030F00009F4DAC02F3F1FEF31070CF4CAC08B016F
:1031000000581F4F1D870C874B013B012B011C01F1
:103110001C830B831A8309831B861A860A851B85E9
:103120000E151F050CF0B5C010E82116310409F486
:10313000B0C037FC89C02F3FEFEF3E0709F4B0C0A5
:103140000A851B850C0D1D1DFD81F13079F4F801F8
:10315000E40FF51FE491F0E08F010A2E01C0000F8B
:103160000A94EAF7F301B0800B2925C0FD81F11123
:1031700014C0F801E40FF51FE491F0E00A2E02C03C
:10318000EE0FFF1F0A94E2F78F0100951095F401EE
:10319000A080B12C0A211B210EC0F801E40FF51FFD
:1031A000E491F0E08F010A2E01C0000F0A94EAF7C3
:1031B000F201B0800B250083109709F445C0273039
:1031C000310509F441C00A851B850C0D1D1DFD81CB
:1031D000F13089F4F801E40FF51FE4910E2F10E0AF
:1031E0000E8002C0159507950A94E2F7EC85FD85DF
:1031F000B0800B2928C0FD81F11115C0F801E40F42
:10320000F51FE4910E2F10E00E8002C01595079572
:103210000A94E2F700951095E981FA81A080B12C1B
:103220000A211B2110C0F801E40FF51FE4910E2FB5
:1032300010E00E8002C0159507950A94E2F7EB8125
:10324000FC81B0800B2500830A851B850F5F1F4F13
:103250001B870A870C851D850F5F1F4F1D870C87F5
:1032600009811A810F5F1F4F1A8309830B811C810B
:103270000F5F1F4F1C830B831FEF211A310AEFEFE3
:103280004E1A5E0AFFEF6F1A7F0A0FEF801A900A3C
:1032900045CF2F5F3F4F60587F4FCE0CDF1C20CFB4
:1032A000109709F090CFD0CF2D960FB6F894DEBFCF
:1032B0000FBECDBFDF91CF911F910F91FF90EF9087
:1032C000DF90CF90BF90AF909F908F907F906F9046
:1032D0005F904F903F902F90089560387105D0F423
:1032E00040345105B8F4E7E9F2E080E1849FD00171
:1032F000A0781124A60F4770E40FF11D8491A65306
:10330000BD4F222319F06C91862B03C080956C91E0
:1033100086238C9308952F923F924F925F926F92E3
:103320007F928F929F92AF92BF92CF92DF92EF9255
:10333000FF920F931F93CF93DF93CDB7DEB72997FB
:103340000FB6F894DEBF0FBECDBFFC016A3069F442
:1033500025898189928938E0239F800D911D112450
:10336000928B818B108A1786AAC06D3009F4A7C092
:1033700099878887F58834882388618872880785CB
:10338000108900381105C4F0A885B98555962C918F
:103390005597422F50E01F968D919C915097B6E023
:1033A0002B9F800D911D1124E885F985908B8787CF
:1033B000268921116EC083C0F0E46F16710424F7D2
:1033C000C80125E0F29E800D911D112418161906E2
:1033D000DCF68F2D90E09C838B83C301A8E0FA9EDE
:1033E000800D911D11241816190674F6B5E06B9F17
:1033F000B0011124FB01E156FD4FFA83E98330E06F
:103400008885998504969E838D83E981FA81E4906D
:10341000353009F4E12C430188E0482EE0FC02C07D
:10342000532C01C0522C51100BC0321009C0E6942D
:103430004A948B819C81880E991E4110EFCF1BC04E
:1034400068018C2D801B8F1590F754018A2D8819E7
:103450008F1568F4252DA501B6018D819E813F83CE
:103460000E946D199FEFA91AB90A3F81EFCFAFEF04
:10347000CA1ADA0AE6CF3F5FEB81FC810E0F1F1FED
:1034800089819A8101969A838983363009F0BDCF6C
:103490007BCF6AEF64039001659F300D11242058A3
:1034A0003F4F281739075CF4A885B985ED91FC9149
:1034B00011970190F081E02D6AE0CD01099581E03E
:1034C00090E029960FB6F894DEBF0FBECDBFDF9116
:1034D000CF911F910F91FF90EF90DF90CF90BF9011
:1034E000AF909F908F907F906F905F904F903F90A4
:1034F0002F9008950F931F93CF93DF931F92CDB713
:10350000DEB78C0169830E9470286981681741F0D9
:10351000C8010F90DF91CF911F910F910C947828E3
:103520000F90DF91CF911F910F9108950C94702807
:103530001F93CF93DF93C82FD0E0CE010E94961A3D
:10354000182FCE0101960E94961AC82F61E070E0F4
:1035500080E090E00E944317812F9C2FDF91CF9154
:103560001F9108950F931F93CF93DF931F92CDB7B1
:10357000DEB7082F10E0C80179830E947A1A79819A
:10358000672FC80101960F90DF91CF911F910F9186
:103590000C947A1A0E94CC240E94CC24C0E0D0E083
:1035A000EE24E39400E220E246EF51E060E070E0B8
:1035B000CE010E940018A096C038D10589F7C0E05E
:1035C000D0E0EE24E39400E220E246EF51E060E236
:1035D00070E0CE010E940018A096C038D10589F78E
:1035E00087EB92E00E94E3171092C60281E080937D
:1035F000C7028AE892E00E94002587EB92E00E94D1
:10360000E317C0E0D0E060E0CE010E947A1A219674
:10361000C11584E0D807B9F78DE792E00E94002534
:1036200087EB92E00E94E3170E94761D61E085E03F
:1036300090E00E947A1A60E770E086E00E94B21A79
:1036400068E970E088E00E94B21A60E08AE090E0E9
:103650000E947A1A61E080E092E00E947A1A61E0AA
:1036600081E092E00E947A1A86E792E00E940025AB
:1036700087EB92E00E94E3176CED75E080E090E04C
:103680000E944317C0E0D0E0FE010995FDCF4F92A4
:103690005F926F927F928F929F92AF92BF92CF92E2
:1036A000DF92EF92FF920F931F93CF93DF93CDB7EB
:1036B000DEB728970FB6F894DEBF0FBECDBF80915E
:1036C00000019091010197FD0F969C0104E0359552
:1036D00027950A95E1F720939C0280910201909131
:1036E000030197FD0F9614E0959587951A95E1F7DC
:1036F00080939B023327A901445051095A8349837F
:103700002B5F3F4F3C832B8399279C01225031092B
:103710003E832D83039698878F8357FF07C081EFE1
:10372000489F402D112440939A0202C010929A02A1
:1037300037FF07C081EF289F202D11242093990285
:1037400002C01092990280919A028093980280910F
:10375000990280939702FE0131969E01275F3F4FA9
:103760004FE050E08081918197FF03C01182108269
:1037700004C0409714F0518340833296E217F30758
:1037800089F7FD80B0EF8B2EAF2CB12C8F819885FF
:103790008A159B050CF4D2C09980892D90E02B816D
:1037A0003C81281739070CF4BEC020919C02C090C0
:1037B0000001289DC00C112420919B020091020160
:1037C000289D000D112420918702F50130E1239FEF
:1037D000E00DF11D1124A4E0EE0FFF1FAA95E1F703
:1037E000E80FF91FE05BFF4E949110E0D12C9C3163
:1037F00089F160919702809198029D31A8F49130EF
:1038000009F444C0923009F073C04090B102512CC9
:10381000612C712C75946794579447949FEF491AC3
:10382000590A690A790A2BC09E3281F19333D1F18A
:10383000923209F05DC04090B102512C612C712C84
:10384000759467945794479431E2430E511C611C60
:10385000711C15C06DE370E080E090E00E941F17BE
:10386000660F771FFB01E856FE4F40815181609142
:10387000970270E0601B710B8091980244C0920126
:10388000220F331FF901E856FE4F38C070E0601B6D
:10389000710B90E001E020E140E18C199D090E944C
:1038A000A9223AC0662E712C601A710A482E512C3A
:1038B0004C185D0801E020E140E1B301C2010E9423
:1038C000A922B3016E5F7F4F809198026034710529
:1038D00028F490E08C199D090E944822B3016C5F86
:1038E0007F4F60347105C0F4C2010E94482214C0A9
:1038F000E491F0E0EE0FFF1FEA56FE4F4081518148
:1039000070E0601B710B90E0EE24E39400E120E195
:103910008C199D090E94001880919802805F809305
:10392000980293943ACF80919A0280939802809162
:103930009702805F80939702F39426CF28960FB664
:10394000F894DEBF0FBECDBFDF91CF911F910F91D5
:10395000FF90EF90DF90CF90BF90AF909F908F90AF
:103960007F906F905F904F9008952F923F924F926B
:103970005F926F927F928F929F92AF92BF92CF92FF
:10398000DF92EF92FF920F931F93CF93DF93CDB708
:10399000DEB72A970FB6F894DEBF0FBECDBF5C012D
:1039A0007A8769874D839B01295F3F4F3C832B8337
:1039B0004C0137E0830E911C21E04FE0C4010E94CE
:1039C0007D22E984FA8486E0E80EF11CCC24C394BD
:1039D000D12C412C512C07E010E022EF3FEF3A832D
:1039E00029832AEF622E77247A94C50129853A85A6
:1039F000821B930B9F838E832FEF421A520A32E071
:103A0000C30ED11C6C0C7D1C202E220C31E0320D1B
:103A1000C201079621E0432F2B803C80201A310AF7
:103A2000B1018A0D9B1D38870E947D2221E04C2D1B
:103A3000B701C401800F911F0E947D2221E03885CB
:103A4000432FB1018E819F818E0D9F1D0E947D228B
:103A500021E04C2DB701C401801B910B0E947D22F7
:103A6000401651067CF477FC09C001501109898188
:103A70009A8102969A838983680E791E91E0E91AE9
:103A8000F108BACF20E047E06B817C81C4010E943D
:103A9000A7233D81E32FF0E0EE0FFF1FEC58FE4F10
:103AA0004081518169857A856D5F7F4FE12C08E007
:103AB00028E0C50104960E9400182A960FB6F894D3
:103AC000DEBF0FBECDBFDF91CF911F910F91FF9051
:103AD000EF90DF90CF90BF90AF909F908F907F90AE
:103AE0006F905F904F903F902F900895CF93DF930A
:103AF000C0E0D0E0FE01ED50F84F6491CE010E948D
:103B00007A1A2196C530D105A9F760910C0185E09C
:103B100090E00E947A1A609100017091010186E0A4
:103B20000E94B21A609102017091030188E00E9424
:103B3000B21A609187028AE090E0DF91CF910C94F5
:103B40007A1A2091B10230E0260F311DE3EBF2E04A
:103B500090E0908B8787328B218B0190F081E02D54
:103B60000190F081E02D6FE183EB92E009944F9298
:103B70005F926F927F928F929F92AF92BF92CF92FD
:103B8000DF92EF92FF920F931F93CF93DF9300D0BA
:103B9000CDB7DEB7482E162F522E702EF42E6A01A6
:103BA00037E0632E8C2D8F19851508F07AC0F60149
:103BB0003491313F09F46CC0323F11F4F2EF6CC024
:103BC000A42CB12C612F70E06150710901E029E053
:103BD00048E0C50139830E94A92239818A81823F48
:103BE00041F1343608F057C0EDE7AE16B10414F0D9
:103BF000185F412CA12EB12C842C912C432F50E026
:103C0000CA01880F991F480F591F4A5A564DE12C77
:103C100008E023E0B501C4010E94001821E045E559
:103C200059E2B501C40103960E940018F4E04F0E5A
:103C300021C0333990F589E7A816B10414F0185F54
:103C4000412CA12EB12C842C912C639EA001112417
:103C5000405B5A4DE12C08E027E0B501C4010E9409
:103C6000001821E045E559E2B501C40107960E941C
:103C70000018400E842D90E08937910514F0185FEC
:103C8000412C772051F0612F842D0E94A11D05C089
:103C9000E1EFEA8302C0F1EFFA838FEFC81AD80A86
:103CA00081CF0F900F90DF91CF911F910F91FF90D7
:103CB000EF90DF90CF90BF90AF909F908F907F90CC
:103CC0006F905F904F900895CF93DF9380910F0195
:103CD000813079F038F08230B9F08330F9F481E046
:103CE00090E014C010928502109284028FEF9FEF33
:103CF00006C0109285021092840281E090E09093B9
:103D00008302809382020AC08FEF9FEF9093850217
:103D100080938402109283021092820281E0809349
:103D20008602E0910001F0910101409184025091DE
:103D30008502BF01640F751F673F710570F4A09184
:103D40000201B09103012091820230918302CD01E2
:103D5000820F931F873F910518F01092860265C06D
:103D6000EF01F7FD2F96689413F8D595C795169433
:103D7000E1F7689413F8759567951694E1F7C617FF
:103D8000D707A1F160918702C3E0440F551FCA9580
:103D9000E1F7E40FF51FF7FD3F9644E0F595E79551
:103DA0004A95E1F780E1689FA001112473E0220F9A
:103DB000331F7A95E1F7CD01820F931F97FD0F9680
:103DC00024E0959587952A95E1F7840F951F34E0B7
:103DD000880F991F3A95E1F7E80FF91FE05BFF4E56
:103DE000A4E1B2E091E02AE22A0F14C0BD01B7FFBE
:103DF00002C0615F7F4FC4E075956795CA95E1F792
:103E0000D4E095958795DA95E1F76817790709F079
:103E1000B9CF0BC084913D91831303C0653F08F473
:103E200090E02A13F7CF90938602DF91CF91089507
:103E30000F931F930E947D170091A1021091A2027F
:103E40002091A3023091A4020C5E1F4F2F4F3F4FD1
:103E5000601771078207930708F440C00E947D171E
:103E60006093A1027093A2028093A3029093A40294
:103E70008FEF80930D010E94D31787FD10920D01E3
:103E80000E94D31784FF03C081E080930D010E943C
:103E9000D31785FF03C082E080930D010E94D317E2
:103EA00086FF03C083E080930D010E94D31783FF38
:103EB00003C084E080930D010E94D31782FF03C0EA
:103EC00085E080930D010E94D31783FF07C00E94F5
:103ED000D31782FF03C086E080930D011F910F91DD
:103EE00008958F929F92AF92BF92CF92DF92EF92FE
:103EF000FF920F931F93CF93DF93082FC1E3D0E07E
:103F0000C12CD12C760187EE882E99249A94A92C65
:103F1000B92C011127C00E94CC240E94471B0E948B
:103F2000CB2210910C011150C701B601A5019401DB
:103F30000E948628DA01C901412FBE010E94B51CEA
:103F400087EB92E00E94E31787E0C81AD108E108E6
:103F5000F108219781E5C8168FEFD806E806F80624
:103F6000C1F606C00E94181F90910D01953099F27C
:103F7000DF91CF911F910F91FF90EF90DF90CF9045
:103F8000BF90AF909F908F9008954F925F926F92E5
:103F90007F928F929F92AF92BF92CF92DF92EF92D9
:103FA000FF920F931F93CF93DF936C015B014A0144
:103FB000390110E01017E9F1E12CF12C44244A9466
:103FC000410E5E2CC0E0D0E0C038D10549F18C2F05
:103FD00085258C2B80FD22C0CC15DD05FCF08C16D0
:103FE0009D06E4F0EA14FB04CCF06E147F04B4F0F8
:103FF00041E050E0123010F440E050E04E0D5F1D03
:1040000061E070E081E0841510F460E070E06C0F16
:104010007D1F20E087EB92E00E946D192196D4CF9E
:104020009FEFE91AF90A80E4E816F10451F61F5FE0
:10403000C1CFDF91CF911F910F91FF90EF90DF9053
:10404000CF90BF90AF909F908F907F906F905F9038
:104050004F900895AF92BF92CF92DF92EF92FF926E
:104060000F93CF93DF93D82F20910C01082E000CD3
:10407000990B820F911D01970A9718F42D0F209329
:104080000C01CEE0DC9FC02D112489EFA82EBB24AB
:10409000BA940E94CC240E94471B0E94CB22650147
:1040A000CC1AD108C7FDD394E12CF12C40910C011E
:1040B000842F90E001968E199F090A97B0F44F5F04
:1040C0004E19B60188E090E00E94B51C82E0E81627
:1040D000F10459F001E09601225F3F4F46E150E0C4
:1040E000B60188E090E00E94C51F8FEFE81AF80A39
:1040F0008FE0C80ED11C86E0E816F104B9F64091B5
:10410000B102465F21E06EE170E08FE090E00E9436
:10411000A7234091B102455F20E06EE170E08FE09F
:1041200090E00E94A7234091B102445F21E06EE13C
:1041300070E08FE090E00E94A72387EB92E00E945E
:10414000E317D7FF02C0CF5F02C0D111C150C11128
:10415000A0CFDF91CF910F91FF90EF90DF90CF90A4
:10416000BF90AF9008950F93CF93C0E00C2F20E441
:1041700030E04FE750E060E070E080E090E00E94C7
:10418000C51F87EB92E00E94E3176AEF70E080E0C2
:1041900090E00E944317CF5FC43041F7CF910F9159
:1041A0000895AF92BF92CF92DF92EF92FF920F935A
:1041B0001F93CF93DF930E94CC240E94471B0E9441
:1041C000CB2240910C01415061E370E080E090E02F
:1041D0000E94B51C809100019091010197FD0F96FE
:1041E000E4E095958795EA95E1F780939C028091AC
:1041F00002019091030197FD0F9644E095958795F4
:104200004A95E1F780939B0251EBE52E5FE0F52E96
:10421000CBE1D0E167EFA62E6FE0B62E70EBC72E94
:104220007FE0D72EFE013197E49180918702E81359
:1042300018C0F5013197949180910F01981719F0EA
:10424000E491EF3F71F4F7013397E49180919C0280
:10425000E81307C0F7013297E49180919B02E817B9
:10426000C9F0F4E0EF0EF11C239682E0A80EB11C19
:10427000E4E0CE0ED11CF0E1C135DF0799F6DF9105
:10428000CF911F910F91FF90EF90DF90CF90BF9053
:10429000AF900895FE013196E491E13009F033C00A
:1042A0000E94181F0E947D170091A5021091A6027E
:1042B0002091A7023091A8020A561F4F2F4F3F4F5F
:1042C000601771078207930708F45BC080910D01A6
:1042D000843009F056C0F5018491882309F451C057
:1042E000F6011491FE01849190E00B960E94961ABB
:1042F000F701249190E0810F911D30E028173907D4
:104300000CF493C03EC0E13048F5F5014491F7014B
:1043100084918295807FF60124912295207FFE0171
:10432000949190938702922F92959F7090939C0204
:10433000982F92959F7090939B0230E030930101EB
:104340002093000190E09093030180930201409339
:104350000F010E94B3200E94761D83CFE23009F046
:1043600080CFF701849190E081589F4F0E94961A68
:10437000882309F46CC0F5018491813009F071CF74
:1043800066C0F6011491FE01849190E00B960E94A4
:10439000961A810FF7019491981708F462CF90E074
:1043A000FC01E850F84F2491880F991FDC01A85DAB
:1043B000BE4F4D915C9101E068E381E00E94B71D22
:1043C0000E947D170091A5021091A6022091A702DC
:1043D0003091A8020A561F4F2F4F3F4F60177107A9
:1043E0008207930708F43DCF0E947D176093A502D2
:1043F0007093A6028093A7029093A8020E94181FB0
:1044000080910D01843009F02CCFFE01849190E061
:104410000B960E94961AFE01949161E0680F892F15
:1044200090E00B960E947A1A1CCFFE01849190E0D6
:1044300060E00B960E947A1A0E947D176093A50295
:104440007093A6028093A7029093A8020ACFF60168
:104450001491FE018491811101C01195F70184919D
:1044600090E061E081589F4F0E947A1A80E00E949C
:10447000711F812F0E942A2080E00E942A200E9422
:10448000761D68EE73E080E090E00E944317E9CE6D
:104490009C01215F3F4F2F38310570F5FC0197FFDC
:1044A00002C0E0E0F0E040968138910514F080E829
:1044B00090E08E1BAB014770552721E030E001C032
:1044C000220F4A95EAF7209577FF02C0695F7F4F78
:1044D00093E0759567959A95E1F77695762F66271F
:1044E00077956795E60FF71FE653FD4F815020F053
:1044F000908192239193FACF0895DF92EF92FF92E9
:104500000F931F93CF93DF937C01D22E8B01040F67
:10451000111DEB0177FF0EC0C0E0D0E00BC0C41747
:10452000D5077CF42D2DAE01B70187EB92E00E94F8
:104530006D192196A801013411058CF340E450E077
:10454000EECFDF91CF911F910F91FF90EF90DF9011
:104550000895CF92DF92EF92FF920F931F93CF9324
:10456000DF936B01122FEC017C01E40EF11CCE15E0
:10457000DF0544F4202F412FB601CE010E947D2299
:104580002196F5CFDF91CF911F910F91FF90EF9082
:10459000DF90CF9008956F927F928F929F92AF920B
:1045A000BF92CF92DF92EF92FF920F931F93CF9320
:1045B000DF931F92CDB7DEB730910F011091B1029A
:1045C000612E712CE32FF0E0EE0FFF1F8091B202FD
:1045D000E80FF11DEE0FFF1FEE0FFF1FE60DF71D99
:1045E000EE0FFF1FE25CFD4F40815181E12C00E1A5
:1045F00020E167E170E087E390E039830E940018D2
:104600003981332309F46DC0323031F0333031F069
:10461000313031F48DE305C08AE303C081E401C089
:1046200087E3E82EF12C01E022E041E06BE170E04D
:10463000C7010E94A922670122E0C20ED11C22E01C
:1046400041E06BE170E0C6010E94A9220E947D1743
:104650008090AD029090AE02A090AF02B090B002F8
:1046600028E8820E23E1921EA11CB11C6815790571
:104670008A059B0510F0112331F08091CA06811143
:1046800030C0111102C01092CA0622E030E0261993
:1046900037091216130624F482E0B82EB11A03C0AB
:1046A0008EEFB82EB10E00E02B2D41E06BE170E0F3
:1046B000C7010E94A9222B2D41E06BE170E0C601E9
:1046C0000E94A922123069F40E947D176093AD0206
:1046D0007093AE028093AF029093B00281E080931A
:1046E000CA060E947D17C0909D02D0909E02E09065
:1046F0009F02F090A00226E9C20ED11CE11CF11C21
:104700006C157D058E059F0590F00E947D176093C6
:104710009D0270939E0280939F029093A0021F5F60
:10472000143018F41093B10202C01092B1020F902D
:10473000DF91CF911F910F91FF90EF90DF90CF907D
:10474000BF90AF909F908F907F906F9008955F92F1
:104750006F927F928F929F92AF92BF92CF92DF9291
:10476000EF92FF920F931F93CF93DF938C017B0106
:10477000522EC42FD0E081E090E05C01AC1ABD0A5B
:10478000662477246C1A7D0A660C771C6FEF70E044
:1047900080E090E00E941F1797FD09C0252DA7011A
:1047A0004C0F5D1FB80187EB92E00E946D196FEF0F
:1047B00070E080E090E00E941F1797FD09C0252D52
:1047C000A7014C1B5D0BB80187EB92E00E946D19AD
:1047D0006FEF70E080E090E00E941F1797FD09C026
:1047E000252DA701B8016C0F7D1F87EB92E00E9479
:1047F0006D196FEF70E080E090E00E941F1797FD49
:1048000009C0252DA701B8016C1B7D0B87EB92E039
:104810000E946D19C12CD12C88248394912CCC1624
:10482000DD060CF0A9C0B7FC06C0219782E0680E37
:10483000711CA60CB71C8FEFC81AD80A82E0880E2C
:10484000911CA80CB91C6FEF70E080E090E00E9412
:104850001F1797FD0BC0252DA7014C0F5D1FB6013B
:10486000600F711F87EB92E00E946D196FEF70E08F
:1048700080E090E00E941F1797FD0BC0252DA70137
:104880004C0F5D1FB8016C197D0987EB92E00E9407
:104890006D196FEF70E080E090E00E941F1797FDA8
:1048A0000BC0252DA7014C1B5D0BB601600F711FBE
:1048B00087EB92E00E946D196FEF70E080E090E06E
:1048C0000E941F1797FD0BC0252DA7014C1B5D0BE8
:1048D000B8016C197D0987EB92E00E946D196FEFAA
:1048E00070E080E090E00E941F1797FD0BC0252D1F
:1048F000A6014E0D5F1DB8016C0F7D1F87EB92E086
:104900000E946D196FEF70E080E090E00E941F1729
:1049100097FD0BC0252DA6014E0D5F1DB8016C1B28
:104920007D0B87EB92E00E946D196FEF70E080E0E5
:1049300090E00E941F1797FD0BC0252DA7014C1971
:104940005D09B8016C0F7D1F87EB92E00E946D1925
:104950006FEF70E080E090E00E941F1797FD5FCF3F
:10496000252DA7014C195D09B8016C1B7D0B87EB48
:1049700092E00E946D1953CFDF91CF911F910F915B
:10498000FF90EF90DF90CF90BF90AF909F908F906F
:104990007F906F905F90089580E0EAECF2E08111E3
:1049A0008FEF002481938193819381930394D1F7B6
:1049B000E3EBF2E0128A118A108A178608950F93AA
:1049C0001F93CF93DF938C01C0E0D0E0F801EC0F90
:1049D000FD1F6491662371F0E091B302F091B4027F
:1049E0000190F081E02D83EB92E00995892B11F085
:1049F0002196ECCFCE01DF91CF911F910F910895B9
:104A0000CF93DF930E94DF24EC0142E050E06EE799
:104A100072E083EB92E00E94AC168C0F9D1FDF9139
:104A2000CF91089568EE73E080E090E00C94431716
:104A30000F931F93CF93DF93EC0181E090E00E94EE
:104A4000702880FF2CC08AE090E00E9470289FEFC1
:104A5000980F9E3F20F522E330E0388B2F8728E324
:104A600030E03A8B298B0BE010E0E881F98101906E
:104A7000F081E02D682FCE010995C8010E947028B1
:104A80000F5F1F4F0131110581F7CE0104960E947F
:104A9000E317DF91CF911F910F910C941225DF91B5
:104AA000CF911F910F91089504970C941825E3EB73
:104AB000F2E0138212821186128680E183871086CB
:104AC0001782158688E191E09183808386E291E0E8
:104AD00095838483108A1786128A118A81E0838BDA
:104AE000148A858B168A0895CF93DF931F92CDB7D2
:104AF000DEB7789484B5826084BD84B5816084BD5E
:104B000085B5826085BD85B5816085BD80916E006B
:104B1000816080936E00109281008091810082609C
:104B200080938100809181008160809381008091D9
:104B300080008160809380008091B10084608093C8
:104B4000B1008091B00081608093B00080917A00C4
:104B5000846080937A0080917A00826080937A00EA
:104B600080917A00816080937A0080917A008068D9
:104B700080937A001092C10081EC80937C0088B110
:104B80008E6088B987B1817F87B98BB18C618BB911
:104B90008AB1837E8AB98AB1806E8AB98BB18F71EE
:104BA0008BB91092B90088E48093B8000E940E1768
:104BB00080E00E940417EFE9EE2EE7E0FE2E1FE1F1
:104BC0001E0DF70184910E940417FFEFEF1AFF0AF0
:104BD0001E11F7CF0E94FC1681E08093B80010925E
:104BE000C6028093C7020E940E1780E00E9404173D
:104BF00086EA0E9404170E94FC16809104018093AB
:104C000087020E94D12032E1C32E38E0D32E43E147
:104C1000A42E48E0B42E54E1852E58E0952E60E095
:104C2000662E60E0762E73E0272E1BE024E0322E05
:104C30000E94181F00910D01043080F480919402AD
:104C400081110CC00E94641E81E08093B202023088
:104C500031F1033061F1013099F419C01092B202C0
:104C60000230E9F028F4002359F0013081F039C016
:104C70000330E9F00530A9F581E00E94711F1EC0E4
:104C800080919402811128C010920F0125C080915B
:104C90009402811121C091E090930F011DC0809179
:104CA0009402811119C0E2E0E0930F0115C08091D8
:104CB0009402811111C020920F010EC080910D014C
:104CC000853051F40E94181F80E00E942A2087EB53
:104CD00092E00E94E317F2CF8091B20281110E940C
:104CE000641E809186028823F1F0209100013091AA
:104CF00001018091840290918502820F931F90930D
:104D00000101809300012091020130910301809103
:104D1000820290918302820F931F909303018093EC
:104D2000020110928602809192028F5F853018F402
:104D30008093920202C01092920280910C018150E5
:104D40008A3008F0D2C0809187028B3069F50E94CA
:104D5000B3200E94CC2401E020E440E860E070E051
:104D600080E090E00E94A922E12C00E120E143EDE7
:104D700057E067E070E087E390E00E94001884E06D
:104D800090E09093C3028093C20287E290E09093F8
:104D9000C5028093C4028EEB97E00E94DF2487EB6C
:104DA00092E00E94E317FFCF833009F04DC080915D
:104DB000000190910101C097409708F045C0809193
:104DC000020190910301805891094097E8F5809184
:104DD0009102811130C0E12CF12C60E0C7010E94EA
:104DE0007A1AFFEFEF1AFF0AE11484E0F806A9F738
:104DF0000E94761D62E085E090E00E947A1A60EAE7
:104E000070E086E00E94B21A60E270E088E00E94E2
:104E1000B21A6BE08AE090E00E947A1A62E080E0C9
:104E200092E00E947A1A62E081E092E00E947A1A8F
:104E300091E09093910280910C01893018F03092AA
:104E4000870202C01093870280E092E00E94961AC7
:104E5000682F81E092E069830E94961A6981681741
:104E600021F081E092E00E947A1A0E94D120809184
:104E70000E01882309F486C0E1E0E09394020E94C9
:104E8000181F80910D01813059F018F0843081F0A5
:104E900041C080919302882309F43CC0815005C031
:104EA000809193028230B0F58F5F8093930232C07D
:104EB000809193028130C9F060F0823059F584E12D
:104EC000E82E88E0F82E90E6492E91E0592E90E0E9
:104ED0000EC0E12CF12CC7010E94961AF701ED508B
:104EE000F84FE4918E1709F461C00E94CA1AF701C5
:104EF0002491F201419151912F0100E0692F80E04E
:104F000099830E94B71DFFEFEF1AFF0A9981985FFE
:104F1000903469F701E028E247E26FE070E084E551
:104F200090E00E94A92202E027E330E04BE750E046
:104F30006FE070E084E590E00E94C51FF6012491C7
:104F400000E046EE50E063E188E50E94B71DF50100
:104F5000249141EE50E06DE188E50E94B71DF40117
:104F600024914EED50E067E288E50E94B71D609104
:104F70009302660F862F880F880F680F6D5E80E59D
:104F80000E94A11D809195029091960201969093A6
:104F900096028093950287EB92E00E94E3176114DA
:104FA000710409F445CE0E9400003FCEFFEFEF1AD6
:104FB000FF0A85E0E816F10409F08DCF80E092E069
:104FC0000E94961A082F81E092E00E94961A081318
:104FD0008CCFE12CF12CC7010E94961AF5E0EF1658
:104FE000F10411F480930C018FEFE81AF80AE11430
:104FF00094E0F90681F786E00E94981A90930101E7
:105000008093000188E00E94981A90930301809396
:1050100002018AE090E00E94961A80938702109223
:105020000E011092940276CF8F929F92AF92BF9210
:10503000CF92DF92EF92FF92CF93DF93EC016881E2
:1050400079818A819B81611571058105910521F422
:1050500064E279ED8BE597E02DE133EF41E050E03C
:105060000E94862849015A019B01AC01A7EAB1E4DC
:105070000E94A5286B017C01ACEEB4EFA501940160
:105080000E94B328DC01CB018C0D9D1DAE1DBF1D00
:10509000B7FF03C00197A109B04888839983AA8309
:1050A000BB83BC01CD019F77DF91CF91FF90EF9043
:1050B000DF90CF90BF90AF909F908F9008950E9407
:1050C0001428089580E191E00E94142808956093C7
:1050D00010017093110180931201909313010895B0
:1050E000F999FECF92BD81BDF89A992780B50895B0
:1050F000262FF999FECF1FBA92BD81BD20BD0FB6F4
:10510000F894FA9AF99A0FBE01960895052E97FB26
:105110001EF400940E949D2857FD07D00E94B828D5
:1051200007FC03D04EF40C949D2850954095309583
:1051300021953F4F4F4F5F4F089590958095709503
:1051400061957F4F8F4F9F4F08950E94DA28A59F4A
:10515000900DB49F900DA49F800D911D1124089572
:10516000B7FF0C94A5280E94A528821B930B0895D5
:10517000A1E21A2EAA1BBB1BFD010DC0AA1FBB1F5B
:10518000EE1FFF1FA217B307E407F50720F0A21BCD
:10519000B30BE40BF50B661F771F881F991F1A943A
:1051A00069F760957095809590959B01AC01BD0164
:1051B000CF010895A29FB001B39FC001A39F700DBE
:1051C000811D1124911DB29F700D811D1124911D0F
:1051D0000895EE0FFF1F0590F491E02D099481E0F2
:0C51E00090E0F8940C94F428F894FFCFB1
:1051EC0070009800000000000000000001FF0101A9
:1051FC0001000000000000008B19AC161A171917DB
:10520C001825FCFF00005425F101E201D401C8016E
:10521C00BC01B601AE01A401950185017C017001B0
:10522C0064015E0152014901420132012C01290144
:10523C001C0112010C01FF00F200EB00E600E10082
:10524C00DE00D200C300B400A60099008D007700E8
:10525C006800F307A6089E0896088E0886087E0844
:10526C0076086E0866085E0856084E0846083E0822
:10527C0036082E0826081E088E0F6E0F4E0F2E0FA6
:10528C000E0FEE0ECE0EAE0E8E0E6E0E4E0E2E0EB1
:10529C000E0EEE0DCE0D6E0EAE0D8E0D6E0D4E0D68
:1052AC002E0D0E0DEE0CCE0CAE0C8E0C6E0C8E0F5D
:1052BC004E0C2E0C0E0CEE0BCE0BAE0B8E0B6E0B97
:1052CC00D3074E0B2E0B0E0BEE0ACE0AAE0A8E0A2D
:1052DC006E0A8E0F4E0A2E0A0E0AEE098E0F6E0CF7
:1052EC00CE09AE098E096E094E092E090E09EE087B
:1052FC00CE08AE080205090A0B0C0D0E1415161873
:10530C00191A1B1C1D1E1F2122232427282B2C2E6F
:10531C002F303132333435363738393A3B3DE22C85
:10532C00C22CA22CC22C822CC22C622CC22C422C41
:10533C00222C022C222CE22B222CC22B222CA22B34
:10534C00822B622B822B422B822B222B822B022B29
:10535C00E22AC22AE22AA22AE22A822AE22A0D0A96
:02536C0000003F
:00000001FF
