:100000000C94E1190C94091A0C94091A0C94091A0D
:100010000C94091A0C94091A0C94091A0C94091AD4
:100020000C94091A0C94091A0C94091A0C94091AC4
:100030000C94091A0C94091A0C94091A0C94091AB4
:100040000C94EA220C94091A0C94091A0C94091ABB
:100050000C94091A0C94091A0C94091A0C94091A94
:100060000C94091A0C94091A0000000000FEFF0706
:10007000FBFAFABA7BBBFBFBFBFBBB7BBBFBFBFBD3
:10008000FB07FFFE000000000000000000FFFF0073
:10009000FFFFFFBEBFDEDFDBDBDFDEDFDEBFFFFF3C
:1000A000FF00FFFF000000000000000000FFFFFE57
:1000B000FDFDFD9D8D9DFDFDFDFDFDFDFDFDFDFDA0
:1000C000FD7EFFFF0000000000000000007FFFFD3C
:1000D000F8F8FFCF8FCFFF78787D7FFFEFC7EFFF76
:1000E000FEFCFE7F000000005245424F4F5400537B
:1000F0004554555020454550524F4D00434C4541C5
:100100005220454550524F4D0053415620434845DB
:10011000434B204552524F52210001020408102047
:100120004080F2E8F237EFF2161709EE944E25F20E
:100130000203150607E9EA15310C0DF2E5E6E7E8DA
:10014000F200560C0DF20C74F2766114F22F37099E
:100150003C112546F28ED9CBDACCCD90E40025DDDA
:10016000DEF2DF44090A0BE075E1E290E3F28ED99A
:10017000CBDA8B90B5DBDCDDDEF2D2D3D4D5D6D7AB
:100180008AD8F2CB41047475371966CCCD46CECFF0
:10019000D0D1F20437ABA6123F2B3C46C83AC9CAAD
:1001A000F1334C554700434154F13241494E003739
:1001B0004F524C44F2C6060714626359C737545570
:1001C000564CF2C2B3C3C4B2C5042C0607F2042CC9
:1001D000060746BFC03715C146F2BA2FBBBC461250
:1001E000B19085BDBEBEF237B8B9F2AEAFB6B7F2C8
:1001F000B0B12BB258B38BB4B5F237AEAFF2ABA6F9
:100200008630ACAD93942A2BF2A69FA037A7A8A95D
:10021000AA03F2009FA037A1A2A31E46A4A5F28CB8
:100220003712999A9B9C9D9E46F20437129798F23A
:100230008E8F0846779091929394951296F28889C2
:100240008A8B8C8D4AF2042C83848586060787115D
:10025000F20437122C81824683F204097F37128020
:10026000464AF27D7E464AF2084609657B7C71F279
:1002700000013778797AF276771561F21512737486
:1002800075F20846710972F2696A6B466C6D6E6FA1
:100290006C70F26509522C66566768F22F1531644E
:1002A000F262632A2B4D4EF25811595A5B5C175D6E
:1002B0005E5F6061F209112627525354555657F27A
:1002C000354C102A4D4E4F2E37060746125051F22C
:1002D00042432035444546471748494A4BF2353694
:1002E0003738393A3B3C1C3D3E3F4041F22D2E2FE2
:1002F0003031323334F2262728292A2B042C0607E2
:10030000F2191A1B1C1D1E1F20092122232425F26D
:10031000140115161718F20E0F10111213F204061D
:1003200007080C0DF20405060708090A0BF2000184
:10033000020300002040404040867C7848784E7C94
:10034000000000010202020202019F3F3F3F3F1FE7
:10035000800000000030202040807E7C487A4E7C67
:100360000000000E0101010202019F3F3F3F3F9F3D
:10037000000000002040404040867C7848784E7C59
:10038000000000010202020202011FBF3F3FBF1F27
:10039000000000002040404040807E7C48784E7C39
:1003A000000000000304040402011FBF3F3FBF1F01
:1003B000000000000030202040807E7C487A4E7C87
:1003C0000000000E0101010202011FBF3F3FBF1FDD
:1003D000000000007C4E7A487C7E804040404020F7
:1003E000000000001FBF3F3F3F9F010202020202C8
:1003F000010000007C4E7848787C86402020300048
:10040000000000009F3F3F3F3F9F010202010101AA
:100410000E0000007C4E7A487C7E804040404020A8
:10042000000000001FBF3F3FBF1F01020202020287
:10043000010000007C4E78487C7E80404040402097
:10044000000000001FBF3F3FBF1F01020404040360
:10045000000000007C4E7848787C864020203000E8
:10046000000000001FBF3F3FBF1F0102020101014A
:100470000E0000000000007C4E7C4C7E7CA0100032
:10048000C00000000000001F3FBF3FBF1F00010170
:10049000000000000000007C4E7C4C7E7C90605090
:1004A000102000000000001FBF3F3F3F9F000000E2
:1004B000000000000000007C4E7C4C7E7CA0100000
:1004C000C00000000000001FBF3F3FBF1F00010130
:1004D000000000000000007C4E7C4C7E7C90504070
:1004E000808000000000001FBF3F3FBF1F000000D2
:1004F000000000000000007C4E7C4C7E7C90605030
:10050000102000000000001FBF3F3FBF1F00000081
:10051000000000000040807CFE7C7CFE7C0000002F
:10052000000000030404021C3DBA3BBC1F00000095
:100530000000402020C0007CFE7C7CFE7C0000008F
:10054000000000000008051ABA3B3D3C9F00000077
:10055000000000000040807CFE7C7CFE7C000000EF
:10056000000000030404021CBD3A3BBC1F00000055
:10057000000000000000007CFE7C7CFE7C0000008F
:10058000000000020301021FBC3E3DBC1F00000032
:100590000000402020C0007CFE7C7CFE7C0000002F
:1005A000000000000008051ABA3B3DBC1F00000017
:1005B000000000000000003E5B4F5B3E3E6B4F6B57
:1005C0003E1C3E7C3E1C183C7E3C181C577D571C34
:1005D0001C5E7F5E1C00183C1800FFE7C3E7FF00AD
:1005E00018241800FFE7DBE7FF30483A060E2629FB
:1005F000792926407F050507407F05253F5A3CE7BE
:100600003C5A7F3E1C1C08081C1C3E7F14227F2283
:10061000145F5F005F5F06097F017F006689956A4E
:10062000606060606094A2FFA29408047E040810D9
:10063000207E201008082A1C08081C2A08081E1002
:100640001010100C1E0C1E0C30383E3830060E3EBA
:100650000E06000000000000005F00000007000719
:1006600000147F147F14242A7F2A12231308646243
:1006700036495620500008070300001C22410000A4
:1006800041221C002A1C7F1C2A08083E0808008002
:10069000703000080808080800006060002010089A
:1006A00004023E5149453E00427F4000724949499B
:1006B000462141494D331814127F102745454539CD
:1006C0003C4A4949314121110907364949493646D1
:1006D0004949291E000014000000403400000008B1
:1006E0001422411414141414004122140802015954
:1006F00009063E415D594E7C1211127C7F494949E1
:10070000363E414141227F4141413E7F4949494175
:100710007F090909013E414151737F0808087F00A4
:10072000417F41002040413F017F081422417F402A
:100730004040407F021C027F7F0408107F3E414101
:10074000413E7F090909063E4151215E7F09192971
:1007500046264949493203017F01033F4040403F5B
:100760001F2040201F3F4038403F6314081463039C
:10077000047804036159494D43007F41414102041B
:10078000081020004141417F040201020440404022
:100790004040000307080020545478407F28444418
:1007A000383844444428384444287F385454541832
:1007B00000087E090218A4A49C787F08040478002D
:1007C000447D40002040403D007F1028440000410F
:1007D0007F40007C047804787C0804047838444422
:1007E0004438FC1824241818242418FC7C08040419
:1007F00008485454542404043F44243C4040207C82
:100800001C2040201C3C4030403C44281028444CD4
:100810009090907C4464544C4400083641000000A1
:10082000770000004136080002010204023C262342
:10083000263C1EA1A161123A4040207A38545455FA
:1008400059215555794121545478412155547840C6
:1008500020545579400C1E5272123955555559394C
:100860005454545939555454580000457C410002A1
:10087000457D420001457C40F0292429F0F02825DF
:1008800028F07C545545002054547C547C0A097F40
:100890004932494949323248484832324A48483058
:1008A0003A4141217A3A42402078009DA0A07D390A
:1008B000444444393D4040403D3C24FF2424487E8C
:1008C0004943662B2FFC2F2BFF0929F620C0887E79
:1008D000090320545479410000447D413048484A7E
:1008E00032384040227A007A0A0A727D0D19317D31
:1008F0002629292F28262929292630484D40203805
:100900000808080808080808382F10C8ACBA2F10C3
:100910002834FA00007B000008142A142222142A2A
:1009200014089500220095AA005500AAAA55AA55B8
:10093000AA000000FF00101010FF00141414FF00A4
:100940001010FF00FF1010F010F0141414FC00142D
:1009500014F700FF0000FF00FF1414F404FC14144B
:1009600017101F10101F101F1414141F0010101048
:10097000F0000000001F101010101F10101010F0D9
:1009800010000000FF101010101010101010FF10B9
:10099000000000FF140000FF00FF00001F10170000
:1009A00000FC04F414141710171414F404F40000D9
:1009B000FF00F714141414141414F700F71414148B
:1009C000171410101F101F141414F4141010F0102A
:1009D000F000001F101F0000001F14000000FC1496
:1009E0000000F010F01010FF10FF141414FF14108A
:1009F00010101F00000000F010FFFFFFFFFFF0F0DD
:100A0000F0F0F0FFFFFF0000000000FFFF0F0F0FEE
:100A10000F0F38444438447C2A2A3E147E020206D2
:100A200006027E027E0263554941633844443C0419
:100A3000407E201E2006027E020299A5E7A5991C91
:100A40002A492A1C4C7201724C304A4D4D303048B4
:100A5000784830BC625A463D3E494949007E010112
:100A6000017E2A2A2A2A2A44445F444440514A44A7
:100A70004040444A51400000FF0103E080FF000075
:100A800008086B6B083612362436060F090F06006D
:100A90000018180000001010003040FF0101001F76
:100AA00001011E00191D1712003C3C3C3C000000D7
:100AB0000000AED5F0A83FD300408D14A1C8DA12D3
:100AC00081CFD9F1DB40A4A6AF200021007F220016
:100AD00007506C656173652075706C6F61642050A0
:100AE00061727400FE01010F111111111115110F26
:100AF000010204F87F80FE818195959595959581F9
:100B000081FE807FF2EBECED8A000C0F0C0F0C00E5
:100B10000C090F09000900090F0F0B000B0F0C0047
:100B20000C000B0F0B000C0F0C0F05000500050F40
:100B300005070E0101070E07020F04000400040F51
:100B4000040900090F090F09000400030F030F0433
:100B500000040F04000D000D0F0D0F01000D0F021A
:100B60000E0D0100010F0700070F08000700070F17
:100B7000070F07000600060F070F03000700070F07
:100B8000030300030F030F0300020E02040B0E0108
:100B900002030E01030C0A0507090B080A090F0BD3
:100BA0000D0C0C0E0F090C1011040A12130C0B146F
:100BB000150409080F080F040904050304040503BC
:100BC00006090516160A05171A05081B1B08081C36
:100BD000200B08212304052425030C26280C0B0CCC
:100BE0000B0B0B0B0B0706292908062A2A08092BD1
:100BF0002C040E2D2D060E2E2E090E2F2F0A0E3030
:100C0000300900090F090F09000F09000900090F39
:100C1000090500050F050F05000A0D3131080632E0
:100C2000320E0432320F0B000B000B0F0B0D0F0DA9
:100C3000000D000D0F0204070F070F020409090140
:100C400005090B02060F0C3333060834340F060077
:100C50000600060F060F03000300030F0305030140
:100C600002020204030F06000600060F060C0F0C1A
:100C7000000C000C0F0F06000600060F060A0F0AF4
:100C8000000A000A0F0C030107090334340A053572
:100C9000350D0D36360B0107070F0007070F0F073D
:100CA00007000F07070F0F07070F0007070F0007C1
:100CB000070F0007070F000707000F07070F0F07B1
:100CC000070000000B030A01080608080F080F06BA
:100CD0000809093939090B3A3A050F0D060B050BBE
:100CE0000C0D06010905090707070F0C090F0E0F68
:100CF0000B0D0705090B06060507090509090B0871
:100D00000E060B0C0A0B040A05040D0C0B0E0B0946
:100D10000E10090C0C0D08040305050C0508030250
:100D20007A2A7B021A437A7D457D577D457D403F77
:100D30000B6B7F6B0B54134D07520F52493A4062B5
:100D40006B6B6250571D171D5750047F445F545FF3
:100D500044205F351F751F2052521E1F1E52521114
:100D600011097F010911357F62355F5D6A463246A0
:100D70007F565246423E057D4F5C647F1B5C365D6C
:100D8000365C0A6E7F6A677D053E2A3E6A2F7A28A6
:100D900049386A5F407F6A493A40786F497F08085E
:100DA0000808080C08486A5F6A3F427E4040407F5E
:100DB000444440120A7F2A2A7A02535A3F7A3F5A01
:100DC0005342221A0702427E127A07027F526A06B3
:100DD000735E7B5E7306542B5573142D53243F4E64
:100DE0007E5B7E4E127B367E5A2F5E75482E5F7C70
:100DF000235E750004765E7504126964097F011F25
:100E00001A2E3A7B7A6E5A553E7A5F4A5F7A497D4E
:100E10002B5E7D2F50777D573F007F4A4938447FB6
:100E20006A7F6A484A6A5F4A2A484C4B3A0F7A4AB4
:100E300068442B1E2A7E427E506A7A6F7A6E541C5A
:100E40000B7E7C6B6E1A725E7B367F7E4B7F2B7BBC
:100E5000287B2B7F047E7F756F757F047E015F5535
:100E6000555F20521B56175C7014567E155F245533
:100E7000047E7F0700477F571F57705F54741F150C
:100E80005F201F557F704E487F484E70777D57100A
:100E90006A656B6B3E6A3E6A3E6A6A6B743275368F
:100EA000744437457D5557440979555F5175097F1D
:100EB0002D7F2D5D175D682A5E5B7E0A68281A6F9C
:100EC0006A7F251B047C565D567C04493A407E6B44
:100ED0006A7E117F151F557F11710044231E224623
:100EE0007D6F7D48577D57524E327F324E520C7F78
:100EF0003A2F7A3F5E5252377E5F7612403F157F1F
:100F000015557F403C542C5F7A4A3E2B3E040B52D1
:100F10007E124E5B365B750B423F427E7E427E0602
:100F20007F484A3F4E48404C201F2844407A2A1EA2
:100F30006B7A2E7A7500486A5F2A482D7F2D7235AC
:100F400076747F415D555D417F7F65554F55657F67
:100F50000A6E6B0E7F251B48442B184B7C08527F72
:100F60000A445F2455495D3B2D0E407F423D5F7C26
:100F70002D7B2F7500484A3F4E4842221E0B4A7A6D
:100F800002565A3E7B365A5649387D557D577D75F7
:100F9000007D1417547D2A7F2A2A7E5554357E09F8
:100FA0007A2F7A08127B3E2A7F2A3E445F557D5570
:100FB0005F44565A56335E5A560937313E5A2F5EB1
:100FC000485A3F2A0A527F567D365D14175D28180D
:100FD000457D1028444938645E775E6450171D775C
:100FE000150F505157755F355751243F087E445FA8
:100FF0006C047E231A7F1A22603E5A5B7A1E60229E
:101000004E7B2E443F457D554F455F557D553058AD
:101010006E5D7E58553F557F007F1B243F5E2A7FC3
:101020006A5E11097F494979012D352D401D175DF3
:10103000523E7A5F3A5E52482A4A7F5A5A485D7F4A
:101040005D423F427E1A7F422E7F2E42413F553500
:101050005D77110809497D0B09087F0507000745E1
:101060007F7500445B295D4749371D017F49653A1B
:101070002F3A403F557F7F01755575017F2A757F57
:101080006A5D6A5D2A754E3E3B3E4E4E181F7A10D1
:101090000F5A023E555D575C60047E235E7D2F50E3
:1010A0007E137E405B295B177F286A2F7A28642B8A
:1010B0007F2A6E007F4C3F205C646F4A127A474A59
:1010C0007E4A4252521F1A1F5252047E097E445FCA
:1010D0006C405F3515755F60137A527B4E3A5B1436
:1010E0007B062C4B7E0A42422E132E42426A6B36FE
:1010F0007E5B3E56063A52534A4A664C3F5C3E1768
:101100007E5C445C372C7E427E505F357F355F507D
:1011100040201807182040425A1A425F22536A6B37
:1011200014137E1210011D151D417F01201F504216
:10113000243F407F557F145D7F554C463D2E7D47B3
:101140006C027A5B5E5A7B026A63286A2F7A2835C2
:101150007F445E7E5D4452522D5D7F2C50493F0995
:101160007F094A256A6B147D577D1002626B6B6B99
:101170006202265A16531E5276202A287F282A20D9
:10118000207E15405B295B527F7A5F7A5F7A49380F
:101190005A427F425B4453527F5252425B3E5B7FD6
:1011A00055355F082A2E7B2E2A080A7D485A2D586D
:1011B0004C4A773F3A377F4A446358235D175D4472
:1011C00044241F244444007E4A5B5A527E243F2517
:1011D0007D55275C2A75280A554B08423E4B7A02FA
:1011E0002952143E773E5F295B2A75287E4A3E4984
:1011F0007F6D6D455F657F56522E5F762256423E6B
:101200004B7A5C235E4938427B567B421113157F33
:10121000151311407F551D355750403E7A563B5EA1
:10122000724C3F7F2B7C2B7F5F155F055B195F4006
:101230003F141417740424157F157E427E221A7FF2
:101240000A7F557F047E115F48225F5A553E7B3EE0
:101250005A55792F6F794E7B6E4970343B367A46FA
:1012600075403F214D7F2D7F251B7F55355F5A5F90
:101270003A5F7F7E4B403E5A265B5E766A6B004A41
:10128000562B52525A3E7B365A520A7D4433447B87
:10129000544C4B2A1F2A4A486A6B44557E54442AB0
:1012A0002E6A7F2A3E12223E125D17155D281A7E95
:1012B0005E5D7D0879413F295C235E403E127E2BB6
:1012C0004A7E7F251B7E09427F403F577B3F4B7FF5
:1012D000553B40557F5752545B36643B5E52721209
:1012E0007E5B7E12722A75215F51275C282A1A3F85
:1012F0002E2A696A6B5474573C453D2537445F225A
:101300005E223A2F7A2F3A22047E0114137F1204B0
:101310007E011D155D7F0A7D286A2F7A2854523F71
:101320007A3F5A500C777F5E6F6E5F553F097F0999
:101330003B540A4A3E09087F0824157F150E407F5A
:10134000357E437E635E4275403E6A6A3F52484640
:10135000503F201204007E222222227E407C2F2D2C
:101360002F7C406A63087A2F7A0824134E221E428B
:101370007E7C5C6F5A443F5524144C7F08142255E0
:101380003B775136505F2A7548395A755B424E2A71
:101390007F2A4E42427E3535377C4075000C6B6F9C
:1013A0006A084037457D55574075007D6F656F7DF4
:1013B00000000000002F000300033F123F163F1AF9
:1013C000120824323D2A020100003E41413E000A3B
:1013D000070A083E084020000808080020001008FE
:1013E000041C2A1C243E20322A24222A1418143ECB
:1013F0002E2A121C2A12023A06142A14242A1C002D
:101400002400402400081422141414221408022971
:101410000612291E3E093E3F251A1E21213F211E8C
:101420003F25213F05011E21393F083F213F211063
:10143000201F3F043B3F20203F063F3F013E1E212F
:101440001E3F09061E215E3F0936222519013F0174
:101450003F203F3F100F3F183F330C33033C033115
:101460002D23007F41153E15417F000201024040BF
:101470004000010218243C3F241818242418243F5B
:10148000182C2C043F0548543C3F0438003D0040D4
:101490003D003F0834013F003C1C383C0438182410
:1014A000187C241818247C3C0804283C14043E248E
:1014B0003C203C3C100C3C303C2418244C503C2438
:1014C000342C083641007F00413608010101102804
:1014D000101F010120203E10200000080000FF0A1C
:1014E000142850FF000000FF42242442003C42899F
:1014F0008D81A1423C000C10113C52423C00180866
:101500007D484878001028285444FF0202007008E3
:101510000E3040300E0022223E02023E0000201E0D
:101520001014100000FF90909090908000FF919216
:101530009498908000FF919191F191919FFF9191EA
:10154000919191919FFF818181818181FFFF111193
:1015500011818181FFC2340C02818EB0C0C2B48C73
:1015600082818EB0C040414244485060404D4D4C55
:101570004C4D4C4B57505F80BF8042F8FFF2F5F264
:10158000F5F5FBF6F2FD83315C639CFFFFF8FAFA98
:10159000FA063296F41EEC01D7CF1F1FFFBF3FBFE4
:1015A0009F2074C037C73EC8DC027FFFFFFFF842B0
:1015B00080BF805F50574B4C4D4C4C4D4DFFFF9CB6
:1015C000635C3183FDF2F6FBF5F5F2F5F2FF1F1FC8
:1015D000CFD701EC1EF4963206FAFAFAF8FFFF7F35
:1015E00002DCC83EC337C074209FBF3FBFFDFCF77D
:1015F000F7FFFEFCFDFCFEFF03F8FFFF007F7F7F8F
:101600007F7F7F7F7F7F7F7F704F3F1F008E3EFEFB
:10161000FEFEFEFE3EC6FAFAFAF60EFE002FDE3899
:10162000FB7B1B0D2EDF1FFFFF07F8FF0000FEE016
:10163000CE9EBFBFBEB9336F6F00FFFEFC007F7F41
:101640007F7F7F7F7F7F7F7F007E7F7F7F00FEC2E7
:10165000F6FEE2DEE6DEE2FEFE3E8EF6F600BF3F7E
:10166000FF33EFDF03DFE7FFFF00FF1F0F7F7F7F09
:10167000FF01FE0A6A0A5ABE519B03FF7FFDFDFD72
:10168000FDFDFCFCFCFCFCFCFCFCFDFDFD7F7F6724
:101690005B3BEDBDD5DB671FFF7F7F7F7FFDFDFDE2
:1016A000FDFDFCFDFCFCFDFDFDFDFDFDFDBFDFEFD7
:1016B000FEFF7B996FE7DBBB75FF00FFFFFDFDFDC4
:1016C000FDFDFDFDFDFDFDF9E5CCDCD0C1DBBB7B07
:1016D000FBFBEB9B6B7BBBDBEBF303070FFFFF1FFE
:1016E000EFFBF3FFFFFEFDFDFAFF00FAF8FFFFFF3F
:1016F00000FF75BBDBE76F997BFEEFDFBFFFFFFFEE
:10170000F8F0EDDDD9D1C1C5FDFDFDFDFDFFFFFF09
:1017100003F3EBDBBB7B6B9BEBFB7BBBDBFFFFFFDD
:1017200000FFFAFDFDFEFFF3FBEF1FFFFFFFFFFFD2
:10173000FF43BD5A66665ABD837FFFFFFFFFFFFF71
:10174000FFFCFFFFF8FFFFFFFFFCFFFFFF9B2B4BA2
:10175000BBFBFBFBFBFBFB03FFFFFFFFFFD6D9DF60
:10176000DFDFDFDF1F5F1FC0FFFFFFFFFFFFFFFFA8
:10177000FFFF03FBFBFBFBFB8B6B2B9B7BFFFFFF4D
:10178000FFFFC01F5F1FDFDFDFDFD9D6D503FD35C9
:1017900035B5B5B535FDB5BD75FD03EF1F807F408F
:1017A000505C445C407F6B6B4F5B5A7F80FF7F3F98
:1017B0005F6F777B75757B776F5F3F7FFF807B47C0
:1017C000174378126D6D12744F27536F8000E11E1E
:1017D000FFEFD7EFFFFFEFFF000000FFFFF0EBE2AE
:1017E000F8F8F8F8F8F8F8F8F8F8F4EBE701FD0184
:1017F000B9B9B9B9B9B9B9B901FD01F5F300FF0239
:10180000FAFAB6D6F6F6FAF2060F00FFFFFF7F3FB0
:101810005F6F777B75757B776F5F3F7FFF807F5B47
:101820005B5B5B5B7B7B7B7B7F7F7F7F807F9BE5E5
:10183000C9D5ADB9BDBDBDBDDDDDE58B7FF8C50B3F
:10184000172F1F3F1F3F7F7F7F7F3FC7F800FEFEA0
:10185000E6D2CACACAC2C2C2E2E6FEFE00007F47A2
:10186000132D0505590D21250D1B477F0000FEFE98
:10187000E6D2CACACAC2C2C2E2E6FEFE00007F4782
:101880003B25014D1D15354D1D2B477F00EBABABA7
:101890006BEBEBEBEBEBEBEBEB6BABABEBFFBFB368
:1018A000B7BEBDDBE7E7DBBDBEB7B3BFFF00AADD58
:1018B000DDAA775577EEAAEE55BBBB550000AADD31
:1018C000DDAA775577EEAAEE55BBBB550007FBFDA9
:1018D0006EFE6EFE00FE6EFE6EFDFB07FF003F7F9C
:1018E0005B7F5B7F007F5B7F5B7F3F00FFFFFFFFD6
:1018F000FFFFFF00EEEEEEEEE1FFFFFFFF07EBED77
:10190000EEE0EE0EEEEEEEE0EE0EEDEB070F707E8B
:101910007077007E7077707E0077707E70007777CA
:10192000777077077777777077770777777F7F7F1D
:101930007F7F7F7F7F7F7F7F7F7F7F7F7FFDFDFD3D
:10194000FDFDFDFDFDFDFDFDFDFDFDFDFDFAFAFAD0
:10195000FAFAFA00FEFE00FFFFFFFFFFFFFFFFFFA6
:10196000FFFFFF00FFFF00FFFFFFFFFFFFFFFFFF85
:10197000FFFFFF00FEFE00FAFAFAFAFAFAFFFFFF95
:10198000FFFFFF00FFFF00FFFFFFFFFFFF7F7F7FE5
:101990007F7F7F7F7F7F7F7F7F7F7F7F7FFDFDFDDD
:1019A000FDFDFD01FDFD01FDFDFDFDFDFDFAFAFA68
:1019B000FAFA3ADAEAE2EADA3AFAFAFAFAFFFFFF70
:1019C000FFF9F4F6F4F4F6F6F4F9FFFFFFFF00FF79
:1019D000FB1D0DC7E7E7F7ED1DFBFF00FFFF00FF55
:1019E00095B6ECF8F9F9F9ECB695FF00FFFF1FEF9B
:1019F000D7F7F7B7D7B7B7F7F7D7EF1FFFFF007FD6
:101A0000DEECDAFFECE9FADFEAFD7F00FF59C6D62B
:101A10001431C3EBE92CAD4C65630BD81BB00E66DB
:101A200071228C3E3C4C31EB07B3B88D3000000086
:101A30008FCFCF4F6F2F77173BCBDDDD0102F7F153
:101A4000F100FDFC00FFFFFF00DF0FEF00FFFFFFD5
:101A50001F5F0F6F07D7C3DB01F5707600017D7D37
:101A6000002F0737006B616D607A787B0007F31BEE
:101A70005BF39B739BF3DB13FBD31BD307F0E7EC08
:101A8000E5EFE4EFE4EFE5ECE5EFECE7F03FDFEF67
:101A9000EFDF332D1E1E2D33DFEFEFDF3FFFFEFDA7
:101AA000FDFEFF0FE0E00FFFFEFDFDFEFF38FBBB7C
:101AB0005BDB4B5B5BBBFBBBBBBBBBBBBB38BBBB29
:101AC000BCB9A2A9BCBBBBBBBBBBBBBBBBFE7DBD8A
:101AD000DBC7BF7FFFFE7DBDDBC7BF7FFFFE7DBDD8
:101AE000DBC7BF7FFEFE7DBDDBC7BF7FFEFFFFFF05
:101AF000FFFFFF00FFFF00FFFFFFFFFFFFFFFFFFF4
:101B0000FFFFFF00FFFF00FFFFFFFFFFFFFF07FBDF
:101B1000FDFDFDFD01FDFDFDFDFDFB07FFFFE0DE21
:101B2000BEBEBEBE80BEBEBEBEBEDEE0FF83BBBBD1
:101B3000BBBBBBBB38BBBBBBBBBBBBBBBB83BBBBB0
:101B4000BBBBBBBB38BBBBBBBBBBBBBBBBFF01FE9B
:101B5000FEE6CAC2CAC2CAC2E67EFE01FFFF807F9D
:101B60007F7F7F7F7F7F7F7F7F7E7F80FFFF12254C
:101B700012FF122512FF122512FF122512FFE10299
:101B8000E1FFE102E1FFE102E1FFE102E1FFFFFF2E
:101B90005F3F5FAB891389AB7FBFBF7FBFFFFFFF95
:101BA000FFFEFDEAD081D0EAFBFBFCFFFF77B3CD5F
:101BB000EE773BDDEC73BADDCE373BDCEE75BBDD9B
:101BC000CE37BBDCEE77B3CDEE773BDCEEDF4E9F5E
:101BD0006F6F6FAFCF6FEFDFBB7FFFBFFFFF601E89
:101BE000BF3B9CB1AFBFBBB3BDDEA997FFFFFEFFFC
:101BF000EFE7FFFFFFFFFFFFFBFFBFFFFFFF7F7F61
:101C0000FBF7FBFFFFFFFFB7F7FFFBFFFFC44366D8
:101C1000D41C040C1453705C870C0888FC3B84486B
:101C20004849494DA7140C74C4C7C5C8B8E3262455
:101C3000749C848C9350705C870C0888FCB54A4473
:101C400044444446A31C3444C2C5C9B8845588558D
:101C50002255885522AAFFAAFFAAFFAAFFAAFFAA17
:101C6000FFAAFFAAFF558855225588552202020374
:101C70000301010000030303030202020203030243
:101C80000200000001030302020000010100000144
:101C90000101010000010001010000030303030230
:101CA000020303020203030202000001010100001B
:101CB0000002000301000100010200020000000018
:101CC0000000000101020002010001000102010008
:101CD00001000100010301030302020001000100F1
:101CE00001000100010001000100000101030302E5
:101CF00002000001010301000100010303020201CF
:101D000001000000000101030003000001000103C5
:101D1000030202030302020303030303030202019B
:101D20000100000303020201010000FF00FF0100A7
:101D300001FF00FF01FF01FF01FF01FF00FF01FFA5
:101D400001FF00FF00FF01FF00FF03FF0000000193
:101D50000103FF03FF00000201FF0009080008095A
:101D600000080C000C08000C0D000C0D000D0C0000
:101D70000D0C000D0E000E0D000E01020E0E000ED9
:101D80000F000F0E000F0B000B0F000B0700070BCF
:101D900000070B000B0700070002070B000B0001F8
:101DA000060700060700070600090A000A09000ADC
:101DB0000B000B0A000A0600060A000B01010F01C6
:101DC000020C01020F02010F03010F04010C0601B6
:101DD0000C0701080801080901081000100800108C
:101DE0000102101000100A01100B01100C01100D5F
:101DF00001100E01100F0110100110110011100040
:101E00001111011112011113011114011115011108
:101E10001601111701080400040800040500050458
:101E20000004000000040004180104190104190151
:101E30000506000605000509000905000512001247
:101E40000500120002120102001A01001B0100012C
:101E50000001000000010001000001130013010057
:101E60000102000201000206000602000203000354
:101E70000200030700070300030102071B01031C04
:101E800001071D0113F500F5F600F6F700F7F8005D
:101E9000F8F900F9FA00FAFB00FBFC00FCFD00FD7C
:101EA000FE00FEFF00FF14000B01020614001406E2
:101EB00000121E01121F010A0B000B0B000B09027E
:101EC00014141414141414141414141414141414D2
:101ED000141414141414141408080504011414140C
:101EE0001414141414050505080808010404011449
:101EF0001414141414020208080808141414040119
:101F00001414141405050208040808081414141401
:101F100014141414050801010404080514141414FD
:101F2000141414050801150104011414050606060D
:101F300014141408080116060606060606011414F1
:101F40001414140801010606010F011414141414CA
:101F50001414140804040601010C010114141414CF
:101F600014141408040506040114010101141414C6
:101F70001414080804010604010101010D011426CE
:101F800014080808010606010B010A210A210D01A7
:101F900014080808040601010D210D090A010A01AF
:101FA00014080801040606060606060601210101BA
:101FB00014080104040601010101010101010101EC
:101FC00014141414141414141414141414141414D1
:101FD00014041414141414141414141414141414D1
:101FE00014010101141414141414141414141414EA
:101FF000040106060613141414141405050514141C
:102000001414141414141401010501050505040128
:102010001404010404040101040101010404040185
:102020000606060505060605050606020606060658
:1020300014141405141414141414020202070707CC
:1020400014141402020202020214020214141414E0
:1020500014141402020202020214141414140202D0
:1020600014140014140202021402020202020202F8
:1020700014140202021414141402020202020202D4
:1020800037393739373937393739373937393739D0
:10209000383A383A383A383A383A383A383A383AB0
:1020A00037393739373937393739373937393739B0
:1020B000383A383A383A383A383A383A383A383A90
:1020C00014141414141414141414141414141414D0
:1020D00014141414141414141414141414141414C0
:1020E00014141414141414140707141414141414CA
:1020F0001414141414020202020701141405051426
:102100000514141402020501070107010101051459
:10211000050505010101010101010101050101148C
:10212000060606060606060606060606060606064F
:102130001E1E1E1E061E1E1E1E060808080814145B
:102140001D1D1D1D061D1D1D1D0608070408141458
:102150000A0B0B0A060A0B0B0A06080407010814EF
:102160000A0A0A0A060A0A0A0A06080801070814DF
:102170000A0E090E060A0E090E06060608040808CD
:102180000101060406040406040404060608010806
:1021900001010606060606060606010406080808EA
:1021A00007040701070107010701070106080101EC
:1021B00001070107010701070107010706010101E6
:1021C0001414141414141414141414141402020205
:1021D000141414141414141414141401020202021A
:1021E000141414141414141414140101010202021E
:1021F000081414140808141401011501070102023F
:102200000808080808080801010116010101020276
:102210000804040404010101010101010101141475
:10222000060606060606060601010101011414143D
:102230000808080808010406060404010101141432
:10224000080808080504080806040501010101142E
:102250000808080408080808060604010101141407
:102260000808080408080808080605050101011403
:1022700008150408080808080806010404010114E8
:10228000141B04041B1B1B1B140606040101011470
:102290000704071A070407040C08060401010114C7
:1022A00004040404040404070C08060101011414C6
:1022B000070407040704070414080601141414147F
:1022C000140808040406240D040701070121212134
:1022D000140101080406240407040D04070A0A0A6D
:1022E0001420020104060F2121212121010A0A0ADA
:1022F0000220020214060C0A0A0A0A0A070A090A3C
:10230000022002020C06140A0A0A0B0A0101060145
:10231000022002020C06040A090A0A0A0106060142
:10232000022002020C06040706080808070604013A
:10233000022002010C060606060F080807040F011A
:102340000220020114010606010C010807040C0119
:102350000220020101010406011401060606060618
:10236000022002020104050606060606010101011B
:1023700002010101040808050806011D1B1B1B1DA5
:102380000101040404080808050601191C1C1C0CA2
:1023900008080505050805080806012E1C1C1C0C6C
:1023A0000808080808080808050601191C1C1C0C68
:1023B00008080808080808080506011D1B1B1B1D46
:1023C00014141414141414141414141414141414CD
:1023D0001421212114141414141414242424141466
:1023E000140A0A0A1414141414010101010101143D
:1023F000140A090A14141414141D1E1D1E1D0101B3
:10240000142D040414141414140A0A0A0A0A0101EB
:102410001404040621211414140A0A0B0A0A0101E7
:10242000212121060A0A1414140A0A0A0A0A0101BF
:102430000A0A0A060A0A070C0721212121210101A3
:102440000A090A060A0A070C010A0A0A0A0A01010D
:10245000060606060A0A070C010A0B0A0A0A010107
:102460000104040606060714010A0A090A0A010102
:1024700001212121210606060107010607010606A2
:10248000040A0A0A0A2406060606010601070608C7
:10249000040A0A0B0A2406070106060607010608B5
:1024A000040A090A0A06062D2B2C2D060606060824
:1024B00001040606060107010701070107060808CF
:1024C00008080404040404040404040406080808B6
:1024D000040404011E011E011E010404060608086E
:1024E000040101011D1D1D1D1D010101010608083A
:1024F000041E011E0A0A0A0A0A1E011E010401081E
:10250000041D1D1D1D1D1D1D1D1D1D1D040404017B
:10251000040A0A0A0A0A0A0A0A0A0A0A040F040F23
:10252000040A0E0B0E0A0A0A0E0B0E0A040C040C07
:10253000040A0A0A0A0F1F0F0A0A0A0A04060606F4
:1025400004040404070C200C070404040406060613
:1025500004040F04040720070404040F04060608FB
:1025600004040C04070420040704040C04060608F1
:1025700006060606060606060606060606060608F9
:1025800008080806060F06060F06060F06060F08BF
:1025900008050406080C01010C01010C01010C08DE
:1025A00008080406080108080101010101010808E2
:1025B000080808060808080808080808080808089D
:1025C0000407040704070407040706050808141491
:1025D000070407040704070406060608080508148C
:1025E0000407040704060606061508050101011480
:1025F0000704070407060101010101050101141484
:10260000040704071506010F0102020202021C1C46
:102610000F040F060606010C020202020202021C4F
:102620000C070C0608011402020202021C021C0222
:1026300006060606060F0C02020202151C1C1502F5
:102640000F060F06060C0C020202021C181C1614C0
:102650000C080C06061414020201040C1C010C1CCC
:102660000808060606010C0202040415041C1C14CA
:10267000080F0606060F0C02020201161C1816149B
:10268000080C0606060C1402020201010104181CC3
:102690000808060606010C020202021C01041514B9
:1026A00008080F0606010C020202020202041614B8
:1026B00008080C06060114020202020202061614A1
:1026C0000808080808080808080608080808040494
:1026D000080404040408080808060808080808088C
:1026E0000408080808080804080608080804080878
:1026F0000401010101040404080608080404080890
:10270000010A0D0D0D0D0D0A080608080608080837
:10271000010A0D0D0D0D0D0A080608080608080827
:10272000040C0A0A0A0A0A0C080608080408080821
:10273000040C0A0B0A0B0A0C040608080608080811
:10274000040C0A0A090A0A0C0406080D0404080805
:10275000040404070607040405060808040408081E
:102760000804010406060606060608080608080806
:102770000808080101010101080608080608080800
:1027800008080808080801040806080806060606DE
:1027900008080804040404080106060606080808D8
:1027A00008080404080404080106080808080408C6
:1027B00008080808080808080106080404040408B2
:1027C00008080408080808080808080101060401A8
:1027D000080408040808080804040808010601049D
:1027E0000808010101010101010104040806042196
:1027F00008080A0A0A0A0A0A0A0A040F0106040A51
:1028000008040A0D0D0D0D0D0D0A040C0106040A35
:1028100008080A0D0D0D0D0D0D0A05040106040A28
:1028200008040A0A0A0A0A0A0A0A0905010604042F
:1028300008080C0A0B0A0A0B0A0C06050106060614
:1028400008080C0A0A0A0A0A0A0C05010106050F03
:1028500008080C0A0A090E0A0A0C05010606010CF2
:1028600008040C0A0A06040F01010606060101010C
:1028700008040C0A0A06040C010606010102020201
:102880000606060606060606060601020202020201
:10289000010504040104040401010202020202020F
:1028A0000101040101040704020202020202010103
:1028B00001020202020202020202020201040401F7
:1028C000080808060808080808040A0A0A0A0A0A82
:1028D000080804062121212107080A0B0E0A0B0E05
:1028E00021210F060A0A0A0A010F0A0A0A09090A1F
:1028F0000B0A0C060A0B0B0A171A06060606060632
:102900000A0E04060A0A0A0A240C062424040707ED
:10291000090A04060A090A0A010C0606240105052B
:1029200006060606060621212121210624010205AC
:102930002121212121060A0A0A0A0A0606010205A6
:102940000A17170B0A040A0B0A0A0A0601240214C2
:102950000A11110A0A040A0A0A090A060F070202E2
:102960000606060606040406060601010C0202021B
:102970000701010701010202020202200202020213
:102980000202020202020202050502200205020200
:1029900002020505050505020202022002020202EA
:1029A00005050101011502050505052005080808B2
:1029B00008080808080404040104010607050808BB
:1029C00008010101060101020202020202061614B8
:1029D0000106060606080402020202020104161499
:1029E0000806140808040202020201040401021489
:1029F00007060508020202020201181B180205144C
:102A00000806140702020202020205141414141428
:102A10000106010702020202020714130615071439
:102A200008060F0802020202020505060606071440
:102A300006060C0502020202140714050504071419
:102A400008041401050202021405141414050514E7
:102A500002010104010202021414140D14141414CE
:102A600002020207020202020514140D0D140505EC
:102A7000020502020205020202051917171A1405BF
:102A8000020202010205050202150C04010C1405E4
:102A900002011501010202020501010104051414DD
:102AA00004080404010202040801040101040514DD
:102AB00004040808040804080806010404050514B1
:102AC00004040408080808080106010808010202B5
:102AD00004070404040808010106010801020202B7
:102AE000080404080808060606060101020202029C
:102AF0000808080804010604040401020202020294
:102B00000808040501010601040102020202070788
:102B10000808040404010601010202020207010878
:102B20000804080101070601020202020101080867
:102B3000080801070101040202020202010108085B
:102B4000010101010101100202020202010808084C
:102B50000202020202021002020502020108050836
:102B60000202020202021002050402020108080821
:102B7000020202020201060704040202010808061A
:102B800002020202010106060110101010060606DC
:102B900008080202010106010402020201010808FC
:102BA00008080504010606040804020201070808D3
:102BB00008080804040101080804020201010108D0
:102BC00002020202020202020202020407010107DB
:102BD00002020202010404010101040401080801C7
:102BE0000204010101010808080808080808080192
:102BF000010101010601080808080808080808087A
:102C0000070104040608080807010808080808085E
:102C10000101040106060606060606060606060665
:102C2000010407010608040804010101070801075F
:102C30000104070406080802020202040108080150
:102C4000010404050608020204040202010808083F
:102C50000101040406080202050402020201080838
:102C60000106060606080802020207020201080819
:102C70000606010806080804040202020201080808
:102C800006050101060808080808020207010808ED
:102C900001080408060606060608040108080808D4
:102CA00008080408080808080808010708080801B7
:102CB00008080808080808080808080808080101A2
:102CC0000808080D0D0D0D0D0D0D0D08080808085C
:102CD00008080D0D0A170A0A170A0D0D080808083A
:102CE00008080D0A0202101002020A0D080808085E
:102CF00008080D0A0702101002070A0D0808080844
:102D00000808010101010101010106060606060687
:102D100006060606010F010606060604080808084E
:102D200007010706010C01060A07060A04080F0836
:102D300008070506060606060D0A060508010C0129
:102D40000808010108080808080D06060601140114
:102D5000080101080108080808010108080101012B
:102D600008010808010808080801080808080608FA
:102D700008040804040401010101141408060608EB
:102D800008040104080808080108140807060814C4
:102D900008040408040407150108010106081414B6
:102DA000080808040414010104040106061414149C
:102DB0000808080814141414141414141414141403
:102DC0000704080D0D080804080608080808081478
:102DD000040408080D04040408060808080814146C
:102DE0000819170808040408060F08080804141432
:102DF000080C080806060606060C01080808141444
:102E0000060606060601010108140108040414144C
:102E1000080101010108080101010104041414144E
:102E2000010108080804080801171A040214141400
:102E3000010808080808080808080C08020202141B
:102E4000010D0804080804040808080802081414FE
:102E500001080808040804080815080204150414E9
:102E600001080808080808080816040804160414CD
:102E700001010101080101010801181818010114DC
:102E80001414040D080D080101040C0D0C010414A8
:102E90001414140404080808041519171A15041446
:102EA000141414140D0414020116140F141614141F
:102EB000141414141414020204040104011414144C
:102EC0000000000000000000000000000000000002
:102ED00000000000000000000000000000000000F2
:102EE00000000A0A0A0A0A0A0A0A0A0A0A0A0A0060
:102EF00000000A0A290A2E29141414142E2E0A007E
:102F000000000A272B0A2E2E1422221424240A0041
:102F100000000B28010A01010101010101240A003E
:102F200000000A01010A012F3333333331010A0053
:102F300000000A01010A01303534343632010A003A
:102F400000000A2D010101012D2D012D01010A00B2
:102F500000000A0A0A0A01010101010101010A0037
:102F600000000A01010101010101010A0A0A0A0027
:102F700000000A012421212121212101120A0A0035
:102F800000000A012A0A29290A260A01010A0A0060
:102F900000000A01070A0A0A0A0A0A07010A0A00C7
:102FA00000000A010101010101010101010A0A00F9
:102FB00000000A0A0A0B0A0A110A0A0B0A0A0A0086
:102FC0000000000000000000000000000000000001
:102FD00000000000000000000000000000000000F1
:102FE00000000A0A0A0A0A0A0A0A0A0A0A0A0A005F
:102FF00000000A2E2E2E2E2E2E2E2E2E2E2E0A00C3
:1030000000000A2E2E2E2E37392E2E2E2E2E0A009E
:1030100000000A34343424383A24343434340A0076
:1030200000000A07070701010101070707070A0057
:1030300000000A0101012F333333310101010A007D
:1030400000000A01012D30343534322D01010A000F
:1030500000000A01010101012D01010101010A0025
:1030600000000A01010101010101010A0A0A0A0026
:1030700000000A012121212121212113010A0A0036
:1030800000000A012629262929262624010A0A00E9
:1030900000000A010A0A0A0A0A0A0A01010A0A00C9
:1030A00000000A010101010101010101010A0A00F8
:1030B00000000A0A0A0A0A0A0A0A0A0A0A0A0A008E
:1030C000001400000014001400140000001400009C
:1030D0000014000000141414001400140014000064
:1030E0000014000000140014001400140014000068
:1030F0000014141400140014000014001400000044
:1031000000000000000000000000000000000000BF
:103110000000000000001414141414141400000023
:1031200000000000001414141414141414140000EB
:10313000000000141414141414241414141414008F
:10314000000014141414142424241414141414004B
:103150000000141414142401010124141414140084
:10316000000014141414240124241414141414003E
:103170000000141414142401010124141414140064
:1031800000001414140A240124240A141414140032
:1031900000001414140A240101010A141414140068
:1031A00000001414140A240124240A141414140012
:1031B00000001414140A0A110A0A0A141414140040
:1031C00014141414141414141414141414141414BF
:1031D00014141414141414011408081214141414DC
:1031E0001408121414141401010808080814141403
:1031F00014080814141414011414011408141414D9
:1032000014140801141414041414011401011414E6
:103210001414010414141C041C01011401020114EF
:103220001414011414040401141C011401021414D4
:103230001414011404041C01141C041404021414B6
:103240001414041414141C011401011404021414A1
:103250001414040414141C040101141404020214B0
:103260001414140414141404141414140102021475
:103270001414140114141404141408010102021487
:10328000141401010107140114141401020214148E
:1032900014140C040C0401040101010102021414B1
:1032A000140C010401141414010102020214141478
:1032B00014141414141414141414141414141414CE
:1032C0000A0A0A0A0A0A0A0A0A0A0A0A0A0A0A0A5E
:1032D0000A0A0A0A0A0A0A0B0B0A0A0A0A0A0A0A4C
:1032E0000A0A0B0A0A0A0A0B0B0A0A0A0A0B0A0A3A
:1032F0000A0E0A0E0A0E0A0A0A0A0E0A0E0A0E0A16
:10330000333333333333333B3D333333333333337B
:103310000A0A06010601063C3E06010601060A0AE3
:103320000A0A0601060106060606010601060A0A41
:103330000A0A0601060101010101010601060A0A45
:103340000A0A0601060606060606060601060A0A17
:103350000A0A0601010101010101010101060A0A2F
:103360000101060606060606060606060606010111
:10337000010101010101010101010101010101013D
:10338000010101010101010101010101010101012D
:103390001D1D1D1D1D1D1D0101011D1D1D1D1D1DB1
:1033A0000A0A0A0A0A0A0A0101010A0A0A0A0A0A98
:1033B0000A0A0A0A0A0A0A0120010A0A0A0A0A0A69
:1033C0006D2A11241FBECFEFD8E0DEBFCDBF12E0C3
:1033D000A0E0B1E0E8EAF1E602C005900D92A83B5A
:1033E000B107D9F727E0A8EBB2E001C01D92A230E7
:1033F000B207E1F719E1C1EED9E104C02197FE015E
:103400000E94C02EC03ED107C9F70E94CE2A0C945C
:10341000D2300C9400000895089580E090E0089563
:103420000E944C2380E48093BB0084E88093BC001E
:10343000ECEEF2E09091BC0097FFFCCF919190935D
:10344000BB008093BC0096E0EC3EF90799F78091B1
:10345000BC0087FFFCCF0C9444232F923F924F92E5
:103460005F926F927F928F929F92AF92BF92CF9214
:10347000DF92EF92FF920F931F93CF93DF93CDB71D
:10348000DEB72D970FB6F894DEBF0FBECDBFED822D
:10349000E22EF12C9C012E0D3F1D37FD32C18038EC
:1034A00091050CF02EC19B01200F311D37FD29C164
:1034B000603471050CF025C1DB0177FF04C0AA2739
:1034C000BB27A61BB70BA770BB279B0177FF02C0CA
:1034D000295F3F4F13E0359527951A95E1F777FF60
:1034E00008C02150310968E070E0FB01EA1BFB0BCA
:1034F000DF01E02FE695E695E695CE2ED12C0770FC
:1035000019F0FFEFCF1ADF0AB9017695762F6627FB
:1035100077956795680F791F64517D4F8601020F7B
:10352000131F19870887C12CD12CF8E0AF2EB12CBE
:1035300085010A1B1B0B1F830E8308851985201725
:10354000310709F4DEC02830310509F4DAC02F3F15
:103550001FEF31070CF4CAC08B0100581F4F1D87A5
:103560000C874B013B012B011C011C830B831A832D
:1035700009831B861A860A851B850E151F050CF00C
:10358000B5C010E82116310409F4B0C037FC89C079
:103590002F3FEFEF3E0709F4B0C00A851B850C0DE5
:1035A0001D1DFD81F13079F4F801E40FF51FE49160
:1035B000F0E08F010A2E01C0000F0A94EAF7F30130
:1035C000B0800B2925C0FD81F11114C0F801E40F72
:1035D000F51FE491F0E00A2E02C0EE0FFF1F0A94DF
:1035E000E2F78F0100951095F401A080B12C0A211B
:1035F0001B210EC0F801E40FF51FE491F0E08F01EC
:103600000A2E01C0000F0A94EAF7F201B0800B25E0
:103610000083109709F445C02730310509F441C0F3
:103620000A851B850C0D1D1DFD81F13089F4F80103
:10363000E40FF51FE4910E2F10E00E8002C01595E7
:1036400007950A94E2F7EC85FD85B0800B2928C028
:10365000FD81F11115C0F801E40FF51FE4910E2F63
:1036600010E00E8002C0159507950A94E2F70095C8
:103670001095E981FA81A080B12C0A211B2110C08C
:10368000F801E40FF51FE4910E2F10E00E8002C048
:10369000159507950A94E2F7EB81FC81B0800B2524
:1036A00000830A851B850F5F1F4F1B870A870C85C8
:1036B0001D850F5F1F4F1D870C8709811A810F5FC2
:1036C0001F4F1A8309830B811C810F5F1F4F1C83BF
:1036D0000B831FEF211A310AEFEF4E1A5E0AFFEF3C
:1036E0006F1A7F0A0FEF801A900A45CF2F5F3F4F66
:1036F00060587F4FCE0CDF1C20CF109709F090CF81
:10370000D0CF2D960FB6F894DEBF0FBECDBFDF91A0
:10371000CF911F910F91FF90EF90DF90CF90BF90CE
:10372000AF909F908F907F906F905F904F903F9061
:103730002F90089560387105D0F440345105B8F4E5
:10374000EAE1F1E080E1849FD001A0781124A60F86
:103750004770E40FF11D8491A451BD4F222319F04D
:103760006C91862B03C080956C9186238C93089571
:103770000F931F93CF93DF931F92CDB7DEB78C01CA
:1037800069830E94E82D6981681741F0C8010F9094
:10379000DF91CF911F910F910C94F02D0F90DF913D
:1037A000CF911F910F9108950F931F93CF93DF93A4
:1037B0001F92CDB7DEB7082F10E0C80179830E94B1
:1037C000B81B7981672FC80101960F90DF91CF91C7
:1037D0001F910F910C94B81B0C94E82D1F93CF935D
:1037E000DF93C82FD0E0CE010E94EC1B182FCE0132
:1037F00001960E94EC1BC82F61E070E080E090E031
:103800000E94C221812F9C2FDF91CF911F9108959B
:10381000CF93DF93C0E0D0E0FE01EC5FF44F649102
:10382000CE010E94B81B2196C530D105A9F7609141
:10383000020185E090E00E94B81B60910301709145
:10384000040186E00E94D41B60910501709106017D
:1038500088E00E94D41B6091BA028AE090E0DF9178
:10386000CF910C94B81BCF93DF93CDB7DEB765979C
:103870000FB6F894DEBF0FBECDBF0E943D2A89ED82
:1038800092E00E94101A68EE73E080E090E00E94DF
:10389000C2211092E80211E01093E90289E091E060
:1038A0000E94BD2A1093E8021092E902E12CF12C4B
:1038B0008E010F5F1F4FF701EC5FF44F9490198A50
:1038C000188A1B8A1A8A1D8A1C8A62E070E0CE015F
:1038D00040960E946521811105C0CE0140960E944C
:1038E0008C210AC082E090E09D8B8C8B61EB72E0B2
:1038F000888999890E94CB30C7010E94EC1B1B86E6
:103900001A861D861C861F861E864AE0B80190E036
:103910000E94BE2DD8010D900020E9F711976D018E
:10392000C01AD10AB601CE010A960E946521811102
:1039300005C0CE010A960E948C2107C0DF86CE8684
:10394000B8018A859B850E94CB302C893D89A88847
:10395000B988CE84DF84A114B10409F4C0C0211554
:103960003105A9F0C20ED31EB601CE010A960E94FF
:103970006521882309F4B3C02A853B858E859F8500
:10398000B501820F931F0E94CB30DF86CE864AE0BE
:10399000B801892D90E00E94B32DF801019000201C
:1039A000E9F73197E01BF10BCE84DF843097C9F043
:1039B000CE0EDF1EB601CE010A960E946521882335
:1039C00061F02A853B858E859F85B801820F931F04
:1039D0000E94CB30DF86CE8604C0CE010A960E94BC
:1039E0008C214E855F856A857B8585ED92E00E94FE
:1039F000C61E84EB92E00E94AB2A8A859B850E94BA
:103A00005B2F888999890E945B2F8FEFE81AF80A4B
:103A1000E5E0EE16F10409F04ECF89ED92E00E9448
:103A2000101A68E873E180E090E00E94C2210E94D1
:103A300094200E943D2A1092E80281E08093E902DE
:103A40008CEF90E00E94BD2A89ED92E00E94101A4E
:103A500000E010E060E0C8010E94B81B0F5F1F4F3C
:103A60000115F4E01F07B1F78FEE90E00E94BD2A28
:103A700089ED92E00E94101A0E94081C62E085E025
:103A800090E00E94B81B6FEB70E086E00E94D41BB0
:103A900060E270E088E00E94D41B6BE08AE090E076
:103AA0000E94B81B61E080E092E00E94B81B61E0D8
:103AB00081E092E00E94B81B88EE90E00E94BD2A4F
:103AC00089ED92E00E94101A6CED75E080E090E0C4
:103AD0000E94C22100E010E0F8010995FDCFCE015F
:103AE0000A960E948C2153CF2F923F924F925F9261
:103AF0006F927F928F929F92AF92BF92CF92DF92FE
:103B0000EF92FF920F931F93CF93DF936C015B01B2
:103B1000122FC42FD0E081E090E04C018C1A9D0A56
:103B2000662477246C1A7D0A660C771C6FEF70E0B0
:103B300080E090E00E949E21202E312C412C512CBF
:103B400062157305840595054CF0212FA5014C0FD6
:103B50005D1FB60189ED92E00E949A1B6FEF70E045
:103B600080E090E00E949E21621573058405950512
:103B70004CF0212FA5014C1B5D0BB60189ED92E0A5
:103B80000E949A1B6FEF70E080E090E00E949E21FF
:103B900062157305840595054CF0212FA501B6012A
:103BA0006C0F7D1F89ED92E00E949A1B6FEF70E011
:103BB00080E090E00E949E216215730584059505C2
:103BC0004CF0212FA501B6016C1B7D0B89ED92E015
:103BD0000E949A1BE12CF12CEC16FD060CF0C3C0E0
:103BE00097FC06C0219782E0680E711C860C971C1A
:103BF0008FEFE81AF80AC701880F991F0196880EFF
:103C0000991E6FEF70E080E090E00E949E216215A7
:103C10007305840595055CF0212FA5014C0F5D1FF0
:103C2000B7016C0D7D1D89ED92E00E949A1B6FEF2C
:103C300070E080E090E00E949E216215730584058B
:103C400095055CF0212FA5014C0F5D1FB6016E1983
:103C50007F0989ED92E00E949A1B6FEF70E080E08F
:103C600090E00E949E2162157305840595055CF025
:103C7000212FA5014C1B5D0BB7016C0D7D1D89ED3E
:103C800092E00E949A1B6FEF70E080E090E00E944B
:103C90009E2162157305840595055CF0212FA50111
:103CA0004C1B5D0BB6016E197F0989ED92E00E94F5
:103CB0009A1B6FEF70E080E090E00E949E216215F9
:103CC0007305840595055CF0212FA7014A0D5B1D46
:103CD000B6016C0F7D1F89ED92E00E949A1B6FEF79
:103CE00070E080E090E00E949E21621573058405DB
:103CF00095055CF0212FA7014A0D5B1DB6016C1BD9
:103D00007D0B89ED92E00E949A1B6FEF70E080E0DE
:103D100090E00E949E2162157305840595055CF074
:103D2000212FA5014E195F09B6016C0F7D1F89ED8A
:103D300092E00E949A1B6FEF70E080E090E00E949A
:103D40009E2162157305840595050CF445CF212F3E
:103D5000A5014E195F09B6016C1B7D0B89ED92E040
:103D60000E949A1B39CFDF91CF911F910F91FF9045
:103D7000EF90DF90CF90BF90AF909F908F907F900B
:103D80006F905F904F903F902F900895CF92DF9269
:103D9000EF92FF920F931F93CF93DF936C017A0101
:103DA0008B01C0E0D0E0CE15DF0589F0D8016D9120
:103DB0008D01D601ED91FC910190F081E02DC601BD
:103DC0000995892B11F47E0102C02196ECCFC70121
:103DD000DF91CF911F910F91FF90EF90DF90CF90E7
:103DE00008953FB7F8948091F1069091F206A09162
:103DF000F306B091F40626B5A89B05C02F3F19F035
:103E00000196A11DB11D3FBFBA2FA92F982F88275A
:103E1000820F911DA11DB11DBC01CD0142E0660FB5
:103E2000771F881F991F4A95D1F708958093BB008B
:103E300084E88093BC008091BC0087FFFCCF08958C
:103E40002F923F924F925F926F927F928F929F92AA
:103E5000AF92BF92CF92DF92EF92FF920F931F9398
:103E6000CF93DF93CDB7DEB729970FB6F894DEBFB7
:103E70000FBECDBFFC016A3069F425898189928922
:103E800038E0239F800D911D1124928B818B108A25
:103E90001786AAC06D3009F4A7C099878887F5886E
:103EA0003488238861887288078510890038110555
:103EB000C4F0A885B98555962C915597422F50E0AE
:103EC0001F968D919C915097B6E02B9F800D911D70
:103ED0001124E885F985908B8787268921116EC08A
:103EE00083C0F0E46F16710424F7C80125E0F29E48
:103EF000800D911D112418161906DCF68F2D90E007
:103F00009C838B83C301A8E0FA9E800D911D112430
:103F10001816190674F6B5E06B9FB0011124FB0169
:103F2000EE54FA4FFA83E98330E088859985049648
:103F30009E838D83E981FA81E490353009F4E12C88
:103F4000430188E0482EE0FC02C0532C01C0522CF3
:103F500051100BC0321009C0E6944A948B819C81A9
:103F6000880E991E4110EFCF1BC068018C2D801B5D
:103F70008F1590F754018A2D88198F1568F4252D17
:103F8000A501B6018D819E813F830E949A1B9FEF00
:103F9000A91AB90A3F81EFCFAFEFCA1ADA0AE6CF02
:103FA0003F5FEB81FC810E0F1F1F89819A81019673
:103FB0009A838983363009F0BDCF7BCF6AEF6403E3
:103FC0009001659F300D112420583F4F2817390765
:103FD0005CF4A885B985ED91FC9111970190F08171
:103FE000E02D6AE0CD01099581E090E029960FB6B9
:103FF000F894DEBF0FBECDBFDF91CF911F910F911F
:10400000FF90EF90DF90CF90BF90AF909F908F90F8
:104010007F906F905F904F903F902F9008950E94F7
:10402000BD309C01215F3F4F2F38310570F5FC01F9
:1040300097FF02C0E0E0F0E040968138910514F06F
:1040400080E890E08E1BAB014770552721E030E0FF
:1040500001C0220F4A95EAF7209577FF02C0695FF9
:104060007F4F93E0759567959A95E1F77695762F52
:10407000662777956795E60FF71FE451FD4F81504E
:1040800020F0908192239193FACF0895DF92EF92DE
:10409000FF920F931F93CF93DF937C01D22E8B015E
:1040A000040F111DEB0177FF0EC0C0E0D0E00BC084
:1040B000C417D5077CF42D2DAE01B70189ED92E030
:1040C0000E949A1B2196A801013411058CF340E44B
:1040D00050E0EECFDF91CF911F910F91FF90EF90C5
:1040E000DF900895CF92DF92EF92FF920F931F938C
:1040F000CF93DF936B01122FEC017C01E40EF11CD6
:10410000CE15DF0544F4202F412FB601CE010E94C9
:1041100046202196F5CFDF91CF911F910F91FF900F
:10412000EF90DF90CF90089580E0ECEEF2E0811107
:104130008FEF002481938193819381930394D1F72E
:10414000E5EDF2E0128A118A108A178608954F92DF
:104150005F926F927F928F929F92AF92BF92CF9217
:10416000DF92EF92FF920F931F93CF93DF931F92F3
:10417000CDB7DEB7582E462EF22E742E6A0137E0E8
:10418000632E8C2D87198F1508F08DC0F6013491A0
:10419000313F09F483C0323F11F412EF80C0A52CE7
:1041A000B12C642D70E06150710901E029E048E014
:1041B000C50139830E9472203981123F49F134369A
:1041C00008F06CC0FDE7AF16B1041CF088E0480EA3
:1041D000512CA42CB12C852C912C432F50E0CA01DA
:1041E000880F991F480F591F4F545C4EE12C08E06F
:1041F00023E0B501C4010E942D1A21E040EB53E1F8
:10420000B501C40103960E942D1AE4E05E0E23C09E
:10421000303F08F044C0F9E7AF16B1041CF088E065
:10422000480E512CA42CB12C852C912C639EA001FE
:104230001124405E524FE12C08E027E0B501C40193
:104240000E942D1A21E040EB53E1B501C40107960D
:104250000E942D1A500E852D90E0893791051CF093
:10426000E8E04E0E512C8091D40290E0840D911D17
:10427000252D30E03093E5022093E4029093E7028D
:104280008093E602E091D502F091D6020190F08190
:10429000E02D6FE185ED92E0099501C011EFFFEF90
:1042A000CF1ADF0A6ECF0F90DF91CF911F910F9140
:1042B000FF90EF90DF90CF90BF90AF909F908F9046
:1042C0007F906F905F904F9008950F931F93CF93BF
:1042D000DF93EC0188819981009729F02A813B8145
:1042E0002617370788F48B016F5F7F4F0E94F32FEB
:1042F000009761F0998388831B830A832C813D8119
:10430000232B11F4FC01108281E001C080E0DF91D9
:10431000CF911F910F910895CF93DF93EC01888186
:104320009981009711F00E945B2F198218821D82DB
:104330001C821B821A82DF91CF910895CF93DF9365
:1043400000D000D0CDB7DEB76115710581059105AC
:1043500079F09B01AC0169833A834B835C830E94B3
:10436000A52D29813A814B815C810E94FE2D03C0DD
:1043700060E070E0CB010F900F900F900F90DF91F5
:10438000CF9108958F929F92AF92BF92CF92DF927A
:10439000EF92FF926B017C010E94F11E4B015C01C8
:1043A000C114D104E104F104F1F00E94F11EDC011A
:1043B000CB0188199909AA09BB09883E9340A10538
:1043C000B10570F321E0C21AD108E108F10888EEC6
:1043D000880E83E0981EA11CB11CC114D104E10415
:1043E000F10419F7DDCFFF90EF90DF90CF90BF90F1
:1043F000AF909F908F90089568EE73E080E090E01A
:104400000C94C2212FB7F8946091ED067091EE06DE
:104410008091EF069091F0062FBF08956F927F92E2
:104420008F929F92AF92BF92CF92DF92EF92FF92C4
:104430000F931F93CF93DF931F92CDB7DEB73091C9
:1044400010011091D402612E712CE32FF0E0EE0FD9
:10445000FF1F8091F906E80FF11DEE0FFF1FEE0F11
:10446000FF1FE60DF71DEE0FFF1FE955FE4F4081C0
:104470005181E12C00E120E167E170E087E390E009
:1044800039830E942D1A3981332309F46DC03230EB
:1044900031F0333031F0313031F48DE305C08AE34F
:1044A00003C081E401C087E3E82EF12C01E022E0A3
:1044B00041E06BE170E0C7010E947220670122E0D9
:1044C000C20ED11C22E041E06BE170E0C6010E9407
:1044D00072200E9402228090D0029090D102A0907F
:1044E000D202B090D30228E8820E23E1921EA11CD2
:1044F000B11C681579058A059B0510F0112331F070
:104500008091F806811130C0111102C01092F80696
:1045100022E030E0261937091216130624F482E04F
:10452000B82EB11A03C08EEFB82EB10E00E02B2DBD
:1045300041E06BE170E0C7010E9472202B2D41E049
:104540006BE170E0C6010E947220123069F40E9493
:1045500002226093D0027093D1028093D202909392
:10456000D30281E08093F8060E940222C090C0022C
:10457000D090C102E090C202F090C30226E9C20EC0
:10458000D11CE11CF11C6C157D058E059F0590F07A
:104590000E9402226093C0027093C1028093C20203
:1045A0009093C3021F5F143018F41093D40202C01A
:1045B0001092D4020F90DF91CF911F910F91FF9035
:1045C000EF90DF90CF90BF90AF909F908F907F90B3
:1045D0006F9008951F920F920FB60F9211242F9390
:1045E0003F938F939F93AF93BF938091ED069091EC
:1045F000EE06A091EF06B091F0063091EC0623E0B4
:10460000230F2D3720F40196A11DB11D05C026E80A
:10461000230F0296A11DB11D2093EC068093ED0699
:104620009093EE06A093EF06B093F0068091F1060A
:104630009091F206A091F306B091F4060196A11DA7
:10464000B11D8093F1069093F206A093F306B09308
:10465000F406BF91AF919F918F913F912F910F9051
:104660000FBE0F901F901895339902C080E801C0CB
:1046700080E04A9B8061319B80624B9B80644C9BB5
:104680008860329B8460089584E98093BC008091A7
:10469000BC0084FDFCCF089584EA8093BC00809127
:1046A000BC0087FFFCCF88E70C94161F4F925F92E7
:1046B0006F927F928F929F92AF92BF92CF92DF9232
:1046C000EF92FF920F931F93CF93DF93CDB7DEB797
:1046D00028970FB6F894DEBF0FBECDBF80910301BF
:1046E0009091040197FD0F969C0104E03595279564
:1046F0000A95E1F72093B902809105019091060196
:1047000097FD0F9614E0959587951A95E1F780939C
:10471000B8023327A901445051095A8349832B5FBA
:104720003F4F3C832B8399279C01225031093E83C4
:104730002D83039698878F8357FF07C081EF489F8B
:10474000402D11244093FD0602C01092FD0637FF54
:1047500007C081EF289F202D11242093FC0602C062
:104760001092FC068091FD068093FB068091FC066A
:104770008093FA06FE0131969E01275F3F4F4FE07E
:1047800050E08081918197FF03C01182108204C0A4
:10479000409714F0518340833296E217F30789F76C
:1047A000FD80B0EF8B2EAF2CB12C8F8198858A15B0
:1047B0009B050CF4D2C09980892D90E02B813C811F
:1047C000281739070CF4BEC02091B902C09003012C
:1047D000289DC00C11242091B80200910501289D4C
:1047E000000D11242091BA02F50130E1239FE00D64
:1047F000F11D1124A4E0EE0FFF1FAA95E1F7E80FC9
:10480000F91FE054F14E949110E0D12C9C3189F1C4
:104810006091FA068091FB069D31A8F4913009F46D
:1048200044C0923009F073C04090D402512C612CE6
:10483000712C75946794579447949FEF491A590ABD
:10484000690A790A2BC09E3281F19333D1F19232F9
:1048500009F05DC04090D402512C612C712C7594EC
:1048600067945794479431E2430E511C611C711CAC
:1048700015C06DE370E080E090E00E949E21660F1D
:10488000771FFB01E55FFD4F408151816091FA0682
:1048900070E0601B710B8091FB0644C09201220FF7
:1048A000331FF901E55FFD4F38C070E0601B710BED
:1048B00090E001E020E140E18C199D090E94722006
:1048C0003AC0662E712C601A710A482E512C4C1871
:1048D0005D0801E020E140E1B301C2010E947220C5
:1048E000B3016E5F7F4F8091FB066034710528F441
:1048F00090E08C199D090E941120B3016C5F7F4FDD
:1049000060347105C0F4C2010E94112014C0E4910A
:10491000F0E0EE0FFF1FE75FFD4F4081518170E037
:10492000601B710B90E0EE24E39400E120E18C1910
:104930009D090E942D1A8091FB06805F8093FB06E3
:1049400093943ACF8091FD068093FB068091FA06FE
:10495000805F8093FA06F39426CF28960FB6F894DA
:10496000DEBF0FBECDBFDF91CF911F910F91FF90A2
:10497000EF90DF90CF90BF90AF909F908F907F90FF
:104980006F905F904F9008952F923F924F925F9259
:104990006F927F928F929F92AF92BF92CF92DF924F
:1049A000EF92FF920F931F93CF93DF93CDB7DEB7B4
:1049B0002A970FB6F894DEBF0FBECDBF5C017A8791
:1049C00069874D839B01295F3F4F3C832B834C01BB
:1049D00037E0830E911C21E04FE0C4010E94462085
:1049E000E984FA8486E0E80EF11CCC24C394D12C2F
:1049F000412C512C07E010E022EF3FEF3A8329834E
:104A00002AEF622E77247A94C50129853A85821B84
:104A1000930B9F838E832FEF421A520A32E0C30E0C
:104A2000D11C6C0C7D1C202E220C31E0320DC201F9
:104A3000079621E0432F2B803C80201A310AB101D8
:104A40008A0D9B1D38870E94462021E04C2DB7011E
:104A5000C401800F911F0E94462021E03885432F1A
:104A6000B1018E819F818E0D9F1D0E94462021E005
:104A70004C2DB701C401801B910B0E9446204016AB
:104A800051067CF477FC09C00150110989819A8193
:104A900002969A838983680E791E91E0E91AF108DB
:104AA000BACF00E020E047E06B817C81C4010E9426
:104AB000741D3D81E32FF0E0EE0FFF1FE951FE4F23
:104AC0004081518169857A856D5F7F4FE12C08E0D7
:104AD00028E0C50104960E942D1A2A960FB6F89474
:104AE000DEBF0FBECDBFDF91CF911F910F91FF9021
:104AF000EF90DF90CF90BF90AF909F908F907F907E
:104B00006F905F904F903F902F9008955F926F92BB
:104B10007F928F929F92AF92BF92CF92DF92EF924D
:104B2000FF920F931F93CF93DF936C015B014A01B8
:104B30003901E12CF12C55245A94500E1E2DC0E061
:104B4000D0E0C038D10549F18C2F81278C2B80FD16
:104B500022C0CC15DD05FCF08C169D06E4F0EA14AD
:104B6000FB04CCF06E147F04B4F041E050E002305E
:104B700010F440E050E04E0D5F1D61E070E081E018
:104B8000851510F460E070E06C0F7D1F20E089ED6A
:104B900092E00E949A1B2196D4CF9FEFE91AF90A5E
:104BA00080E4E816F10451F6DF91CF911F910F9147
:104BB000FF90EF90DF90CF90BF90AF909F908F903D
:104BC0007F906F905F900895CF93DF938091100155
:104BD000813079F038F08230B9F08330F9F481E037
:104BE00090E014C01092BE021092BD028FEF9FEFB2
:104BF00006C01092BE021092BD0281E090E0909338
:104C0000BC028093BB020AC08FEF9FEF9093BE025D
:104C10008093BD021092BC021092BB0281E080938F
:104C2000BF02E0910301F09104014091BD02509157
:104C3000BE02BF01640F751F673F710570F4A0913C
:104C40000501B09106012091BB023091BC02CD015B
:104C5000820F931F873F910518F01092BF0265C025
:104C6000EF01F7FD2F96689413F8D595C795169424
:104C7000E1F7689413F8759567951694E1F7C617F0
:104C8000D707A1F16091BA02C3E0440F551FCA953E
:104C9000E1F7E40FF51FF7FD3F9644E0F595E79542
:104CA0004A95E1F780E1689FA001112473E0220F8B
:104CB000331F7A95E1F7CD01820F931F97FD0F9671
:104CC00024E0959587952A95E1F7840F951F34E0A8
:104CD000880F991F3A95E1F7E80FF91FE054F14E5C
:104CE000A7E8B2E091E02AE22A0F14C0BD01B7FFA5
:104CF00002C0615F7F4FC4E075956795CA95E1F783
:104D0000D4E095958795DA95E1F76817790709F06A
:104D1000B9CF0BC084913D91831303C0653F08F464
:104D200090E02A13F7CF9093BF02DF91CF910895BF
:104D30000F931F930E9402220091C4021091C5029A
:104D40002091C6023091C7020C5E1F4F2F4F3F4F7C
:104D5000601771078207930708F440C00E9402227F
:104D60006093C4027093C5028093C6029093C702F9
:104D70008FEF80930F010E94342387FD10920F0163
:104D80000E94342384FF03C081E080930F010E94BE
:104D9000342385FF03C082E080930F010E943423F7
:104DA00086FF03C083E080930F010E94342383FFBA
:104DB00003C084E080930F010E94342382FF03C06C
:104DC00085E080930F010E94342383FF07C00E9477
:104DD000342382FF03C086E080930F011F910F915F
:104DE00008958F929F92AF92BF92CF92DF92EF92EF
:104DF000FF920F931F93CF93DF93082FC1E3D0E06F
:104E0000C12CD12C760187EE882E99249A94A92C56
:104E1000B92C011127C00E9494200E9456230E94A1
:104E20000E22109102011150C701B601A501940193
:104E30000E94FE2DDA01C901412FBE010E94C42447
:104E400089ED92E00E94101A87E0C81AD108E108A3
:104E5000F108219781E5C8168FEFD806E806F80615
:104E6000C1F606C00E94982690910F01953099F2E4
:104E7000DF91CF911F910F91FF90EF90DF90CF9036
:104E8000BF90AF909F908F900895AF92BF92CF92B6
:104E9000DF92EF92FF920F93CF93DF93D82F809101
:104EA00002012D2F0D2E000C330B280F311D121671
:104EB00013061CF48D0F80930201809102018B3048
:104EC00018F08AE080930201CEE0DC9FC02D11240F
:104ED00089EFA82EBB24BA940E9494200E945623E6
:104EE0000E940E226501CC1AD108C7FDD394E12C93
:104EF000F12C40910201842F90E001968E199F09B8
:104F00000A97B0F44F5F4E19B60188E090E00E9416
:104F1000C42482E0E816F10459F001E09601225F12
:104F20003F4F46E150E0B60188E090E00E948625C0
:104F30008FEFE81AF80A8FE0C80ED11C86E0E81659
:104F4000F104B9F64091D402465F00E021E06EE141
:104F500070E08FE090E00E94741D4091D402455FA4
:104F600020E06EE170E08FE090E00E94741D4091BF
:104F7000D402445F21E06EE170E08FE090E00E9497
:104F8000741D89ED92E00E94101AD7FF02C0CF5F16
:104F900002C0D111C150C1119FCFDF91CF910F91AC
:104FA000FF90EF90DF90CF90BF90AF9008950F9358
:104FB000CF93C0E00C2F20E430E04FE750E060E0FA
:104FC00070E080E090E00E94862589ED92E00E94EA
:104FD000101A6AEF70E080E090E00E94C221CF5F7B
:104FE000C43041F7CF910F9108958F929F92AF9265
:104FF000BF92CF92DF92EF92FF920F931F93CF93C6
:10500000DF930E9494200E9456230E940E228091DA
:10501000BA0290E020910D0130910E0182179307A2
:10502000B9F580E092E00E94EC1B843089F5A0C0C5
:10503000209103013091040137FF02C0215F3F4FEF
:10504000A901D4E055954795DA95E1F74093B90267
:10505000209105013091060137FF02C0215F3F4FCB
:10506000C4E035952795CA95E1F72093B802609181
:10507000090170910A0177FF02C0615F7F4FB4E0C0
:1050800075956795BA95E1F74617570709F4A5C0D6
:1050900080910101882349F040910201415061E370
:1050A00070E080E090E00E94C42480910301909120
:1050B000040197FD0F96F4E095958795FA95E1F731
:1050C0008093B902809105019091060197FD0F969A
:1050D00064E0959587956A95E1F78093B8020CE0B6
:1050E0001BE0CCE5DDE17EE6C72E7CE1D72EEBE0D0
:1050F000EE2EEBE0FE2EFE013197E4918091BA0294
:10510000E81319C0F6013197949180911001981716
:1051100019F0E491EF3F79F4F8013397E49180912D
:10512000B902E81308C0F8013297E4918091B802FF
:10513000E81709F468C00C5F1F4F2396F2E0CF0E0A
:10514000D11C24E0E20EF11C8EE1C13CD80799F697
:1051500089ED92E0DF91CF911F910F91FF90EF9039
:10516000DF90CF90BF90AF909F908F900C94101ACB
:10517000809105019091060197FD0196959587957F
:10518000E0900B01F0900C01E81AF90A80910301FC
:105190009091040197FD019695958795C09009011E
:1051A000D0900A01C81AD90AC1E0AA24AA94B12C45
:1051B00090910001C91708F03BCF692F70E0C5013D
:1051C0000E94982EC69F002D112420E04C2FB7017D
:1051D000C6010E94741DCF5FEBCF40910B0150912F
:1051E0000C0157FF02C0415F5F4FA4E05595479502
:1051F000AA95E1F72417350709F04ACF64E0690F53
:105200006093000145CFFE013196E491E13009F051
:1052100045C00E9498260E9402228090C802909069
:10522000C902A090CA02B090CB02F6E98F0E911C81
:10523000A11CB11C681579058A059B0508F46CC092
:1052400080910F01843009F067C0F60184918823B2
:1052500009F462C0F701B490FE01849190E00B96CE
:105260000E94EC1BF801249190E08B0D911D30E021
:10527000281739070CF050C0FE01849190E060E0DF
:105280000B960E94B81B0E9402226093C802709382
:10529000C9028093CA029093CB024DCFE13048F50A
:1052A000F6014491F80184918295807FF701249161
:1052B0002295207FFE0194919093BA02922F9295AD
:1052C0009F709093B902982F92959F709093B80217
:1052D00030E0309304012093030190E090930601A5
:1052E00080930501409310010E94D7270E94081C5B
:1052F00022CFE23009F01FCFF801849190E081586D
:105300009F4F0E94EC1B882309F45AC0F601849138
:10531000813009F010CF54C0F701B490FE018491A0
:1053200090E00B960E94EC1B8B0DF801949198175E
:1053300008F401CF90E0FC01EB51F34F2491880F6A
:10534000991FDC01AF5CBE4F4D915C9168E381E039
:105350000E94A7200E9402228090C8029090C90259
:10536000A090CA02B090CB02F6E98F0E911CA11C4E
:10537000B11C681579058A059B0508F4DCCE0E94EE
:1053800002226093C8027093C9028093CA0290936C
:10539000CB020E94982680910F01843009F0CBCE79
:1053A000FE01849190E00B960E94EC1BFE0194910B
:1053B00061E0680F892F90E00B960E94B81BBBCE6E
:1053C000F701B490FE018491811101C0B194F801FC
:1053D000849190E061E081589F4F0E94B81B80E06B
:1053E0000E94F1268B2D0E94452780E00E944527D0
:1053F0000E94081C68EE73E080E090E00E94C221E9
:105400009ACE0F931F93CF93DF93EC0181E090E04E
:105410000E94E82D80FF2CC08AE090E00E94E82DD9
:105420009FEF980F9E3F20F522E330E0388B2F87C7
:1054300028E330E03A8B298B0BE010E0E881F9811A
:105440000190F081E02D682FCE010995C8010E94DE
:10545000E82D0F5F1F4F0131110581F7CE01049632
:105460000E94101ADF91CF911F910F910C94FC2193
:10547000DF91CF911F910F910895EF920F93CF93EA
:10548000DF930E949420C0E0D0E0EE24E39400E299
:1054900020E248E650E060E070E0CE010E942D1A64
:1054A000A096C038D10589F7C0E0D0E0EE24E3949F
:1054B00000E220E248E650E060E270E0CE010E94A7
:1054C0002D1AA096C038D10589F789ED92E0DF91B9
:1054D000CF910F91EF900C94101AE5EDF2E013824A
:1054E00012821186128680E18387108617821586C4
:1054F0008FE191E0918380838DE291E095838483B5
:10550000108A1786128A118A81E0838B148A858B10
:10551000168A08950F931F93CF93DF938C01C0E0F9
:10552000D0E0F801EC0FFD1F6491662371F0E0916B
:10553000D502F091D6020190F081E02D85ED92E048
:105540000995892B11F02196ECCFCE01DF91CF91F7
:105550001F910F910895009769F0FC0101900020C0
:10556000E9F73197AF01481B590BBC0185ED92E07B
:105570000C94C61E80E090E00895CF93DF930E94C4
:105580008A2AEC0184EB92E00E94AB2A8C0F9D1FCB
:10559000DF91CF91089504970C94012ACF93DF9364
:1055A000CDB7DEB7A2970FB6F894DEBF0FBECDBF62
:1055B000789484B5826084BD84B5816084BD85B5EE
:1055C000826085BD85B5816085BD80916E008160FA
:1055D00080936E00109281008091810082608093A0
:1055E00081008091810081608093810080918000A2
:1055F0008160809380008091B10084608093B100CD
:105600008091B00081608093B00080917A008460C6
:1056100080937A0080917A00826080937A008091F2
:105620007A00816080937A0080917A00806880930C
:105630007A001092C10081EC80937C0088B18E606A
:1056400088B987B1817F87B98BB18C618BB98AB1F9
:10565000837E8AB98AB1806E8AB98BB18F718BB91A
:105660001092B90088E48093B8000E944C2380E037
:105670000E94161F02EB1AE04FE1F42EF00EF80123
:1056800084910E94161F0F5F1F4FF012F8CF0E94E7
:10569000442381E08093B8001092E8028093E902ED
:1056A0000E944C2380E00E94161F86EA0E94161F6B
:1056B0000E944423809107018093BA020E94F5273B
:1056C00000E010E0C8010E94EC1BF801EC5FF44F11
:1056D000E4918E130FC00F5F1F4F0530110591F736
:1056E00080E092E00E94EC1B182F81E092E00E9483
:1056F000EC1B18130E94331C123019F0143009F0FF
:105700007AC100E010E0C8010E94EC1B05301105D1
:1057100011F4809302010F5F1F4F0115F4E01F0782
:1057200091F786E00E94EE1B9093040180930301A1
:1057300088E00E94EE1B90930601809305018AE0A9
:1057400090E00E94EC1B8093BA02ADE18A2EADE09E
:105750009A2EB6E06B2E00E010E080E0E82E80E0AC
:10576000F82E9EE0792E27E6C22ED12C3FE1A32E03
:10577000B12C0E94982680910F01843080F48AA376
:105780000E94E42591E09093F9068AA1823079F095
:10579000833069F0813059F01092100119C01092D5
:1057A000F9068530D1F481E00E94F12603C0809390
:1057B00010010EC080910F01853051F40E9498268F
:1057C00080E00E94452789ED92E00E94101AF2CFF6
:1057D0008091F90681110E94E4258091BF028823FF
:1057E000F1F020910301309104018091BD0290916C
:1057F000BE02820F931F90930401809303012091B6
:105800000501309106018091BB029091BC02820F8C
:10581000931F90930601809305011092BF0280911F
:10582000F5068F5F853018F48093F50602C010925C
:10583000F506209102018FEF820F8A3008F05ACFCF
:105840008091BA02863F60F130E090E0855F910977
:10585000281739072CF5F401249147E251E069E358
:1058600080E00E94A72089ED92E00E94101A68EE65
:1058700073E080E090E00E94C2217092BA026092D0
:10588000B90281E08093B802D0920401C092030172
:10589000B0920601A0920501809310010E94D727C3
:1058A000A091BA02A53F08F470C0109201012091A6
:1058B000030130910401A90137FF02C0415F5F4F2E
:1058C000E4E055954795EA95E1F78A2F90E08159F4
:1058D0009109880F991F880F991FFC01E75FF44F0A
:1058E00064912A01461A5108141415043CF4E491F9
:1058F0004E1B51094830510584F040C0E491F0E05E
:1059000037FF02C0215F3F4F74E0359527957A95A8
:10591000E1F7E21BF30B38978CF5209105013091EC
:105920000601A90137FF02C0415F5F4F64E0559552
:1059300047956A95E1F7FC01E65FF44F8491BA015F
:10594000681B7109CB011816190644F4E4914E1B2B
:105950005109483051050CF4A6C010C0E491F0E0A4
:1059600037FF02C0215F3F4F94E0359527959A9508
:10597000E1F7E21BF30B38970CF495C0AF3F29F425
:1059800064E080E092E00E94B81B809100018034C6
:1059900078F00E94D72763E080E092E00E94B81B75
:1059A00081E092E00E94EC1B833011F4F80109952C
:1059B00080E092E00E94EC1B682F81E092E06AA3F5
:1059C0000E94EC1B6AA1681721F081E092E00E941E
:1059D000B81B0E94F5278091F6069091F706019674
:1059E0009093F7068093F606E114F10409F4C1CE12
:1059F0000E940000BECE0E94942001E020E440E816
:105A000060E070E080E090E00E947220E12C00E114
:105A100020E144EE5AE067E070E087E390E00E9406
:105A20002D1A84E090E09093E5028093E40207E26F
:105A300010E01093E7020093E60281ED9AE00E94E5
:105A40008A2A88E790E09093E5028093E40210931D
:105A5000E7020093E60280E092E00E94EC1B282F10
:105A600030E040E050E019A28E010F5D1F4F8AE048
:105A7000C82ED12CE12CF12CCA01B901A701960145
:105A80000E94672E605DF80162938F012115310538
:105A90004105510589F7CF010E94AB2A89ED92E0BB
:105AA0000E94101AFFCF81E08093010167CF8F928F
:105AB0009F92AF92BF92CF92DF92EF92FF92CF93DD
:105AC000DF93EC01688179818A819B816115710581
:105AD0008105910521F464E279ED8BE597E02DE1F4
