:100000000C942A0A0C94520A0C94520A0C94520A28
:100010000C94520A0C94520A0C94520A0C94520AF0
:100020000C94520A0C94520A0C94DD120C94530C4A
:100030000C94520A0C94520A0C94520A0C94520AD0
:100040000C94520A0C94520A0C94520A0C94520AC0
:100050000C94520A0C94520A0C94520A0C94C20E3C
:100060000C94520A0C94520A0C94520A0C94520AA0
:100070000C94520A0C94520A0C94520A0C94520A90
:100080000C940C0F0C94520A0C94520A0C94520AC1
:100090000C94520A0C94520A0C94520A0C94520A70
:1000A0000C94520A0C94520A0C94520A010204084D
:1000B0001020408000000000003E5B4F5B3E3E6B26
:1000C0004F6B3E1C3E7C3E1C183C7E3C181C577DF2
:1000D000571C1C5E7F5E1C00183C1800FFE7C3E73E
:1000E000FF0018241800FFE7DBE7FF30483A060E50
:1000F0002629792926407F050507407F05253F5A97
:100100003CE73C5A7F3E1C1C08081C1C3E7F142206
:100110007F22145F5F005F5F06097F017F006689B1
:10012000956A606060606094A2FFA29408047E04F7
:100130000810207E201008082A1C08081C2A08081D
:100140001E101010100C1E0C1E0C30383E383006DD
:100150000E3E0E06000000000000005F00000007D9
:10016000000700147F147F14242A7F2A1223130807
:10017000646236495620500008070300001C2241E3
:10018000000041221C002A1C7F1C2A08083E080887
:100190000080703000080808080800006060002037
:1001A000100804023E5149453E00427F400072491A
:1001B0004949462141494D331814127F10274545BE
:1001C00045393C4A494931412111090736494949D4
:1001D00036464949291E0000140000004034000042
:1001E00000081422411414141414004122140802AB
:1001F000015909063E415D594E7C1211127C7F491E
:100200004949363E414141227F4141413E7F494972
:1002100049417F090909013E414151737F0808089E
:100220007F00417F41002040413F017F081422416F
:100230007F404040407F021C027F7F0408107F3EC9
:100240004141413E7F090909063E4151215E7F0936
:10025000192946264949493203017F01033F40409D
:10026000403F1F2040201F3F4038403F6314081488
:100270006303047804036159494D43007F414141C0
:100280000204081020004141417F040201020440A1
:1002900040404040000307080020545478407F2825
:1002A0004444383844444428384444287F3854541B
:1002B000541800087E090218A4A49C787F0804043E
:1002C0007800447D40002040403D007F10284400DD
:1002D00000417F40007C047804787C08040478386E
:1002E00044444438FC1824241818242418FC7C089E
:1002F000040408485454542404043F44243C40401B
:10030000207C1C2040201C3C4030403C44281028CD
:10031000444C9090907C4464544C44000836410016
:100320000000770000004136080002010204023C90
:100330002623263C1EA1A161123A4040207A38545F
:1003400054555921555579412154547841215554DA
:10035000784020545579400C1E527212395555552B
:1003600059395454545939555454580000457C4116
:100370000002457D420001457C40F0292429F0F02F
:10038000282528F07C545545002054547C547C0A80
:10039000097F4932494949323248484832324A484D
:1003A00048303A4141217A3A42402078009DA0A04D
:1003B0007D39444444393D4040403D3C24FF2424A1
:1003C000487E4943662B2FFC2F2BFF0929F620C0BE
:1003D000887E090320545479410000447D4130480F
:1003E000484A32384040227A007A0A0A727D0D1952
:1003F000317D2629292F28262929292630484D40B4
:1004000020380808080808080808382F10C8ACBAAF
:100410002F102834FA00007B000008142A1422222E
:10042000142A14089500220095AA005500AAAA557E
:10043000AA55AA000000FF00101010FF00141414A9
:10044000FF001010FF00FF1010F010F0141414FC47
:10045000001414F700FF0000FF00FF1414F404FC64
:10046000141417101F10101F101F1414141F001045
:100470001010F0000000001F101010101F101010BE
:1004800010F010000000FF101010101010101010CD
:10049000FF10000000FF140000FF00FF00001F100D
:1004A000170000FC04F414141710171414F404F4C7
:1004B0000000FF00F714141414141414F700F714B8
:1004C0001414171410101F101F141414F414101007
:1004D000F010F000001F101F0000001F14000000AB
:1004E000FC140000F010F01010FF10FF141414FFA3
:1004F000141010101F00000000F010FFFFFFFFFF9E
:10050000F0F0F0F0F0FFFFFF0000000000FFFF0F31
:100510000F0F0F0F38444438447C2A2A3E147E02C1
:10052000020606027E027E02635549416338444456
:100530003C04407E201E2006027E020299A5E7A50B
:10054000991C2A492A1C4C7201724C304A4D4D307C
:100550003048784830BC625A463D3E494949007EA1
:100560000101017E2A2A2A2A2A44445F4444405138
:100570004A444040444A51400000FF0103E080FFEC
:10058000000008086B6B083612362436060F090F78
:1005900006000018180000001010003040FF010194
:1005A000001F01011E00191D1712003C3C3C3C00BD
:1005B00000000000D5F08D14A1C881CFD9F1AF2083
:1005C000000601E0018801E0014A01E0015D01E06F
:1005D000010601E0018801E0014A01E0010000E0BC
:1005E000010601E0018801E0014A01E0015D01E04E
:1005F000010601E0018801E0010601E0010000E0E0
:10060000010601E0014A01E0018801E0010000E08B
:10061000010601E0014A01E001B801E0010000E04B
:10062000010601E0014A01E001F101E0010000E002
:10063000010601E0014A01E0010601E0010000E0DD
:10064000012601E0014A01E0015D01E0010000E056
:10065000014A01E0015D01E0018801E0010000E0E4
:10066000018801E0010601E0012601E0015D01E0F1
:1006700001F101E0010000E001F101E0015D01E0B4
:10068000018801E001F101E001F101E0010000E079
:100690000170031C0210031C0293021C024B021C7B
:1006A000020000E0014B021C0293021C02BA021C71
:1006B000020000E001BA021C0210031C0270031CBD
:1006C000020000E00170031C020B021C024B021C22
:1006D00002BA021C02DC031C02DC031C02DC031C49
:1006E0000270031C0210031C0200001C024B02E0FB
:1006F00001F101E0018801E0010000E0018801E072
:1007000001F101E0015D01E0010000E0015D01E0B7
:1007100001B801E0010601E0010000E001B801E0DC
:10072000010601E0012601E0010000E0018801E08E
:1007300001B801E0015D01E0010000E0015D01E0C0
:10074000012601E0010601E0010000E0014A01E0AC
:10075000018801E0015D01E0010000E0018801E0A5
:10076000014A01E0010601E0010000E0018801E02A
:10077000014A01E0015D01E0010000E0018801E0C3
:10078000010601E001F101E0014B02E0018801E016
:100790000100805765276C6C206D6565740A616780
:1007A00061696E0053686F77206D65207468650A13
:1007B00077617920686F6D65005468616E6B732096
:1007C000666F720A6163636F6D70616E79696E67DF
:1007D000206D6500FFF00FFFFFFFC007FFFFFF80E8
:1007E00001FFFFFF00E0FFFFFE00F0FFFFFC38F01D
:1007F0007FFFF87CF03FFFF07C703FFFE07E201F22
:10080000FFC03C000FFF80081807FF8380FC07FF34
:1008100087C7FE07FF078FFE07FF070FFC03FF06D2
:100820001FFC03FF001FF803FF807FF003FF807FA2
:10083000E001FFC07FC001FFC07F8001FFC03F001B
:1008400001FFE0000000FFE0000000FFC00000002A
:10085000FFE0000000FFF00000007FF00000007FDC
:10086000F00000007FF80000007FF80000003FF873
:100870000000003FF80000003FFC0000003FFC00CB
:1008800000001FFC0000001FFC0000001FFE000015
:10089000001FFE0000001FFE0000000FFE00000011
:1008A0000FFF0000000FFF0000000FFF0000000F0F
:1008B000FF00000007FF80000007FF80000007FF27
:1008C00080000007FFC0000007FFC0000003FFE03A
:1008D000000003FFE0000003FFE0000003FFE00072
:1008E0000003FFF0000001FFF0000001FFF800002E
:1008F00001000000000000007FFFFFFFFFFF000875
:1009000000000000000000003FFFFFFFFFFE0008A6
:1009100000000000000000003FFFFFFFFFF8001094
:1009200000000000000000001FFFFFFFFFF00010AC
:1009300000000000000000001FFFFFFFFFC00020BC
:1009400000000000000000000FFFFFFFFF800020FC
:1009500000000000000000000FFFFFFFFF0000206C
:1009600000000000000000000FFFFFFFFC0000403F
:10097000000000000000000007FFFFFFF8000080FB
:10098000000000000000000007FFFFFFF00001036F
:10099000C00000000000000007FFFFFFC00000FCD7
:1009A00080000000003C000007FFFFFF8000000007
:1009B0008000000003FE000007FFFFFF8000000131
:1009C0000000000007FF000003FFFFFFC000000160
:1009D000000000000FFF000003FFFFFFC000000247
:1009E000000000000FFF800003FFFFFFE000000495
:1009F000000000001FFF800003FFFFFFE000000871
:100A0000000000001FFF800003FFFFFFF000000850
:100A1000000000001FFFC00003FFFFFFF8000010F0
:100A2000000000001FFFC00003FFFFFFFC000010DC
:100A3000000000001FFFC00003FFFFFFFE00000CCE
:100A4000000000001FFFC00001FFFFFFFF00000EBD
:100A5000000000001FFFD00041FFFFFFFFC00003A8
:100A6000800000001FFFF00061FFFFFFFFF80000A3
:100A7000600000001FFFFC0077FFFFFFFFFF87F80B
:100A8000100000001FFFFE407FFFFFFFFFFFF86F19
:100A9000E00000000FFFFBC057FFFFFFFFFFE0007B
:100AA000000000000FFFFFC25FFFFFFFFFFFC080DD
:100AB000000000000FFFFFE65FFFFFFFFFFF804029
:100AC0001F00000007FFEFEB7FFFFFFFFFFF8078B5
:100AD000E000000007FFEFEBFFFFFFFFFFFF0086D6
:100AE0000000000003FFFFFBFFFFFFFFFFFE010010
:100AF0000000000001FFFFFBFFFFFFFFFFFC000005
:100B00000200000000FFFFFFFFFFFFFFFFF8007F74
:100B10003C000000007FFFFFFFFFFFFFFFF00040F1
:100B2000E0000000003FFFFFFFFFFFFFFFE000408D
:100B300000000000000FFFFFFFFFFFFFFFC00040AD
:100B4000008000000003FFFFFFFFFFFFFF80004069
:100B5000008000000001FFFFFFFFFFFFFF8001C0DA
:100B60000080000000007FFFFFFFFFFFFF0001800B
:100B700000C0000000001FFFFFFFFFFFFE0003801A
:100B800000E00000000007FFFFFC0FFFFC000680F4
:100B900000E00000000001FFFFFE07FFF8000E80EC
:100BA00000F040000000007FFFFFC1FFE000188060
:100BB00000F860000000001FFFFFF8FF8000308099
:100BC00000FC700000000000FFFFFFFE00006080DE
:100BD00000FE780000000000003FFFF80000C08029
:100BE00000FF7E000000000000003FE00001808068
:100BF00000FFFF8000000000000000000003808074
:100C000000FFFFE000000000000000000003008083
:100C100000FFFFE00000000000000000000700806F
:100C200000FFFFF00000000000000000001F008037
:100C300000FFFF800000000000000000003F008077
:100C400000FFFF000000000000000000007F0080A7
:100C500000FFFF00000000000000000000FF008017
:100C600000FFFF00000000000000000003FF008004
:100C700000F3FF80000000000000000007FE00807D
:100C800000F8FFF000000000000000001FFE0080E0
:100C900000FC7FFF00000000000000007FFE0080DD
:100CA00000FE3FFFF000000000000001FFFE00809A
:100CB00000FF9FFFFF0000000000000FFFFC00800E
:100CC00000FFE7FFFFC000000000007FFFFC008086
:100CD00000FFFFFFFFF8000000000FFFFFFC008097
:100CE00000FFFFFFFFFE0000001FFFFFFFF8008076
:100CF000004D7920776F726C64207761726D73207C
:100D00006D6500546F2074686520636F6C64207794
:100D10006F726C64005855414E20646F6573206E8D
:100D20006F74207374616E640A666F7220727574DA
:100D3000686C6573736E65737300000000000000DB
:100D400000000000000000000000000000000000A3
:100D50000000000000000000000000000000000093
:100D60000000000000000000000000000000000083
:100D70000000000000000000000000000000000073
:100D8000000000000000000000000000000003F868
:100D9000000000000003C000000000000000035736
:100DA000E000000001FC4000000000000000022202
:100DB0003C0000001E014000000000000000035540
:100DC00057C00000E0FF4000000000000000028863
:100DD0008AFC000F0FFF40000000000000000255D9
:100DE000403FC0307FFE800000000000000001A2F4
:100DF00087FFFDC7FC3E800000000000000001549A
:100E000003FFFF1FF3DD0000000000000000008A68
:100E100001FFFFCFCFDD000000000000000000D484
:100E20001FFFCFE3BFBD000000000000078000A24D
:100E30000FFF87FB7FBA0000000000000FE00054A6
:100E40000FFFFFF9FF760000000000001FF00068B0
:100E50003FFE79FCF6F40000000000003FFC003487
:100E60007FFF7BFEF9E80000000000003FFE00224B
:100E70007FFFFFFE7FD00000000000007FFF803476
:100E8000FFFFFFFF7FB00000000000007BFFC01AE3
:100E9000EFFFFFFF7F2000000000000079FFE0105F
:100EA000CFFFFFFF7C40000000000000787FF00AC9
:100EB0008FFFFFFF7B800000000000007C1FF0041C
:100EC0001FF9FE7F40000000000000007C07F803CF
:100ED0001FF1FC7F5F000000000000007E01FC01AC
:100EE0009FE2F8BF21000000000000003E01FE006C
:100EF000DFE6F9BF42000000000000003E00FF00F6
:100F00007FE6F9BF0C000000000000003F007F00FA
:100F10001FE6F9BE30000000000000003F003F80E7
:100F20001FF2FCBFC0000000000000003F001FC017
:100F30007FF9FE7E00000000000000003E000FE090
:100F40003FFFFFFC00000000000000003E000FF02B
:100F50001FFFFFFC00000000000000003E0007F83B
:100F60000FFFFFFE00000000000000007E0003FCF9
:100F700007FFFFFF00001C00000000007C0001FED6
:100F80000FFFF7FE00003F0000000000FC0001FF23
:100F90009FFFCFFEE000778000000000FC0000FF14
:100FA0009CFFFFFC2000FDC000000001F000007F5E
:100FB000C24FFFF02001E7C000000003F0000FBFA8
:100FC000C82000204003C34000000007F0003FCFCE
:100FD0002E1F95808007C1C00000000FE0007FF049
:100FE000C3000003001FE1C00000001FC001FFFF9D
:100FF00009FC003C003FF3C0000000FFC003FFF00D
:101000000C03FFC007FFFFC0000003FF8007FFC005
:101010001FE00001FFFFFF8000003FFF000FFF8087
:101020001FEFFF9FFFFFFF0000000FFE001FFE00ED
:101030001FCFFFDFFFFFFE00000007FE003FFC00A8
:101040003FDFFFDFFFFFF800000007FC00FFF000BC
:101050003FDFFFCFFFFFF00000000FF800FFE000D0
:101060007FBFFFEFFFFFF00000000FF003FFC000A5
:101070007FBFFFEFFFFFC00000001FC007FFC000E1
:10108000FFBFFFE7FFFF8000000007800FFF800029
:10109000FF7FFFF0FFF80000000003001FFF0001CA
:1010A000FF7FFFF81FC00000000006003FFE0001A8
:1010B000FF7FFFF80000000000000C007FFE00032F
:1010C000FF7FFFF80000000000000000FFFC0003AD
:1010D000FF7FFFF80000000000000001EFFC0003AC
:1010E000FEFFFFF80000000000000001C7F8000745
:1010F000FEFFFFF8000000000000000307380007B3
:10110000FEFFFFF8000000000000000007380007A5
:10111000FDFFFFF8000000000000000004100007C1
:10112000FEFFFFF8000000000000000000000007C4
:10113000FEFFFFF8000000000000204C4857200090
:101140002050726F6772616D6D696E6720417274B5
:101150002000FE55AB7E8080807EAB55FE0000FEF9
:10116000ABF60A0EFA54F80000FEABF60A0EFA5679
:10117000FA0E0AF6ACF80000FC56FB05070507FD61
:10118000ABFE000000FEABF60A0EFA54F80000FEBB
:10119000ABF60A0EFA54F80000FEABDD77556F3659
:1011A0009C800000E050E83828FFABFF00010205FA
:1011B000060506050201000000030607000083453E
:1011C000C78000030687C040830507008043C687A9
:1011D00000000183C645C745C745C68D0E0000C344
:1011E000C68780000305C74080030607000003058B
:1011F00007C0C0C306050705070506030000010375
:1012000006050705060700000000000000000000BA
:1012100000000000000000003F55AA5FA060A07F12
:10122000EAD5BF60A060BFD56A3F00007FD5BE4150
:10123000C141C141BED57F0000FFAAFF02010000ED
:10124000FF55FF80000078D4BA4ECA7FAAFF000085
:10125000000000000000000000000000000000008E
:10126000000000000000000000000000000000007E
:101270000000000000010101010100000101010165
:101280000100000000000000010101010101010056
:101290000000000101010000000000010100000049
:1012A0000000010101010101000000000000000038
:1012B000000000000000000000002601B8014B0201
:1012C000B801F101B8010000B8012601B8014B02D4
:1012D000B8018801B8010000B8012601B801B801C1
:1012E000B8010B02B8010000B801F101B801B80162
:1012F000B8015D01B8010000B8014A01B8015D0103
:10130000B8018801B8010000B8018801B801B8012E
:10131000B8010601B8010000B8012601B8014A0170
:10132000B8015D01B8010000B8015D01B801880194
:10133000B801B801B8010000B8010B02B801F10111
:10134000B8010B02B8014B02B8018801B8010000D6
:1013500070030B02B801F101B8018801B801000067
:10136000B8010B02B801F101B8014A01B80100004F
:10137000B8010B02B801F101B8015D01B80100002C
:10138000B801B801B8010601B8012601B801000092
:10139000B8018801B8014A01B8015D01B8018801AE
:1013A000B8010B02B8010000B8018801B8015D0165
:1013B000B8014A01B801B801B8010B02B801000038
:1013C000B8010B02B801F101B8014B02B801BA0231
:1013D000B8011003B801DC03B8010080080B00025B
:1013E00002020100090400000102020000052400BD
:1013F0001001052401010104240206052406000150
:101400000705810310004009040100020A000000E2
:1014100007050202400000070583024000000403A4
:10142000090412010002EF0201404123368000014D
:101430000102030141726475696E6F204C4C4300D8
:1014400041726475696E6F204C656F6E6172646F76
:101450000000DF1611241FBECFEFDAE0DEBFCDBFE4
:1014600011E0A0E0B1E0E2E1FFE202C005900D92E0
:10147000AC33B107D9F725E0ACE3B1E001C01D9270
:10148000AE3FB207E1F71AE0CAE2DAE004C0219702
:10149000FE010E947C17C932D107C9F70E944F1381
:1014A0000C9487170C94000040916C0150916D01D1
:1014B00020916A0130916B0142175307B4F4909167
:1014C000E8009570E1F39091E80092FD19C08093D7
:1014D000F10080916C0190916D0101968F739927B5
:1014E000892B19F48EEF8093E80080916C01909124
:1014F0006D01019690936D0180936C0181E00895D8
:1015000080E00895CF92DF92EF92FF920F931F93A6
:10151000CF93DF931F92CDB7DEB7182F062FE42E9F
:10152000862F880F8E5F99830E94540A83E00E9461
:10153000540AF12EC12E9981D92E8C2D8F19801726
:1015400098F4F601E7FE02C0849101C080810E94F8
:10155000540A182F80E00E94540A8123FFEFCF1A0B
:10156000DF0A8111EACF01C081E00F90DF91CF91B6
:101570001F910F91FF90EF90DF90CF900895DF9231
:10158000EF92FF920F931F93CF93DF93D82E8A0190
:101590007B01E40EF51EEB01CE15DF0571F0D7FEE1
:1015A00003C0FE01849101C088810E94540A2196E3
:1015B0008111F2CF8FEF9FEF01C0C801DF91CF9172
:1015C0001F910F91FF90EF90DF900895615030F0E0
:1015D0002091F100FC0120830196F8CF289884E641
:1015E000809371010895CF92DF92EF92FF920F9353
:1015F0001F93CF93DF936C017A018B01C0E0D0E0A1
:10160000CE15DF0589F0D8016D918D01D601ED91E0
:10161000FC910190F081E02DC6010995892B11F410
:101620007E0102C02196ECCFC701DF91CF911F91BF
:101630000F91FF90EF90DF90CF9008953FB7F8940F
:1016400080914A0190914B01A0914C01B0914D01C4
:1016500026B5A89B05C02F3F19F00196A11DB11D0D
:101660003FBFBA2FA92F982F8827820F911DA11D48
:10167000B11DBC01CD0142E0660F771F881F991F85
:101680004A95D1F708952FB7F8946091460170916B
:10169000470180914801909149012FBF08958091A1
:1016A0006901E0916701F0916801882349F0CF0159
:1016B00002969093680180936701859194910895B3
:1016C000CF01029690936801809367018081918198
:1016D0000895CF92DF92EF92FF920F931F93CF93D3
:1016E000DF930E944F0B811520E8920761F48091EF
:1016F00071008D7F809371001092910046984798F9
:1017000010923E018BC021E020933E01813020E801
:10171000920751F480916501909166019093680160
:10172000809367010E944F0B97FD05C020913D01FA
:10173000222309F43FC020913C0121113BC021E04C
:1017400020933F01EC01DF77209769F481E08093DB
:10175000400146983FE9C32E3FE0D32EE12CF12C07
:10176000CAEFD0E014C08E0120E030E060E472E403
:101770008FE090E0A90198010E942C1769017A017D
:1017800081E0C81AD108E108F10810924001E09107
:101790007305F09174050995811103C081E0809370
:1017A000400180913F018823B9F18091400181116E
:1017B00033C003C010923F01C5CF46992DC0479A50
:1017C0000E944F0B009771F09C01DE010E946D1783
:1017D000DC01CB0129E0B595A795979587952A95CA
:1017E000D1F703C08FEF9FEFDC01109290002AE049
:1017F00020939100D0929900C0929800809341016B
:1018000090934201A0934301B093440180917100F1
:1018100082608093710002C04798D2CFDF91CF9150
:101820001F910F91FF90EF90DF90CF9008958091DE
:101830004E0108950895089580E090E008950F9373
:101840001F93CF93DF931F92CDB7DEB782E08983DA
:1018500042E450E06CED73E180E80E94BF0A0E9410
:10186000C912DC0112960D911C91139701151105F7
:1018700069F0D801ED91FC910280F381E02DBE0169
:101880006F5F7F4FC801099597FF07C089810F904F
:10189000DF91CF911F910F910895F8010085118577
:1018A000E5CF0E9482171F920F920FB60F9211245C
:1018B000CF92DF92EF92FF920F931F932F933F935C
:1018C0004F935F936F937F938F939F93AF93BF9348
:1018D000EF93FF93CF93DF93CDB7DEB76C97DEBF67
:1018E000CDBF1092E9008091E80083FFEDC168E070
:1018F000CE0145960E94E60A82EF8093E8008D892A
:1019000087FF05C09091E80090FFFCCF03C09EEFD9
:101910009093E800982F907609F0C6C09E892F8991
:10192000188D91110CC0803829F480916F0180933B
:10193000F10002C01092F1001092F10048C1422F54
:1019400050E0512B913051F4811141C1413051058A
:1019500009F03DC180916F018D7F0BC0933061F420
:10196000811135C14130510509F031C180916F01BC
:10197000826080936F012BC1953041F48091E80023
:1019800080FFFCCF20682093E30021C1963009F04E
:101990005FC0EB8CFC8C1092E90010926D011092EC
:1019A0006C01123091F510926B0110926A010E9445
:1019B0001F0C99E0BE016F5F7F4FDB01E92F1D9285
:1019C000EA95E9F799831A8391E09E8390EA9887D4
:1019D0009AEF998720916C0130916D01275F3F4FFD
:1019E0003C832B838D831092E90010926D0110923D
:1019F0006C01F0926B01E0926A0149E050E080E0F6
:101A00000E94BF0A0E941F0CE2C0F0926B01E0929C
:101A10006A010E94C912DC011296ED90FC901397A6
:101A2000E114F10409F4C0C0D701ED91FC910480E8
:101A3000F581E02DBE016B5E7F4FC70109950097D0
:101A400019F00CF0C4C0C7C0F701E084F184E8CFFE
:101A5000973009F4C0C0983021F481E08093F10000
:101A6000B6C0993009F0B3C0837009F0B4C0EDE09E
:101A7000F1E081E021E036E39081992361F08093E9
:101A8000E9002093EB0091919093EC003093ED00EE
:101A90008F5F873089F78EE78093EA001092EA0023
:101AA0008F898093720193C08B8D9C8D1092E90079
:101AB00010926D0110926C0190936B0180936A01FA
:101AC000898D811156C08E899D89913A59F4813250
:101AD00009F081C047E050E064E071E080E00E94DE
:101AE000BF0A75C0913209F076C0833289F4888DBF
:101AF00090E0982F88272F89822BA0E0B0E0809378
:101B0000000190930101A0930201B09303015FC013
:101B1000803269F48091E80082FFFCCF67E084E0C6
:101B200091E00E94E60A8BEF8093E80006C08232C3
:101B300009F04DC08F8980930B0180916E0188233D
:101B400019F0EEEFFAE002C0E0E0F8E08091040165
:101B500090910501A0910601B0910701803B94404E
:101B6000A105B10509F07BC080910B0180FF93C0F6
:101B700076C00E94C912DC0112960D911C91139738
:101B80000115110541F1D801ED91FC910190F08111
:101B9000E02DBE016B5E7F4FC8010995811117C012
:101BA000F80100851185ECCF113009F44EC01330D7
:101BB00091F48F89882309F445C0823081F440E88C
:101BC00060E180E494E10E94820A882321F08EEF94
:101BD0008093E80079C081E28093EB0075C081308A
:101BE00029F440E86BE084E394E1EDCF833099F78A
:101BF0000E94C912DC011296ED90FC9013978E01A1
:101C00000F5F1F4F6801E114F10479F0D701ED91E6
:101C1000FC910680F781E02DB801C7010995080FF6
:101C2000111DF701E084F184EECFD8011C92F6017A
:101C300001900020E9F73197BF016C197D0940E060
:101C4000C601C1CF6EE174E102C062E274E16115C8
:101C5000710509F2FB01449150E080E840CF0FB6D6
:101C6000F894A8958091600088618093600010923C
:101C700060000FBEA895EE3F2AE0F20739F0809190
:101C8000FE0A9091FF0A91838083A1CF1092FF0AF0
:101C90001092FE0A9CCFEE3F8AE0F80731F0808177
:101CA00091819093FF0A8093FE0A87E797E79183DB
:101CB00080839BE088E10FB6F894A895809360003C
:101CC0000FBE9093600083CF6C960FB6F894DEBF82
:101CD0000FBECDBFDF91CF91FF91EF91BF91AF913B
:101CE0009F918F917F916F915F914F913F912F9134
:101CF0001F910F91FF90EF90DF90CF900F900FBE4C
:101D00000F901F9018958F929F92AF92BF92CF9293
:101D1000DF92EF92FF926B017C010E941E0B4B0140
:101D20005C01C114D104E104F104F1F00E941E0B26
:101D3000DC01CB0188199909AA09BB09883E9340A7
:101D4000A105B10570F321E0C21AD108E108F1083C
:101D500088EE880E83E0981EA11CB11CC114D1042A
:101D6000E104F10419F7DDCFFF90EF90DF90CF9001
:101D7000BF90AF909F908F900895BC0180E090E05D
:101D80000C94830E1F920F920FB60F9211242F9373
:101D90003F938F939F93AF93BF9380914601909110
:101DA0004701A0914801B09149013091450123E0DC
:101DB000230F2D3720F40196A11DB11D05C026E883
:101DC000230F0296A11DB11D20934501809346016A
:101DD00090934701A0934801B093490180914A0133
:101DE00090914B01A0914C01B0914D010196A11D24
:101DF000B11D80934A0190934B01A0934C01B09385
:101E00004D01BF91AF919F918F913F912F910F9075
:101E10000FBE0F901F9018951F920F920FB60F9242
:101E200011242F933F934F935F936F937F938F93DF
:101E30009F93AF93BF93EF93FF9380914101909154
:101E40004201A0914301B0914401892B8A2B8B2B35
:101E500081F18091400181110BC098B180E4892704
:101E600088B980913F01882319F088B1805888B9DA
:101E70008091410190914201A0914301B0914401B0
:101E8000181619061A061B06B4F4809141019091A8
:101E90004201A0914301B09144010197A109B10908
:101EA0008093410190934201A0934301B093440178
:101EB00002C00E94690BFF91EF91BF91AF919F917A
:101EC0008F917F916F915F914F913F912F910F90E3
:101ED0000FBE0F901F90189560387105D0F44034F4
:101EE0005105B8F4ECEAF0E080E1849FD001A078DD
:101EF0001124A60F4770E40FF11D8491AD58BE4F19
:101F0000222319F06C91862B03C080956C91862357
:101F10008C9308952F923F924F925F926F927F928F
:101F20008F929F92AF92BF92CF92DF92EF92FF92E9
:101F30000F931F93CF93DF93CDB7DEB729970FB6DB
:101F4000F894DEBF0FBECDBFFC016A3069F4248D6A
:101F5000808D918D38E0239F800D911D1124918FEC
:101F6000808F178A168AAAC06D3009F4A7C0998796
:101F70008887F48C338C228C608C718C068917894D
:101F800000381105C4F0A885B9855C962C915C9742
:101F9000422F50E056968D919C915797B6E02B9F1B
:101FA000800D911D1124E885F985978B868B258DF1
:101FB00021116EC083C0F0E46F16710424F7C801CC
:101FC00025E0F29E800D911D112418161906DCF6ED
:101FD0008F2D90E09C838B83C301A8E0FA9E800D37
:101FE000911D11241816190674F6B5E06B9FB00107
:101FF0001124FB01EC54FF4FFA83E98330E088851C
:10200000998504969E838D83E981FA81E490353029
:1020100009F4E12C430188E0482EE0FC02C0532C77
:1020200001C0522C51100BC0321009C0E6944A94E2
:102030008B819C81880E991E4110EFCF1BC06801D7
:102040008C2D801B8F1590F754018A2D88198F15C0
:1020500068F4252DA501B6018D819E813F830E94E4
:102060006C0F9FEFA91AB90A3F81EFCFAFEFCA1AE1
:10207000DA0AE6CF3F5FEB81FC810E0F1F1F8981DB
:102080009A8101969A838983363009F0BDCF7BCF40
:102090006AEF64039001659F300D112420583F4F73
:1020A000281739075CF4A885B985ED91FC91119743
:1020B0000190F081E02D6AE0CD01099581E090E08A
:1020C00029960FB6F894DEBF0FBECDBFDF91CF913A
:1020D0001F910F91FF90EF90DF90CF90BF90AF9046
:1020E0009F908F907F906F905F904F903F902F9038
:1020F0000895FC0180917201811103C08FEF9FEF61
:1021000008959FB7F89482E08093E9002091F2004F
:1021100030E01216130614F421E030E021153105E9
:1021200059F0289884E6809371018091F1008083B2
:102130008091F200882319F09FBFC90108958BE6B2
:102140008093E800F9CF2FB7F89483E08093E900FB
:102150009091E800892F807295FF04C09091F20061
:1021600080E4891B2FBF0895CF93DF931F92CDB7D3
:10217000DEB76983DC01ED91FC910280F381E02DF3
:1021800041E050E0BE016F5F7F4F09950F90DF91F6
:10219000CF91089583E08093E9008091F200882335
:1021A00019F08AE38093E80008950E94A31090E05C
:1021B0000895CF93DF931F92CDB7DEB7FC018485DE
:1021C000958597FD05C02FEF3FEF358724870BC01E
:1021D000CE0101960E947910019719F4898190E04F
:1021E00002C08FEF9FEF0F90DF91CF9108950F9373
:1021F0001F93CF93DF931F92CDB7DEB78C01FC0105
:102200008485958597FF0EC0CE0101960E947910B6
:10221000019719F4298130E002C02FEF3FEFF80158
:1022200035872487F801848595850F90DF91CF91BC
:102230001F910F910895FC018485958597FD0BC032
:102240009FB7F89482E08093E9008091F2009FBFED
:1022500090E0019608959FB7F89482E08093E9009A
:102260008091F2009FBF90E008958F929F92AF926D
:10227000BF92CF92DF92EF92FF920F931F93CF9373
:10228000DF935C016B017A0180910B01882309F4D3
:102290005BC080917201882309F456C0809170015F
:1022A00080FF05C08091E00082608093E000E7013C
:1022B00010E00AEF83E0882E9AE3992E2097D9F157
:1022C0000E94A31081110AC0015009F43DC061E0D1
:1022D00070E080E090E00E94830EF0CF282F30E085
:1022E000C217D3070CF48C2F4FB7F8948092E900F3
:1022F0009091E80095FF1DC0282F30E0C21BD30B42
:10230000F601982F915020F081918093F100FACF3F
:10231000C20ED31E112319F09092E80009C08091DB
:10232000E80085FD06C09092E80011E0209709F0D2
:1023300010E04FBFC3CF1111C3CF5D9884E68093E7
:1023400093051E141F0444F081E090E0F50193838F
:10235000828380E090E001C0C701DF91CF911F919F
:102360000F91FF90EF90DF90CF90BF90AF909F9034
:102370008F900895DF92EF92FF920F931F93CF9368
:10238000DF93F82E00E010E0DD24DA94D80EE02E82
:10239000C0E0D0E0C038D105F1F09C2F9E259C2BE9
:1023A00090FD17C041E050E081E08F1510F040E053
:1023B00050E0400F511F61E070E081E08D1510F496
:1023C00060E070E06C0F7D1F20E089E795E00E94DF
:1023D0006C0F2196DFCF0F5F1F4F00341105B9F648
:1023E000DF91CF911F910F91FF90EF90DF900895B3
:1023F000809173018EBDE4E7F1E081910DB407FE99
:10240000FDCF8EBD85E0E337F807B9F70DB407FEC1
:10241000FDCF08950F931F93CF93DF938C01C0E0FE
:10242000D0E0F801EC0FFD1F6491662371F0E0919C
:102430007505F09176050190F081E02D85E795E036
:102440000995892B11F02196ECCF42E050E069E329
:1024500071E085E795E00E94F30A8C0F9D1FDF91E4
:10246000CF911F910F9108952F923F924F925F92BB
:102470006F927F928F929F92AF92BF92CF92DF9294
:10248000EF92FF920F931F93CF93DF9300D000D072
:10249000CDB7DEB7E22EF12C9C012E0D3F1D37FD8E
:1024A00061C0803891050CF05DC010E09B01200FE9
:1024B000311F37FD57C0603471050CF053C03A012D
:1024C0002B011C01C70107969C0193E035952795C8
:1024D0009A95E1F73A832983A12CB12CC12CD12CF8
:1024E000C016D1060CF03EC01C821B824601840C33
:1024F000951CEB81FC81EE15FF0564F5EB81FC81F9
:1025000083E0F595E7958A95E1F7EA0DFB1DE60D69
:10251000F71DE491F0E08B819C818770992720E87A
:1025200030E002C0359527958A95E2F7E223F32340
:10253000EF2B51F021E0A4016B817C81620D731DB2
:1025400089E795E00E946C0F8B819C8101969C83AA
:102550008B83CFCFFFEFCF1ADF0A29813A81A20EFA
:10256000B31EBECF0F900F900F900F90DF91CF91C1
:102570001F910F91FF90EF90DF90CF90BF90AF90A1
:102580009F908F907F906F905F904F903F902F9093
:1025900008958091980581110DC082E08093940583
:1025A00084E080939505109297051092960581E03E
:1025B0008093980584E995E008951F920F920FB6D5
:1025C0000F9211248F939F938091E1009091E100ED
:1025D000937F9093E10083FF0FC01092E90091E098
:1025E0009093EB001092EC0092E39093ED00109228
:1025F000720198E09093F00082FF20C093E09093E6
:10260000E9009091F200992319F09AE39093E80081
:1026100090919305992339F090919305915090935F
:102620009305992389F190917101992339F0909143
:102630007101915090937101992341F184FF10C071
:102640008091E2008E7E81608093E2008091E100C3
:102650008F7E8093E100809170018E7E806111C039
:1026600080FF16C08091E2008E7E80618093E20040
:102670008091E1008E7E8093E100809170018E7EDA
:1026800081608093700104C05D9ACDCF289AD6CF27
:102690009F918F910F900FBE0F901F901895CF9321
:1026A000DF9300D000D01F92CDB7DEB7789484B509
:1026B000826084BD84B5816084BD85B5826085BD3E
:1026C00085B5816085BD80916E00816080936E00CC
:1026D00010928100809181008260809381008091BE
:1026E000810081608093810080918000816080936F
:1026F0008000809191008260809391008091910090
:10270000816080939100809190008160809390001F
:102710008091C10084608093C1008091C10082607B
:102720008093C1008091C10081608093C10080913D
:10273000C30081608093C3008091C0008260809359
:10274000C0008091C20081608093C20080917A00B5
:10275000846080937A0080917A00826080937A000E
:1027600080917A00816080937A0080917A008068FD
:1027700080937A001092720110926F011092700192
:102780008091D70081608093D70080EA8093D80041
:1027900089B5806189BD89B5826089BD09B400FEB3
:1027A000FDCF61E070E080E090E00E94830E8091B8
:1027B000D8008F7C80618093D8008091E000807F7A
:1027C0008093E0008091E1008E7E8093E1008DE0B7
:1027D0008093E200559A209AEEEFFFE7859194915D
:1027E0008B3F9C4D19F481E080936E0181EC8093C6
:1027F0007C0085B1806F85B9249884B1866E84B9D8
:102800005E9A5F988AB1806D8AB9769A6E9881B324
:10281000806F81BB899880B38D7080BB80E58CBD53
:1028200081E08DBD85E090E00E94BD0E5F9A85E05D
:1028300090E00E94BD0E5E985C98E4EBF5E08DE0C0
:102840008E0F94919EBD00000DB407FEFDCF319612
:102850008E13F7CF5C9A81E88093640081E08093C7
:10286000650010928F05809390055C9886EA8EBD76
:1028700000000DB407FEFDCF5C9A3E9A3F9A91E0AE
:1028800090934E01809171008D7F809371009093A1
:10289000690181EC95E090936801809367019093C2
:1028A0006601809365010E94690BE0E14E2E512C78
:1028B000FCE06F2E712CAA24A394B12C80E0E3E7F6
:1028C000F1E081118FEF00248193819381938193B3
:1028D0000394D1F710928E0510928D0510928C05FD
:1028E00010928B050E94430B68377C40810591054F
:1028F000D8F00E94430B6031774281059105A0F426
:102900000E94430B009151011091520120915301FB
:10291000309154010C591F4F2F4F3F4F60177107D3
:102920008207930708F0A0C10E94430B6A3E7142E0
:102930008105910508F0BBC0E0904F01F090500177
:1029400089E290E08E199F0997FF27C070928C054D
:1029500060928B058EE290E08E199F0990938E0510
:1029600080938D0580E491E10E940A1280914F01CD
:102970009091500169E370E0681B790BEAE2F0E0A6
:10298000F0938C05E0938B0570938E0560938D0515
:102990008AE391E10E940A128AC0A2014E195F09DE
:1029A000403451059CF69A0157FF04C02227332773
:1029B000241B350B27703327CA0157FD079663E0A8
:1029C000959587956A95E1F757FF06C0019748E00E
:1029D00050E0421B530B9A018C011695102F0027D3
:1029E0001795079540E050E068E070E0621B730BBC
:1029F0007D836C83F801E058FF4F4F018F3FFFEF5D
:102A00009F076CF40196465A5F4F8401483661E097
:102A1000560709F49BCF8830910561F797CFD8010D
:102A2000AD5FBD4F60E070E08F3FEFEF9E0709F4B0
:102A30007DC1FB01E40FF51FEE5AFE4EE4916D01DE
:102A4000C818D908C00ED11E2E2E312CF101022E2D
:102A500002C0EE0FFF1F0A94E2F7FB83EA83F60140
:102A60002080EA81FB81E229FB83EA833A80F60138
:102A700030822115310599F08730910581F0FB01F5
:102A8000E40FF51FEE5AFE4EE491F0E00C8002C018
:102A9000F595E7950A94E2F7DC90ED29EC936F5FEA
:102AA0007F4F11966A35710509F0BECFABCF0E94FA
:102AB000430B6B3E71428105910540F00E94430B30
:102AC000663978438105910508F4E2C00E94430B02
:102AD0006B3E71428105910540F00E94430B6F39B6
:102AE0007A428105910508F4DEC00E94430B6B3EDB
:102AF00071428105910540F00E94430B67377D428A
:102B00008105910508F4D3C00E94430B61157144FF
:102B10008105910540F00E94430B663E7E4581058C
:102B2000910508F4C8C00E94430B683F77448105B3
:102B3000910540F00E94430B663E7E45810591055C
:102B400008F4CBC00E94430B6A347345810591059C
:102B500040F00E94430B663E7E458105910508F4D6
:102B6000CBC00E94430B683E7E458105910540F035
:102B70000E94430B64307D488105910508F4CBC069
:102B80000E94430B693B7E488105910550F009E3A3
:102B900028E244ED57E063E070E088E590E00E94B1
:102BA00034120E94430B6C397A4A8105910560F01A
:102BB00010928C0510928B05B0928E05A0928D0517
:102BC00089EB97E00E940A120E94430B6337714B16
:102BD0008105910570F010928C0510928B0588E1AB
:102BE00090E090938E0580938D0584EA97E00E9493
:102BF0000A120E94430B6930794B8105910570F0F0
:102C000010928C0510928B0580E390E090938E05D6
:102C100080938D0583E997E00E940A120E94F811C3
:102C20000E94430B61367A4E81059105A8F0809190
:102C300071008D7F8093710081E0809369018AEB40
:102C400092E190936801809367019093660180936D
:102C500065010E94690BFFCF80E090E0892B09F4A9
:102C60002DCE0E94000027CE0E94430B609351019D
:102C700070935201809353019093540180914F01BE
:102C80009091500101969093500180934F014CCE4A
:102C900000E420E84AE35DE060E070E080E090E07E
:102CA0000E94341213CF80E00E94BA111ECF81E03F
:102CB0000E94BA1129CF81E080938F051092900570
:102CC00010928C0510928B05B0928E05A0928D0506
:102CD00085E19DE00E940A1226CF10928C05109289
:102CE0008B0588E190E090938E0580938D0583E0BD
:102CF0009DE00E940A1226CF10928C0510928B053F
:102D000088E290E090938E0580938D0581EF9CE0A2
:102D10000E940A1226CF00E420E841EF58E060E06C
:102D200070E080E090E00E9434122ACF2115310536
:102D300009F0A5CEB4CE0F931F93CF93DF938C01F0
:102D400081E090E00E94241780FF31C08AE090E08B
:102D50000E9424179FEF980F9E3F48F522E330E032
:102D6000D80157963C932E93569728E330E0599616
:102D70003C932E935897CBE0D0E0D801ED91FC9195
:102D80000190F081E02D682FC8010995CE010E94C5
:102D900024172196C131D10581F70E94F81188EEE0
:102DA00093E0DF91CF911F910F910C94BD0EDF91B5
:102DB000CF911F910F91089504970C949B16E0EA10
:102DC000F5E01382128288EE93E0A0E0B0E0848305
:102DD0009583A683B78387E191E0918380838FEF0A
:102DE0009FEF95878487E5E7F5E0138212821186CD
:102DF000128620E1238790878783108A118A128A9E
:102E0000138A148A89E291E09183808387E391E0B9
:102E100095838483178A168A118E108E81E0828FA3
:102E2000138E848F158E87E19CE0909374058093B8
:102E3000730580E090E89093FD058093FC0546982B
:102E40003E9A47983F9A0895F999FECF92BD81BD69
:102E5000F89A992780B50895052E97FB1EF40094E3
:102E60000E94431757FD07D00E944B1707FC03D061
:102E70004EF40C94431750954095309521953F4F53
:102E80004F4F5F4F089590958095709561957F4F56
:102E90008F4F9F4F0895A1E21A2EAA1BBB1BFD0165
:102EA0000DC0AA1FBB1FEE1FFF1FA217B307E40729
:102EB000F50720F0A21BB30BE40BF50B661F771F81
:102EC000881F991F1A9469F7609570958095909561
:102ED0009B01AC01BD01CF010895A29FB001B39F3A
:102EE000C001A39F700D811D1124911DB29F700D13
:102EF000811D1124911D0895EE0FFF1F0590F4917F
:102F0000E02D099481E090E0F8940C948717F894F0
:022F1000FFCFF1
:102F1200FFFFFFFF00E100000000000000C1808110
:102F220000000000000000B4103511D510CA101BBB
:102F320011D910F710000000008A0FF30A1C0C1BB5
:0C2F42000C9B16FCFF0000DC160D0A00C2
:00000001FF
