:100000000C94C2180C94EA180C94EA180C94EA1890
:100010000C94EA180C94EA180C94EA180C94EA1858
:100020000C94EA180C94EA180C943E260C94B02612
:100030000C94EA180C94EA180C94EA180C94EA1838
:100040000C94EA180C94EA180C94EA180C94EA1828
:100050000C94EA180C94EA180C94EA180C94152ADB
:100060000C94EA180C94EA180C94EA180C94EA1808
:100070000C94EA180C94EA180C94EA180C94EA18F8
:100080000C94EA180C94EA180C94EA180C94EA18E8
:100090000C94EA180C94EA180C94EA180C94EA18D8
:1000A0000C94EA180C94EA180C94EA1877617465B9
:1000B000720A0077696E650A00F2161709EE944E0F
:1000C00025497427732074696D6520746F20676FEC
:1000D00020686F6D65004E6F20576164696E670A16
:1000E0000044616E6765722C206B656570206177D6
:1000F00061790A0044616E6765726F757320686F7D
:100100007573650A006C6F636B65640A0049276D3F
:10011000206E6F7420676F696E6720746865726502
:100120000A00486F7720746F2070726576656E7470
:1001300020736F6D6520676F7665726E6D656E7486
:1001400020776F726B6572732066726F6D20636FBC
:100150006D6D697474696E67206D6173732073755A
:100160006963696465207769746820746865697279
:100170002066616D696C79206D656D626572730AC8
:100180000055736520756E737461626C65207061D3
:10019000727469636C657320746F20726564756333
:1001A0006520706F70756C6174696F6E2070726518
:1001B00073737572650A005768617420646F2079E3
:1001C0006F75207468696E6B206F66206D61737344
:1001D00020737569636964650A00416476616E63C2
:1001E0006564206578616D696E6174696F6E2072F7
:1001F00065666F726D20646F63756D656E740A005D
:10020000546865206275696C64696E67206D6179F8
:100210002068617665206265656E206120666F7278
:100220006D657220676F7665726E6D656E74206F96
:1002300066666963650A005468697320697320748F
:100240006865206F75746C696E65206F662061202B
:100250006D656574696E670A00536C75673F0A00C7
:100260005261696E20776F726C640A00476574741E
:10027000696E67206F7574206F66207468652077DB
:100280006F726C642069732074686520736F6C757D
:1002900074696F6E2C20616E642074686520676FCE
:1002A0007665726E6D656E7420697320686F6C641C
:1002B000696E672061207265666572656E64756D32
:1002C0000A0053686F756C642077652067697665EE
:1002D0002075702074686520776F726C643F0A0027
:1002E00054686520776F726C642773207265736F32
:1002F0007572636573206172652066696E697465E5
:100300000A00412066616D696C79206F662074680F
:100310007265652077686F206C6F6F6B6564206C09
:10032000696B65206D652077657265206861766907
:100330006E672061207069636E69630A0046616DB3
:10034000696C792070686F746F730A004E657773FB
:1003500070617065722064656361790A0054686534
:1003600020636F756E747279206F70656E7320698B
:10037000747320636F727269646F727320746F207C
:10038000746865206D61737365730A004E657773D9
:100390007061706572210A0046696E616C6C79202B
:1003A00065766572796F6E65206C6566740A0054B7
:1003B0006865207365636F6E642068616C66206990
:1003C000732061626F75742074686520677265615F
:1003D00074206E61747572650A00546865206669E0
:1003E0007273742068616C662064657363726962FD
:1003F00065732074686520686172647368697073DE
:10040000206F66207072696D6974697665206C6909
:1004100066650A004974206973207772697474658F
:100420006E20696E20686965726F676C79706869A3
:1004300063730A0054686973206973206120706FC8
:10044000656D0A0049662074686572652072656191
:100450006C6C79206973206E6F206F6E652C206D37
:10046000617962652077652063616E20676574201D
:10047000736F6D6520736C6565700A00496E6C6101
:100480006964207370656C6C73206D616B652069A5
:100490007420666972650A00492776652073656570
:1004A0006E20697420736F6D65776865726520656D
:1004B0006C73652E0A00546869732069732061208B
:1004C0007370656369616C2073746F76652E0A00C2
:1004D00054686973206973206E6F7420616E206F99
:1004E0007264696E61727920666C616D652E0A00B6
:1004F000507572706C6520666C616D650A00446FA2
:100500006E277420676F2061686561642E0A00544D
:10051000686572652773206E6F2077617920616846
:100520006561642E200A00497427732061206C7570
:10053000787572696F7573206275696C64696E672E
:100540002077697468206F70656E20646F6F7273B6
:100550002E0A00497427732061206D61676E6966F9
:100560006963656E742074776F2D73746F72792070
:100570006275696C64696E672C20616E64207468B2
:100580006520646F6F727320617265206F70656E95
:100590000A00492063616E27742077616C6B2061CB
:1005A0006E7920667572746865720A004A75737494
:1005B0002074686520726F636B206F6E20746865AD
:1005C000207765737420736964650A0046696E64F8
:1005D000206120706C61636520746F207265737494
:1005E0000A0049276D2074697265642E200A004C48
:1005F0006561766520746865206379636C65206F3A
:10060000660A00427265616B2074686520626C6FD7
:10061000636B61646520776974680A0042757420B1
:100620007468652070726F7068657420666F756E8F
:1006300064206120736F6C7574696F6E0A00596F66
:10064000752063616E277420657363617065206235
:1006500065636175736520697427732070617274B6
:10066000206F662074686520776F726C640A004D95
:10067000616B696E6720667574696C652065666676
:100680006F7274730A00596F75276C6C2062652055
:10069000666F7263656420746F2077616B65207587
:1006A0007020616761696E20776865746865722083
:1006B000796F752077616E7420746F206F72206E71
:1006C0006F740A00427574206974206769766573D7
:1006D000207573206120776179206F75740A00415D
:1006E0006C74686F756768207468652070726F70CD
:1006F000686574206C656674207468697320776F10
:10070000726C640A005768656E2074686520616CBD
:1007100074617220776173206163746976617465B6
:10072000642062757420646964206E6F742068654B
:1007300073697461746520746F206A756D702069C7
:100740006E0A005468657265206973206120666CCA
:100750006F776572206F6E2069740A0049206669A0
:100760006E616C6C7920676F74206F75740A004934
:10077000742077617320612064616E6765726F75A4
:100780007320706C6163652E204974206C6F6F6BF1
:100790006564206C696B652E2E2E63726173680A26
:1007A0000049742773207265616C6C7920756E73D3
:1007B0007461626C652068657265210A0054686521
:1007C0002066726F6E74207761732E2E2E0A0000E1
:1007D000FF0A142850FF000000FF42242442003C7E
:1007E00042898D81A1423C000C10113C52423C00D8
:1007F00018087D484878001028285444FF02020059
:1008000070080E3040300E0022223E02023E0000F0
:10081000201E1014100000FF90909090908000FF18
:1008200091929498908000FF919191F191919FFF06
:100830009191919191919FFF818181818181FFFFB0
:10084000111111818181FFC2340C02818EB0C0C2AE
:10085000B48C82818EB0C040414244485060404DCB
:100860004D4C4C4D4C4B57505F80BF8042F8FFF2CF
:10087000F5F2F5F5FBF6F2FD83315C639CFFFFF8C2
:10088000FAFAFA063296F41EEC01D7CF1F1FFFBF0B
:100890003FBF9F2074C037C73EC8DC027FFFFFFF09
:1008A000F84280BF805F50574B4C4D4C4C4D4DFF34
:1008B000FF9C635C3183FDF2F6FBF5F5F2F5F2FF88
:1008C0001F1FCFD701EC1EF4963206FAFAFAF8FF92
:1008D000FF7F02DCC83EC337C074209FBF3FBFFD0F
:1008E000FCF7F7FFFEFCFDFCFEFF03F8FFFF007FB7
:1008F0007F7F7F7F7F7F7F7F7F7F704F3F1F008E57
:100900003EFEFEFEFEFE3EC6FAFAFAF60EFE002F90
:10091000DE38FB7B1B0D2EDF1FFFFF07F8FF0000FB
:10092000FEE0CE9EBFBFBEB9336F6F00FFFEFC007E
:100930007F7F7F7F7F7F7F7F7F7F007E7F7F7F00C6
:10094000FEC2F6FEE2DEE6DEE2FEFE3E8EF6F600D9
:10095000BF3FFF33EFDF03DFE7FFFF00FF1F0F7F26
:100960007F7FFF01FE0A6A0A5ABE519B03FF7FFD8B
:10097000FDFDFDFDFCFCFCFCFCFCFCFCFDFDFD7F2D
:100980007F675B3BEDBDD5DB671FFF7F7F7F7FFD13
:10099000FDFDFDFDFCFDFCFCFDFDFDFDFDFDFDBFC8
:1009A000DFEFFEFF7B996FE7DBBB75FF00FFFFFD0D
:1009B000FDFDFDFDFDFDFDFDFDF9E5CCDCD0C1DB60
:1009C000BB7BFBFBEB9B6B7BBBDBEBF303070FFF03
:1009D000FF1FEFFBF3FFFFFEFDFDFAFF00FAF8FF3C
:1009E000FFFF00FF75BBDBE76F997BFEEFDFBFFF0B
:1009F000FFFFF8F0EDDDD9D1C1C5FDFDFDFDFDFF27
:100A0000FFFF03F3EBDBBB7B6B9BEBFB7BBBDBFFFA
:100A1000FFFF00FFFAFDFDFEFFF3FBEF1FFFFFFFEF
:100A2000FFFFFF43BD5A66665ABD837FFFFFFFFF8E
:100A3000FFFFFFFCFFFFF8FFFFFFFFFCFFFFFF9B37
:100A40002B4BBBFBFBFBFBFBFB03FFFFFFFFFFD6BF
:100A5000D9DFDFDFDFDF1F5F1FC0FFFFFFFFFFFF0B
:100A6000FFFFFFFF03FBFBFBFBFB8B6B2B9B7BFF6A
:100A7000FFFFFFFFC01F5F1FDFDFDFDFD9D6D5031A
:100A8000FD3535B5B5B535FDB5BD75FD03EF1F8039
:100A90007F40505C445C407F6B6B4F5B5A7F80FFB4
:100AA0007F3F5F6F777B75757B776F5F3F7FFF80E1
:100AB0007B47174378126D6D12744F27536F800078
:100AC000E11EFFEFD7EFFFFFEFFF000000FFFFF099
:100AD000EBE2F8F8F8F8F8F8F8F8F8F8F4EBE701D2
:100AE000FD01B9B9B9B9B9B9B9B901FD01F5F30059
:100AF000FF02FAFAB6D6F6F6FAF2060F00FFFFFF8B
:100B00007F3F5F6F777B75757B776F5F3F7FFF8080
:100B10007F5B5B5B5B5B7B7B7B7B7F7F7F7F807FA8
:100B20009BE5C9D5ADB9BDBDBDBDDDDDE58B7FF8AC
:100B3000C50B172F1F3F1F3F7F7F7F7F3FC7F800E9
:100B4000FEFEE6D2CACACAC2C2C2E2E6FEFE000089
:100B50007F47132D0505590D21250D1B477F0000EB
:100B6000FEFEE6D2CACACAC2C2C2E2E6FEFE000069
:100B70007F473B25014D1D15354D1D2B477F00EB54
:100B8000ABAB6BEBEBEBEBEBEBEBEB6BABABEBFFA1
:100B9000BFB3B7BEBDDBE7E7DBBDBEB7B3BFFF008A
:100BA000AADDDDAA775577EEAAEE55BBBB5500004E
:100BB000AADDDDAA775577EEAAEE55BBBB55000737
:100BC000FBFD6EFE6EFE00FE6EFE6EFDFB07FF007F
:100BD0003F7F5B7F5B7F007F5B7F5B7F3F00FFFF33
:100BE000FFFFFFFFFF00EEEEEEEEE1FFFFFFFF076E
:100BF000EBEDEEE0EE0EEEEEEEE0EE0EEDEB070FBF
:100C0000707E7077007E7077707E0077707E7000E7
:100C10007777777077077777777077770777777F4A
:100C20007F7F7F7F7F7F7F7F7F7F7F7F7F7F7FFD56
:100C3000FDFDFDFDFDFDFDFDFDFDFDFDFDFDFDFAE7
:100C4000FAFAFAFAFA00FEFE00FFFFFFFFFFFFFFCD
:100C5000FFFFFFFFFF00FFFF00FFFFFFFFFFFFFFA2
:100C6000FFFFFFFFFF00FEFE00FAFAFAFAFAFAFFB2
:100C7000FFFFFFFFFF00FFFF00FFFFFFFFFFFF7F02
:100C80007F7F7F7F7F7F7F7F7F7F7F7F7F7F7FFDF6
:100C9000FDFDFDFDFD01FDFD01FDFDFDFDFDFDFA7F
:100CA000FAFAFAFA3ADAEAE2EADA3AFAFAFAFAFF97
:100CB000FFFFFFF9F4F6F4F4F6F6F4F9FFFFFFFF97
:100CC00000FFFB1D0DC7E7E7F7ED1DFBFF00FFFF72
:100CD00000FF95B6ECF8F9F9F9ECB695FF00FFFFC7
:100CE0001FEFD7F7F7B7D7B7B7F7F7D7EF1FFFFF64
:100CF000007FDEECDAFFECE9FADFEAFD7F00FF5966
:100D0000C6D61431C3EBE92CAD4C65630BD81BB0D0
:100D10000E6671228C3E3C4C31EB07B3B88D30002F
:100D200000008FCFCF4F6F2F77173BCBDDDD010258
:100D3000F7F1F100FDFC00FFFFFF00DF0FEF00FF08
:100D4000FFFF1F5F0F6F07D7C3DB01F57076000150
:100D50007D7D002F0737006B616D607A787B00071F
:100D6000F31B5BF39B739BF3DB13FBD31BD307F0EA
:100D7000E7ECE5EFE4EFE4EFE5ECE5EFECE7F03F7F
:100D8000DFEFEFDF332D1E1E2D33DFEFEFDF3FFFF1
:100D9000FEFDFDFEFF0FE0E00FFFFEFDFDFEFF3854
:100DA000FBBB5BDB4B5B5BBBFBBBBBBBBBBBBB3806
:100DB000BBBBBCB9A2A9BCBBBBBBBBBBBBBBBBFE6B
:100DC0007DBDDBC7BF7FFFFE7DBDDBC7BF7FFFFEF5
:100DD0007DBDDBC7BF7FFEFE7DBDDBC7BF7FFEFFE6
:100DE000FFFFFFFFFF00FFFF00FFFFFFFFFFFFFF11
:100DF000FFFFFFFFFF00FFFF00FFFFFFFFFFFFFF01
:100E000007FBFDFDFDFD01FDFDFDFDFDFB07FFFFFA
:100E1000E0DEBEBEBEBE80BEBEBEBEBEDEE0FF83A6
:100E2000BBBBBBBBBBBB38BBBBBBBBBBBBBBBB83CD
:100E3000BBBBBBBBBBBB38BBBBBBBBBBBBBBBBFF41
:100E400001FEFEE6CAC2CAC2CAC2E67EFE01FFFFBA
:100E5000807F7F7F7F7F7F7F7F7F7F7E7F80FFFFA1
:100E6000122512FF122512FF122512FF122512FF62
:100E7000E102E1FFE102E1FFE102E1FFE102E1FF66
:100E8000FFFF5F3F5FAB891389AB7FBFBF7FBFFFB2
:100E9000FFFFFFFEFDEAD081D0EAFBFBFCFFFF77FE
:100EA000B3CDEE773BDDEC73BADDCE373BDCEE75D0
:100EB000BBDDCE37BBDCEE77B3CDEE773BDCEEDFD0
:100EC0004E9F6F6F6FAFCF6FEFDFBB7FFFBFFFFF37
:100ED000601EBF3B9CB1AFBFBBB3BDDEA997FFFF98
:100EE000FEFFEFE7FFFFFFFFFFFFFBFFBFFFFFFF7F
:100EF0007F7FFBF7FBFFFFFFFFB7F7FFFBFFFFC4A1
:100F00004366D41C040C1453705C870C0888FC3BAB
:100F100084484849494DA7140C74C4C7C5C8B8E3F0
:100F20002624749C848C9350705C870C0888FCB5D4
:100F30004A4444444446A31C3444C2C5C9B88455F9
:100F400088552255885522AAFFAAFFAAFFAAFFAA00
:100F5000FFAAFFAAFFAAFF558855225588552202ED
:100F60000203030101000003030303020202020360
:100F7000030202000000010303020200000101005D
:100F80000001010101000001000101000003030351
:100F90000302020303020203030202000001010133
:100FA0000000000200030100010001020002000035
:100FB0000000000000010102000201000100010226
:100FC000010001000100010301030302020001000E
:100FD0000100010001000100010001000001010306
:100FE00003020200000101030100010001030302EA
:100FF00002010100000000010103000300000100E4
:1010000001030302020303020203030303030302B7
:1010100002010100000303020201010000FF00FFC2
:10102000010001FF00FF01FF01FF01FF01FF00FFC1
:1010300001FF01FF00FF00FF01FF00FF03FF0000B1
:1010400000010103FF03FF00000201FF0009080087
:10105000080900080C000C08000C0D000C0D000D18
:101060000C000D0C000D0E000E0D000E01020E0EF8
:10107000000E0F000F0E000F0B000B0F000B0700F0
:10108000070B00070B000B0700070002070B000B04
:101090000001060700060700070600090A000A0902
:1010A000000A0B000B0A000A0600060A000B0101E9
:1010B0000F01020C01020F02010F03010F04010CCA
:1010C00006010C07010808010809010810001008B2
:1010D00000100102101000100A01100B01100C0189
:1010E000100D01100E01100F011010011011001150
:1010F0001000111101111201111301111401111528
:10110000011116011117010804000408000405006C
:10111000050400040000000400041801041901047F
:10112000190105060006050005090009050005125C
:1011300000120500120002120102001A01001B0138
:101140000001000100000001000100000113001374
:101150000100010200020100020600060200020373
:1011600000030200030700070300030102071B013D
:10117000031C01071D0113F500F5F600F6F700F753
:10118000F800F8F900F9FA00FAFB00FBFC00FCFD9E
:1011900000FDFE00FEFF00FF14000B01020614001C
:1011A000140600121E01121F010A0B000B0B000B8C
:1011B000090214141414141414141414141414140C
:1011C0001414141414141414141408080504011429
:1011D0001414141414141405050508080801040453
:1011E0000114141414141402020808080814141426
:1011F0000401141414140505020804080808141442
:10120000141414141414050801010404080514141A
:10121000141414141405080115010401141405060E
:10122000060614141408080116060606060606012A
:1012300014141414140801010606010F01141414E7
:1012400014141414140804040601010C01011414EC
:1012500014141414140804050604011401010114E3
:1012600014141414080804010604010101010D01FD
:10127000142614080808010606010B010A210A2198
:101280000D0114080808040601010D210D090A01C9
:101290000A011408080104060606060606060121CE
:1012A0000101140801040406010101010101010109
:1012B0000101141414141414141414141414141414
:1012C00014141404141414141414141414141414EE
:1012D0001414140101011414141414141414141407
:1012E0001414040106060613141414141405050539
:1012F0001414141414141414140101050105050523
:1013000004011404010404040101040101010404A2
:10131000040106060605050606050506060206067C
:1013200006061414140514141414141402020207EB
:101330000707141414020202020202140202141417
:1013400014141414140202020202021414141414C9
:101350000202141400141402020214020202020215
:1013600002021414020202141414140202020202F1
:101370000202373937393739373937393739373959
:101380003739383A383A383A383A383A383A383ACF
:10139000383A3739373937393739373937393739CB
:1013A0003739383A383A383A383A383A383A383AAF
:1013B000383A1414141414141414141414141414A3
:1013C00014141414141414141414141414141414DD
:1013D00014141414141414141414070714141414E7
:1013E0001414141414141402020202070114140534
:1013F0000514051414140202050107010701010177
:1014000005140505050101010101010101010501A5
:101410000114060606060606060606060606060663
:1014200006061E1E1E1E061E1E1E1E060808080894
:1014300014141D1D1D1D061D1D1D1D060807040875
:1014400014140A0B0B0A060A0B0B0A060804070100
:1014500008140A0A0A0A060A0A0A0A0608080107FC
:1014600008140A0E090E060A0E090E0606060804DE
:10147000080801010604060404060404040606081C
:10148000010801010606060606060606010406080E
:1014900008080704070107010701070107010608FB
:1014A0000101010701070107010701070107060103
:1014B0000101141414141414141414141414140224
:1014C0000202141414141414141414141401020237
:1014D000020214141414141414141414010101023B
:1014E000020208141414080814140101150107015C
:1014F0000202080808080808080101011601010194
:1015000002020804040404010101010101010101B6
:10151000141406060606060606060101010101145A
:10152000141408080808080104060604040101014F
:101530001414080808080504080806040501010138
:101540000114080808040808080806060401010137
:10155000141408080804080808080806050501010D
:101560000114081504080808080808060104040105
:101570000114141B04041B1B1B1B1406060401018D
:1015800001140704071A070407040C0806040101E4
:10159000011404040404040404070C0806010101F6
:1015A000141407040704070407041408060114149C
:1015B0001414140808040406240D0407010701216B
:1015C0002121140101080406240407040D04070A5C
:1015D0000A0A1420020104060F2121212121010AF7
:1015E0000A0A0220020214060C0A0A0A0A0A070A58
:1015F000090A022002020C06140A0A0A0B0A010157
:101600000601022002020C06040A090A0A0A01065F
:101610000601022002020C06040706080808070655
:101620000401022002010C060606060F0808070442
:101630000F010220020114010606010C0108070433
:101640000C01022002010101040601140106060634
:10165000060602200202010405060606060601012E
:10166000010102010101040808050806011D1B1BF8
:101670001B1D0101040404080808050601191C1CAF
:101680001C0C08080505050805080806012E1C1C89
:101690001C0C0808080808080808050601191C1C85
:1016A0001C0C08080808080808080506011D1B1B73
:1016B0001B1D1414141414141414141414141414DA
:1016C0001414142121211414141414141424242483
:1016D0001414140A0A0A1414141414010101010147
:1016E0000114140A090A14141414141D1E1D1E1DBD
:1016F0000101142D040414141414140A0A0A0A0A09
:1017000001011404040621211414140A0A0B0A0A04
:101710000101212121060A0A1414140A0A0A0A0ADC
:1017200001010A0A0A060A0A070C072121212121C0
:1017300001010A090A060A0A070C010A0A0A0A0A2A
:101740000101060606060A0A070C010A0B0A0A0A24
:1017500001010104040606060714010A0A090A0A1F
:1017600001010121212121060606010701060701C9
:101770000606040A0A0A0A240606060601060107E6
:101780000608040A0A0B0A240607010606060701D2
:101790000608040A090A0A06062D2B2C2D06060641
:1017A00006080104060606010701070107010706EE
:1017B00008080808040404040404040404040608D3
:1017C0000808040404011E011E011E01040406068B
:1017D0000808040101011D1D1D1D1D010101010657
:1017E0000808041E011E0A0A0A0A0A1E011E010434
:1017F0000108041D1D1D1D1D1D1D1D1D1D1D040495
:101800000401040A0A0A0A0A0A0A0A0A0A0A040F4E
:10181000040F040A0E0B0E0A0A0A0E0B0E0A040C21
:10182000040C040A0A0A0A0F1F0F0A0A0A0A04060D
:10183000060604040404070C200C07040404040630
:10184000060604040F04040720070404040F04061A
:10185000060804040C04070420040704040C04060E
:101860000608060606060606060606060606060616
:10187000060808080806060F06060F06060F0606E5
:101880000F0808050406080C01010C01010C0101F8
:101890000C080808040608010808010101010101FB
:1018A00008080808080608080808080808080808BA
:1018B00008080407040704070407040706050808C6
:1018C000141407040704070407040606060808059D
:1018D0000814040704070406060606150805010196
:1018E00001140704070407060101010101050101B4
:1018F0001414040704071506010F01020202020274
:101900001C1C0F040F060606010C02020202020252
:10191000021C0C070C0608011402020202021C023F
:101920001C0206060606060F0C02020202151C1C0B
:1019300015020F060F06060C0C020202021C181CF0
:1019400016140C080C06061414020201040C1C01E7
:101950000C1C0808060606010C0202040415041CEF
:101960001C14080F0606060F0C02020201161C18B2
:101970001614080C0606060C1402020201010104EA
:10198000181C0808060606010C020202021C0104CB
:10199000151408080F0606010C02020202020204D6
:1019A000161408080C0606011402020202020206BE
:1019B000161408080808080808080806080808088F
:1019C00004040804040404080808080608080808B1
:1019D0000808040808080808080408060808080495
:1019E00008080401010101040404080608080404AD
:1019F0000808010A0D0D0D0D0D0A08060808060855
:101A00000808010A0D0D0D0D0D0A08060808060844
:101A10000808040C0A0A0A0A0A0C0806080804083E
:101A20000808040C0A0B0A0B0A0C0406080806082E
:101A30000808040C0A0A090A0A0C0406080D040422
:101A4000080804040407060704040506080804043B
:101A50000808080401040606060606060808060823
:101A6000080808080801010101010806080806081D
:101A700008080808080808080104080608080606F7
:101A800006060808080404040408010606060608F9
:101A900008080808040408040408010608080808DF
:101AA00004080808080808080808010608040404CF
:101AB00004080808040808080808080808010106BE
:101AC00004010804080408080808040408080106BA
:101AD00001040808010101010101010104040806D3
:101AE000042108080A0A0A0A0A0A0A0A040F010657
:101AF000040A08040A0D0D0D0D0D0D0A040C010653
:101B0000040A08080A0D0D0D0D0D0D0A0504010645
:101B1000040A08040A0A0A0A0A0A0A0A0905010646
:101B2000040408080C0A0B0A0A0B0A0C0605010635
:101B3000060608080C0A0A0A0A0A0A0C0501010628
:101B4000050F08080C0A0A090E0A0A0C0501060608
:101B5000010C08040C0A0A06040F0101060606011E
:101B6000010108040C0A0A06040C01060601010220
:101B7000020206060606060606060606010202021E
:101B8000020201050404010404040101020202022C
:101B9000020201010401010407040202020202021E
:101BA0000101010202020202020202020202010417
:101BB0000401080808060808080808040A0A0A0AAE
:101BC0000A0A080804062121212107080A0B0E0A27
:101BD0000B0E21210F060A0A0A0A010F0A0A0A0936
:101BE000090A0B0A0C060A0B0B0A171A0606060648
:101BF00006060A0E04060A0A0A0A240C062424040D
:101C00000707090A04060A090A0A010C0606240144
:101C100005050606060606062121212121062401C6
:101C200002052121212121060A0A0A0A0A060601C3
:101C300002050A17170B0A040A0B0A0A0A060124EE
:101C400002140A11110A0A040A0A0A090A060F07ED
:101C500002020606060606040406060601010C0238
:101C60000202070101070101020202020220020230
:101C7000020202020202020202020505022002051D
:101C80000202020205050505050202020220020207
:101C900002020505010101150205050505200508DB
:101CA00008080808080808040404010401060705D8
:101CB00008080801010106010102020202020206EF
:101CC00016140106060606080402020202020104B6
:101CD0001614080614080804020202020104040192
:101CE000021407060508020202020201181B18026C
:101CF0000514080614070202020202020514141455
:101D00001414010601070202020202071413061549
:101D1000071408060F08020202020205050606065D
:101D2000071406060C050202020214071405050436
:101D30000714080414010502020214051414140502
:101D4000051402010104010202021414140D1414FA
:101D5000141402020207020202020514140D0D14EB
:101D60000505020502020205020202051917171AEB
:101D70001405020202010205050202150C04010C01
:101D80001405020115010102020205010101040509
:101D900014140408040401020204080104010104EB
:101DA00005140404080804080408080601040405CE
:101DB00005140404040808080808010601080801BD
:101DC00002020407040404080801010601080102D4
:101DD00002020804040808080606060601010202B9
:101DE00002020808080804010604040401020202B1
:101DF00002020808040501010601040102020202B0
:101E00000707080804040401060101020202020790
:101E1000010808040801010706010202020201018B
:101E20000808080801070101040202020202010178
:101E30000808010101010101100202020202010869
:101E40000808020202020202100202050202010850
:101E50000508020202020202100205040202010841
:101E60000808020202020201060704040202010835
:101E700008060202020201010606011010101006F7
:101E8000060608080202010106010402020201011D
:101E900008080808050401060604080402020107F0
:101EA00008080808080404010108080402020101E6
:101EB00001080202020202020202020202040701F7
:101EC00001070202020201040401010104040108E5
:101ED00008010204010101010808080808080808AF
:101EE000080101010101060108080808080808089E
:101EF000080807010404060808080701080808087C
:101F0000080801010401060606060606060606067E
:101F10000606010407010608040804010101070878
:101F2000010701040704060808020202020401086E
:101F30000801010404050608020204040202010863
:101F40000808010104040608020205040202020155
:101F50000808010606060608080202020702020136
:101F60000808060601080608080404020202020125
:101F7000080806050101060808080808020207010A
:101F800008080108040806060606060804010808F1
:101F900008080808040808080808080801070808CD
:101FA00008010808080808080808080808080808B8
:101FB00001010808080D0D0D0D0D0D0D0D08080887
:101FC000080808080D0D0A170A0A170A0D0D080857
:101FD000080808080D0A0202101002020A0D08087B
:101FE000080808080D0A0702101002070A0D080861
:101FF00008080808010101010101010106060606A1
:10200000060606060606010F01060606060408086F
:10201000080807010706010C01060A07060A04085A
:102020000F0808070506060606060D0A060508013C
:102030000C010808010108080808080D0606060139
:102040001401080101080108080808010108080135
:102050000101080108080108080808010808080823
:102060000608080408040404010101011414080608
:1020700006080804010408080808010814080706EF
:1020800008140804040804040715010801010608DF
:1020900014140808080404140101040401060614B9
:1020A0001414080808081414141414141414141420
:1020B00014140704080D0D08080408060808080889
:1020C0000814040408080D04040408060808080895
:1020D00014140819170808040408060F080808044F
:1020E0001414080C080806060606060C0108080861
:1020F000141406060606060101010814010804046A
:10210000141408010101010808010101010404146B
:102110001414010108080804080801171A0402141D
:102120001414010808080808080808080C08020226
:102130000214010D0804080804040808080802082D
:1021400014140108080804080408081508020415F6
:1021500004140108080808080808081604080416EA
:1021600004140101010108010101080118181801F6
:1021700001141414040D080D080101040C0D0C01C8
:1021800004141414140404080808041519171A1563
:102190000414141414140D0414020116140F14164C
:1021A0001414141414141414020204040104011469
:1021B00014140000000000000000000000000000F7
:1021C000000000000000000000000000000000000F
:1021D000000000000A0A0A0A0A0A0A0A0A0A0A0A87
:1021E0000A0000000A0A290A2E29141414142E2E9B
:1021F0000A0000000A272B0A2E2E1422221424245F
:102200000A0000000B28010A01010101010101245B
:102210000A0000000A01010A012F33333333310170
:102220000A0000000A01010A013035343436320157
:102230000A0000000A2D010101012D2D012D0101CF
:102240000A0000000A0A0A0A010101010101010154
:102250000A0000000A01010101010101010A0A0A44
:102260000A0000000A012421212121212101120A52
:102270000A0000000A012A0A29290A260A01010A7D
:102280000A0000000A01070A0A0A0A0A0A07010AE4
:102290000A0000000A010101010101010101010A16
:1022A0000A0000000A0A0A0B0A0A110A0A0B0A0AA3
:1022B0000A00000000000000000000000000000014
:1022C000000000000000000000000000000000000E
:1022D000000000000A0A0A0A0A0A0A0A0A0A0A0A86
:1022E0000A0000000A2E2E2E2E2E2E2E2E2E2E2EE0
:1022F0000A0000000A2E2E2E2E37392E2E2E2E2EBC
:102300000A0000000A34343424383A243434343493
:102310000A0000000A070707010101010707070774
:102320000A0000000A0101012F333333310101019A
:102330000A0000000A01012D30343534322D01012C
:102340000A0000000A01010101012D010101010142
:102350000A0000000A01010101010101010A0A0A43
:102360000A0000000A012121212121212113010A53
:102370000A0000000A012629262929262624010A06
:102380000A0000000A010A0A0A0A0A0A0A01010AE6
:102390000A0000000A010101010101010101010A15
:1023A0000A0000000A0A0A0A0A0A0A0A0A0A0A0AAB
:1023B0000A000014000000140014001400000014AF
:1023C0000000001400000014141400140014001481
:1023D0000000001400000014001400140014001485
:1023E0000000001414140014001400001400140061
:1023F00000000000000000000000000000000000DD
:102400000000000000000000141414141414140040
:102410000000000000000014141414141414141408
:1024200000000000001414141414142414141414C0
:102430001400000014141414142424241414141468
:1024400014000000141414142401010124141414A1
:10245000140000001414141424012424141414145B
:102460001400000014141414240101012414141481
:10247000140000001414140A240124240A1414144F
:10248000140000001414140A240101010A14141485
:10249000140000001414140A240124240A1414142F
:1024A000140000001414140A0A110A0A0A1414145D
:1024B00014001414141414141414141414141414F0
:1024C00014141414141414141401140808121414F9
:1024D0001414140812141414140101080808081420
:1024E00014141408081414141401141401140814F6
:1024F0001414141408011414140414140114010104
:1025000014141414010414141C041C0101140102F9
:1025100001141414011414040401141C0114010204
:1025200014141414011404041C01141C04140402D3
:1025300014141414041414141C01140101140402BE
:1025400014141414040414141C04010114140402BB
:102550000214141414041414140414141414010292
:1025600002141414140114141404141408010102A4
:1025700002141414010101071401141414010202BD
:10258000141414140C040C040104010101010202CE
:102590001414140C01040114141401010202021495
:1025A00014141414141414141414141414141414EB
:1025B00014140A0A0A0A0A0A0A0A0A0A0A0A0A0A67
:1025C0000A0A0A0A0A0A0A0A0A0B0B0A0A0A0A0A69
:1025D0000A0A0A0A0B0A0A0A0A0B0B0A0A0A0A0B57
:1025E0000A0A0A0E0A0E0A0E0A0A0A0A0E0A0E0A37
:1025F0000E0A333333333333333B3D3333333333E7
:1026000033330A0A06010601063C3E0601060106AE
:102610000A0A0A0A0601060106060606010601065E
:102620000A0A0A0A06010601010101010106010662
:102630000A0A0A0A06010606060606060606010634
:102640000A0A0A0A0601010101010101010101064C
:102650000A0A01010606060606060606060606061C
:10266000010101010101010101010101010101015A
:10267000010101010101010101010101010101014A
:1026800001011D1D1D1D1D1D1D0101011D1D1D1D06
:102690001D1D0A0A0A0A0A0A0A0101010A0A0A0A8F
:1026A0000A0A0A0A0A0A0A0A0A0120010A0A0A0A86
:1026B0000A0A0000000000FEFF07FBFAFABA7BBB23
:1026C000FBFBFBFBBB7BBBFBFBFBFB07FFFE00003D
:1026D00000000000000000FFFF00FFFFFFBEBFDEA4
:1026E000DFDBDBDFDEDFDEBFFFFFFF00FFFF000021
:1026F00000000000000000FFFFFEFDFDFD9D8D9D20
:10270000FDFDFDFDFDFDFDFDFDFDFD7EFFFF00006E
:10271000000000000000007FFFFDF8F8FFCF8FCF22
:10272000FF78787D7FFFEFC7EFFFFEFCFE7F0000A4
:1027300000005245424F4F540053455455502045D8
:102740004550524F4D00434C454152204545505253
:102750004F4D0053415620434845434B204552526C
:102760004F52210000002040404040867C7848784D
:102770004E7C000000010202020202019F3F3F3F27
:102780003F1F800000000030202040807E7C487A7F
:102790004E7C0000000E0101010202019F3F3F3FFD
:1027A0003F9F000000002040404040867C784878F1
:1027B0004E7C000000010202020202011FBF3F3FE7
:1027C000BF1F000000002040404040807E7C4878D1
:1027D0004E7C000000000304040402011FBF3F3FC1
:1027E000BF1F000000000030202040807E7C487A1F
:1027F0004E7C0000000E0101010202011FBF3F3F9D
:10280000BF1F000000007C4E7A487C7E8040404024
:102810004020000000001FBF3F3F3F9F0102020217
:102820000202010000007C4E7848787C864020201F
:102830003000000000009F3F3F3F3F9F0102020128
:1028400001010E0000007C4E7A487C7E80404040B2
:102850004020000000001FBF3F3FBF1F01020202D7
:102860000202010000007C4E78487C7E804040409F
:102870004020000000001FBF3F3FBF1F01020404B3
:102880000403000000007C4E7848787C86402020BD
:102890003000000000001FBF3F3FBF1F01020201C8
:1028A00001010E0000000000007C4E7C4C7E7CA0EC
:1028B0001000C00000000000001F3FBF3FBF1F000E
:1028C0000101000000000000007C4E7C4C7E7C90EA
:1028D0006050102000000000001FBF3F3F3F9F00DE
:1028E0000000000000000000007C4E7C4C7E7CA0BC
:1028F0001000C00000000000001FBF3F3FBF1F00CE
:102900000101000000000000007C4E7C4C7E7C90A9
:102910005040808000000000001FBF3F3FBF1F00ED
:102920000000000000000000007C4E7C4C7E7C908B
:102930006050102000000000001FBF3F3FBF1F007D
:102940000000000000000040807CFE7C7CFE7C00DB
:102950000000000000030404021C3DBA3BBC1F0041
:1029600000000000402020C0007CFE7C7CFE7C003B
:102970000000000000000008051ABA3B3D3C9F0023
:102980000000000000000040807CFE7C7CFE7C009B
:102990000000000000030404021CBD3A3BBC1F0001
:1029A0000000000000000000007CFE7C7CFE7C003B
:1029B0000000000000020301021FBC3E3DBC1F00DE
:1029C00000000000402020C0007CFE7C7CFE7C00DB
:1029D0000000000000000008051ABA3B3DBC1F00C3
:1029E00000000000080B00020202010009040000C0
:1029F0000102020000052400100105240101010468
:102A00002402060524060001070581031000400981
:102A1000040100020A00000007050202400000074E
:102A20000583024000000403090412010002EF02C2
:102A300001404123368000010102030141726475A7
:102A4000696E6F204C4C430041726475696E6F2053
:102A50004C656F6E6172646F00D5F08D14A1C881F2
:102A6000CFD9F1AF2000506C656173652075706C33
:102A70006F6164205061727400FE01010F11111129
:102A8000111115110F010204F87F80FE81819595C7
:102A9000959595958181FE807FF2EBECED8A000C97
:102AA0000F0C0F0C000C090F09000900090F0F0B88
:102AB000000B0F0C000C000B0F0B000C0F0C0F0584
:102AC000000500050F05070E0101070E07020F04A0
:102AD000000400040F040900090F090F0900040095
:102AE000030F030F0400040F04000D000D0F0D0F62
:102AF00001000D0F020E0D0100010F0700070F0866
:102B0000000700070F070F07000600060F070F0357
:102B1000000700070F030300030F030F0300020E5B
:102B200002040B0E0102030E01030C0A0507090B38
:102B3000080A090F0B0D0C0C0E0F090C1011040ADA
:102B400012130C0B14150409080F080F04090405CF
:102B5000030404050306090516160A05171A0508D5
:102B60001B1B08081C200B08212304052425030C2B
:102B700026280C0B0C0B0B0B0B0B07062929080640
:102B80002A2A08092B2C040E2D2D060E2E2E090E96
:102B90002F2F0A0E30300900090F090F09000F0905
:102BA000000900090F090500050F050F05000A0DB2
:102BB0003131080632320E0432320F0B000B000B9B
:102BC0000F0B0D0F0D000D000D0F0204070F070F67
:102BD000020409090105090B02060F0C333306082C
:102BE00034340F06000600060F060F03000300032F
:102BF0000F0305030102020204030F06000600068C
:102C00000F060C0F0C000C000C0F0F060006000640
:102C10000F060A0F0A000A000A0F0C030107090336
:102C200034340A0535350D0D36360B0107070F0014
:102C300007070F0F0707000F07070F0F07070F0002
:102C400007070F0007070F0007070F000707000F10
:102C500007070F0F07070000000B030A010806080B
:102C6000080F080F060809093939090B3A3A050F08
:102C70000D060B050B0C0D060109010204081020BE
:102C8000408000000000003E5B4F5B3E3E6B4F6BA0
:102C90003E1C3E7C3E1C183C7E3C181C577D571C3D
:102CA0001C5E7F5E1C00183C1800FFE7C3E7FF00B6
:102CB00018241800FFE7DBE7FF30483A060E262904
:102CC000792926407F050507407F05253F5A3CE7C7
:102CD0003C5A7F3E1C1C08081C1C3E7F14227F228D
:102CE000145F5F005F5F06097F017F006689956A58
:102CF000606060606094A2FFA29408047E040810E3
:102D0000207E201008082A1C08081C2A08081E100B
:102D10001010100C1E0C1E0C30383E3830060E3EC3
:102D20000E06000000000000005F00000007000722
:102D300000147F147F14242A7F2A1223130864624C
:102D400036495620500008070300001C22410000AD
:102D500041221C002A1C7F1C2A08083E080800800B
:102D600070300008080808080000606000201008A3
:102D700004023E5149453E00427F400072494949A4
:102D8000462141494D331814127F102745454539D6
:102D90003C4A4949314121110907364949493646DA
:102DA0004949291E000014000000403400000008BA
:102DB000142241141414141400412214080201595D
:102DC00009063E415D594E7C1211127C7F494949EA
:102DD000363E414141227F4141413E7F494949417F
:102DE0007F090909013E414151737F0808087F00AE
:102DF000417F41002040413F017F081422417F4034
:102E00004040407F021C027F7F0408107F3E41410A
:102E1000413E7F090909063E4151215E7F0919297A
:102E200046264949493203017F01033F4040403F64
:102E30001F2040201F3F4038403F631408146303A5
:102E4000047804036159494D43007F414141020424
:102E5000081020004141417F04020102044040402B
:102E60004040000307080020545478407F28444421
:102E7000383844444428384444287F38545454183B
:102E800000087E090218A4A49C787F080404780036
:102E9000447D40002040403D007F10284400004118
:102EA0007F40007C047804787C080404783844442B
:102EB0004438FC1824241818242418FC7C08040422
:102EC00008485454542404043F44243C4040207C8B
:102ED0001C2040201C3C4030403C44281028444CDE
:102EE0009090907C4464544C4400083641000000AB
:102EF000770000004136080002010204023C26234C
:102F0000263C1EA1A161123A4040207A3854545503
:102F100059215555794121545478412155547840CF
:102F200020545579400C1E52721239555555593955
:102F30005454545939555454580000457C410002AA
:102F4000457D420001457C40F0292429F0F02825E8
:102F500028F07C545545002054547C547C0A097F49
:102F60004932494949323248484832324A48483061
:102F70003A4141217A3A42402078009DA0A07D3913
:102F8000444444393D4040403D3C24FF2424487E95
:102F90004943662B2FFC2F2BFF0929F620C0887E82
:102FA000090320545479410000447D413048484A87
:102FB00032384040227A007A0A0A727D0D19317D3A
:102FC0002629292F28262929292630484D4020380E
:102FD0000808080808080808382F10C8ACBA2F10CD
:102FE0002834FA00007B000008142A142222142A34
:102FF00014089500220095AA005500AAAA55AA55C2
:10300000AA000000FF00101010FF00141414FF00AD
:103010001010FF00FF1010F010F0141414FC001436
:1030200014F700FF0000FF00FF1414F404FC141454
:1030300017101F10101F101F1414141F0010101051
:10304000F0000000001F101010101F10101010F0E2
:1030500010000000FF101010101010101010FF10C2
:10306000000000FF140000FF00FF00001F10170009
:1030700000FC04F414141710171414F404F40000E2
:10308000FF00F714141414141414F700F714141494
:10309000171410101F101F141414F4141010F01033
:1030A000F000001F101F0000001F14000000FC149F
:1030B0000000F010F01010FF10FF141414FF141093
:1030C00010101F00000000F010FFFFFFFFFFF0F0E6
:1030D000F0F0F0FFFFFF0000000000FFFF0F0F0FF8
:1030E0000F0F38444438447C2A2A3E147E020206DC
:1030F00006027E027E0263554941633844443C0423
:10310000407E201E2006027E020299A5E7A5991C9A
:103110002A492A1C4C7201724C304A4D4D303048BD
:10312000784830BC625A463D3E494949007E01011B
:10313000017E2A2A2A2A2A44445F444440514A44B0
:103140004040444A51400000FF0103E080FF00007E
:1031500008086B6B083612362436060F090F060076
:103160000018180000001010003040FF0101001F7F
:1031700001011E00191D1712003C3C3C3C000000E0
:1031800000005B2D11241FBECFEFDAE0DEBFCDBF04
:1031900012E0A0E0B1E0E0ECF8E602C005900D928C
:1031A000AA3DB107D9F727E0AAEDB2E001C01D9210
:1031B000A139B207E1F718E1C2ECD8E104C02197C8
:1031C000FE010E944C32C13CD107C9F70E94BF2DBD
:1031D0000C945E340C9400000F931F93CF93DF93F5
:1031E0001F92CDB7DEB7082F10E0C80179830E9487
:1031F0000D2D7981672FC80101960F90DF91CF9136
:103200001F910F910C940D2DCF93DF93C0E0D0E070
:10321000FE01E756F54D6491CE010E940D2D2196D9
:10322000C530D105A9F760910F0185E090E00E94BB
:103230000D2D609110017091110186E00E94EC1833
:10324000609112017091130188E00E94EC18609166
:103250007B078AE090E0DF91CF910C940D2D5F9277
:103260006F927F928F929F92AF92BF92CF92DF9296
:10327000EF92FF920F931F93CF93DF936C015B014B
:103280004A013901E12CF12C55245A94500E1E2D7F
:10329000C0E0D0E0C038D10549F18C2F81278C2BBC
:1032A00080FD22C0CC15DD05FCF08C169D06E4F0F7
:1032B000EA14FB04CCF06E147F04B4F041E050E05B
:1032C000023010F440E050E04E0D5F1D61E070E010
:1032D00081E0851510F460E070E06C0F7D1F20E048
:1032E00081E097E00E94002C2196D4CF9FEFE91A4D
:1032F000F90A80E4E816F10451F6DF91CF911F91AD
:103300000F91FF90EF90DF90CF90BF90AF909F9084
:103310008F907F906F905F9008952F923F924F9281
:103320005F926F927F928F929F92AF92BF92CF9255
:10333000DF92EF92FF920F931F93CF93DF936C0175
:103340005B01122FC42FD0E081E090E04C018C1A79
:103350009D0A662477246C1A7D0A660C771C6FEF31
:1033600070E080E090E00E948129202E312C412CD9
:10337000512C62157305840595054CF0212FA5018C
:103380004C0F5D1FB60181E097E00E94002C6FEFAB
:1033900070E080E090E00E94812962157305840549
:1033A00095054CF0212FA5014C1B5D0BB60181E06A
:1033B00097E00E94002C6FEF70E080E090E00E94A8
:1033C000812962157305840595054CF0212FA5010F
:1033D000B6016C0F7D1F81E097E00E94002C6FEF1B
:1033E00070E080E090E00E948129621573058405F9
:1033F00095054CF0212FA501B6016C1B7D0B81E0DA
:1034000097E00E94002CE12CF12CEC16FD060CF04C
:10341000C3C097FC06C0219782E0680E711C860C21
:10342000971C8FEFE81AF80AC701880F991F0196B9
:10343000880E991E6FEF70E080E090E00E94812975
:1034400062157305840595055CF0212FA5014C0FCD
:103450005D1FB7016C0D7D1D81E097E00E94002C7F
:103460006FEF70E080E090E00E94812962157305A3
:10347000840595055CF0212FA5014C0F5D1FB60159
:103480006E197F0981E097E00E94002C6FEF70E0D9
:1034900080E090E00E9481296215730584059505FE
:1034A0005CF0212FA5014C1B5D0BB7016C0D7D1D40
:1034B00081E097E00E94002C6FEF70E080E090E0E8
:1034C0000E94812962157305840595055CF0212F02
:1034D000A5014C1B5D0BB6016E197F0981E097E0D9
:1034E0000E94002C6FEF70E080E090E00E94812944
:1034F00062157305840595055CF0212FA7014A0D1F
:103500005B1DB6016C0F7D1F81E097E00E94002CCF
:103510006FEF70E080E090E00E94812962157305F2
:10352000840595055CF0212FA7014A0D5B1DB601AE
:103530006C1B7D0B81E097E00E94002C6FEF70E028
:1035400080E090E00E94812962157305840595054D
:103550005CF0212FA5014E195F09B6016C0F7D1F8C
:1035600081E097E00E94002C6FEF70E080E090E037
:103570000E94812962157305840595050CF445CFD9
:10358000212FA5014E195F09B6016C1B7D0B81E04F
:1035900097E00E94002C39CFDF91CF911F910F91BE
:1035A000FF90EF90DF90CF90BF90AF909F908F9063
:1035B0007F906F905F904F903F902F9008954F9223
:1035C0005F926F927F928F929F92AF92BF92CF92B3
:1035D000DF92EF92FF920F931F93CF93DF93CDB7BC
:1035E000DEB728970FB6F894DEBF0FBECDBF80912F
:1035F00010019091110197FD0F969C0104E0359503
:1036000027950A95E1F720937A078091120190910E
:10361000130197FD0F9614E0959587951A95E1F79C
:10362000809379073327A901445051095A8349836C
:103630002B5F3F4F3C832B8399279C0122503109FC
:103640003E832D83039698878F8357FF07C081EFB2
:10365000489F402D11244093DD0202C01092DD02EC
:1036600037FF07C081EF289F202D11242093DC0213
:1036700002C01092DC028091DD028093DB02809117
:10368000DC028093DA02FE0131969E01275F3F4FF4
:103690004FE050E08081918197FF03C0118210823A
:1036A00004C0409714F0518340833296E217F30729
:1036B00089F7FD80B0EF8B2EAF2CB12C8F819885D0
:1036C0008A159B050CF4D2C09980892D90E02B813E
:1036D0003C81281739070CF4BEC020917A07C090AE
:1036E0001001289DC00C112420917907009112012E
:1036F000289D000D112420917B07F50130E1239FC7
:10370000E00DF11D1124A4E0EE0FFF1FAA95E1F7D3
:10371000E80FF91FEE54FE4E949110E0D12C9C312D
:1037200089F16091DA028091DB029D31A8F4913039
:1037300009F444C0923009F073C04090FB02512C50
:10374000612C712C75946794579447949FEF491A94
:10375000590A690A790A2BC09E3281F19333D1F15B
:10376000923209F05DC04090FB02512C612C712C0B
:10377000759467945794479431E2430E511C611C31
:10378000711C15C06DE370E080E090E00E9481291B
:10379000660F771FFB01EF53FE4F4081518160910F
:1037A000DA0270E0601B710B8091DB0244C0920171
:1037B000220F331FF901EF53FE4F38C070E0601B3A
:1037C000710B90E001E020E140E18C199D090E941D
:1037D0001B253AC0662E712C601A710A482E512C96
:1037E0004C185D0801E020E140E1B301C2010E94F4
:1037F0001B25B3016E5F7F4F8091DB026034710542
:1038000028F490E08C199D090E94BA24B3016C5FE2
:103810007F4F60347105C0F4C2010E94BA2414C005
:10382000E491F0E0EE0FFF1FE154FE4F4081518123
:1038300070E0601B710B90E0EE24E39400E120E166
:103840008C199D090E94932A8091DB02805F8093EE
:10385000DB0293943ACF8091DD028093DB0280916A
:10386000DA02805F8093DA02F39426CF28960FB6AF
:10387000F894DEBF0FBECDBFDF91CF911F910F91A6
:10388000FF90EF90DF90CF90BF90AF909F908F9080
:103890007F906F905F904F9008952F923F924F923C
:1038A0005F926F927F928F929F92AF92BF92CF92D0
:1038B000DF92EF92FF920F931F93CF93DF93CDB7D9
:1038C000DEB72A970FB6F894DEBF0FBECDBF5C01FE
:1038D0007A8769874D839B01295F3F4F3C832B8308
:1038E0004C0137E0830E911C21E04FE0C4010E949F
:1038F000EF24E984FA8486E0E80EF11CCC24C3941A
:10390000D12C412C512C07E010E022EF3FEF3A83FD
:1039100029832AEF622E77247A94C50129853A8576
:10392000821B930B9F838E832FEF421A520A32E041
:10393000C30ED11C6C0C7D1C202E220C31E0320DEC
:10394000C201079621E0432F2B803C80201A310AC8
:10395000B1018A0D9B1D38870E94EF2421E04C2D78
:10396000B701C401800F911F0E94EF2421E0388528
:10397000432FB1018E819F818E0D9F1D0E94EF24E8
:1039800021E04C2DB701C401801B910B0E94EF2454
:10399000401651067CF477FC09C001501109898159
:1039A0009A8102969A838983680E791E91E0E91ABA
:1039B000F108BACF00E020E047E06B817C81C401D0
:1039C0000E948D193D81E32FF0E0EE0FFF1FE356BB
:1039D000FE4F4081518169857A856D5F7F4FE12C73
:1039E00008E028E0C50104960E94932A2A960FB6A3
:1039F000F894DEBF0FBECDBFDF91CF911F910F9125
:103A0000FF90EF90DF90CF90BF90AF909F908F90FE
:103A10007F906F905F904F903F902F900895CF933D
:103A2000DF93CDB7DEB765970FB6F894DEBF0FBE54
:103A3000CDBF0E942B2D81E097E00E94812A68EE85
:103A400073E080E090E00E94A5291092170711E032
:103A50001093180783E597E20E94B12D1093170782
:103A600010921807E12CF12C8E010F5F1F4FF70108
:103A7000E756F54D9490198A188A1B8A1A8A1D8A6E
:103A80001C8A62E070E0CE0140960E9448298111B4
:103A900005C0CE0140960E946F290AC082E090E0E6
:103AA0009D8B8C8B64ED72E0888999890E945734D4
:103AB000C7010E94292D1B861A861D861C861F861B
:103AC0001E864AE0B80190E00E944A31D8010D906C
:103AD0000020E9F711976D01C01AD10AB601CE0195
:103AE0000A960E944829811105C0CE010A960E94BB
:103AF0006F2907C0DF86CE86B8018A859B850E9424
:103B000057342C893D89A888B988CE84DF84A114D4
:103B1000B10409F4C0C021153105A9F0C20ED31EAD
:103B2000B601CE010A960E944829882309F4B3C041
:103B30002A853B858E859F85B501820F931F0E9444
:103B40005734DF86CE864AE0B801892D90E00E9486
:103B50003F31F80101900020E9F73197E01BF10BAC
:103B6000CE84DF843097C9F0CE0EDF1EB601CE01C1
:103B70000A960E944829882361F02A853B858E8514
:103B80009F85B801820F931F0E945734DF86CE862F
:103B900004C0CE010A960E946F294E855F856A8512
:103BA0007B858DEF96E00E94E02887ED92E00E94F1
:103BB0002C268A859B850E94E732888999890E94F4
:103BC000E7328FEFE81AF80AE5E0EE16F10409F0A3
:103BD0004ECF81E097E00E94812A68E873E180E09F
:103BE00090E00E94A5290E9419260E942B2D109278
:103BF000170781E08093180786E497E20E94B12DB1
:103C000081E097E00E94812A00E010E060E0C801B6
:103C10000E940D2D0F5F1F4F0115F4E01F07B1F734
:103C200089E397E20E94B12D81E097E00E94812A0A
:103C30000E94041962E085E090E00E940D2D6FEB78
:103C400070E086E00E94EC1860E270E088E00E947C
:103C5000EC186BE08AE090E00E940D2D61E080E0BE
:103C600092E00E940D2D61E081E092E00E940D2D16
:103C700082E397E20E94B12D81E097E00E94812AC1
:103C80006CED75E080E090E00E94A52900E010E076
:103C9000F8010995FDCFCE010A960E946F2953CFF6
:103CA0001F93CF93DF93C82FD0E0CE010E94292D20
:103CB000182FCE0101960E94292DC82F61E070E0D7
:103CC00080E090E00E94A529812F9C2FDF91CF9169
:103CD0001F910895CF93DF9380910C01813079F08B
:103CE00038F08230B9F08330F9F481E090E014C00C
:103CF00010927F0710927E078FEF9FEF06C0109201
:103D00007F0710927E0781E090E090937D0780937B
:103D10007C070AC08FEF9FEF90937F0780937E0709
:103D200010927D0710927C0781E080938007E091DC
:103D30001001F091110140917E0750917F07BF0162
:103D4000640F751F673F710570F4A0911201B09167
:103D5000130120917C0730917D07CD01820F931FC5
:103D6000873F910518F01092800765C0EF01F7FDBD
:103D70002F96689413F8D595C7951694E1F7689433
:103D800013F8759567951694E1F7C617D707A1F153
:103D900060917B07C3E0440F551FCA95E1F7E40F1C
:103DA000F51FF7FD3F9644E0F595E7954A95E1F755
:103DB00080E1689FA001112473E0220F331F7A95E0
:103DC000E1F7CD01820F931F97FD0F9624E09595A3
:103DD00087952A95E1F7840F951F34E0880F991F86
:103DE0003A95E1F7E80FF91FEE54FE4EADE3B2E06D
:103DF00091E02AE22A0F14C0BD01B7FF02C0615F43
:103E00007F4FC4E075956795CA95E1F7D4E0959525
:103E10008795DA95E1F76817790709F0B9CF0BC0F4
:103E200084913D91831303C0653F08F490E02A1309
:103E3000F7CF90938007DF91CF9108950F931F9351
:103E40000E94092A0091EB021091EC022091ED02F0
:103E50003091EE020C5E1F4F2F4F3F4F60177107DE
:103E60008207930708F440C00E94092A6093EB027E
:103E70007093EC028093ED029093EE028FEF8093AB
:103E80001C010E94642A87FD10921C010E94642A72
:103E900084FF03C081E080931C010E94642A85FF97
:103EA00003C082E080931C010E94642A86FF03C045
:103EB00083E080931C010E94642A83FF03C084E096
:103EC00080931C010E94642A82FF03C085E08093D6
:103ED0001C010E94642A83FF07C00E94642A82FF9B
:103EE00003C086E080931C011F910F9108958F926B
:103EF0009F92AF92BF92CF92DF92EF92FF920F9379
:103F00001F93CF93DF93082FC1E3D0E0C12CD12CB6
:103F1000760187EE882E99249A94A92CB92C011148
:103F200027C00E9419260E94DF1A0E943D25109189
:103F30000F011150C701B601A50194010E948A31F9
:103F4000DA01C901412FBE010E944D1C81E097E0BA
:103F50000E94812A87E0C81AD108E108F108219758
:103F600081E5C8168FEFD806E806F806C1F606C048
:103F70000E941E1F90911C01953099F2DF91CF9104
:103F80001F910F91FF90EF90DF90CF90BF90AF9077
:103F90009F908F900895AF92BF92CF92DF92EF9251
:103FA000FF920F93CF93DF93D82F80910F012D2F86
:103FB0000D2E000C330B280F311D121613061CF4A6
:103FC0008D0F80930F0180910F018B3018F08AE0E4
:103FD00080930F01CEE0DC9FC02D112489EFA82E25
:103FE000BB24BA940E9419260E94DF1A0E943D2524
:103FF0006501CC1AD108C7FDD394E12CF12C409176
:104000000F01842F90E001968E199F090A97B0F452
:104010004F5F4E19B60188E090E00E944D1C82E08F
:10402000E816F10459F001E09601225F3F4F46E1A6
:1040300050E0B60188E090E00E942F198FEFE81A57
:10404000F80A8FE0C80ED11C86E0E816F104B9F634
:104050004091FB02465F00E021E06EE170E08FE0FE
:1040600090E00E948D194091FB02455F20E06EE1D7
:1040700070E08FE090E00E948D194091FB02445F58
:1040800021E06EE170E08FE090E00E948D1981E008
:1040900097E00E94812AD7FF02C0CF5F02C0D111F2
:1040A000C150C1119FCFDF91CF910F91FF90EF9041
:1040B000DF90CF90BF90AF9008950F93CF93C0E063
:1040C0000C2F20E430E04FE750E060E070E080E04B
:1040D00090E00E942F1981E097E00E94812A6AEF08
:1040E00070E080E090E00E94A529CF5FC43041F7E6
:1040F000CF910F9108954F925F926F927F928F921E
:104100009F92AF92BF92CF92DF92EF92FF920F9366
:104110001F93CF93DF930E9419260E94DF1A0E94FB
:104120003D2580917B0790E020911A0130911B0181
:1041300082179307B9F580E092E00E94292D843020
:1041400089F5A7C0209110013091110137FF02C0FD
:10415000215F3F4FA90114E0559547951A95E1F766
:1041600040937A07209112013091130137FF02C06A
:10417000215F3F4FD4E035952795DA95E1F72093FD
:104180007907609116017091170177FF02C0615F96
:104190007F4FC4E075956795CA95E1F746175707B5
:1041A00009F4ACC080910E01882349F040910F01C1
:1041B000415061E370E080E090E00E944D1C8091EE
:1041C00010019091110197FD0F96A4E095958795A8
:1041D000AA95E1F780937A078091120190911301DB
:1041E00097FD0F9664E0959587956A95E1F7809322
:1041F000790771EAE72E7AE2F72ECEE4D0E1E0E625
:10420000CE2EEFE0DE2EF0EAAF2EFAE2BF2EFE0158
:104210003197E49180917B07E81319C0F60131973B
:10422000949180910C01981719F0E491EF3F79F483
:10423000F7013397E49180917A07E81308C0F701FA
:104240003297E49180917907E81709F46DC0F4E0A2
:10425000EF0EF11C239682E0C80ED11CE4E0AE0EF6
:10426000B11CF1E1C33BDF0791F681E097E0DF91FC
:10427000CF911F910F91FF90EF90DF90CF90BF9063
:10428000AF909F908F907F906F905F904F900C9425
:10429000812A809112019091130197FD01969595C5
:1042A0008795E0901801F0901901E81AF90A8091B9
:1042B00010019091110197FD019695958795C090F9
:1042C0001601D0901701C81AD90AC1E0AA24AA94ED
:1042D000B12C90910D01C91708F034CF692F70E00F
:1042E000C5010E942432C69F002D112420E04C2FCE
:1042F000B701C6010E948D19CF5FEBCF4091180125
:104300005091190157FF02C0415F5F4FB4E05595CE
:104310004795BA95E1F72417350709F043CF64E0D4
:10432000690F60930D013ECFFE013196E491E130BB
:1043300009F044C00E941E1F0E94092A0091EF024A
:104340001091F0022091F1023091F2020A561F4FB3
:104350002F4F3F4F601771078207930708F46CC017
:1043600080911C01843009F067C0F6018491882394
:1043700009F462C0F5011491FE01849190E00B965E
:104380000E94292DF701249190E0810F911D30E0CA
:10439000281739070CF050C0FE01849190E060E0CE
:1043A0000B960E940D2D0E94092A6093EF027093D4
:1043B000F0028093F1029093F20249CFE13048F588
:1043C000F6014491F70184918295807FF501249153
:1043D0002295207FFE01949190937B07922F9295D6
:1043E0009F7090937A07982F92959F70909379077A
:1043F00030E0309311012093100190E0909313016D
:104400008093120140930C010E945D200E940419C8
:104410001ECFE23009F01BCFF701849190E0815864
:104420009F4F0E94292D882309F498C0F60184919A
:10443000813009F00CCF92C0F5019490FE01849177
:1044400090E00B960E94292D980EF7018491891512
:1044500008F4FDCE01E020E440E860E070E080E098
:1044600090E00E941B2500E010E0512CA92DB0E047
:10447000AA0FBB1FA95DBE4F8D909C90612C712C23
:104480007092140760921307109316070093150794
:10449000F401E50DF11D44906491E091FD06F09169
:1044A000FE060190F081E02D8DEF96E00995539482
:1044B000FAE04F1649F086E0680E711CEEE76E16C2
:1044C0007104F1F6712C02C07724739489ED92E0A7
:1044D0000E942C2687ED92E00E942C26711005C0C8
:1044E000085F1F4F0032110549F681E097E00E94F6
:1044F000812A0E94092A0091EF021091F002209176
:10450000F1023091F2020A561F4F2F4F3F4F6017B2
:1045100071078207930708F49ACE0E94092A6093D4
:10452000EF027093F0028093F1029093F2020E94E6
:104530001E1F80911C01843009F089CEFE018491F8
:1045400090E00B960E94292DFE01949161E0680F86
:10455000892F90E00B960E940D2D79CEF5011491D4
:10456000FE018491811101C01195F701849190E0C1
:1045700061E081589F4F0E940D2D80E00E94771FBF
:10458000812F0E94CB1F80E00E94CB1F0E94041944
:1045900068EE73E080E090E00E94A52958CEFC010F
:1045A0008091E602811103C08FEF9FEF08959FB7BE
:1045B000F89482E08093E9002091F20030E0121636
:1045C000130614F421E030E02115310559F0289844
:1045D00084E68093E5028091F10080838091F2006F
:1045E000882319F09FBFC90108958BE68093E800E6
:1045F000F9CF2FB7F89483E08093E9009091E80019
:10460000892F807295FF04C09091F20080E4891B8D
:104610002FBF08958091200781110DC082E0809303
:104620001C0784E080931D0710921F0710921E073D
:1046300081E0809320078CE197E00895CF93DF938A
:104640001F92CDB7DEB76983DC01ED91FC9102804A
:10465000F381E02D41E050E0BE016F5F7F4F09958F
:104660000F90DF91CF91089583E08093E9008091CE
:10467000F200882319F08AE38093E80008950E94ED
:10468000F92290E00895CF93DF931F92CDB7DEB764
:10469000FC018485958597FD05C02FEF3FEF358799
:1046A00024870BC0CE0101960E94CF22019719F4F6
:1046B000898190E002C08FEF9FEF0F90DF91CF9143
:1046C00008950F931F93CF93DF931F92CDB7DEB75B
:1046D0008C01FC018485958597FF0EC0CE01019663
:1046E0000E94CF22019719F4298130E002C02FEFF8
:1046F0003FEFF80135872487F801848595850F9071
:10470000DF91CF911F910F910895FC0184859585CC
:1047100097FD0BC09FB7F89482E08093E9008091E9
:10472000F2009FBF90E0019608959FB7F89482E051
:104730008093E9008091F2009FBF90E008958F92EE
:104740009F92AF92BF92CF92DF92EF92FF920F9320
:104750001F93CF93DF935C016B017A0180910B0172
:10476000882309F45BC08091E602882309F456C0CF
:104770008091E40280FF05C08091E0008260809318
:10478000E000E70110E00AEF83E0882E9AE3992E1B
:104790002097D9F10E94F92281110AC0015009F431
:1047A0003DC061E070E080E090E00E94A529F0CF7C
:1047B000282F30E0C217D3070CF48C2F4FB7F89492
:1047C0008092E9009091E80095FF1DC0282F30E00D
:1047D000C21BD30BF601982F915020F0819180934A
:1047E000F100FACFC20ED31E112319F09092E80007
:1047F00009C08091E80085FD06C09092E80011E0B4
:10480000209709F010E04FBFC3CF1111C3CF5D98BF
:1048100084E680931B071E141F0444F081E090E09F
:10482000F5019383828380E090E001C0C701DF91AE
:10483000CF911F910F91FF90EF90DF90CF90BF909D
:10484000AF909F908F900895CF92DF92EF92FF925A
:104850000F931F93CF93DF931F92CDB7DEB7182F1F
:10486000062FE42E862F880F8E5F99830E940D29D4
:1048700083E00E940D29F12EC12E9981D92E8C2D15
:104880008F19801798F4F601E7FE02C0849101C0E9
:1048900080810E940D29182F80E00E940D2981231C
:1048A000FFEFCF1ADF0A8111EACF01C081E00F903C
:1048B000DF91CF911F910F91FF90EF90DF90CF90FC
:1048C0000895DF92EF92FF920F931F93CF93DF93A0
:1048D000D82E8A017B01E40EF51EEB01CE15DF0513
:1048E00071F0D7FE03C0FE01849101C088810E944F
:1048F0000D2921968111F2CF8FEF9FEF01C0C801E2
:10490000DF91CF911F910F91FF90EF90DF9008956D
:104910000F931F93CF93DF931F92CDB7DEB782E043
:10492000898342E450E064EE79E280E80E946124E9
:104930000E940A23DC0112960D911C911397011518
:10494000110569F0D801ED91FC910280F381E02D11
:10495000BE016F5F7F4FC801099597FF07C089812E
:104960000F90DF91CF911F910F910895F80100856D
:104970001185E5CF9C01215F3F4F2F38310570F540
:10498000FC0197FF02C0E0E0F0E04096813891051D
:1049900014F080E890E08E1BAB014770552721E0B2
:1049A00030E001C0220F4A95EAF7209577FF02C058
:1049B000695F7F4F93E0759567959A95E1F77695D6
:1049C000762F662777956795E60FF71FE350FD4F23
:1049D000815020F0908192239193FACF0895DF9235
:1049E000EF92FF920F931F93CF93DF937C01D22E10
:1049F0008B01040F111DEB0177FF0EC0C0E0D0E06A
:104A00000BC0C417D5077CF42D2DAE01B70181E092
:104A100097E00E94002C2196A801013411058CF327
:104A200040E450E0EECFDF91CF911F910F91FF90C6
:104A3000EF90DF900895CF92DF92EF92FF920F9365
:104A40001F93CF93DF936B01122FEC017C01E40ED7
:104A5000F11CCE15DF0544F4202F412FB601CE0105
:104A60000E94EF242196F5CFDF91CF911F910F91F6
:104A7000FF90EF90DF90CF9008956F927F928F928A
:104A80009F92AF92BF92CF92DF92EF92FF920F93DD
:104A90001F93CF93DF931F92CDB7DEB730910C01F8
:104AA0001091FB02612E712CE32FF0E0EE0FFF1F3F
:104AB0008091FC02E80FF11DEE0FFF1FEE0FFF1FAC
:104AC000E60DF71DEE0FFF1FE259FD4F40815181AA
:104AD000E12C00E120E167E170E087E390E03983B9
:104AE0000E94932A3981332309F46DC0323031F0AA
:104AF000333031F0313031F48DE305C08AE303C047
:104B000081E401C087E3E82EF12C01E022E041E0DE
:104B10006BE170E0C7010E941B25670122E0C20E15
:104B2000D11C22E041E06BE170E0C6010E941B2530
:104B30000E94092A8090F7029090F802A090F90252
:104B4000B090FA0228E8820E23E1921EA11CB11C4B
:104B5000681579058A059B0510F0112331F08091C5
:104B60002807811130C0111102C01092280722E0DD
:104B700030E0261937091216130624F482E0B82E05
:104B8000B11A03C08EEFB82EB10E00E02B2D41E01C
:104B90006BE170E0C7010E941B252B2D41E06BE10A
:104BA00070E0C6010E941B25123069F40E94092A98
:104BB0006093F7027093F8028093F9029093FA02DF
:104BC00081E0809328070E94092AC090E702D090D4
:104BD000E802E090E902F090EA0226E9C20ED11C58
:104BE000E11CF11C6C157D058E059F0590F00E945F
:104BF000092A6093E7027093E8028093E902909398
:104C0000EA021F5F143018F41093FB0202C01092E6
:104C1000FB020F90DF91CF911F910F91FF90EF90CA
:104C2000DF90CF90BF90AF909F908F907F906F90CC
:104C3000089580E0EDEFF2E081118FEF0024819381
:104C40008193819381930394D1F7EDEFF6E0118E78
:104C5000108E178A168A0895009769F0FC0101905A
:104C60000020E9F73197AF01481B590BBC018DEFCC
:104C700096E00C94E02880E090E008951F920F9257
:104C80000FB60F9211248F939F938091E100909122
:104C9000E100937F9093E10083FF0FC01092E90041
:104CA00091E09093EB001092EC0092E39093ED0072
:104CB0001092E60298E09093F00082FF20C093E00B
:104CC0009093E9009091F200992319F09AE3909360
:104CD000E80090911B07992339F090911B079150A0
:104CE00090931B07992389F19091E502992339F05C
:104CF0009091E50291509093E502992341F184FF50
:104D000010C08091E2008E7E81608093E2008091ED
:104D1000E1008F7E8093E1008091E4028E7E8061CD
:104D200011C080FF16C08091E2008E7E806180936A
:104D3000E2008091E1008E7E8093E1008091E402A8
:104D40008E7E81608093E40204C05D9ACDCF289A64
:104D5000D6CF9F918F910F900FBE0F901F901895F7
:104D60001F920F920FB60F921124CF92DF92EF9203
:104D7000FF920F931F932F933F934F935F936F93E4
:104D80007F938F939F93AF93BF93EF93FF93CF93B3
:104D9000DF93CDB7DEB76C97DEBFCDBF1092E900D1
:104DA0008091E80083FFEDC168E0CE0145960E9446
:104DB0003B2982EF8093E8008D8987FF05C09091A1
:104DC000E80090FFFCCF03C09EEF9093E800982F7F
:104DD000907609F0C6C09E892F89188D91110CC05C
:104DE000803829F48091E3028093F10002C0109290
:104DF000F1001092F10048C1422F50E0512B913048
:104E000051F4811141C14130510509F03DC18091FA
:104E1000E3028D7F0BC0933061F4811135C14130C5
:104E2000510509F031C18091E30282608093E30271
:104E30002BC1953041F48091E80080FFFCCF2068C1
:104E40002093E30021C1963009F05FC0EB8CFC8C0D
:104E50001092E9001092E1021092E002123091F5F6
:104E60001092DF021092DE020E94882499E0BE01B7
:104E70006F5F7F4FDB01E92F1D92EA95E9F7998378
:104E80001A8391E09E8390EA98879AEF9987209100
:104E9000E0023091E102275F3F4F3C832B838D83FB
:104EA0001092E9001092E1021092E002F092DF020B
:104EB000E092DE0249E050E080E00E9461240E941E
:104EC0008824E2C0F092DF02E092DE020E940A2310
:104ED000DC011296ED90FC901397E114F10409F4B3
:104EE000C0C0D701ED91FC910480F581E02DBE0199
:104EF0006B5E7F4FC7010995009719F00CF0C4C095
:104F0000C7C0F701E084F184E8CF973009F4C0C04E
:104F1000983021F481E08093F100B6C0993009F017
:104F2000B3C0837009F0B4C0E8E6F2E081E021E0AC
:104F300036E39081992361F08093E9002093EB00A0
:104F400091919093EC003093ED008F5F873089F75B
:104F50008EE78093EA001092EA008F898093E60240
:104F600093C08B8D9C8D1092E9001092E1021092FB
:104F7000E0029093DF028093DE02898D811156C09A
:104F80008E899D89913A59F4813209F081C047E0B8
:104F900050E064E071E080E00E94612475C09132CD
:104FA00009F076C0833289F4888D90E0982F8827A5
:104FB0002F89822BA0E0B0E0809300019093010143
:104FC000A0930201B09303015FC0803269F4809125
:104FD000E80082FFFCCF67E084E091E00E943B297B
:104FE0008BEF8093E80006C0823209F04DC08F89B4
:104FF00080930B018091E202882319F0EEEFFAE032
:1050000002C0E0E0F8E08091040190910501A091D8
:105010000601B0910701803B9440A105B10509F05C
:105020007BC080910B0180FF93C076C00E940A2351
:10503000DC0112960D911C9113970115110541F198
:10504000D801ED91FC910190F081E02DBE016B5EE5
:105050007F4FC8010995811117C0F801008511859E
:10506000ECCF113009F44EC0133091F48F898823AE
:1050700009F445C0823081F440E860E188E49AE2B6
:105080000E942424882321F08EEF8093E80079C0C9
:1050900081E28093EB0075C0813029F440E86BE039
:1050A0008CE39AE2EDCF833099F70E940A23DC016A
:1050B0001296ED90FC9013978E010F5F1F4F6801C1
:1050C000E114F10479F0D701ED91FC910680F781AC
:1050D000E02DB801C7010995080F111DF701E08403
:1050E000F184EECFD8011C92F60101900020E9F77F
:1050F0003197BF016C197D0940E0C601C1CF66E25E
:105100007AE202C06AE27AE26115710509F2FB01F6
:10511000449150E080E840CF0FB6F894A895809174
:105120006000886180936000109260000FBEA895B7
:10513000EE3F2AE0F20739F08091FE0A9091FF0AD3
:1051400091838083A1CF1092FF0A1092FE0A9CCF18
:10515000EE3F8AE0F80731F0808191819093FF0A59
:105160008093FE0A87E797E7918380839BE088E13D
:105170000FB6F894A895809360000FBE90936000DE
:1051800083CF6C960FB6F894DEBF0FBECDBFDF9114
:10519000CF91FF91EF91BF91AF919F918F917F91AF
:1051A0006F915F914F913F912F911F910F91FF90C0
:1051B000EF90DF90CF900F900FBE0F901F9018953B
:1051C000CF92DF92EF92FF920F931F93CF93DF93D3
:1051D0006C017A018B01C0E0D0E0CE15DF0589F0CB
:1051E000D8016D918D01D601ED91FC910190F08176
:1051F000E02DC6010995892B11F47E0102C021968C
:10520000ECCFC701DF91CF911F910F91FF90EF90ED
:10521000DF90CF9008950E9449344091E002509170
:10522000E1022091DE023091DF0242175307B4F40D
:105230009091E8009570E1F39091E80092FD19C01B
:105240008093F1008091E0029091E10201968F73CA
:105250009927892B19F48EEF8093E8008091E00262
:105260009091E10201969093E1028093E00281E047
:10527000089580E00895615030F02091F100FC0124
:1052800020830196F8CF289884E68093E50208955C
:105290000F931F93CF93DF93EC018881998100973F
:1052A00029F02A813B812617370788F48B016F5F2D
:1052B0007F4F0E947F33009761F0998388831B831F
:1052C0000A832C813D81232B11F4FC01108281E0A3
:1052D00001C080E0DF91CF911F910F910895CF938E
:1052E000DF93EC0188819981009711F00E94E732E9
:1052F000198218821D821C821B821A82DF91CF9133
:105300000895CF93DF9300D000D0CDB7DEB76115FD
:1053100071058105910579F09B01AC0169833A83A0
:105320004B835C830E94313129813A814B815C81BE
:105330000E948A3103C060E070E0CB010F900F90B3
:105340000F900F90DF91CF9108958F929F92AF921F
:10535000BF92CF92DF92EF92FF926B017C010E948D
:10536000E4294B015C01C114D104E104F104F1F022
:105370000E94E429DC01CB0188199909AA09BB091B
:10538000883E9340A105B10570F321E0C21AD1080F
:10539000E108F10888EE880E83E0981EA11CB11C7C
:1053A000C114D104E104F10419F7DDCFFF90EF90AF
:1053B000DF90CF90BF90AF909F908F900895089509
:1053C000089580E090E008953FB7F89480918907B0
:1053D00090918A07A0918B07B0918C0726B5A89B66
:1053E00005C02F3F19F00196A11DB11D3FBFBA2F77
:1053F000A92F982F8827820F911DA11DB11DBC01D7
:10540000CD0142E0660F771F881F991F4A95D1F79B
:1054100008952FB7F8946091850770918607809161
:105420008707909188072FBF08951F920F920FB69C
:105430000F9211242F933F938F939F93AF93BF931A
:105440008091850790918607A0918707B091880782
:105450003091840723E0230F2D3720F40196A11DFE
:10546000B11D05C026E8230F0296A11DB11D209392
:1054700084078093850790938607A0938707B0934E
:1054800088078091890790918A07A0918B07B09136
:105490008C070196A11DB11D8093890790938A07FF
:1054A000A0938B07B0938C07BF91AF919F918F9181
:1054B0003F912F910F900FBE0F901F901895BC0138
:1054C00080E090E00C94A5298FB12CB193B130E02D
:1054D0002095309520743327A90123E055954795F1
:1054E0002A95E1F7292F30E0209530952071332758
:1054F0003595279535952795242B8095807F822B90
:1055000008958091FD028EBDEEEFF2E081910DB421
:1055100007FEFDCF8EBD86E0ED3FF807B9F70DB46D
:1055200007FEFDCF08952F923F924F925F926F92A8
:105530007F928F929F92AF92BF92CF92DF92EF9223
:10554000FF920F931F93CF93DF93CDB7DEB72D97C5
:105550000FB6F894DEBF0FBECDBFED82E22EF12C68
:105560009C012E0D3F1D37FD32C1803891050CF096
:105570002EC19B01200F311D37FD29C160347105FB
:105580000CF025C1DB0177FF04C0AA27BB27A61BAF
:10559000B70BA770BB279B0177FF02C0295F3F4F66
:1055A00013E0359527951A95E1F777FF08C021504C
:1055B000310968E070E0FB01EA1BFB0BDF01E02F23
:1055C000E695E695E695CE2ED12C077019F0FFEF03
:1055D000CF1ADF0AB9017695762F662777956795FA
:1055E000680F791F63507D4F8601020F131F1987C3
:1055F0000887C12CD12CF8E0AF2EB12C85010A1BF5
:105600001B0B1F830E83088519852017310709F4AA
:10561000DEC02830310509F4DAC02F3F1FEF310713
:105620000CF4CAC08B0100581F4F1D870C874B011B
:105630003B012B011C011C830B831A8309831B86EE
:105640001A860A851B850E151F050CF0B5C010E8DB
:105650002116310409F4B0C037FC89C02F3FEFEFA9
:105660003E0709F4B0C00A851B850C0D1D1DFD8188
:10567000F13079F4F801E40FF51FE491F0E08F01C7
:105680000A2E01C0000F0A94EAF7F301B0800B293B
:1056900025C0FD81F11114C0F801E40FF51FE4915C
:1056A000F0E00A2E02C0EE0FFF1F0A94E2F78F010E
:1056B00000951095F401A080B12C0A211B210EC089
:1056C000F801E40FF51FE491F0E08F010A2E01C00C
:1056D000000F0A94EAF7F201B0800B2500831097BF
:1056E00009F445C02730310509F441C00A851B85FE
:1056F0000C0D1D1DFD81F13089F4F801E40FF51F3B
:10570000E4910E2F10E00E8002C0159507950A94C3
:10571000E2F7EC85FD85B0800B2928C0FD81F111F1
:1057200015C0F801E40FF51FE4910E2F10E00E8074
:1057300002C0159507950A94E2F700951095E98146
:10574000FA81A080B12C0A211B2110C0F801E40FBE
:10575000F51FE4910E2F10E00E8002C015950795FD
:105760000A94E2F7EB81FC81B0800B2500830A8567
:105770001B850F5F1F4F1B870A870C851D850F5FD9
:105780001F4F1D870C8709811A810F5F1F4F1A83D6
:1057900009830B811C810F5F1F4F1C830B831FEF3D
:1057A000211A310AEFEF4E1A5E0AFFEF6F1A7F0AD5
:1057B0000FEF801A900A45CF2F5F3F4F60587F4F01
:1057C000CE0CDF1C20CF109709F090CFD0CF2D96B4
:1057D0000FB6F894DEBF0FBECDBFDF91CF911F9102
:1057E0000F91FF90EF90DF90CF90BF90AF909F9080
:1057F0008F907F906F905F904F903F902F90089583
:1058000060387105D0F440345105B8F4EAE7FCE2A1
:1058100080E1849FD001A0781124A60F4770E40F87
:10582000F11D8491A350BD4F222319F06C91862B5A
:1058300003C080956C9186238C9308952F923F929C
:105840004F925F926F927F928F929F92AF92BF9290
:10585000CF92DF92EF92FF920F931F93CF93DF933C
:10586000CDB7DEB729970FB6F894DEBF0FBECDBF18
:10587000FC016A3069F4248D808D918D38E0239F7E
:10588000800D911D1124918F808F178A168AAAC0CE
:105890006D3009F4A7C099878887F48C338C228CEB
:1058A000608C718C0689178900381105C4F0A885B1
:1058B000B9855C962C915C97422F50E056968D915D
:1058C0009C915797B6E02B9F800D911D1124E88580
:1058D000F985978B868B258D21116EC083C0F0E4EE
:1058E0006F16710424F7C80125E0F29E800D911D0A
:1058F000112418161906DCF68F2D90E09C838B83FB
:10590000C301A8E0FA9E800D911D112418161906F6
:1059100074F6B5E06B9FB0011124FB01EE57F34D17
:10592000FA83E98330E08885998504969E838D8388
:10593000E981FA81E490353009F4E12C430188E0F3
:10594000482EE0FC02C0532C01C0522C51100BC059
:10595000321009C0E6944A948B819C81880E991E6E
:105960004110EFCF1BC068018C2D801B8F1590F765
:1059700054018A2D88198F1568F4252DA501B601CB
:105980008D819E813F830E94002C9FEFA91AB90A46
:105990003F81EFCFAFEFCA1ADA0AE6CF3F5FEB8164
:1059A000FC810E0F1F1F89819A8101969A8389833A
:1059B000363009F0BDCF7BCF6AEF64039001659F5D
:1059C000300D112420583F4F281739075CF4A88563
:1059D000B985ED91FC9111970190F081E02D6AE07D
:1059E000CD01099581E090E029960FB6F894DEBFCD
:1059F0000FBECDBFDF91CF911F910F91FF90EF9020
:105A0000DF90CF90BF90AF909F908F907F906F90DE
:105A10005F904F903F902F9008950F931F93CF93D7
:105A2000DF931F92CDB7DEB78C0169830E9474317A
:105A30006981681741F0C8010F90DF91CF911F91E4
:105A40000F910C947C310F90DF91CF911F910F91AA
:105A500008950C947431EF920F93CF93DF930E94CB
:105A60001926C0E0D0E0EE24E39400E220E242EB0D
:105A700056E260E070E0CE010E94932AA096C03802
:105A8000D10589F7C0E0D0E0EE24E39400E220E203
:105A900042EB56E260E270E0CE010E94932AA096AB
:105AA000C038D10589F781E097E0DF91CF910F9160
:105AB000EF900C94812AE9E2F7E01382128288EEDB
:105AC00093E0A0E0B0E084839583A683B78382EB64
:105AD00092E0918380838FEF9FEF95878487EDEF2E
