:100000000C94D1160C94F9160C94F9160C94F9165C
:100010000C94F9160C94F9160C94F9160C94F91624
:100020000C94F9160C94F9160C9442240C94B424F4
:100030000C94F9160C94F9160C94F9160C94F91604
:100040000C94F9160C94F9160C94F9160C94F916F4
:100050000C94F9160C94F9160C94F9160C94F11FE3
:100060000C94F9160C94F9160C94F9160C94F916D4
:100070000C94F9160C94F9160C94F9160C94F916C4
:100080000C94F9160C94F9160C94F9160C94F916B4
:100090000C94F9160C94F9160C94F9160C94F916A4
:1000A0000C94F9160C94F9160C94F91600FF0A1426
:1000B0002850FF000000FF42242442003C42898D6A
:1000C00081A1423C000C10113C52423C0018087DBA
:1000D000484878001028285444FF02020070080E97
:1000E0003040300E0022223E02023E0000201E1050
:1000F00014100000FF90909090908000FF919294D7
:1001000098908000FF919191F191919FFF91919131
:100110009191919FFF818181818181FFFF11111157
:10012000818181FFC2340C02818EB0C0C2B48C8246
:10013000818EB0C040414244485060404D4D4C4CCF
:100140004D4C4B57505F80BF8042F8FFF2F5F2F5FF
:10015000F5FBF6F2FD83315C639CFFFFF8FAFAFAD7
:10016000063296F41EEC01D7CF1F1FFFBF3FBF9F83
:100170002074C037C73EC8DC027FFFFFFFF8428013
:10018000BF805F50574B4C4D4C4C4D4DFFFF9C6317
:100190005C3183FDF2F6FBF5F5F2F5F2FF1F1FCFA0
:1001A000D701EC1EF4963206FAFAFAF8FFFF7F0246
:1001B000DCC83EC337C074209FBF3FBFFDFCF7F7CC
:1001C000FFFEFCFDFCFEFF03F8FFFF007F7F7F7F4B
:1001D0007F7F7F7F7F7F7F704F3F1F008E3EFEFEC1
:1001E000FEFEFE3EC6FAFAFAF60EFE002FDE38FBE1
:1001F0007B1B0D2EDF1FFFFF07F8FF0000FEE0CE88
:100200009EBFBFBEB9336F6F00FFFEFC007F7F7FD4
:100210007F7F7F7F7F7F7F007E7F7F7F00FEC2F6B4
:10022000FEE2DEE6DEE2FEFE3E8EF6F600BF3FFFB9
:1002300033EFDF03DFE7FFFF00FF1F0F7F7F7FFF4D
:1002400001FE0A6A0A5ABE519B03FF7FFDFDFDFDB8
:10025000FDFCFCFCFCFCFCFCFCFDFDFD7F7F675B0A
:100260003BEDBDD5DB671FFF7F7F7F7FFDFDFDFD84
:10027000FDFCFDFCFCFDFDFDFDFDFDFDBFDFEFFE1A
:10028000FF7B996FE7DBBB75FF00FFFFFDFDFDFD09
:10029000FDFDFDFDFDFDF9E5CCDCD0C1DBBB7BFB4D
:1002A000FBEB9B6B7BBBDBEBF303070FFFFF1FEF4E
:1002B000FBF3FFFFFEFDFDFAFF00FAF8FFFFFF0072
:1002C000FF75BBDBE76F997BFEEFDFBFFFFFFFF83A
:1002D000F0EDDDD9D1C1C5FDFDFDFDFDFFFFFF0343
:1002E000F3EBDBBB7B6B9BEBFB7BBBDBFFFFFF0025
:1002F000FFFAFDFDFEFFF3FBEF1FFFFFFFFFFFFF18
:1003000043BD5A66665ABD837FFFFFFFFFFFFFFFB5
:10031000FCFFFFF8FFFFFFFFFCFFFFFF9B2B4BBB2A
:10032000FBFBFBFBFBFB03FFFFFFFFFFD6D9DFDF80
:10033000DFDFDF1F5F1FC0FFFFFFFFFFFFFFFFFFCC
:10034000FF03FBFBFBFBFB8B6B2B9B7BFFFFFFFF91
:10035000FFC01F5F1FDFDFDFDFD9D6D503FD3535D7
:10036000B5B5B535FDB5BD75FD03EF1F807F4050B8
:100370005C445C407F6B6B4F5B5A7F80FF7F3F5FCD
:100380006F777B75757B776F5F3F7FFF807B47174C
:100390004378126D6D12744F27536F8000E11EFF7A
:1003A000EFD7EFFFFFEFFF000000FFFFF0EBE2F8F9
:1003B000F8F8F8F8F8F8F8F8F8F4EBE701FD01B907
:1003C000B9B9B9B9B9B9B901FD01F5F300FF02FA3C
:1003D000FAB6D6F6F6FAF2060F00FFFFFF7F3F5F90
:1003E0006F777B75757B776F5F3F7FFF807F5B5B90
:1003F0005B5B5B7B7B7B7B7F7F7F7F807F9BE5C9BC
:10040000D5ADB9BDBDBDBDDDDDE58B7FF8C50B1735
:100410002F1F3F1F3F7F7F7F7F3FC7F800FEFEE615
:10042000D2CACACAC2C2C2E2E6FEFE00007F4713B9
:100430002D0505590D21250D1B477F0000FEFEE609
:10044000D2CACACAC2C2C2E2E6FEFE00007F473B71
:1004500025014D1D15354D1D2B477F00EBABAB6BBB
:10046000EBEBEBEBEBEBEBEB6BABABEBFFBFB3B760
:10047000BEBDDBE7E7DBBDBEB7B3BFFF00AADDDD76
:10048000AA775577EEAAEE55BBBB550000AADDDD75
:10049000AA775577EEAAEE55BBBB550007FBFD6E5C
:1004A000FE6EFE00FE6EFE6EFDFB07FF003F7F5BF3
:1004B0007F5B7F007F5B7F5B7F3F00FFFFFFFFFF76
:1004C000FFFF00EEEEEEEEE1FFFFFFFF07EBEDEECC
:1004D000E0EE0EEEEEEEE0EE0EEDEB070F707E704E
:1004E00077007E7077707E0077707E700077777708
:1004F0007077077777777077770777777F7F7F7F5A
:100500007F7F7F7F7F7F7F7F7F7F7F7FFDFDFDFD03
:10051000FDFDFDFDFDFDFDFDFDFDFDFDFAFAFAFA17
:10052000FAFA00FEFE00FFFFFFFFFFFFFFFFFFFFE5
:10053000FFFF00FFFF00FFFFFFFFFFFFFFFFFFFFC9
:10054000FFFF00FEFE00FAFAFAFAFAFAFFFFFFFFD9
:10055000FFFF00FFFF00FFFFFFFFFFFF7F7F7F7FA9
:100560007F7F7F7F7F7F7F7F7F7F7F7FFDFDFDFDA3
:10057000FDFD01FDFD01FDFDFDFDFDFDFAFAFAFAAF
:10058000FA3ADAEAE2EADA3AFAFAFAFAFFFFFFFFAF
:10059000F9F4F6F4F4F6F6F4F9FFFFFFFF00FFFBC1
:1005A0001D0DC7E7E7F7ED1DFBFF00FFFF00FF95FF
:1005B000B6ECF8F9F9F9ECB695FF00FFFF1FEFD79D
:1005C000F7F7B7D7B7B7F7F7D7EF1FFFFF007FDE13
:1005D000ECDAFFECE9FADFEAFD7F00FF59C6D6143A
:1005E00031C3EBE92CAD4C65630BD81BB00E6671C3
:1005F000228C3E3C4C31EB07B3B88D300000008FAD
:10060000CFCF4F6F2F77173BCBDDDD0102F7F1F135
:1006100000FDFC00FFFFFF00DF0FEF00FFFFFF1FEB
:100620005F0F6F07D7C3DB01F5707600017D7D009A
:100630002F0737006B616D607A787B0007F31B5BD7
:10064000F39B739BF3DB13FBD31BD307F0E7ECE5C2
:10065000EFE4EFE4EFE5ECE5EFECE7F03FDFEFEFA1
:10066000DF332D1E1E2D33DFEFEFDF3FFFFEFDFDDD
:10067000FEFF0FE0E00FFFFEFDFDFEFF38FBBB5B62
:10068000DB4B5B5BBBFBBBBBBBBBBBBB38BBBBBC0C
:10069000B9A2A9BCBBBBBBBBBBBBBBBBFE7DBDDBAF
:1006A000C7BF7FFFFE7DBDDBC7BF7FFFFE7DBDDB1C
:1006B000C7BF7FFEFE7DBDDBC7BF7FFEFFFFFFFF25
:1006C000FFFF00FFFF00FFFFFFFFFFFFFFFFFFFF38
:1006D000FFFF00FFFF00FFFFFFFFFFFFFF07FBFD26
:1006E000FDFDFD01FDFDFDFDFDFB07FFFFE0DEBEA5
:1006F000BEBEBE80BEBEBEBEBEDEE0FF83BBBBBB19
:10070000BBBBBB38BBBBBBBBBBBBBBBB83BBBBBBF4
:10071000BBBBBB38BBBBBBBBBBBBBBBBFF01FEFE9C
:10072000E6CAC2CAC2CAC2E67EFE01FFFF807F7F60
:100730007F7F7F7F7F7F7F7F7E7F80FFFF122512FD
:10074000FF122512FF122512FF122512FFE102E10E
:10075000FFE102E1FFE102E1FFE102E1FFFFFF5FF4
:100760003F5FAB891389AB7FBFBF7FBFFFFFFFFF39
:10077000FEFDEAD081D0EAFBFBFCFFFF77B3CDEEB4
:10078000773BDDEC73BADDCE373BDCEE75BBDDCEFF
:1007900037BBDCEE77B3CDEE773BDCEEDF4E9F6F01
:1007A0006F6FAFCF6FEFDFBB7FFFBFFFFF601EBF7D
:1007B0003B9CB1AFBFBBB3BDDEA997FFFFFEFFEF10
:1007C000E7FFFFFFFFFFFFFBFFBFFFFFFF7F7FFB99
:1007D000F7FBFFFFFFFFB7F7FFFBFFFFC44366D444
:1007E0001C040C1453705C870C0888FC3B8448483C
:1007F00049494DA7140C74C4C7C5C8B8E32624746E
:100800009C848C9350705C870C0888FCB54A4444E7
:10081000444446A31C3444C2C5C9B88455885522F3
:1008200055885522AAFFAAFFAAFFAAFFAAFFAAFF7E
:10083000AAFFAAFF558855225588552204040200B4
:1008400007040201030904020308010303000A0D5F
:100850000300090F0701030F070800000705020442
:100860000E0D01010A0D05070704080A06050B0B0A
:1008700006070B0B090F0C0E03070F0F040E1012C7
:10088000040F1315FF00FF00FF00FF000000000031
:100890000003FF00FF01FF01FF01FF01FF01FF0156
:1008A000FF00FF00FF01FF0101010201010202013F
:1008B0000203010200010001020002030000000126
:1008C0000001010002010103010104010105010110
:1008D00005010206010207010308010309011414BE
:1008E00001060101010101010101010202021401DD
:1008F00014060101010101060606020202021404A7
:10090000040606060606010102060606060214048F
:100910001414140119171A01020602020202140427
:10092000141406060C060C06060602020202140443
:100930001406020214061402020602020202140540
:100940000406020214061402020602020202141431
:10095000140614140104011414060206020205060A
:100960000606060604070406060606060506010135
:1009700001061414010401141406020602020801FF
:100980000406020214061402020602060202080805
:1009900001060202140614020206020602020804FC
:1009A00001060606060606060606020602020808F4
:1009B000010101010101010602020206060208020C
:1009C00006060606060606060606020202020802D9
:1009D00002020202020202020202020202021414D3
:1009E000140101141414141B140202020202141440
:1009F000140101141414010114020202020214145D
:100A000001010101010101010102020202021414AB
:100A1000010101010101010101020202020214149B
:100A2000010107010107010101020202020214147F
:100A3000010101010101010101020202020214147B
:100A4000010101011B010101010102020202141452
:100A5000010101010101010101010202020214145C
:100A6000010101010101010101010202020214144C
:100A7000010101010101010101010202020214143C
:100A8000010101010101010101010102020214142D
:100A9000010101010101010101010102020214141D
:100AA000010101010101010101010101020214140E
:100AB00014010101010101010101010102021414EB
:100AC00014010101010101010101010102021414DB
:100AD00014141B1B1B1B1B1B1B1B1B1B1B020202BF
:100AE00002020202020902020202020401010201E0
:100AF00001010404060606040404020404040204BA
:100B000002020202020202020104020402040204BE
:100B100002010201010101010401010402010204B8
:100B200004010201010202020201010102010204A8
:100B3000010102010101010102020202020102049B
:100B4000020102020201020202010101020102018C
:100B50000201010102010201020101040204020179
:100B60000205020102010201020202040204020162
:100B70000201010102010101020102040404020157
:100B80000202020202020101020102040201020445
:100B9000040401010102010102010101020102023A
:100BA0000402020201020202020101020202010227
:100BB0000404040201010404020101010101010213
:100BC0000202040202020104020202010101010107
:100BD00001040402010104040404010101011414CC
:100BE0001414010101010101010101141414141470
:100BF0000101010101010114140101010114140199
:100C00000101010101141401011401010114140175
:100C10000101010114010101141401010101140178
:100C20000101011414011401140101010101140155
:100C3000010101140101010101010101010114017E
:100C4000010101140101010101010101010114016E
:100C50000606010101010101010101010101140167
:100C60000607010101010101010101010101140156
:100C700006010101141414141401010101011401ED
:100C800001010114140101141414010101011401E2
:100C900001011414141401011414010101011401BF
:100CA00001011414140101011414010101011401C2
:100CB00001141514010114010101010101011414B1
:100CC0001414060606061414010101011414141468
:100CD00014060706141414141414141414140131F3
:100CE0000132013301340135013601380139010186
:100CF0000101010101010101010101010101012ABB
:100D0000012B012C012D012E012F0130013A01018F
:100D100001010101010101010101010101010123A1
:100D2000012401250126012701280129013B010198
:100D30000101010101010101010101010101011C88
:100D4000011D011E011F012001210122013C0101A1
:100D5000010101010101010101010101010101156F
:100D60000116011701180119011A011B013D0101AA
:100D70000101010101010101010101010101010E56
:100D8000010F01100111011201130114013E0101B3
:100D9000010101010101010101010101010101073D
:100DA00001080109010A010B010C010D01010101FA
:100DB0000101010101010101010101010101010024
:100DC0000101010201030104010501060101010104
:100DD0000101010101010101010101010101000005
:100DE0000000000000000000000000000000000003
:100DF00000000000000000000000000000000000F3
:100E000000000000000000000000000000000000E2
:100E100000000000000000000000000000000000D2
:101DD000000000000000000000000000000052367B
:101DE0007B365E0A791416567E151514281A6F3A3A
:101DF0005C235E357F44577D574472127E5B7E12B2
:101E000072282A1A3F2E2A693D2537445F225E2216
:101E10003A2F7A2F3A22011D151D417F01201F50B4
:101E200042243F40527F4E5A2F3A4E567D36493714
:101E30004A5F281A7E5E5D7D080101017F05090168
:101E400008080808080C08207E15405B295B4B5EDB
:101E50003B2E09527F6A6B04765E75044042424213
:101E6000424240127B1640447F44047C565D567CBF
:101E7000044454557E5454442A2A7B2E7A2B5A44C7
:101E80005C372C497D0B40424A4A4A42407F2B7BBB
:101E9000287B2B7F423E4B7A5C235E0C7F12696469
:101EA00069126B622A7F3A7F2A0A7D1437557F14A4
:101EB0001E12127F12121E5256573E56575204746B
:101EC0005255567404047E01047F2A2A7D1D257F05
:101ED0001D257D127A07027F526A1A773F7A377F73
:101EE0001A524E327F324E523E207F445F225E5461
:101EF000523F7A3F5A50177F286A2F7A28473D551C
:101F0000770E407F3E2B3E040B527E147B062C4BFB
:101F10007E0A42422E132E42421413365C7B161266
:101F20002A75215F51275C527F4234477F5401015B
:101F3000417D05030110755D575D7110222222520B
:101F40007F0A021111097F0109110C6B6A6F6A6A1D
:101F5000086A6B403E1A79285434567D163454442E
:101F60005C372C7E427E505F357F355F5049385458
:101F70005E775E54495D3B2D0E407F2A75026A6F85
:101F80006A02424E2A7F2A4E423E2A3E6A2F7A2811
:101F9000120A7F2A2A7A0252367A35514A25494551
:101FA000597F5B294B6A6B000A527F02403F7B7B63
:101FB000453F4514567E155F2455404F2909294F4A
:101FC000404437457D555744047E7F756F757F1AB1
:101FD0007F7F2B7C2B7F1A7F282F7D2F2849385518
:101FE0004C7F4C5506626E7B6E6206243F5E2A7FF4
:101FF0006A5E11097F494979012D352D401D175D14
:102000006A6B5474573C45527F0A445F2455682AD2
:102010005E5B7E0A686A265F4A5F155F2A2E6A7FCA
:102020002A3E12067F087A2F7A080A556B015A2D2C
:102030005A4453527F5252422A755C3E177E5C0AC4
:102040007D485A2D584C7D457D577D457D0937315A
:102050002E3F7A2E0A7D1A7F1A457D06735E7B5EBF
:102060007306413D155D3E0A79293F5F557F555FF7
:10207000357F252A207F104444241F2444447500C2
:10208000486A5F2A48481A6F0A4F1A4812765E5704
:102090005E7612493A40786F497F493A40626B6BED
:1020A00062523E7A5F3A5E52401F551F551571408D
:1020B00040407F444440445C372C6C6B6C49385240
:1020C0006F5A775E7C5C6F5A443F557F5B37107B5D
:1020D000377F4938635F775F635157755F35575175
:1020E000100C407F0004182A752842427E422212BA
:1020F0002A7F2A1222224E7B2E443F451D155577FA
:1021000000007F141D325F7E1F12047E133E5F7637
:102110001A047E015F55555F20521B56175C7008EC
:102120007F3F097F0E7F7F1B54167D1654547E5BC4
:10213000365C235E527F7C2C577A2A423E4B7A02D1
:102140002952705775057557705256327639555168
:10215000403F157F15557F047F24623762766B629E
:102160002A7B2E3B5A2A75211F753771427E3535E1
:10217000377C4075000C6B6F6A084042427E4242D9
:1021800040423F427E7E427E75007E4A7F4A7E7F8D
:102190006D6D455F657F403E4A3E3B3E4A425E2A4A
:1021A0007F2A5E424C3F0C7F000C7F493A786B7F60
:1021B0005B786A63087A2F7A08403F455D255D4168
:1021C0007E2D4E3A3F3A4E545D7F557F251B54334A
:1021D0007E347B567A4A3A3F4A5D55570C7F3A2FF8
:1021E0007A3F5E00000000002F000300033F123F13
:1021F000163F1A120824323D2A020100003E4141D6
:102200003E000A070A083E0840200008080800208F
:10221000001008041C2A1C243E20322A24222A14DE
:1022200018143E2E2A121C2A12023A06142A1424CA
:102230002A1C002400402400081422141414221420
:102240000802290612291E3E093E3F251A1E212199
:102250003F211E3F25213F05011E21393F083F2117
:102260003F2110201F3F043B3F20203F063F3F01FE
:102270003E1E211E3F09061E215E3F0936222519FA
:10228000013F013F203F3F100F3F183F330C330306
:102290003C03312D23007F41153E15417F00020193
:1022A0000240404000010218243C3F241818242416
:1022B00018243F182C2C043F0548543C3F04380098
:1022C0003D00403D003F0834013F003C1C383C04C9
:1022D000381824187C241818247C3C0804283C1442
:1022E000043E243C203C3C100C3C303C2418244C44
:1022F000503C24342C083641007F0041360801014F
:10230000011028101F010120203E102000000800AD
:102310000000000000FEFF07FBFAFABA7BBBFBFBE4
:10232000FBFBBB7BBBFBFBFBFB07FFFE00000000D6
:102330000000000000FFFF00FFFFFFBEBFDEDFDB8D
:10234000DBDFDEDFDEBFFFFFFF00FFFF000000007E
:102350000000000000FFFFFEFDFDFD9D8D9DFDFDC9
:10236000FDFDFDFDFDFDFDFDFD7EFFFF000000000C
:1023700000000000007FFFFDF8F8FFCF8FCFFF784F
:10238000787D7FFFEFC7EFFFFEFCFE7F00000000BF
:102390005245424F4F5400534554555020454550E7
:1023A000524F4D00434C45415220454550524F4DF0
:1023B00000F28834F11AF24F461F5A0E9192696A60
:1023C000F28F90F11A11121811171012151914200A
:1023D00051510E434F4DF28B3AF1223527F28C8D3D
:1023E0008E3AF21E87F100F28889F100F2888AF1B4
:1023F00012101210F2716D04058586F101F21F842E
:10240000F11AF23C82832CF112101012F28103F1C6
:102410001AF23C82832CF112101012F2217C7D7E84
:10242000F12D2934F27F80F26B7BF27778797AF2A2
:1024300019680203F25C09F10E0E0EF27545362A98
:102440002D2E76F11110F22EF270253A644371723E
:10245000736774696AF202033B3C30F2646B6C454B
:102460006D4F6E6F23F26330646566670809196803
:10247000696AF26162F25D5E5F6017F20607571FDC
:102480005A5533175B5C09F10E0E0EF243450E4BA5
:102490004C59F2563A4C4D57580C0CF2143E5051D0
:1024A000333A2A52535455F24E4E4F4F0CF2494A8A
:1024B0001E3E0E4B28292A4C4DF24142F100F243B8
:1024C0004445464748F202033B3C3D3E3F40F23123
:1024D00032333435363738393AF11110F22EF226CC
:1024E0002728292A23232B2C2D2E2F0430F22223B8
:1024F000142425F10E0E0EF21E1F2021221923F2A4
:102500001B111C1D17F2101118F100F20607191A01
:1025100017F2101112F100F21314151617F2080930
:102520000AF121F20B0C0D0E0F1011F11210121006
:10253000F204050607F10A200405F2000102030176
:102540000204081020408000000000003E5B4F5B4A
:102550003E3E6B4F6B3E1C3E7C3E1C183C7E3C1846
:102560001C577D571C1C5E7F5E1C00183C1800FF2A
:10257000E7C3E7FF0018241800FFE7DBE7FF304858
:102580003A060E2629792926407F050507407F0552
:10259000253F5A3CE73C5A7F3E1C1C08081C1C3E49
:1025A0007F14227F22145F5F005F5F06097F017F37
:1025B000006689956A606060606094A2FFA29408DA
:1025C000047E040810207E201008082A1C08081C1D
:1025D0002A08081E101010100C1E0C1E0C30383E5D
:1025E0003830060E3E0E06000000000000005F00BE
:1025F000000007000700147F147F14242A7F2A128A
:10260000231308646236495620500008070300006F
:102610001C2241000041221C002A1C7F1C2A0808A1
:102620003E080800807030000808080808000060B4
:10263000600020100804023E5149453E00427F40A0
:102640000072494949462141494D331814127F10FF
:1026500027454545393C4A49493141211109073649
:1026600049494936464949291E00001400000040E6
:1026700034000000081422411414141414004122E0
:10268000140802015909063E415D594E7C1211128F
:102690007C7F494949363E414141227F4141413E8B
:1026A0007F494949417F090909013E414151737FF1
:1026B0000808087F00417F41002040413F017F081A
:1026C0001422417F404040407F021C027F7F04086B
:1026D000107F3E4141413E7F090909063E4151219B
:1026E0005E7F09192946264949493203017F0103C2
:1026F0003F4040403F1F2040201F3F4038403F6345
:102700001408146303047804036159494D43007F9E
:102710004141410204081020004141417F0402016F
:102720000204404040404000030708002054547811
:10273000407F284444383844444428384444287F5F
:10274000385454541800087E090218A4A49C787FB9
:102750000804047800447D40002040403D007F1084
:1027600028440000417F40007C047804787C080401
:1027700004783844444438FC1824241818242418B5
:10278000FC7C08040408485454542404043F4424A2
:102790003C4040207C1C2040201C3C4030403C44BD
:1027A000281028444C9090907C4464544C44000879
:1027B00036410000007700000041360800020102A7
:1027C00004023C2623263C1EA1A161123A4040206F
:1027D0007A385454555921555579412154547841EA
:1027E000215554784020545579400C1E52721239AC
:1027F0005555555939545454593955545458000065
:10280000457C410002457D420001457C40F0292481
:1028100029F0F0282528F07C545545002054547C9C
:10282000547C0A097F493249494932324848483282
:10283000324A4848303A4141217A3A4240207800B1
:102840009DA0A07D39444444393D4040403D3C2456
:10285000FF2424487E4943662B2FFC2F2BFF092998
:10286000F620C0887E090320545479410000447D3D
:10287000413048484A32384040227A007A0A0A7287
:102880007D0D19317D2629292F2826292929263031
:10289000484D4020380808080808080808382F1054
:1028A000C8ACBA2F102834FA00007B000008142AA4
:1028B000142222142A14089500220095AA0055001B
:1028C000AAAA55AA55AA000000FF00101010FF0088
:1028D000141414FF001010FF00FF1010F010F0147B
:1028E0001414FC001414F700FF0000FF00FF141480
:1028F000F404FC141417101F10101F101F141414CC
:102900001F00101010F0000000001F101010101F0A
:1029100010101010F010000000FF10101010101018
:10292000101010FF10000000FF140000FF00FF0057
:10293000001F10170000FC04F414141710171414CF
:10294000F404F40000FF00F714141414141414F722
:1029500000F7141414171410101F101F141414F47B
:10296000141010F010F000001F101F0000001F14C2
:10297000000000FC140000F010F01010FF10FF1415
:102980001414FF141010101F00000000F010FFFFBF
:10299000FFFFFFF0F0F0F0F0FFFFFF00000000008D
:1029A000FFFF0F0F0F0F0F38444438447C2A2A3E94
:1029B000147E02020606027E027E026355494163CE
:1029C0003844443C04407E201E2006027E020299C8
:1029D000A5E7A5991C2A492A1C4C7201724C304A61
:1029E0004D4D303048784830BC625A463D3E4949EA
:1029F00049007E0101017E2A2A2A2A2A44445F4492
:102A00004440514A444040444A51400000FF0103C1
:102A1000E080FF000008086B6B083612362436068B
:102A20000F090F06000018180000001010003040B9
:102A3000FF0101001F01011E00191D1712003C3C7F
:102A40003C3C0000000000D5F08D14A1C881CFD916
:102A5000F1AF2000506C656173652075706C6F611B
:102A6000642050617274203200FE01010F111111B7
:102A7000111115110F010204F87F80FE81819595D7
:102A8000959595958181FE807FF2EBECED8A050F9F
:102A90000E0C0C06080A0F10090C0C060C1307107C
:102AA00006030D0A060C0C070505030C0F0F0E0D8F
:102AB0000C160F05080B00020202010009040000B9
:102AC0000102020000052400100105240101010497
:102AD00024020605240600010705810310004009B1
:102AE000040100020A00000007050202400000077E
:102AF0000583024000000403090412010002EF02F2
:102B000001404123368000010102030141726475D6
:102B1000696E6F204C4C430041726475626F79009E
:102B200000002040404040867C7848784E7C000081
:102B300000010202020202019F3F3F3F3F1F80004F
:102B400000000030202040807E7C487A4E7C0000CF
:102B5000000E0101010202019F3F3F3F3F9F000025
:102B600000002040404040867C7848784E7C000041
:102B700000010202020202011FBF3F3FBF1F00000F
:102B800000002040404040807E7C48784E7C000021
:102B900000000304040402011FBF3F3FBF1F0000E9
:102BA00000000030202040807E7C487A4E7C00006F
:102BB000000E0101010202011FBF3F3FBF1F0000C5
:102BC00000007C4E7A487C7E8040404040200000DF
:102BD00000001FBF3F3F3F9F0102020202020100AF
:102BE00000007C4E7848787C864020203000000031
:102BF00000009F3F3F3F3F9F0102020101010E0085
:102C000000007C4E7A487C7E80404040402000009E
:102C100000001FBF3F3FBF1F01020202020201006E
:102C200000007C4E78487C7E804040404020000080
:102C300000001FBF3F3FBF1F010204040403000048
:102C400000007C4E7848787C8640202030000000D0
:102C500000001FBF3F3FBF1F0102020101010E0024
:102C600000000000007C4E7C4C7E7CA01000C00068
:102C700000000000001F3FBF3FBF1F000101000018
:102C800000000000007C4E7C4C7E7C906050102048
:102C900000000000001FBF3F3F3F9F0000000000FA
:102CA00000000000007C4E7C4C7E7CA01000C00028
:102CB00000000000001FBF3F3FBF1F0001010000D8
:102CC00000000000007C4E7C4C7E7C905040808058
:102CD00000000000001FBF3F3FBF1F0000000000BA
:102CE00000000000007C4E7C4C7E7C9060501020E8
:102CF00000000000001FBF3F3FBF1F00000000009A
:102D000000000040807CFE7C7CFE7C000000000017
:102D100000030404021C3DBA3BBC1F00000000007D
:102D2000402020C0007CFE7C7CFE7C000000000077
:102D300000000008051ABA3B3D3C9F00000000005F
:102D400000000040807CFE7C7CFE7C0000000000D7
:102D500000030404021CBD3A3BBC1F00000000003D
:102D600000000000007CFE7C7CFE7C000000000077
:102D700000020301021FBC3E3DBC1F00000000001A
:102D8000402020C0007CFE7C7CFE7C000000000017
:102D900000000008051ABA3B3DBC1F0000000000FF
:102DA000462D11241FBECFEFDAE0DEBFCDBF12E00B
:102DB000A0E0B1E0E2EBFCE502C005900D92A63A7E
:102DC000B107D9F727E0A6EAB2E001C01D92A53508
:102DD000B207E1F716E1C1EDD6E104C02197FE018B
:102DE0000E944C2EC03DD107C9F70E943E2A0C9488
:102DF000572E0C9400004F925F926F927F928F92A9
:102E00009F92AF92BF92CF92DF92EF92FF920F9379
:102E10001F93CF93DF93CDB7DEB728970FB6F89403
:102E2000DEBF0FBECDBF809100019091010197FDE3
:102E30000F969C0104E0359527950A95E1F72093BC
:102E4000AB02809102019091030197FD0F9614E06F
:102E5000959587951A95E1F78093AA023327A901E2
:102E6000445051095A8349832B5F3F4F3C832B8346
:102E700099279C01225031093E832D830396988720
:102E80008F8357FF07C081EF489F402D1124409347
:102E9000A90202C01092A90237FF07C081EF289F44
:102EA000202D11242093A80202C01092A802809124
:102EB000A9028093A7028091A8028093A602FE0136
:102EC00031969E01275F3F4F4FE050E08081918116
:102ED00097FF03C01182108204C0409714F0518301
:102EE00040833296E217F30789F7FD80B0EF8B2E0F
:102EF000AF2CB12C8F8198858A159B050CF4D2C01C
:102F00009980892D90E02B813C81281739070CF49A
:102F1000BEC02091AB02C0900001289DC00C1124BE
:102F20002091AA0200910201289D000D11242091F8
:102F3000B102F50130E1239FE00DF11D1124A4E061
:102F4000EE0FFF1FAA95E1F7E80FF91FE252F74FC6
:102F5000949110E0D12C9C3189F16091A60280916E
:102F6000A7029D31A8F4913009F444C0923009F0D1
:102F700073C04090DF02512C612C712C75946794C2
:102F8000579447949FEF491A590A690A790A2BC046
:102F90009E3281F19333D1F1923209F05DC04090BD
:102FA000DF02512C612C712C7594679457944794CF
:102FB00031E2430E511C611C711C15C06DE370E0C1
:102FC00080E090E00E94821F660F771FFB01EC5BA0
:102FD000FE4F408151816091A60270E0601B710B31
:102FE0008091A70244C09201220F331FF901EC5BCC
:102FF000FE4F38C070E0601B710B90E001E020E1F3
:1030000040E18C199D090E9445273AC0662E712C1B
:10301000601A710A482E512C4C185D0801E020E11D
:1030200040E1B301C2010E944527B3016E5F7F4FAB
:103030008091A7026034710528F490E08C199D09F5
:103040000E94E426B3016C5F7F4F60347105C0F4C9
:10305000C2010E94E42614C0E491F0E0EE0FFF1FCD
:10306000EE5BFE4F4081518170E0601B710B90E080
:10307000EE24E39400E120E18C199D090E94532085
:103080008091A702805F8093A70293943ACF8091AA
:10309000A9028093A7028091A602805F8093A60276
:1030A000F39426CF28960FB6F894DEBF0FBECDBF9F
:1030B000DF91CF911F910F91FF90EF90DF90CF9014
:1030C000BF90AF909F908F907F906F905F904F9048
:1030D00008952F923F924F925F926F927F928F92BC
:1030E0009F92AF92BF92CF92DF92EF92FF920F9397
:1030F0001F93CF93DF93CDB7DEB72A970FB6F8941F
:10310000DEBF0FBECDBF5C017A8769874D839B010F
:10311000295F3F4F3C832B834C0137E0830E911C8A
:1031200021E04FE0C4010E941927E984FA8486E077
:10313000E80EF11CCC24C394D12C412C512C07E077
:1031400010E022EF3FEF3A8329832AEF622E7724A3
:103150007A94C50129853A85821B930B9F838E83C0
:103160002FEF421A520A32E0C30ED11C6C0C7D1CA8
:10317000202E220C31E0320DC201079621E0432FB0
:103180002B803C80201A310AB1018A0D9B1D3887A3
:103190000E94192721E04C2DB701C401800F911F17
:1031A0000E94192721E03885432FB1018E819F812C
:1031B0008E0D9F1D0E94192721E04C2DB701C401DF
:1031C000801B910B0E941927401651067CF477FC56
:1031D00009C00150110989819A8102969A838983D5
:1031E000680E791E91E0E91AF108BACF20E047E0B5
:1031F0006B817C81C4010E9443283D81E32FF0E074
:10320000EE0FFF1FE05EFE4F4081518169857A8598
:103210006D5F7F4FE12C08E028E0C50104960E9415
:1032200053202A960FB6F894DEBF0FBECDBFDF91B4
:10323000CF911F910F91FF90EF90DF90CF90BF90B3
:10324000AF909F908F907F906F905F904F903F9046
:103250002F9008950F931F93CF93DF931F92CDB7B5
:10326000DEB78C0169830E94D32D6981681741F014
:10327000C8010F90DF91CF911F910F910C94DB2D1E
:103280000F90DF91CF911F910F9108950C94D32D42
:103290000F931F93CF93DF931F92CDB7DEB7082F05
:1032A00010E0C80179830E942A197981672FC8012B
:1032B00001960F90DF91CF911F910F910C942A19D5
:1032C0001F93CF93DF93C82FD0E0CE010E94461901
:1032D000182FCE0101960E944619C82F61E070E0B8
:1032E00080E090E00E94A61F812F9C2FDF91CF915C
:1032F0001F910895CF93DF93C0E0D0E0FE01E75720
:10330000F54D6491CE010E942A192196C530D10550
:10331000A9F760910C0185E090E00E942A19609164
:1033200000017091010186E00E944819609102013C
:103330007091030188E00E9448196091B1028AE00F
:1033400090E0DF91CF910C942A190E9468290E9485
:103350006829C0E0D0E0EE24E39400E220E240E1FE
:1033600053E260E070E0CE010E945320A096C03886
:10337000D10589F7C0E0D0E0EE24E39400E220E23A
:1033800040E153E260E270E0CE010E945320A0963B
:10339000C038D10589F785EE96E00E94432010924F
:1033A000F40681E08093F50684EA93E20E949C296A
:1033B00085EE96E00E944320C0E0D0E060E0CE01C0
:1033C0000E942A192196C11584E0D807B9F787E928
:1033D00093E20E949C2985EE96E00E9443200E9481
:1033E0007A1961E085E090E00E942A1960E770E0B8
:1033F00086E00E94481968E970E088E00E94481958
:1034000060E08AE090E00E942A1961E080E092E0AA
:103410000E942A1961E081E092E00E942A1980E965
:1034200093E20E949C2985EE96E00E9443206CED79
:1034300075E080E090E00E94A61FC0E0D0E0FE01B1
:103440000995FDCF2091DF0230E0260F311DE1EE1E
:10345000F6E090E0908B8787328B218B0190F08192
:10346000E02D0190F081E02D6FE181EE96E009946E
:103470004F925F926F927F928F929F92AF92BF9284
:10348000CF92DF92EF92FF920F931F93CF93DF9330
:1034900000D0CDB7DEB7482E162F522E702EF42E48
:1034A0006A0137E0632E8C2D8F19851508F07AC0DC
:1034B000F6013491313F09F46CC0323F11F4F2EF60
:1034C0006CC0A42CB12C612F70E06150710901E037
:1034D00029E048E0C50139830E94452739818A8166
:1034E000823F41F1343608F057C0EDE7AE16B10423
:1034F00014F0185F412CA12EB12C842C912C432F59
:1035000050E0CA01880F991F480F591F4C515E4D5A
:10351000E12C08E023E0B501C4010E94532021E022
:1035200043EE51E2B501C40103960E945320F4E03A
:103530004F0E21C0333990F589E7A816B10414F075
:10354000185F412CA12EB12C842C912C639EA001DC
:1035500011244252524EE12C08E027E0B501C4018B
:103560000E94532021E043EE51E2B501C4010796C9
:103570000E945320400E842D90E08937910514F06D
:10358000185F412C772051F0612F842D0E94221A60
:1035900005C0E1EFEA8302C0F1EFFA838FEFC81AAA
:1035A000D80A81CF0F900F90DF91CF911F910F918B
:1035B000FF90EF90DF90CF90BF90AF909F908F9053
:1035C0007F906F905F904F900895CF93DF9380919D
:1035D0001B01813079F038F08230B9F08330F9F492
:1035E00081E090E014C01092AF021092AE028FEF13
:1035F0009FEF06C01092AF021092AE0281E090E001
:103600009093AD028093AC020AC08FEF9FEF90932E
:10361000AF028093AE021092AD021092AC0281E034
:103620008093B002E0910001F09101014091AE025F
:103630005091AF02BF01640F751F673F710570F4B1
:10364000A0910201B09103012091AC023091AD0232
:10365000CD01820F931F873F910518F01092B002A1
:1036600065C0EF01F7FD2F96689413F8D595C795BF
:103670001694E1F7689413F8759567951694E1F739
:10368000C617D707A1F16091B102C3E0440F551FDF
:10369000CA95E1F7E40FF51FF7FD3F9644E0F59575
:1036A000E7954A95E1F780E1689FA001112473E056
:1036B000220F331F7A95E1F7CD01820F931F97FDFB
:1036C0000F9624E0959587952A95E1F7840F951F2D
:1036D00034E0880F991F3A95E1F7E80FF91FE2529D
:1036E000F74FA0ECB1E091E02AE22A0F14C0BD012F
:1036F000B7FF02C0615F7F4FC4E075956795CA95BB
:10370000E1F7D4E095958795DA95E1F768177907A1
:1037100009F0B9CF0BC084913D91831303C0653F7D
:1037200008F490E02A13F7CF9093B002DF91CF9185
:1037300008950F931F930E94E51F0091CF021091EF
:10374000D0022091D1023091D2020C5E1F4F2F4F38
:103750003F4F601771078207930708F440C00E942B
:10376000E51F6093CF027093D0028093D1029093B3
:10377000D2028FEF80930D010E943B2087FD1092B3
:103780000D010E943B2084FF03C081E080930D0166
:103790000E943B2085FF03C082E080930D010E94C0
:1037A0003B2086FF03C083E080930D010E943B20F5
:1037B00083FF03C084E080930D010E943B2082FFC1
:1037C00003C085E080930D010E943B2083FF07C06A
:1037D0000E943B2082FF03C086E080930D011F9171
:1037E0000F9108958F929F92AF92BF92CF92DF92E6
:1037F000EF92FF920F931F93CF93DF93082FC1E3B4
:10380000D0E0C12CD12C760187EE882E99249A9491
:10381000A92CB92C011127C00E9468290E94FB160F
:103820000E94672710910C011150C701B601A50134
:1038300094010E94E92DDA01C901412FBE010E94C5
:10384000691885EE96E00E94432087E0C81AD108E7
:10385000E108F108219781E5C8168FEFD806E80640
:10386000F806C1F606C00E94991B90910D01953093
:1038700099F2DF91CF911F910F91FF90EF90DF9020
:10388000CF90BF90AF909F908F9008954F925F928E
:103890006F927F928F929F92AF92BF92CF92DF9260
:1038A000EF92FF920F931F93CF93DF936C015B0115
:1038B0004A01390110E01017E9F1E12CF12C442400
:1038C0004A94410E5E2CC0E0D0E0C038D10549F1E9
:1038D0008C2F85258C2B80FD22C0CC15DD05FCF0BE
:1038E0008C169D06E4F0EA14FB04CCF06E147F0401
:1038F000B4F041E050E0123010F440E050E04E0DE2
:103900005F1D61E070E081E0841510F460E070E01C
:103910006C0F7D1F20E085EE96E00E94C02121966D
:10392000D4CF9FEFE91AF90A80E4E816F10451F6C2
:103930001F5FC1CFDF91CF911F910F91FF90EF904B
:10394000DF90CF90BF90AF909F908F907F906F90BF
:103950005F904F900895AF92BF92CF92DF92EF9217
:10396000FF920F93CF93DF93D82F20910C01082E55
:10397000000C990B820F911D01970A9718F42D0FD7
:1039800020930C01CEE0DC9FC02D112489EFA82EDE
:10399000BB24BA940E9468290E94FB160E946727E4
:1039A0006501CC1AD108C7FDD394E12CF12C4091CC
:1039B0000C01842F90E001968E199F090A97B0F4AC
:1039C0004F5F4E19B60188E090E00E94691882E0CE
:1039D000E816F10459F001E09601225F3F4F46E1FD
:1039E00050E0B60188E090E00E94461C8FEFE81A94
:1039F000F80A8FE0C80ED11C86E0E816F104B9F68B
:103A00004091DF02465F21E06EE170E08FE090E0E0
:103A10000E9443284091DF02455F20E06EE170E0A4
:103A20008FE090E00E9443284091DF02445F21E054
:103A30006EE170E08FE090E00E94432885EE96E012
:103A40000E944320D7FF02C0CF5F02C0D111C150F6
:103A5000C111A0CFDF91CF910F91FF90EF90DF9038
:103A6000CF90BF90AF9008950F93CF93C0E00C2FED
:103A700020E430E04FE750E060E070E080E090E06C
:103A80000E94461C85EE96E00E9443206AEF70E09B
:103A900080E090E00E94A61FCF5FC43041F7CF9135
:103AA0000F910895AF92BF92CF92DF92EF92FF9263
:103AB0000F931F93CF93DF930E9468290E94FB16F8
:103AC0000E94672740910C01415061E370E080E063
:103AD00090E00E946918809100019091010197FD8A
:103AE0000F96E4E095958795EA95E1F78093AB0210
:103AF000809102019091030197FD0F9644E0959506
:103B000087954A95E1F78093AA025FE3E52E58E096
:103B1000F52EC9EAD8E065E8A62E68E0B62E7EE369
:103B2000C72E78E0D72EFE013197E4918091B10243
:103B3000E81318C0F5013197949180911B019817F3
:103B400019F0E491EF3F71F4F7013397E49180911C
:103B5000AB02E81307C0F7013297E4918091AA0203
:103B6000E817C9F0F4E0EF0EF11C239682E0A80EEE
:103B7000B11CE4E0CE0ED11CF8E0CF3DDF0799F692
:103B8000DF91CF911F910F91FF90EF90DF90CF9039
:103B9000BF90AF900895FE013196E491E13009F0B5
:103BA00033C00E94991B0E94E51F0091D30210911F
:103BB000D4022091D5023091D6020A561F4F2F4FC2
:103BC0003F4F601771078207930708F45BC080912D
:103BD0000D01843009F056C0F5018491882309F461
:103BE00051C0F6011491FE01849190E00B960E9461
:103BF0004619F701249190E0810F911D30E02817BC
:103C000039070CF493C03EC0E13048F5F50144910A
:103C1000F70184918295807FF60124912295207F7F
:103C2000FE0194919093B102922F92959F70909380
:103C3000AB02982F92959F709093AA0230E0309338
:103C400001012093000190E0909303018093020111
:103C500040931B010E94341D0E947A1983CFE230E9
:103C600009F080CFF701849190E081589F4F0E9426
:103C70004619882309F46CC0F5018491813009F05C
:103C800071CF66C0F6011491FE01849190E00B960D
:103C90000E944619810FF7019491981708F462CF9A
:103CA00090E0FC01E257F54D2491880F991FDC014B
:103CB000A651BE4F4D915C9101E068E381E00E9406
:103CC000381A0E94E51F0091D3021091D40220916E
:103CD000D5023091D6020A561F4F2F4F3F4F601723
:103CE00071078207930708F43DCF0E94E51F609398
:103CF000D3027093D4028093D5029093D6020E948F
:103D0000991B80910D01843009F02CCFFE01849124
:103D100090E00B960E944619FE01949161E0680FB5
:103D2000892F90E00B960E942A191CCFFE018491E6
:103D300090E060E00B960E942A190E94E51F6093B4
:103D4000D3027093D4028093D5029093D6020ACF07
:103D5000F6011491FE018491811101C01195F701C2
:103D6000849190E061E081589F4F0E942A1980E081
:103D70000E94F21B812F0E94AB1C80E00E94AB1CB2
:103D80000E947A1968EE73E080E090E00E94A61F1E
:103D9000E9CECF92DF92EF92FF920F931F93CF93D2
:103DA000DF936C017A018B01C0E0D0E0CE15DF0516
:103DB00089F0D8016D918D01D601ED91FC910190B2
:103DC000F081E02DC6010995892B11F47E0102C016
:103DD0002196ECCFC701DF91CF911F910F91FF90FA
:103DE000EF90DF90CF9008953FB7F8948091B7029D
:103DF0009091B802A091B902B091BA0226B5A89BE1
:103E000005C02F3F19F00196A11DB11D3FBFBA2F6C
:103E1000A92F982F8827820F911DA11DB11DBC01CC
:103E2000CD0142E0660F771F881F991F4A95D1F791
:103E300008950895089580E090E008950E94522E1C
:103E40004091C3025091C4022091C1023091C2023C
:103E500042175307B4F49091E8009570E1F3909104
:103E6000E80092FD19C08093F1008091C302909107
:103E7000C40201968F739927892B19F48EEF8093D2
:103E8000E8008091C3029091C40201969093C4020D
:103E90008093C30281E0089580E00895DF92EF925D
:103EA000FF920F931F93CF93DF93D82E8A017B014C
:103EB000E40EF51EEB01CE15DF0571F0D7FE03C051
:103EC000FE01849101C088810E94201F21968111EA
:103ED000F2CF8FEF9FEF01C0C801DF91CF911F910B
:103EE0000F91FF90EF90DF900895615030F0209196
:103EF000F100FC0120830196F8CF289884E6809396
:103F0000C9020895CF93DF9300D000D0CDB7DEB7BC
:103F1000611571058105910579F09B01AC016983FB
:103F20003A834B835C830E94C52D29813A814B8162
:103F30005C810E94E92D03C060E070E0CB010F902E
:103F40000F900F900F90DF91CF9108958F929F92D5
:103F5000AF92BF92CF92DF92EF92FF926B017C0102
:103F60000E94F41E4B015C01C114D104E104F10470
:103F7000F1F00E94F41EDC01CB0188199909AA090D
:103F8000BB09883E9340A105B10570F321E0C21A38
:103F9000D108E108F10888EE880E83E0981EA11C84
:103FA000B11CC114D104E104F10419F7DDCFFF9075
:103FB000EF90DF90CF90BF90AF909F908F9008953B
:103FC000BC0180E090E00C94A61F2FB7F89460919C
:103FD000B3027091B4028091B5029091B6022FBFE6
:103FE00008951F920F920FB60F9211242F933F93B3
:103FF0008F939F93AF93BF938091B3029091B4023C
:10400000A091B502B091B6023091B20223E0230F25
:104010002D3720F40196A11DB11D05C026E8230F00
:104020000296A11DB11D2093B2028093B30290931A
:10403000B402A093B502B093B6028091B7029091FA
:10404000B802A091B902B091BA020196A11DB11DAA
:104050008093B7029093B802A093B902B093BA02CA
:10406000BF91AF919F918F913F912F910F900FBE74
:104070000F901F9018958FB18095807F669B886008
:104080001C9B84600895E1EEF2E080E0A0E0B8E0DF
:1040900000800EBC8111012C1197A0FDFDCF019273
:1040A000B9F70DB408952F923F924F925F926F929D
:1040B0007F928F929F92AF92BF92CF92DF92EF92B8
:1040C000FF920F931F93CF93DF93CDB7DEB72D975A
:1040D0000FB6F894DEBF0FBECDBFED82E22EF12CFD
:1040E0009C012E0D3F1D37FD32C1803891050CF02B
:1040F0002EC19B01200F311D37FD29C16034710590
:104100000CF025C1DB0177FF04C0AA27BB27A61B43
:10411000B70BA770BB279B0177FF02C0295F3F4FFA
:1041200013E0359527951A95E1F777FF08C02150E0
:10413000310968E070E0FB01EA1BFB0BDF01E02FB7
:10414000E695E695E695CE2ED12C077019F0FFEF97
:10415000CF1ADF0AB9017695762F6627779567958E
:10416000680F791F6F517D4F8601020F131F19874A
:104170000887C12CD12CF8E0AF2EB12C85010A1B89
:104180001B0B1F830E83088519852017310709F43F
:10419000DEC02830310509F4DAC02F3F1FEF3107A8
:1041A0000CF4CAC08B0100581F4F1D870C874B01B0
:1041B0003B012B011C011C830B831A8309831B8683
:1041C0001A860A851B850E151F050CF0B5C010E870
:1041D0002116310409F4B0C037FC89C02F3FEFEF3E
:1041E0003E0709F4B0C00A851B850C0D1D1DFD811D
:1041F000F13079F4F801E40FF51FE491F0E08F015C
:104200000A2E01C0000F0A94EAF7F301B0800B29CF
:1042100025C0FD81F11114C0F801E40FF51FE491F0
:10422000F0E00A2E02C0EE0FFF1F0A94E2F78F01A2
:1042300000951095F401A080B12C0A211B210EC01D
:10424000F801E40FF51FE491F0E08F010A2E01C0A0
:10425000000F0A94EAF7F201B0800B250083109753
:1042600009F445C02730310509F441C00A851B8592
:104270000C0D1D1DFD81F13089F4F801E40FF51FCF
:10428000E4910E2F10E00E8002C0159507950A9458
:10429000E2F7EC85FD85B0800B2928C0FD81F11186
:1042A00015C0F801E40FF51FE4910E2F10E00E8009
:1042B00002C0159507950A94E2F700951095E981DB
:1042C000FA81A080B12C0A211B2110C0F801E40F53
:1042D000F51FE4910E2F10E00E8002C01595079592
:1042E0000A94E2F7EB81FC81B0800B2500830A85FC
:1042F0001B850F5F1F4F1B870A870C851D850F5F6E
:104300001F4F1D870C8709811A810F5F1F4F1A836A
:1043100009830B811C810F5F1F4F1C830B831FEFD1
:10432000211A310AEFEF4E1A5E0AFFEF6F1A7F0A69
:104330000FEF801A900A45CF2F5F3F4F60587F4F95
:10434000CE0CDF1C20CF109709F090CFD0CF2D9648
:104350000FB6F894DEBF0FBECDBFDF91CF911F9196
:104360000F91FF90EF90DF90CF90BF90AF909F9014
:104370008F907F906F905F904F903F902F90089517
:1043800060387105D0F440345105B8F4EFE3F5E23C
:1043900080E1849FD001A0781124A60F4770E40F1C
:1043A000F11D8491AF51BD4F222319F06C91862BE2
:1043B00003C080956C9186238C9308952F923F9231
:1043C0004F925F926F927F928F929F92AF92BF9225
:1043D000CF92DF92EF92FF920F931F93CF93DF93D1
:1043E000CDB7DEB729970FB6F894DEBF0FBECDBFAD
:1043F000FC016A3069F425898189928938E0239F1C
:10440000800D911D1124928B818B108A1786AAC072
:104410006D3009F4A7C099878887F5883488238888
:10442000618872880785108900381105C4F0A88555
:10443000B98555962C915597422F50E01F968D9136
:104440009C915097B6E02B9F800D911D1124E8851B
:10445000F985908B8787268921116EC083C0F0E48F
:104460006F16710424F7C80125E0F29E800D911D9E
:10447000112418161906DCF68F2D90E09C838B838F
:10448000C301A8E0FA9E800D911D1124181619068B
:1044900074F6B5E06B9FB0011124FB01E95BFA4DA6
:1044A000FA83E98330E08885998504969E838D831D
:1044B000E981FA81E490353009F4E12C430188E088
:1044C000482EE0FC02C0532C01C0522C51100BC0EE
:1044D000321009C0E6944A948B819C81880E991E03
:1044E0004110EFCF1BC068018C2D801B8F1590F7FA
:1044F00054018A2D88198F1568F4252DA501B60160
:104500008D819E813F830E94C0219FEFA91AB90A25
:104510003F81EFCFAFEFCA1ADA0AE6CF3F5FEB81F8
:10452000FC810E0F1F1F89819A8101969A838983CE
:10453000363009F0BDCF7BCF6AEF64039001659FF1
:10454000300D112420583F4F281739075CF4A885F7
:10455000B985ED91FC9111970190F081E02D6AE011
:10456000CD01099581E090E029960FB6F894DEBF61
:104570000FBECDBFDF91CF911F910F91FF90EF90B4
:10458000DF90CF90BF90AF909F908F907F906F9073
:104590005F904F903F902F900895CF93DF931F929D
:1045A000CDB7DEB76983DC01ED91FC910280F38128
:1045B000E02D41E050E0BE016F5F7F4F09950F9005
:1045C000DF91CF91089583E08093E9008091F2001C
:1045D000882319F08AE38093E8000895FC0184851C
:1045E000958597FD0BC09FB7F89482E08093E90012
:1045F0008091F2009FBF90E0019608959FB7F894D4
:1046000082E08093E9008091F2009FBF90E00895DE
:104610008F929F92AF92BF92CF92DF92EF92FF92D2
:104620000F931F93CF93DF935C016B017A0180910D
:104630001A01882309F45BC08091CA02882309F417
:1046400056C08091C70280FF05C08091E000826063
:104650008093E000E70110E00AEF83E0882E9AE300
:10466000992E2097D9F10E94D82981110AC00150B2
:1046700009F43DC061E070E080E090E00E94A61F78
:10468000F0CF282F30E0C217D3070CF48C2F4FB790
:10469000F8948092E9009091E80095FF1DC0282FC2
:1046A00030E0C21BD30BF601982F915020F081917E
:1046B0008093F100FACFC20ED31E112319F090920D
:1046C000E80009C08091E80085FD06C09092E800EE
:1046D00011E0209709F010E04FBFC3CF1111C3CFF5
:1046E0005D9884E68093C8021E141F0444F081E0A4
:1046F00090E0F5019383828380E090E001C0C701E0
:10470000DF91CF911F910F91FF90EF90DF90CF90AD
:10471000BF90AF909F908F9008950E94D82990E00D
:1047200008950F931F93CF93DF931F92CDB7DEB7FA
:104730008C01FC018485958597FF0EC0CE01019602
:104740000E94AE29019719F4298130E002C02FEFB1
:104750003FEFF80135872487F801848595850F9010
:10476000DF91CF911F910F910895CF93DF931F9207
:10477000CDB7DEB7FC018485958597FD05C02FEF89
:104780003FEF358724870BC0CE0101960E94AE29EA
:10479000019719F4898190E002C08FEF9FEF0F908D
:1047A000DF91CF9108950F931F93CF93DF931F92C3
:1047B000CDB7DEB782E0898342E450E064EB7AE271
:1047C00080E80E944E1F0E94E929DC0112960D919B
:1047D0001C9113970115110569F0D801ED91FC9119
:1047E0000280F381E02DBE016F5F7F4FC801099504
:1047F00097FF07C089810F90DF91CF911F910F9193
:104800000895F80100851185E5CFCF92DF92EF92F0
:10481000FF920F931F93CF93DF931F92CDB7DEB715
:10482000182F062FE42E862F880F8E5F99830E9403
:10483000201F83E00E94201FF12EC12E9981D92EC6
:104840008C2D8F19801798F4F601E7FE02C0849131
:1048500001C080810E94201F182F80E00E94201F2D
:104860008123FFEFCF1ADF0A8111EACF01C081E077
:104870000F90DF91CF911F910F91FF90EF90DF90FC
:10488000CF9008951F920F920FB60F9211248F931D
:104890009F938091E1009091E100937F9093E100DC
:1048A00083FF0FC01092E90091E09093EB0010920B
:1048B000EC0092E39093ED001092CA0298E090937E
:1048C000F00082FF20C093E09093E9009091F20005
:1048D000992319F09AE39093E8009091C8029923E4
:1048E00039F09091C80291509093C802992389F1B0
:1048F0009091C902992339F09091C90291509093F7
:10490000C902992341F184FF10C08091E2008E7E9C
:1049100081608093E2008091E1008F7E8093E100CE
:104920008091C7028E7E806111C080FF16C0809189
:10493000E2008E7E80618093E2008091E1008E7EB5
:104940008093E1008091C7028E7E81608093C702D0
:1049500004C05D9ACDCF289AD6CF9F918F910F90AA
:104960000FBE0F901F9018951F920F920FB60F92C7
:104970001124CF92DF92EF92FF920F931F932F9308
:104980003F934F935F936F937F938F939F93AF93D7
:10499000BF93EF93FF93CF93DF93CDB7DEB76C97C1
:1049A000DEBFCDBF1092E9008091E80083FFEDC12A
:1049B00068E0CE0145960E94751F82EF8093E80063
:1049C0008D8987FF05C09091E80090FFFCCF03C060
:1049D0009EEF9093E800982F907609F0C6C09E89CC
:1049E0002F89188D91110CC0803829F48091C6024E
:1049F0008093F10002C01092F1001092F10048C1C2
:104A0000422F50E0512B913051F4811141C141307E
:104A1000510509F03DC18091C6028D7F0BC09330D6
:104A200061F4811135C14130510509F031C18091E6
:104A3000C60282608093C6022BC1953041F48091FA
:104A4000E80080FFFCCF20682093E30021C196306E
:104A500009F05FC0EB8CFC8C1092E9001092C4024C
:104A60001092C302123091F51092C2021092C1024C
:104A70000E94D32399E0BE016F5F7F4FDB01E92FD6
:104A80001D92EA95E9F799831A8391E09E8390EA53
:104A900098879AEF99872091C3023091C402275FCB
:104AA0003F4F3C832B838D831092E9001092C40208
:104AB0001092C302F092C202E092C10249E050E0BB
:104AC00080E00E944E1F0E94D323E2C0F092C202F7
:104AD000E092C1020E94E929DC011296ED90FC905F
:104AE0001397E114F10409F4C0C0D701ED91FC91D2
:104AF0000480F581E02DBE016B5E7F4FC7010995F3
:104B0000009719F00CF0C4C0C7C0F701E084F1842D
:104B1000E8CF973009F4C0C0983021F481E0809349
:104B2000F100B6C0993009F0B3C0837009F0B4C089
:104B3000E7E3F2E081E021E036E39081992361F040
:104B40008093E9002093EB0091919093EC003093D7
:104B5000ED008F5F873089F78EE78093EA0010922F
:104B6000EA008F898093CA0293C08B8D9C8D10922E
:104B7000E9001092C4021092C3029093C202809383
:104B8000C102898D811156C08E899D89913A59F44F
:104B9000813209F081C047E050E063E171E080E0DC
:104BA0000E944E1F75C0913209F076C0833289F49D
:104BB000888D90E0982F88272F89822BA0E0B0E085
:104BC00080930F0190931001A0931101B0931201F3
:104BD0005FC0803269F48091E80082FFFCCF67E01B
:104BE00083E191E00E94751F8BEF8093E80006C07F
:104BF000823209F04DC08F8980931A018091C502DD
:104C0000882319F0EEEFFAE002C0E0E0F8E08091CE
:104C1000130190911401A0911501B0911601803BF0
:104C20009440A105B10509F07BC080911A0180FF75
:104C300093C076C00E94E929DC0112960D911C9167
:104C400013970115110541F1D801ED91FC910190E7
:104C5000F081E02DBE016B5E7F4FC8010995811187
:104C600017C0F80100851185ECCF113009F44EC052
:104C7000133091F48F89882309F445C0823081F480
:104C800040E867E088E19BE20E940524882321F048
:104C90008EEF8093E80079C081E28093EB0075C0CD
:104CA000813029F440E86BE08CE09BE2EDCF83306B
:104CB00099F70E94E929DC011296ED90FC90139778
:104CC0008E010F5F1F4F6801E114F10479F0D701E5
:104CD000ED91FC910680F781E02DB801C70109959F
:104CE000080F111DF701E084F184EECFD8011C926A
:104CF000F60101900020E9F73197BF016C197D0999
:104D000040E0C601C1CF66EF7AE202C06AEF7AE204
:104D10006115710509F2FB01449150E080E840CF34
:104D20000FB6F894A8958091600088618093600028
:104D3000109260000FBEA895EE3F2AE0F20739F00E
:104D40008091FE0A9091FF0A91838083A1CF1092F7
:104D5000FF0A1092FE0A9CCFEE3F8AE0F80731F07E
:104D6000808191819093FF0A8093FE0A87E797E7FD
:104D7000918380839BE088E10FB6F894A895809397
:104D800060000FBE9093600083CF6C960FB6F894CE
:104D9000DEBF0FBECDBFDF91CF91FF91EF91BF91ED
:104DA000AF919F918F917F916F915F914F913F91C3
:104DB0002F911F910F91FF90EF90DF90CF900F9068
:104DC0000FBE0F901F9018959C01215F3F4F2F3809
:104DD000310570F5FC0197FF02C0E0E0F0E040967D
:104DE0008138910514F080E890E08E1BAB0147708C
:104DF000552721E030E001C0220F4A95EAF72095BF
:104E000077FF02C0695F7F4F93E0759567959A952C
:104E1000E1F77695762F662777956795E60FF71F6A
:104E2000EF51FD4F815020F0908192239193FACF62
:104E30000895DF92EF92FF920F931F93CF93DF932A
:104E40007C01D22E8B01040F111DEB0177FF0EC0E8
:104E5000C0E0D0E00BC0C417D5077CF42D2DAE0107
:104E6000B70185EE96E00E94C0212196A801013489
:104E700011058CF340E450E0EECFDF91CF911F910C
:104E80000F91FF90EF90DF900895CF92DF92EF9215
:104E9000FF920F931F93CF93DF936B01122FEC01BF
:104EA0007C01E40EF11CCE15DF0544F4202F412FC8
:104EB000B601CE010E9419272196F5CFDF91CF913F
:104EC0001F910F91FF90EF90DF90CF9008956F9218
:104ED0007F928F929F92AF92BF92CF92DF92EF928A
:104EE000FF920F931F93CF93DF931F92CDB7DEB73F
:104EF00030911B011091DF02612E712CE32FF0E045
:104F0000EE0FFF1F8091E002E80FF11DEE0FFF1F73
:104F1000EE0FFF1FE60DF71DEE0FFF1FE35CFD4FC9
:104F200040815181E12C00E120E167E170E087E3FD
:104F300090E039830E9453203981332309F46DC0F6
:104F4000323031F0333031F0313031F48DE305C09F
:104F50008AE303C081E401C087E3E82EF12C01E07D
:104F600022E041E06BE170E0C7010E944527670144
:104F700022E0C20ED11C22E041E06BE170E0C601EC
:104F80000E9445270E94E51F8090DB029090DC0282
:104F9000A090DD02B090DE0228E8820E23E1921E8E
:104FA000A11CB11C681579058A059B0510F0112319
:104FB00031F080910407811130C0111102C01092AC
:104FC000040722E030E0261937091216130624F4EC
:104FD00082E0B82EB11A03C08EEFB82EB10E00E0F9
:104FE0002B2D41E06BE170E0C7010E9445272B2D7E
:104FF00041E06BE170E0C6010E944527123069F480
:105000000E94E51F6093DB027093DC028093DD0257
:105010009093DE0281E0809304070E94E51FC09018
:10502000CB02D090CC02E090CD02F090CE0226E9E7
:10503000C20ED11CE11CF11C6C157D058E059F056F
:1050400090F00E94E51F6093CB027093CC02809396
:10505000CD029093CE021F5F143018F41093DF023C
:1050600002C01092DF020F90DF91CF911F910F913C
:10507000FF90EF90DF90CF90BF90AF909F908F9078
:105080007F906F9008955F926F927F928F929F9220
:10509000AF92BF92CF92DF92EF92FF920F931F9346
:1050A000CF93DF938C017B01522EC42FD0E081E09F
:1050B00090E05C01AC1ABD0A662477246C1A7D0A64
:1050C000660C771C6FEF70E080E090E00E94821F1A
:1050D00097FD09C0252DA7014C0F5D1FB80185EE76
:1050E00096E00E94C0216FEF70E080E090E00E94A7
:1050F000821F97FD09C0252DA7014C1B5D0BB80130
:1051000085EE96E00E94C0216FEF70E080E090E0B5
:105110000E94821F97FD09C0252DA701B8016C0FC1
:105120007D1F85EE96E00E94C0216FEF70E080E069
:1051300090E00E94821F97FD09C0252DA701B801AC
:105140006C1B7D0B85EE96E00E94C021C12CD12CFA
:1051500088248394912CCC16DD060CF0A9C0B7FCF2
:1051600006C0219782E0680E711CA60CB71C8FEF59
:10517000C81AD80A82E0880E911CA80CB91C6FEFDF
:1051800070E080E090E00E94821F97FD0BC0252D0B
:10519000A7014C0F5D1FB601600F711F85EE96E0F1
:1051A0000E94C0216FEF70E080E090E00E94821FBB
:1051B00097FD0BC0252DA7014C0F5D1FB8016C1981
:1051C0007D0985EE96E00E94C0216FEF70E080E0DF
:1051D00090E00E94821F97FD0BC0252DA7014C1B5C
:1051E0005D0BB601600F711F85EE96E00E94C02135
:1051F0006FEF70E080E090E00E94821F97FD0BC08F
:10520000252DA7014C1B5D0BB8016C197D0985EE9E
:1052100096E00E94C0216FEF70E080E090E00E9475
:10522000821F97FD0BC0252DA6014E0D5F1DB801F5
:105230006C0F7D1F85EE96E00E94C0216FEF70E03D
:1052400080E090E00E94821F97FD0BC0252DA601F3
:105250004E0D5F1DB8016C1B7D0B85EE96E00E9424
:10526000C0216FEF70E080E090E00E94821F97FD08
:105270000BC0252DA7014C195D09B8016C0F7D1FCE
:1052800085EE96E00E94C0216FEF70E080E090E034
:105290000E94821F97FD5FCF252DA7014C195D0944
:1052A000B8016C1B7D0B85EE96E00E94C02153CFA8
:1052B000DF91CF911F910F91FF90EF90DF90CF90F2
:1052C000BF90AF909F908F907F906F905F90089568
:1052D00080E0E1EEF2E081118FEF00248193819371
:1052E000819381930394D1F7E1EEF6E0128A118A5B
:1052F000108A178608950F931F93CF93DF938C0125
:10530000C0E0D0E0F801EC0FFD1F6491662371F05E
:10531000E091E106F091E2060190F081E02D81EE4E
:1053200096E00995892B11F02196ECCFCE01DF9103
:10533000CF911F910F910895CF93DF930E947B2906
:10534000EC0142E050E063EA72E081EE96E00E94F8
:10535000C91E8C0F9D1FDF91CF910895FC01809194
:10536000CA02811103C08FEF9FEF08959FB7F89491
:1053700082E08093E9002091F20030E012161306DB
:1053800014F421E030E02115310559F0289884E625
:105390008093C9028091F10080838091F20088237C
:1053A00019F09FBFC90108958BE68093E800F9CFFB
:1053B0002FB7F89483E08093E9009091E800892F5B
:1053C000807295FF04C09091F20080E4891B2FBF8A
:1053D00008958091FC0681110DC082E08093F8064B
:1053E00084E08093F9061092FB061092FA0681E0A1
:1053F0008093FC0688EF96E008950F931F93CF9358
:10540000DF93EC0181E090E00E94D32D80FF2EC05D
:105410008AE090E00E94D32D9FEF980F9E3F30F5D9
:1054200022E330E0388B2F8728E330E03A8B298B5A
:105430000BE010E0E881F9810190F081E02D682F08
:10544000CE010995C8010E94D32D0F5F1F4F013176
:10545000110581F7CE0104960E94432088EE93E067
:10546000DF91CF911F910F910C94E01FDF91CF91AD
:105470001F910F91089504970C94FD29CF93DF930A
:105480001F92CDB7DEB7789484B5826084BD84B5B1
:10549000816084BD85B5826085BD85B5816085BD2F
:1054A00080916E00816080936E00109281008091E7
:1054B000810082608093810080918100816080936F
:1054C00081008091800081608093800080919100B4
:1054D000826080939100809191008160809391001F
:1054E000809190008160809390008091C1008460E1
:1054F0008093C1008091C10082608093C10080913F
:10550000C10081608093C1008091C300816080935D
:10551000C3008091C00082608093C0008091C2006F
:1055200081608093C20080917A00846080937A00C9
:1055300080917A00826080937A0080917A00816005
:1055400080937A0080917A00806880937A0010922C
:10555000CA021092C6021092C7028091D7008160E1
:105560008093D70080EA8093D80089B5806189BD97
:1055700089B5826089BD09B400FEFDCF61E070E0AD
:1055800080E090E00E94A61F8091D8008F7C80610F
:105590008093D8008091E000807F8093E00080912C
:1055A000E1008E7E8093E1008DE08093E200559AC9
:1055B000209AEEEFFFE7859194918B3F9C4D19F473
:1055C00081E08093C50281EC80937C0085B1806F7F
:1055D00085B984B1877E84B984B1876E84B95E9AB7
:1055E0005F988AB1806D8AB9769A6E9881B3806F20
:1055F00081BB899880B38D7080BB80E58CBD81E0D4
:105600008DBD85E090E00E94E01F5F9A85E090E00C
:105610000E94E01F5E985C98E7E4FAE28DE08E0F4E
:1056200094919EBD00000DB407FEFDCF31968E1300
:10563000F7CF5C9A81E88093640080916500816077
:10564000809365001092F40681E08093F5065C98E3
:1056500086EA8EBD00000DB407FEFDCF5C9A8091F6
:1056600004018093B1020E94521D38EAC32E3AE22F
:10567000D32E49EAA42E4AE2B42E5AEA852E5AE2E3
:10568000952E60E0662E60E0762E73E0272E1BE0FC
:1056900024E0322E0E94991B00910D01043080F409
:1056A0008091BE0281110CC00E94E51A81E08093B6
:1056B000E002023031F1033061F1013099F419C098
:1056C0001092E0020230E9F028F4002359F0013092
:1056D00081F039C00330E9F00530A9F581E00E947E
:1056E000F21B1EC08091BE02811128C010921B01C6
:1056F00025C08091BE02811121C091E090931B01D1
:105700001DC08091BE02811119C0E2E0E0931B012F
:1057100015C08091BE02811111C020921B010EC0E4
:1057200080910D01853051F40E94991B80E00E9408
:10573000AB1C85EE96E00E944320F2CF8091E00200
:1057400081110E94E51A8091B0028823F1F0209126
:105750000001309101018091AE029091AF02820F61
:10576000931F9093010180930001209102013091D9
:1057700003018091AC029091AD02820F931F909330
:105780000301809302011092B0028091BC028F5FEE
:10579000853018F48093BC0202C01092BC02809144
:1057A0000C0181508A3008F0D2C08091B1028B3058
:1057B00069F50E94341D0E94682901E020E440E858
:1057C00060E070E080E090E00E944527E12C00E17D
:1057D00020E149E65AE267E070E087E390E00E944A
:1057E000532084E090E09093F1068093F00687E2E6
:1057F00090E09093F3068093F20684E59AE20E948B
:105800007B2985EE96E00E944320FFCF833009F08C
:105810004DC08091000190910101C097409708F020
:1058200045C08091020190910301805891094097F1
:10583000E8F58091BB02811130C0E12CF12C60E0D1
:10584000C7010E942A19FFEFEF1AFF0AE11424E0B2
:10585000F206A9F70E947A1962E085E090E00E94C2
:105860002A1960EA70E086E00E94481960E270E060
:1058700088E00E9448196BE08AE090E00E942A19B3
:1058800062E080E092E00E942A1962E081E092E00A
:105890000E942A1981E08093BB0280910C0189301B
:1058A00018F03092B10202C01093B10280E092E091
:1058B0000E944619682F81E092E069830E94461990
:1058C0006981681721F081E092E00E942A190E9404
:1058D000521D80910E01882309F486C091E09093B7
:1058E000BE020E94991B80910D01813059F018F081
:1058F000843081F041C08091BD02882309F43CC00E
:10590000815005C08091BD028230B0F58F5F8093D9
:10591000BD0232C08091BD028130C9F060F082309A
:1059200059F58AEAE82E8AE2F82E92E2492E92E0B0
:10593000592E90E00EC0E12CF12CC7010E944619AF
:10594000F701E757F54DE4918E1709F461C00E9405
:10595000A519F7012491F201419151912F0100E025
:10596000692F80E099830E94381AFFEFEF1AFF0A2F
:105970009981985F903469F701E028E247E26FE08F
:1059800070E084E590E00E94452702E027E330E0E4
:105990004BE750E06FE070E084E590E00E94461C29
:1059A000F601249100E04FE254E263E188E50E94B1
:1059B000381AF50124914AE254E26DE188E50E942B
:1059C000381AF401249147E254E267E288E50E9424
:1059D000381A6091BD02660F862F880F880F680FF6
:1059E0006D5E80E50E94221A8091BF029091C002F4
:1059F00001969093C0028093BF0285EE96E00E94CC
:105A000043206114710409F445CE0E9400003FCE8A
:105A1000FFEFEF1AFF0A25E0E216F10409F08DCF3F
:105A200080E092E00E944619082F81E092E00E94F7
:105A3000461908138CCFE12CF12CC7010E9446199E
:105A4000E5E0EE16F10411F480930C01FFEFEF1A7C
:105A5000FF0AE11424E0F20681F786E00E94601953
:105A6000909301018093000188E00E946019909357
:105A70000301809302018AE090E00E94461980931E
:105A8000B10210920E011092BE0276CFE5E0F7E06F
:105A90001382128288EE93E0A0E0B0E084839583C5
:105AA000A683B78381E892E0918380838FEF9FEF95
:105AB00095878487E1EEF6E01382128211861286C2
:105AC00080E1838710861782158683E992E09183AF
:105AD000808381EA92E095838483108A1786128AF4
:105AE000118A81E0838B148A858B168A08958F92A0
:105AF0009F92AF92BF92CF92DF92EF92FF92CF939D
:105B0000DF93EC01688179818A819B816115710540
:105B10008105910521F464E279ED8BE597E02DE1B3
:105B200033EF41E050E00E94E92D49015A019B0109
:105B3000AC01A7EAB1E40E94082E6B017C01ACEE37
:105B4000B4EFA50194010E94162EDC01CB018C0D4F
:105B50009D1DAE1DBF1DB7FF03C00197A109B04831
:105B600088839983AA83BB83BC01CD019F77DF9192
:105B7000CF91FF90EF90DF90CF90BF90AF909F902C
:105B80008F9008950E94772D08958CE191E00E94F6
:105B9000772D089560931C0170931D0180931E0161
:105BA00090931F010895F999FECF92BD81BDF89A97
:105BB000992780B50895262FF999FECF1FBA92BD77
:105BC00081BD20BD0FB6F894FA9AF99A0FBE0196DE
:105BD0000895052E97FB1EF400940E94002E57FD99
:105BE00007D00E941B2E07FC03D04EF40C94002E0D
:105BF00050954095309521953F4F4F4F5F4F0895F9
:105C000090958095709561957F4F8F4F9F4F089528
:105C10000E943D2EA59F900DB49F900DA49F800DD6
:105C2000911D11240895B7FF0C94082E0E94082E90
:105C3000821B930B0895A1E21A2EAA1BBB1BFD0128
:105C40000DC0AA1FBB1FEE1FFF1FA217B307E4075B
:105C5000F50720F0A21BB30BE40BF50B661F771FB3
:105C6000881F991F1A9469F7609570958095909593
:105C70009B01AC01BD01CF010895A29FB001B39F6C
:105C8000C001A39F700D811D1124911DB29F700D45
:105C9000811D1124911D0895EE0FFF1F0590F491B1
:105CA000E02D099481E090E0F8940C94572EF8943C
:025CB000FFCF24
:105CB20070009800000000000000000001FF01FFDA
:105CC200FFFFFF00E10000000000000101000000F2
:105CD20034012C0124011C0114010C010401FC00FB
:105CE200F400EC00E400DC00D400CC00C400BC00F2
:105CF200B400AC001C08FC07DC07BC079C077C074F
:105D02005C073C071C07FC06DC06BC069C067C06FE
:105D12005C06FC063C061C06FC05DC05BC059C0575
:105D22007C055C053C051C05FC041C08DC04BC0469
:105D32009C047C045C043C041C04FC03692ADC0310
:105D4200BC039C037C035C033C031C03FC021C0895
:105D5200DC02BC029C027C021C08FC045C023C02C9
:105D62001C02FC01DC01BC019C017C015C013C01C8
:105D72000205090A0B0C0D0E14151618191A1B1C14
:105D82001D1E1F2122232427282B2C2E2F30313297
:105D9200333435363738393A3B3D3A252B251D25E4
:105DA20011250525FF24F724ED24DE24CE24C52465
:105DB200B924AD24A7249B2492248B247B2475240C
:105DC200722465245B24552448243B2434242F2444
:105DD2002A2427241B240C24FD23EF23E223D62389
:105DE200C023B123892A00C18081000000802D6078
:105DF2002D402D602D202D602D002D602DE02CC01A
:105E02002CA02CC02C802CC02C602CC02C402C2010
:105E12002C002C202CE02B202CC02B202CA02B8003
:105E22002B602B802B402B802B202B802B00000003
:105E320000CD2208238D23E322EE22B523912300F5
:105E4200000000DE21C91E1B1F1A1FFD29FCFF00D6
:065E5200003B2A0D0A00CE
:00000001FF
